:020000040800F2
:1080000000C00020B91E0108011F0108011F01085E
:10801000011F0108011F0108011F010800000000E5
:10802000000000000000000000000000011F010827
:10803000011F010800000000011F0108FBE9000802
:10804000011F0108011F0108011F0108011F01088C
:10805000011F0108011F0108EDEA0008F3EA00080A
:10806000F9EA0008FFEA000805EB0008011F010813
:10807000011F0108011F0108011F0108011F01085C
:10808000011F0108011F0108011F0108750F0108E8
:10809000690F0108011F0108011F01080BEB00080F
:1080A000011F010865DC0008011F010879DC0008D8
:1080B0007DDC000891DC0008A5DC0008011F010838
:1080C000011F0108011F0108011F0108011F01080C
:1080D000011F010895F80008ADF80008C9F800086C
:1080E00033EB0008011F0108790F0108011F010887
:1080F000F5DC0008011F010809DD0008011F010867
:10810000011F0108011F0108B9DC0008011F010857
:10811000E5F80008FDF80008CDDC0008E1DC000807
:10812000011F0108011F0108011F0108011F0108AB
:10813000000000000000000000000000000000003F
:10814000000000000000000000000000000000002F
:10815000000000000000000000000000000000001F
:10816000000000000000000000000000000000000F
:1081700000000000000000000000000000000000FF
:1081800000000000000000000000000000000000EF
:1081900000000000000000000000000000000000DF
:1081A00000000000000000000000000000000000CF
:1081B00000000000000000000000000000000000BF
:1081C00000000000000000000000000000000000AF
:1081D000000000000000000000000000000000009F
:0481E0005FF8E0F173
:1081E80010F8012B11F8013B012A28BF9A42F7D059
:1081F800D01A7047034613F8012B002AFBD1181A2E
:108208000138704781F0004102E000BF83F000436D
:1082180030B54FEA41044FEA430594EA050F08BF19
:1082280090EA020F1FBF54EA000C55EA020C7FEADD
:10823800645C7FEA655C00F0E2804FEA5454D4EB5A
:108248005555B8BF6D420CDD2C4480EA020281EA24
:10825800030382EA000083EA010180EA020281EA5C
:108268000303362D88BF30BD11F0004F4FEA0131AE
:108278004FF4801C4CEA113102D0404261EB4101BD
:1082880013F0004F4FEA03334CEA133302D0524243
:1082980063EB430394EA050F00F0A780A4F10104FF
:1082A800D5F1200E0DDB02FA0EFC22FA05F2801839
:1082B80041F1000103FA0EF2801843FA05F359411F
:1082C8000EE0A5F120050EF1200E012A03FA0EFC9E
:1082D80028BF4CF0020C43FA05F3C01851EBE371C8
:1082E80001F0004507D54FF0000EDCF1000C7EEBE5
:1082F80000006EEB0101B1F5801F1BD3B1F5001F23
:108308000CD349085FEA30004FEA3C0C04F1010441
:108318004FEA445212F5800F80F09A80BCF1004F6A
:1083280008BF5FEA500C50F1000041EB045141EAEC
:10833800050130BD5FEA4C0C404141EB0101013CB5
:1083480028BFB1F5801FE9D291F0000F04BF0146A4
:108358000020B1FA81F308BF2033A3F10B03B3F176
:1083680020020CDA0C3208DD02F1140CC2F10C0206
:1083780001FA0CF021FA02F10CE002F11402D8BF64
:10838800C2F1200C01FA02F120FA0CFCDCBF41EA30
:108398000C019040E41AA2BF01EB0451294330BDFF
:1083A8006FEA04041F3C1CDA0C340EDC04F11404DC
:1083B800C4F1200220FA04F001FA02F340EA0300B3
:1083C80021FA04F345EA030130BDC4F10C04C4F1F9
:1083D800200220FA02F001FA04F340EA03002946D9
:1083E80030BD21FA04F0294630BD94F0000F83F423
:1083F800801306BF81F480110134013D4EE77FEA06
:10840800645C18BF7FEA655C29D094EA050F08BF51
:1084180090EA020F05D054EA000C04BF1946104632
:1084280030BD91EA030F1EBF0021002030BD5FEA76
:10843800545C05D14000494128BF41F0004130BD9E
:1084480014F580043CBF01F5801130BD01F00045F2
:1084580045F0FE4141F470014FF0000030BD7FEA65
:10846800645C1ABF194610467FEA655C1CBF0B4660
:10847800024650EA013406BF52EA033591EA030F77
:1084880041F4002130BD00BF90F0000F04BF00216F
:10849800704730B54FF4806404F132044FF00005A2
:1084A8004FF0000150E700BF90F0000F04BF00211B
:1084B800704730B54FF4806404F1320410F0004581
:1084C80048BF40424FF000013EE700BF42004FEA7C
:1084D800E2014FEA31014FEA02701FBF12F07F43F9
:1084E80093F07F4F81F06051704732F07F4208BFB0
:1084F800704793F07F4F04BF41F40021704730B5B7
:108508004FF4607401F0004521F000411CE700BF02
:1085180050EA010208BF704730B54FF000050AE085
:1085280050EA010208BF704730B511F0004502D586
:10853800404261EB41014FF4806404F132045FEA88
:10854800915C3FF4D8AE4FF003025FEADC0C18BF31
:1085580003325FEADC0C18BF033202EBDC02C2F123
:10856800200300FA03FC20FA02F001FA03FE40EAB5
:108578000E0021FA02F11444BDE600BF70B54FF0B9
:10858800FF0C4CF4E06C1CEA11541DBF1CEA135597
:1085980094EA0C0F95EA0C0F00F0DEF82C4481EAFF
:1085A800030621EA4C5123EA4C5350EA013518BF1F
:1085B80052EA033541F4801143F4801338D0A0FB0C
:1085C80002CE4FF00005E1FB02E506F00042E0FBB9
:1085D80003E54FF00006E1FB03569CF0000F18BFBF
:1085E8004EF0010EA4F1FF04B6F5007F64F5407467
:1085F80004D25FEA4E0E6D4146EB060642EAC621FA
:1086080041EA55514FEAC52040EA5E504FEACE2E66
:10861800B4F1FD0C88BFBCF5E06F1ED8BEF1004F69
:1086280008BF5FEA500E50F1000041EB045170BDE5
:1086380006F0004646EA010140EA020081EA030129
:10864800B4EB5C04C2BFD4EB0C0541EA045170BD25
:1086580041F480114FF0000E013C00F3AB8014F19F
:10866800360FDEBF002001F0004170BDC4F10004E8
:10867800203C35DA0C341BDC04F11404C4F1200569
:1086880000FA05F320FA04F001FA05F240EA0200C4
:1086980001F0004221F0004110EBD37021FA04F6FA
:1086A80042EB06015EEA430E08BF20EAD37070BDB4
:1086B800C4F10C04C4F1200500FA04F320FA05F013
:1086C80001FA04F240EA020001F0004110EBD37015
:1086D80041F100015EEA430E08BF20EAD37070BD85
:1086E800C4F1200500FA05F24EEA020E20FA04F35E
:1086F80001FA05F243EA020321FA04F001F000410D
:1087080021FA04F220EA020000EBD3705EEA430E7D
:1087180008BF20EAD37070BD94F0000F0FD101F0AC
:108728000046400041EB010111F4801F08BF013CE5
:10873800F7D041EA060195F0000F18BF704703F023
:108748000046520043EB030313F4801F08BF013DAA
:10875800F7D043EA0603704794EA0C0F0CEA135566
:1087680018BF95EA0C0F0CD050EA410618BF52EA20
:108778004306D1D181EA030101F000414FF0000026
:1087880070BD50EA410606BF1046194652EA430634
:1087980019D094EA0C0F02D150EA013613D195EAA8
:1087A8000C0F05D152EA03361CBF104619460AD1F0
:1087B80081EA030101F0004141F0FE4141F47001FA
:1087C8004FF0000070BD41F0FE4141F4780170BDEA
:1087D80070B54FF0FF0C4CF4E06C1CEA11541DBF4F
:1087E8001CEA135594EA0C0F95EA0C0F00F0A7F851
:1087F800A4EB050481EA030E52EA03354FEA01317E
:1088080000F088804FEA03334FF0805545EA131390
:1088180043EA12634FEA022245EA111545EA106558
:108828004FEA00260EF000419D4208BF964244F1EF
:10883800FD0404F5407402D25B084FEA3202B61A0E
:1088480065EB03055B084FEA32024FF480104FF4E2
:10885800002CB6EB020E75EB030E22BFB61A754656
:1088680040EA0C005B084FEA3202B6EB020E75EBE9
:10887800030E22BFB61A754640EA5C005B084FEA51
:108888003202B6EB020E75EB030E22BFB61A75461E
:1088980040EA9C005B084FEA3202B6EB020E75EB29
:1088A800030E22BFB61A754640EADC0055EA060EEA
:1088B80018D04FEA051545EA16754FEA06164FEA2D
:1088C800C30343EA52734FEAC2025FEA1C1CC0D1D9
:1088D80011F4801F0BD141EA00014FF000004FF066
:1088E800004CB6E711F4801F04BF01430020B4F127
:1088F800FD0C88BFBCF5E06F3FF6AFAEB5EB030CDF
:1089080004BFB6EB020C5FEA500C50F1000041EBDB
:10891800045170BD0EF0004E4EEA113114EB5C04A8
:10892800C2BFD4EB0C0541EA045170BD41F480117B
:108938004FF0000E013C90E645EA060E8DE60CEA83
:10894800135594EA0C0F08BF95EA0C0F3FF43BAFA0
:1089580094EA0C0F0AD150EA01347FF434AF95EA57
:108968000C0F7FF425AF104619462CE795EA0C0F3B
:1089780006D152EA03353FF4FDAE1046194622E708
:1089880050EA410618BF52EA43067FF4C5AE50EAE2
:1089980041047FF40DAF52EA43057FF4EBAE12E7D2
:1089A8004FF0FF3C06E000BF4FF0010C02E000BFB3
:1089B8004FF0010C4DF804CD4FEA410C7FEA6C5C96
:1089C8004FEA430C18BF7FEA6C5C1BD001B050EA39
:1089D800410C0CBF52EA430C91EA030F02BF90EA24
:1089E800020F0020704710F1000F91EA030F58BFE3
:1089F800994208BF90422CBFD8176FEAE37040F045
:108A0800010070474FEA410C7FEA6C5C02D150EAE2
:108A1800013C07D14FEA430C7FEA6C5CD6D152EA9D
:108A2800033CD3D05DF8040B704700BF8446104662
:108A380062468C461946634600E000BF01B5FFF761
:108A4800B7FF002848BF10F1000F01BD4DF808ED31
:108A5800FFF7F4FF0CBF012000205DF808FB00BF02
:108A68004DF808EDFFF7EAFF34BF012000205DF85C
:108A780008FB00BF4DF808EDFFF7E0FF94BF0120A9
:108A880000205DF808FB00BF4DF808EDFFF7CEFFAA
:108A980094BF012000205DF808FB00BF4DF808EDE9
:108AA800FFF7C4FF34BF012000205DF808FB00BFBA
:108AB8004A0011D212F5001211D20DD56FF4787355
:108AC800B3EB62520ED44FEAC12343F0004343EAAA
:108AD800505323FA02F070474FF00000704750EAF5
:108AE800013002D14FF0FF3070474FF0000070475F
:108AF80053B94AB9002908BF00281CBF4FF0FF31FD
:108B08004FF0FF3000F00CB8ADF1080C6DE904CE61
:108B180009F0CAFDDDF804E0DDE9022304B070477E
:108B2800704700BF10B5054C237833B9044B13B117
:108B38000448AFF300800123237010BD3C020020DD
:108B480000000000AC29010808B5034B1BB103491C
:108B58000348AFF3008008BD000000004002002079
:108B6800AC2901081A4BDA68D207FCD41A69120634
:108B780041BF184A5A6002F188325A601A6942F0B5
:108B880002021A6158611A6942F040021A61104BD8
:108B9800DA68D207FCD41A6922F002021A611A694B
:108BA80042F001021A618BB20380094BDA68D207DE
:108BB800FCD4090C4180DA68D207FCD41A6922F087
:108BC80001021A611A6942F080021A61704700BFF7
:108BD800002002402301674508B50F4904460F48A5
:108BE80008F06CFE4FF4FA7009F06CFA0B4806F0C6
:108BF80061FF72B60A482146FFF7B4FFBFF34F8FF3
:108C08000849094BCA6802F4E0621343CB60BFF31A
:108C18004F8F00BFFDE700BF3B2A010888550020A1
:108C280000F8030800ED00E00400FA0508B50D4A55
:108C38000D4B9A6062B601212D2009F05FF94FF4BF
:108C4800E1310A4806F034FF4FF4FA6009F03AFAC5
:108C58000749064808F032FEBDE80840054800F01C
:108C6800D4B800BF0080000800ED00E0885500205F
:108C7800512A01085C02002010B509F021FA094CBC
:108C88002368C01AC8280BD92D2009F0DBF9B0FADF
:108C980080F12D20490909F09BF909F011FA2060AB
:108CA80010BD00BF58020020002307B51A46194618
:108CB8000093044808F0BEFD034803B05DF804EBD8
:108CC80000F044B8A05100205C020020014800F0E8
:108CD8009BB800BF5C0200201FB5174800F03AF9A6
:108CE800FFF7CAFF154806F06DFE00280ADD144993
:108CF80001A808F041FF114806F064FE20B901A858
:108D080008F0F8FE04B010BD0C4806F061FEC4B2CD
:108D1800214601A808F09DFF0A2CECD101A90748BB
:108D280008F0C2FD074901A808F0E2FF0028E2D0D8
:108D38004FF02230FFF750FF5C02002088550020DA
:108D4800DB2A0108772A01087047000070B5002661
:108D580000F5805300F58044C3F8006B00F54053DC
:108D68000546C3E9CA666C221E4904F6386009F054
:108D7800F1FB3146A02204F6A46009F06AFB1A4B05
:108D88004FF07E52C4F8A83E184BC4F8B42EC4F86D
:108D9800AC3E41F20C03A4F8BC3E4FF08143C4F84A
:108DA800C03E4FF08243C4F8DC2E41F6140210494D
:108DB800C4F8C43E0F4BC4F8D01EA4F8E42E0E49E4
:108DC8000E4AC4F8C83EC4F8F03E0D4B2846C4F815
:108DD800D41EC4F8EC2E0B491D6001F00BF928468F
:108DE80070BD00BFC82901087E2A0108F6010500E8
:108DF800812A0108000080BFF70105000000F0414A
:108E0800CC510020518D0008704701F0ABB800002C
:108E180070B5044601F0C0F8064604F59C4538359F
:108E280028460D495EB100F0DEF818B128460B4916
:108E380000F0CFF8204601F0D7F8304670BD00F0BA
:108E4800D2F818B92846044900F0C3F8012304F5FC
:108E5800804484F8363EF0E7862A0108892A01080A
:108E680010B5104C23689BB90F49104808F003FD52
:108E78000F490E4808F022FD0E490C4808F0FBFC8B
:108E88000D490A4808F01AFD09F01AF9206010BDCA
:108E980009F016F92368C01A41F288339842E3D8DA
:108EA800F5E700BFA8510020932A01088855002043
:108EB8009E2A0108AE2A01084C2B010800F58043C0
:108EC80093F8363E2BB100F59C400249383000F04B
:108ED80080B87047BA2A010838B50446194803789B
:108EE8001BB92022184900F065F804F59C4538356F
:108EF8002846144900F077F870B92946114800F05F
:108F080068F804F54C502946383000F08DFE0146CB
:108F180010B1204601F0BCF828460C4900F063F86F
:108F280020B12046BDE83840FFF79ABF28460849D7
:108F380000F059F820B12046BDE83840FFF7BEBF21
:108F480038BD00BFAC510020862A0108BA2A0108A2
:108F5800892A010810B5044600F59C4007493830B5
:108F680000F041F840B92046FFF752FF20B12046F3
:108F7800BDE81040FFF7B0BF10BD00BFC22A01080E
:108F8800002307B519461A460093074808F052FC13
:108F9800CB21064802F034FE0449054803B05DF8C9
:108FA80004EB02F071BE00BF04520020F051002013
:108FB800D051002038B51546044608B109B90170EA
:108FC80038BD013A09F04DFA00232C4404F8013C5D
:108FD800F6E710B5044628B121B1132209F041FA89
:108FE8000023E37410BD08B528B129B1FFF7F8F8DC
:108FF800B0FA80F0400908BD0846FCE7084609F0C9
:1090080097B80846114609F049B9084609F088B8E2
:109018004FF6FF7399421FBFCB0900EBC3004068AE
:1090280001F07F0114BF00EBC1000020704770B54C
:1090380040B14A68C38893420BD10A68C41D1344DF
:109048009A4200D170BD12F8015B14F8016FAE426C
:10905800F6D00068ECE710B50446B4F5803F084642
:1090680009D20B6804F109011B68984710B1012364
:10907800C480838010BD0020FCE702460B680846C8
:109088005B681146184738B50B790446042B0D4622
:109098000AD0052B13D0022B17D10846FFF7AAF8E0
:1090A800C4E90050002307E00D6828460DB1FFF71A
:1090B800A1F80123C4E900502372204638BD0B688B
:1090C800DA880833C0E90032ECE70023C0E900334E
:1090D80001238360F1E72DE9FF4117460C4671B380
:1090E800DE6A01883046FFF793FF014638B34FF038
:1090F8000108C588B8F1000F17D001A8FFF7C3FF12
:10910800029A974211D1002301999A4206D1294621
:10911800304604B0BDE8F041FFF77ABF14F803C049
:10912800C85C844501D10133EFE729463046FFF793
:109138006FFF014618B1C58888F00108DAE70020FA
:1091480004B0BDE8F08100002DE9F74F9DF93050DB
:109158009B4692462C4601270A23019014B15F438F
:10916800013CFBE750465CA3D3E900235946FFF7CF
:109178008BFC002872D04FF48076DFF86C81DFF822
:109188006C91524678E902015B46FFF773FC48B1DF
:10919800D9E9102350465946FFF7F0F982468B4625
:1091A800344424B2524B76104345A9F10809E8D15A
:1091B8004FF0FF380022002350465946FFF76EFC57
:1091C80070B147A3D3E9002350465946FFF752FC34
:1091D80030B1464B03EBC8094FFA88F3013342D14B
:1091E80050465946FFF764FC0A2206460346092BF7
:1091F80055D83046FFF748F902460B4650465946BF
:10920800FFF704F8804638468946FFF73DF90246DD
:109218000B4640464946FFF7B1F989468046FFF7B5
:1092280047FC8346FFF730F902460B46404649465D
:10923800FEF7ECFF02460B46FEF7EAFFFFF738FCA5
:109248005844874208D80136002C42D0092E40D90C
:1092580000200126013424B20A222AE04FF4807645
:109268004FF00808A6E7002279E80201214BFFF732
:1092780085F952465B46FFF711FC60B11C4B50461E
:1092880003EBC8035946D3E90023FFF777F9824671
:109298008B46A41B24B2761008F1FF389CE7013DE9
:1092A800B7FBF2F7B3FBF2F36DB2A0E71846013D46
:1092B8006DB2B0FBF2F302FB130109B9002DF5DC26
:1092C800019BC3E9006018461C819D7203B0BDE88C
:1092D800F08F0020C0E700BF00000000D0126341FB
:1092E800F168E388B5F8E43E60300108D02F010842
:1092F80018300108000024402DE9F8430379054699
:10930800DA070C4610D500220368886860B18342EA
:1093180025D183882168013B9BB2838023B90368E8
:10932800DAB11360FFF7A9FE2A79D30607D52E888C
:10933800E06A3146FFF76CFEA38E0380A68612F022
:10934800600F06D04FF6FF782E8846450AD12E804A
:109358006E8000232B71BDE8F883A360E2E7024624
:109368000068D3E73146E06AFFF752FE0746214618
:10937800B0F80690FFF7C0FFA38E3B80A6864E4646
:10938800E3E72DE9F047002604460D46B046A28CD7
:10939800B3B29A42276A10D80023A3844FF6FF730A
:1093A800BC42238507D02B6839465B682846984716
:1093B80004232462E384BDE8F0871FFA86FA07EBEA
:1093C800CA09D9F8041019B12B6828465B68984770
:1093D80047F83A800136C9F80480D8E738B504461A
:1093E8000568A06830B9204650F80C1BFFF7C9FF84
:1093F800204638BD03682946A360FFF73EFEF0E724
:10940800022310B5037100230A79DCB2A24202D804
:109418000023835410BD0C68E45CC4540133F4E7A2
:109428008B8C30B5013B0D6A9BB205EBC3046168B8
:1094380069B1628835F83350954208D9551C01EB5B
:10944800C20102EBC31265800160828030BD002337
:1094580003604FF6FF738380F8E74FF6FF732DE93B
:10946800F34717460A8D05469A420C460BD011461B
:10947800206AFFF7CDFD038828602385AA80284647
:1094880002B0BDE8F0878B8C53B16846FFF7C8FF80
:10949800009B6E4623B1DDE9000185E80300EEE795
:1094A800E28CA38C93421CD1B3F5007F43D05B00C0
:1094B8009EB2236A3968A3424FEAC60234D10B68C8
:1094C800384611469847002835D02346024604F10D
:1094D800200153F804CB8B4242F804CBF9D1206227
:1094E800E684B4F82480384608F101039BB2B3F54A
:1094F800007F0CBF7F268026A3843B68F1001B6891
:10950800D4F820909847002808BF0026002309EBCC
:10951800C80ACAF80400214629F838602846AAF87B
:109528000230FFF77DFFAAE7D1F8088038461946D0
:10953800C0470028D3D100232B604FF6FF73AB80C0
:109548009DE7000037B50D46044651F80C2B6846D8
:10955800FFF783FF009B43B9012223604FF6FF7397
:109568002A71A380204603B030BD034A23605A60A5
:10957800BDF80420A280F5E70000FFFF2DE9F041C7
:109588008AB0054601A80C4680E80E00109F002905
:109598004BD09DF80C3033B1042329602B71012086
:1095A8000AB0BDE8F081029E032E11D80A46711850
:1095B8008A4205D163B901462846FFF721FFEEE745
:1095C80012F801CBBCF1000F08BF43F00103EFE72D
:1095D8000DF11C0C04AB07C883E807008CE80700F2
:1095E8006146B868D7F80080FFF721FD30B183885D
:1095F80001338380052328602B71D0E7414630462C
:10960800FFF729FD78B1C31DA219944206D10023A2
:1096180006443372BB680360B860EBE714F8011BBB
:1096280003F8011FF1E701233B710020B8E770B58B
:1096380086B003AC054684E80E000A9E40B1314668
:10964800FFF75AFE0096284694E80E00FFF796FFAB
:1096580006B070BD2DE9F04391B0044603A80D464D
:1096680080E80E00DDF86080002940D02379002BC7
:1096780041D14FF0FF332360202323710AAF07C87D
:10968800434687E8070029462046049AFFF723FD4A
:10969800054660BB97E807000DAE86E8070041461F
:1096A80006A8FFF74FFF069F0FB3414608A8FFF72C
:1096B80049FFDDF82090B9F1000F18D0CDF80080EF
:1096C800384696E80E00FFF759FF80B14FF6FF7352
:1096D800BDF82420BDF81C50FA80618899420ED04C
:1096E800D8F82C00FFF794FCC5804D4662802846C8
:1096F80011B0BDE8F083202BC0D00025F7E7258006
:10970800F3E713B550F8044B009490E80E0004F109
:109718003800FFF79FFF02B010BD70B586B006464F
:109728000C46FFF7EEFF3668054620460CB1FEF7FB
:1097380061FD0023CDE903408DF81430009606AB97
:10974800284613E90E00FFF772FF06B070BD30B56A
:1097580087B00C460546FFF7D4FF2C22049201225D
:109768002B68039400938DF8142006AB13E90E00C0
:10977800FFF75DFF07B030BD30B587B00C46054632
:10978800FFF7BFFF0322049201222B680394009382
:109798008DF8142006AB13E90E00FFF748FF07B059
:1097A80030BD30B587B00C460546FFF7AAFF0C223E
:1097B800049201222B68039400938DF8142006ABC1
:1097C80013E90E00FFF733FF07B030BD70B54468EA
:1097D8000A44D0E90053AB4204D382681B1B1A44E5
:1097E800826070BD9142F8D011F8015B5E1C466042
:1097F8001D70EEE738B5054608460C46FEF7FAFC3C
:10980800214602462846FFF7E1FF38BD2DE9F04121
:1098180086B00DF11604074616461D46A04630468A
:1098280029460A220023FFF763F9303204F8012D94
:1098380032462B460A2A73F1000306460D46EED23D
:1098480021463846A8EB0402FFF7C0FF06B0BDE882
:10985800F081D0E9002393423BBF5A1C42600022AA
:10986800012238BF19708368134483607047000071
:10987800F8B50D46164622210446FFF7EAFF2E44A6
:10988800B54204D122212046FFF7E3FFF8BD15F8C1
:10989800011B0B4B1F7967B15A7902338A42F9D100
:1098A8005C212046FFF7D5FF39462046FFF7D1FF58
:1098B800E6E70029F9D120460249FFF79BFFDFE7D9
:1098C800C92A0108DC2A010870B51D1E064614467F
:1098D80005DA2D21FFF7BDFF644265EB45052246F9
:1098E8002B463046FFF792FF70BD0000F0B51946D1
:1098F80006468DB0104614461D46FFF7A7F828B94E
:1099080030464549FFF776FF0DB0F0BD0022002331
:1099180020462946FFF79AF868B922462B46204682
:109928002946FEF775FC02460B4620462946FFF7F6
:109938008DF80028E4D10022002320462946FFF7AD
:109948008FF830B12D213046FFF783FF05F1004332
:109958001D469DF948302246009303A82B46FFF781
:10996800F3FB0DF12E010D464FF00A0CBDF91470F2
:109978009DF91640039BB3FBFCF00CFB1032303210
:1099880001F8012D1A46092A0346F4D830466A1A06
:10999800FFF71CFFACB10AAA104621464FF00A0C8B
:1099A800049B013949B2B1F1FF3F2BD12E23E4B218
:1099B800511E091B141B304604F8013C521AFFF7CC
:1099C80005FF002FA0D065213046FFF742FF002F8A
:1099D800BCB205DA2D213046FFF73BFF6442A4B242
:1099E80029460A20B4FBF0F200FB1243303301F899
:1099F800013D2346092B94B2F4D830466A1AFFF782
:109A0800E5FE81E7B3FBFCFE0CFB1E33303300F8A8
:109A1800013D7346C5E700BFE32A0108F7B506799B
:109A2800054616F010000C4607D02988D06AFFF7C3
:109A3800EFFA202E05D96949CAE0202E46D8012E12
:109A4800F9D9023E1E2EF6D801A353F826F000BF1E
:109A5800839B0008A19B00087F9B0008999B000836
:109A6800D39B00083F9A00083F9A00083F9A0008D5
:109A7800BB9B00083F9A0008AF9B00083F9A00086C
:109A88000D9B00083F9A00083F9A00083F9A00087B
:109A98003F9A00083F9A00083F9A00083F9A00083A
:109AA8003F9A00083F9A00083F9A00083F9A00082A
:109AB800CD9B00083F9A0008C79B00083F9A000802
:109AC800279B00083F9A00083B9B0008402EB2D114
:109AD8004FF6FF765B212046FFF7BBFE2D88B54287
:109AE8000BD0E2682946D06AFFF792FA054621466C
:109AF800FFF794FFED88B54216D15D212046FFF7A8
:109B0800A8FE09E02868FEF7E1FC0B46062102469C
:109B180000912046FFF7EAFEA06803B0F0BD0923D4
:109B28000093D0E90023F4E72C212046FFF791FEAB
:109B3800D7E74FF6FF777B212046FFF78AFE2D886F
:109B4800BD4216D00126E2682946D06AFFF760FABE
:109B580005462146FFF762FFED88BD4209D0002E79
:109B68000CBF2C213A212046FFF773FE86F0010630
:109B7800E9E77D21C2E72D6845B12846FEF73AFBA3
:109B8800024629462046FFF773FEC5E72A46F8E74E
:109B98002968CA880831F5E729682046CA88083143
:109BA800FFF714FEB8E72A68D3172046FFF78CFEA4
:109BB800B2E700232A682046FFF728FEACE7D0E981
:109BC8000023F2E7D0E90023F5E72B7823B1044915
:109BD8002046FFF70FFE9FE70249F9E7E32A01084D
:109BE800E82A0108ED2A010830B5144687B01D4659
:109BF800E318CDE9023400230A46CDE90001CDE996
:109C0800043140B102A9FFF709FF854284BF002350
:109C1800235407B030BD02A80249FFF7EBFD0498B2
:109C2800F3E700BFE32A01082DE9F0432A4B97B078
:109C3800059300238DF81830079308AB10934FF461
:109C4800802311934FF6FF734FF0FF09ADF84830AA
:109C5800224B0127CDE91439214B01AD02930B2387
:109C680005AC0646884628461E49039301948DF89C
:109C78001070FFF781FD1C4B284602930C231B49EB
:109C8800039301948DF81070FFF78BFD184B28464D
:109C9800029309231749039301948DF81070FFF775
:109CA80056FD154B4146029305232846039301941C
:109CB8008DF81070FFF731FD13ABCDE90134324652
:109CC80095E803004B46FFF78FFF2046FFF786FB1A
:109CD800304617B0BDE8F083000000200000FFFF09
:109CE800F32A0108FF2A0108032B01081A2B01088F
:109CF800102B01084C2B0108212B0108002070476C
:109D0800036810B4DC6B4B23A44610BC604707B54E
:109D180003688DF8071001225B680DF10701984769
:109D280003B05DF804FB036918680368DB6818472B
:109D380007B503680122DB6A0DF10701984701287E
:109D480014BF4FF0FF309DF8070003B05DF804FB27
:109D5800436E184490F820007047036810B51B69DB
:109D68000446984708B9207F10BD0120FCE708B5D4
:109D780003685B6B9847003818BF012008BD0000D6
:109D880030B504468BB040F25B722549254801F096
:109D9800E6FE4FF49671234801F01CFF2249214842
:109DA80001F0E0FE21492046FFF73EFF4FF4C05185
:109DB80005461C4801F0DAFE01230022CDE90132F4
:109DC8001B4B1C4A00931C491C4B1648039501F079
:109DD8007DFD18BB1A4907A807F0CEFE114801F00F
:109DE800C3FE0A22014604A807F0E9FE04A907A851
:109DF80007F05EFF0146134807F056FD04A807F078
:109E080079FE07A807F076FE0F4B002004F54054B2
:109E1800C4F83033C4F834030BB030BD0B4BF4E74F
:109E2800272B01081452002009A10008862A0108DE
:109E3800442B0108402B01084C2B0108372B010843
:109E4800792B010888550020A1A60008599E000812
:109E580010B50A4904460A4801F07EFE60B909496E
:109E6800094807F02BFD094A002004F54053C3F8C0
:109E78003023C3F8340310BD054AF5E7442B010825
:109E880014520020962B010888550020A1A600082E
:109E9800A5A80008F8B506460F46144608F010F9BC
:109EA800054608F00DF9401B844213D908F008F95B
:109EB800034630685B1BA342026805D213699847C2
:109EC80010B908F0FFF8F1E7306803685B69984754
:109ED800B842E6D1F8BD00002DE9F0471646054620
:109EE80086B003684C6803A81C49DF6B02945FFACC
:109EF80084FA07F041FE102103A807F019FE514625
:109F080003A807F0B3FEC4F30729154903A807F00F
:109F180091FE494603A807F0A9FEC4F30748104973
:109F280003A807F087FE414603A807F09FFE240E0A
:109F38000B4903A807F07EFE214603A807F096FE0A
:109F48004B23324603992846B847044603A807F02E
:109F5800D1FD204606B0BDE8F08700BFDB2A010826
:109F68004F2A010810B5044601210F2007F0C6FF4B
:109F780001210F2008F02CF8054B1C60054B04F557
:109F88004054C4F830330023C4F8343310BD00BF44
:109F980010520020F9A10008034610B400F5405102
:109FA800D1E9CC214C1000EB6100C90748BF1B590F
:109FB80010BC48BF9A58104710B50024074B00F54D
:109FC8004050C0F830330649C0F83443054807F01C
:109FD80075FC642008F076F8204610BDF9A1000849
:109FE800A72B0108E8520020014801F081BC00BFFE
:109FF8001452002000F58050C0F8001B7047000084
:10A00800F8B50D4604461B491B48174607F056FC91
:10A018001A49194807F02FFC2846FEF7EBF80A22E0
:10A028000146154807F09AFC1549134807F023FC28
:10A038003946114807F042FC11490F4807F01BFC4C
:10A0480029460D4807F03AFC05262A4639460D48A8
:10A0580001F039FD68B9642008F034F8013EF4D104
:10A068000949054807F02AFC084B04F54050C0E9A7
:10A07800CC36F8BDB32B010888550020C22B010847
:10A08800CB2B010814520020D02B0108F9A100089D
:10A09800014AFFF7B5BF00BF442B010821B10B7877
:10A0A80013B1024AFFF7ACBF704700BFEF2B01089E
:10A0B800B3F5C05F2DE9F0410E46044611461D4632
:10A0C80004D9BDE8F0410D49FFF7E8BF41F604386F
:10A0D80000EB08071A46384608F03CFA00232544E6
:10A0E80005F8083004F58054D4F8003B23B139460C
:10A0F8003046BDE8F0411847BDE8F0812F2C010833
:10A108001346064A10B40446106820B10A46214690
:10A1180010BCFFF7CDBF10BC704700BF1052002025
:10A1280013B500686A4603681C6A0723A047431EE4
:10A13800052B0CD800F108030DEB0300002300F8F1
:10A14800083C684607F0E8FF00B202B010BD0148BD
:10A15800FBE700BFF1D8FFFF2DE9F04F04460E469C
:10A168009046204F87B007F1340B57F8045BAE4296
:10A178002ED845452CD806222946204607F0C2FA93
:10A188000A2007F09FFF4FF00A091749204607F0F9
:10A1980072FB2146684607F099FC144903A807F0AA
:10A1A800EBFC03A9684607F0D9FD824603A807F02F
:10A1B800A1FCBAF1000F684605DB07F09BFC2846B6
:10A1C80007B0BDE8F08F07F095FCB9F10109DCD1C3
:10A1D8005F45CAD106223146204607F093FA00258A
:10A1E800EDE700BF040000204A2C01084F2C0108AD
:10A1F80030B54FF4E13204464FF416511D4887B08C
:10A20800FFF7AAFF054650B91B491C4807F042FB57
:10A218004FF4FA7007F056FF002007B030BD184918
:10A2280003A807F0A9FC0A222946684607F0D9FCCA
:10A23800694603A807F03CFD0146104807F034FBC7
:10A24800684607F057FC03A807F054FC0622294685
:10A25800084807F057FA07484FF4967107F006FCCC
:10A26800084B04F54050C0F830330023C0F83433AD
:10A27800D2E700BFE8520020522C01088855002080
:10A288006C2C010801AE0008006807F0F4BA000061
:10A2980038B504460D460068094907F0ECFA294626
:10A2A800206807F0E8FA20460649FFF7EDFF206826
:10A2B8000368DB689847BDE83840002007F002BF14
:10A2C8007A2C01084C2C010830B50024054685B0CD
:10A2D8001649FFF7DDFF23462846CDE90244CDE9BC
:10A2E8000044134A134900F003FA01281CD12346FD
:10A2F8000F4A11492846CDE90244CDE9004400F04F
:10A30800F7F928460D49FFF7C3FF23462846CDE94C
:10A318000244CDE90044064A074900F0E9F9431E22
:10A328005842584105B030BD2046FBE77D2C010856
:10A33800A8300108872C0108B0300108952C0108C5
:10A34800F0B50D4685B04849044601A807F014FC4D
:10A35800284601A907F0DEFC064601A807F0CAFB5B
:10A3680006B32C212046FFF7DBFE46B2012E13D19F
:10A378000A212046FFF7D4FEC3B2092B05D840B204
:10A3880004EB8000436803B15E772846374907F03D
:10A3980005FC012005B0F0BD3146284607F077FCE2
:10A3A8000020F7E7324901A807F0E6FB284601A993
:10A3B80007F0B0FC074601A807F09CFBCFB12C21A1
:10A3C8002046FFF7ADFE06460A212046FFF7A8FE05
:10A3D800F3B2092BD9D876B204EB86067368002B42
:10A3E800D3D0012280B2B0F5806F5A77CDD8D88209
:10A3F800CBE7204901A807F0BFFB284601A907F0D1
:10A4080089FC064601A807F075FBAEB12C21204651
:10A41800FFF786FE06464FF47A720A212046FFF7B8
:10A4280039FDF3B2092BB0D876B204EB860673680F
:10A43800002BAAD01F77A8E70F4901A807F09CFBBB
:10A44800284601A907F066FC064601A807F052FB5A
:10A45800002EA5D02046FFF737FF002895D12046CB
:10A4680000F0FCF891E700BF9D2C0108DB2A0108E9
:10A47800AA2C0108B62C0108C02C01082DE9F04FC0
:10A48800054685B01046DDE912AB0F46402114465B
:10A498001E4607F04DFB07F013FE8046002007F02C
:10A4A80011FE286803681B699847002810DC07F02C
:10A4B80007FEA0EB0800B842F0D3204607F051FC95
:10A4C8002046534907F06AFB002005B0BDE8F08F2D
:10A4D800002007F0F7FD286803685B69984743B2D6
:10A4E800002BDEDDC1B2204607F0B3FB76B1314662
:10A4F80001A807F041FB204601A907F00BFC8146A3
:10A5080001A807F0F7FAB9F1000F73D10E9B73B1E8
:10A51800194601A807F030FB204601A907F0FAFB0D
:10A52800814601A807F0E6FAB9F1000F64D10F9B44
:10A5380073B1194601A807F01FFB204601A907F0CF
:10A54800E9FB814601A807F0D5FAB9F1000F55D10A
:10A55800109B73B1194601A807F00EFB204601A90C
:10A5680007F0D8FB814601A807F0C4FAB9F1000F3B
:10A5780046D1119B73B1194601A807F0FDFA204690
:10A5880001A907F0C7FB814601A807F0B3FAB9F1A2
:10A59800000F37D1BAF1000F0ED0514601A807F0CD
:10A5A800EBFA204601A907F0B5FB814601A807F0A0
:10A5B800A1FAB9F1000F27D1BBF1000F0ED059460F
:10A5C80001A807F0D9FA204601A907F0A3FB8146A4
:10A5D80001A807F08FFAB9F1000F17D121462846D4
:10A5E800FFF7AEFE00283FF45CAF2046084907F0AD
:10A5F800D5FA56E7012068E7022066E7032064E7FA
:10A60800042062E7052060E706205EE707205CE794
:10A61800DB2A0108F0B516461F4604460D468BB0E6
:10A628000D4907A807F0A8FA149B29460593139B20
:10A6380007AA0493129B20460393119B0293109B35
:10A64800CDE900733346FFF719FF044607A807F062
:10A6580051FA20460BB0F0BDDB2A010810B50B49B2
:10A6680086B00446FFF714FE00234EF66021CDE9BC
:10A678000333CDE9013300932046054B054AFFF724
:10A68800C9FF431E5842584106B010BDCB2C0108E3
:10A69800A8300108D52C010838B5044605250F480F
:10A6A80000F0C6FF0E48FFF7D9FF60B9642007F035
:10A6B80009FD013DF3D10B490B4807F0FFF820468F
:10A6C800FFF77AFC07E0094B04F54054C4F830332F
:10A6D8000023C4F83433002038BD00BF14520020D2
:10A6E800BC520020E42C010888550020899D0008F0
:10A6F80010B586B00B9C04940A9C0394099C0294A0
:10A70800089CCDE9003413460A464FF47A71FFF7E6
:10A7180081FF06B010BD0000F0B50D4685B01849A0
:10A728000446FFF7B5FD00232046CDE90233CDE905
:10A738000033144A1449FFF7DBFF264604F12807C3
:10A7480001220021206807F093F956F8043F1BB155
:10A75800003818BF01201877BE42F1D100232046E7
:10A76800CDE90233CDE90033064A084904EB8504F4
:10A77800FFF7BEFF606800B1007F05B0F0BD00BF05
:10A788000B2D0108A8300108162D0108B03001086A
:10A79800F0B585B006460C4607F092FC074607F070
:10A7A8008FFCC31BA34201D3002033E000253046B1
:10A7B8001A49FFF76DFD2B463046CDE90255CDE924
:10A7C8000055174A1749FFF793FF012804D04FF4A3
:10A7D8007A7007F077FCE2E7134B144A0193144BA5
:10A7E800144900933046144BCDE90255FFF780FF1A
:10A7F80004462B463046CDE90255CDE90055084AB6
:10A808000E49FFF775FF012C06D0023CE4B2012C7B
:10A81800CAD8022005B0F0BD2046FBE7212D01086B
:10A82800A8300108282D01083F2D0108372D0108FF
:10A83800492D0108432D01082F2D0108B0300108CA
:10A848007FB5002405461149FFF722FD2346284617
:10A85800CDE90244CDE900440D4A0E49FFF748FF0F
:10A86800012811D12C212846FFF75AFC234646B26D
:10A87800CDE902442846CDE90044054A0649FFF7D8
:10A8880037FF304604B070BD6326FAE7562D01083D
:10A89800A83001085B2D0108B03001082DE9F0410E
:10A8A80005468AB0294800F0F7FE044630B9284624
:10A8B800FFF7F2FE20460AB0BDE8F08107F000FC81
:10A8C800DFF88C80D8F80030C01A224B9842F1D9B2
:10A8D8002148FFF7B5FF0646204901A807F04CF9C3
:10A8E8000A22314604A807F06AF904A901A807F06A
:10A8F800DFF91B4907F0E8F907461748FFF7E4FCBA
:10A908000A22014607A807F05AF907A9384607F0AE
:10A91800CFF90146134806F0C7FF07A807F0EAF881
:10A9280004A807F0E7F801A807F0E4F8092E07DC07
:10A938002846FFF7B1FE07F0C3FBC8F80000B9E7E7
:10A948000548FFF7C1FC0028F2D0F4E714520020B4
:10A958000C520020F0490200BC520020612D010871
:10A968007B2D01088855002070B504460E46154613
:10A978000C49006806F07FFF3146206806F07BFF2F
:10A988000A222946206806F0E7FF20460649FFF715
:10A998007BFC20680368DB689847BDE870400020AE
:10A9A80007F090BB7A2C01084C2C01082DE9FF41D7
:10A9B80000EB8108D8F8043005460F46BBB10024E7
:10A9C8000A461C49FFF7D0FF23462846CDE9024432
:10A9D800CDE90044184A1949FFF78AFE01280BD02F
:10A9E80039462846D8F80440FFF796FE2077002617
:10A9F800304604B0BDE8F0814FF47A722C21284625
:10AA0800FFF748FA4FF47A722C212846FFF742FAEA
:10AA18000A212846FFF784FB064623462846CDE947
:10AA28000244CDE90044044A0549FFF761FE002EBF
:10AA3800D6D0DDE7852D0108A83001089F2C010834
:10AA4800B03001087FB504460D460068224906F07B
:10AA580012FF2B21206806F012FF294600252068E6
:10AA680006F009FF3F21206806F009FF1B49204630
:10AA7800FFF70AFC20680368DB689847002007F0A6
:10AA880021FB2046CDE90255CDE90055144B154A66
:10AA98001549FFF72DFE0138C0B2022818D84FF427
:10AAA8007A722C212046FFF7F5F901222946206801
:10AAB80006F0DEFF06462B462046CDE90255CDE9D5
:10AAC80000550A4A0A49FFF713FE70B204B070BD78
:10AAD8004FF0FF30FAE700BF7A2C01084C2C010830
:10AAE800922D01089A2D0108A22D0108A83001080D
:10AAF800B03001082DE9F04104460F4616461D46C0
:10AB080012490068BDF8188006F0B5FE394620687D
:10AB180006F0B1FE0A223146206806F01DFF2946DC
:10AB2800206806F0ACFE0A224146206806F007FFBE
:10AB380020460749FFF7A8FB20680368DB689847A9
:10AB4800BDE8F041002007F0BDBA00BF7A2C01082B
:10AB58004C2C01082DE9FF4700EB82077B6804466F
:10AB68001BB9002004B0BDE8F087002589B22C236A
:10AB780000912F49FFF7BEFF2B462046CDE902552D
:10AB8800CDE900552B4A2C49FFF7B2FD0128E8D141
:10AB98004FF47A722C212046FFF77CF94FF47A7231
:10ABA8002C212046FFF776F92C212046FFF7B8FA2A
:10ABB8000A2106462046FFF7B3FA8046AE420EDC6D
:10ABC8007B682046A3F8168000231A4ACDE9023391
:10ABD800CDE900331949FFF78BFD3046C2E707F08E
:10ABE8006FFA8246206803681B699847814658B9FE
:10ABF80007F066FA7B68A0EB0A009B68984203D2CC
:10AC0800484607F05FFAEDE72068013503685B699D
:10AC180098477B68C0B2196ED3F864C04A1C02F02A
:10AC28003F0262451EBFC91881F820001A66C5E7B1
:10AC3800A92D0108A83001089F2C0108B03001088F
:10AC4800F0B5044687B0002007F03CFA07F038FA60
:10AC580043F6972705460026E38A83B107F030FAC2
:10AC680003465B1BBB42206909D8E18AC4E9186620
:10AC78003F2928BF3F21227DFFF76CFFECE7002624
:10AC8800C4E918662769386803681B699847054648
:10AC980088B9227D20690E49FFF766FE2577CDE940
:10ACA8000255CDE900552B460A4A0B492069FFF7A2
:10ACB8001FFD07B0F0BD002332211A463846CDE902
:10ACC8000366CDE901660096FFF7A4FCDBE700BF49
:10ACD800B62D0108A8300108B03001082DE9F04769
:10ACE800064600259846036886B01B6B91468A463F
:10ACF8009847002007F0E6F9346935492046C6E947
:10AD08001855377DFFF7C4FA2B462046CDE9025582
:10AD1800CDE900552F4A3049FFF7EAFC012804D055
:10AD28000020307706B0BDE8F0872C49206806F08F
:10AD3800A2FD2B49206806F09EFD0A2239462068AC
:10AD480006F00AFE2C21206806F099FD25492068A6
:10AD580006F091FD2449206806F08DFD51462068D3
:10AD680006F089FD2149206806F085FD0A2249463A
:10AD7800206806F0E4FD1E492046FFF785FA2068A2
:10AD88000368DB689847284607F09CF94FF47A7106
:10AD9800204601FB08F1CDE90355CDE901550D4BDE
:10ADA800144A0095FFF736FC0128B9D12C2120461A
:10ADB800FFF7B6F90A2105462046FFF7B1F9EDB2CB
:10ADC800C0B2BD4208BF00280CBF01200020A8E780
:10ADD800E42D0108A8300108B03001087A2C0108D8
:10ADE800F02D0108FA2D0108BD2E0108CC2D01080F
:10ADF8004C2C0108FF2D0108F0B58DB0064607F070
:10AE08005FF90746B54D07F05BF942F20F72C31BB5
:10AE1800934204D9B249B34806F050FDFFE000243C
:10AE28002846B149FFF734FAC8212846CDE903443A
:10AE3800CDE90144AD4BAE4A0094FFF7EBFB012886
:10AE480000F0F080642007F03DF9DCE7A949A34849
:10AE5800FFF7F8FD20F004035BB2012B05D0FA20C0
:10AE680007F030F932E1A449D5E7A44906A806F06D
:10AE780083FE9A48FFF7E4FC0A22014609A806F077
:10AE88009EFE09A906A806F013FF0024014695486E
:10AE980006F00AFD09A806F02DFE06A806F02AFE0F
:10AEA8008E48FFF7DBFB9649286806F0E4FC9549D5
:10AEB800286806F0E0FC9449286806F0DCFC2221AA
:10AEC800286806F0DCFC9149286806F0D4FC904913
:10AED8008248FFF7D9F928680368DB68984700209B
:10AEE80007F0F0F82346814A8149CDE90244CDE9CB
:10AEF80000447A48FFF7FCFB86497848FFF7C8F911
:10AF080023467A4A7A49CDE90244CDE90044734898
:10AF1800FFF7EEFB80497148FFF7BAF92346734AF9
:10AF28007349CDE90244CDE900446C48FFF7E0FBE2
:10AF38007A496A48FFF7ACF92346CDE90244CDE9DE
:10AF480000446A4A6A496548FFF7D2FB01288AD15A
:10AF58006B49286806F08FFC7149286806F08BFC5D
:10AF68000A227049286806F0EAFC2C21286806F0B5
:10AF780086FC0A2243F69821286806F0E0FC2C217A
:10AF8800286806F07CFC0A2243F69821286806F017
:10AF9800D6FC5F495148FFF777F928680368DB68F2
:10AFA8009847204607F08EF82346504A5049CDE985
:10AFB8000244CDE900444948FFF79AFB5A494748FB
:10AFC800FFF766F9CDE90344CDE90144474B574AF9
:10AFD800544942480094FFF71DFB01287FF443AF12
:10AFE800534906A806F0C8FD3C48FFF76DF90A2248
:10AFF800014609A806F0E3FD09A906A806F058FECF
:10B008000146384806F050FC09A806F073FD06A86A
:10B0180006F070FD474B06F54056C6E9CC340020D3
:10B028000DB0F0BD44492D48FFF732F92346CDE96C
:10B038000244CDE900442D4A2D492848FFF758FB22
:10B0480001287FF4E7AE3D492448FFF721F923465C
:10B05800264A2749CDE90244CDE900441F48FFF7B5
:10B0680047FB37491D48FFF713F942F21071CDE944
:10B078000344CDE901441D4B1D4A18480094FFF7CD
:10B08800C9FA01287FF4C6AE2E491448FFF700F923
:10B0980042F21071CDE90344CDE90144134B144A3F
:10B0A8000E480094FFF7B6FA01287FF4B3AE42F2D7
:10B0B80010710A48FFF76CFB0138C0B201283FF64F
:10B0C800A9AE06F0FDFF4EF65F27044606F0F8FF2E
:10B0D800031BBB427FF6BAAE1B499CE6BC5200205C
:10B0E8000B2E010888550020DB2A0108A83001082A
:10B0F800B0300108352E0108702E01089E2E010877
:10B108007A2C0108AF2E0108C12E0108CA2E0108A9
:10B118004C2C0108D92E0108E42E0108F32E010851
:10B128003B2E0108F8240100482E0108512E010881
:10B138005F2E0108899D00080F2F01081D2E0108A8
:10B14800252E01082D2E0108842E0108D0E9103083
:10B15800181A48BF403070472DE9F04100250446D1
:10B168000746A84686B057F8046F46B1737F33B1D7
:10B17800204686F81D80E9B2FFF718FCF0820135F9
:10B188000A2DF0D10025206803681B69984710B97B
:10B1980006B0BDE8F08100230F211A462046CDE90C
:10B1A8000355CDE901550095FFF734FAEBE72DE992
:10B1B800F74F044600208846009206F083FF206976
:10B1C800FFF7CAFF002704F1200A009B9F424DD2D7
:10B1D800009B5046DD1BFFF7B9FF854228BF054697
:10B1E8000DB3A946C3465046FFF7B0FF10B9A844AF
:10B1F8002F44EAE7666EC6F140024A45A8BF4A46B0
:10B208008242A8BF02460AEB06015846019207F09F
:10B21800A1F9019A164406F03F06B9EB02096666E1
:10B228009344E0D1E3E706F04BFFA369C01AB0F5F9
:10B23800FA7F05D94FF00103637706F041FFA0615B
:10B248002069FFF789FFE38A83B1D4E91821891AB5
:10B258000029D8BF4031013989B2994228BF19461F
:10B268002069227DFFF776FC0028AED1384603B06E
:10B27800BDE8F08F38B50446002004F1200506F03B
:10B2880021FF2846FFF762FF70B906F019FFA3698E
:10B29800C01AB0F5FA7F04D90123637706F010FFCE
:10B2A800A0612069FFF758FF2846FFF74FFFE38AA0
:10B2B80080B2184438BD0000F0B50446164685B083
:10B2C80000200F4606F0FEFE2069FFF745FFB3B2E7
:10B2D80025690093227D00242C2328461C49FFF76A
:10B2E80009FC23462846CDE90244CDE90044194A21
:10B2F8001949FFF7FDF9012802D0002005B0F0BD7B
:10B3080028683246036839465B68984728680368A6
:10B31800DB68984723462846CDE90244CDE9004436
:10B328000C4A0E49FFF7E4F90128E6D128464FF404
:10B338007A722C21FEF7AEFD28464FF47A722C2142
:10B34800FEF7A8FD0A212846FEF7EAFED6E700BF69
:10B35800122F0108A83001081C2F01081E2F010810
:10B3680073B500241548234622462146009406F06A
:10B3780061FA3323124E134D009309220A213046F5
:10B3880006F074F828462146242240F8086B07F096
:10B3980060F84FF47A730C490C488B600C4BC1E988
:10B3A80018444C600B600D61CC828C618C830C75E9
:10B3B800696002B0BDE8704000F0F0BB00540020A6
:10B3C800E8520020BC5200205452002014520020A1
:10B3D80068300108014800F020B800BF145200206E
:10B3E800704770B504460D4606F06AFEA061A06875
:10B3F8002946BDE8704003681B68184770B50446C5
:10B408000D46164606F05CFEA061A0683246036849
:10B418002946BDE870405B68184710B50446C06807
:10B4280006F086FE204610BD2DE9F04105460E4681
:10B4380006F046FE4FF47A780746A86803681B6949
:10B448009847044638B1A86803685B699847307024
:10B458000120BDE8F08106F0ACFC06F031FEAB8AB5
:10B46800C01B08FB03F39842E7D32046F1E738B541
:10B47800158814462944FFF7D7FF08B10135258000
:10B4880038BD2DE9F74F002688460DF10602C16840
:10B498000446ADF80660FFF7EAFF80B10125E368CE
:10B4A8008DF8056093F80090BDF80670052F0AD155
:10B4B8004FF0FF33A068E36303681B6B98470020D5
:10B4C80003B0BDE8F08F20460DF10501FFF7ACFF92
:10B4D8000028F4D09DF80520E1687B1CCA559BB272
:10B4E80002F07F01120605FB0166ADF806304FEA4F
:10B4F800C515D9D409F0F009013BB9F1300F88F826
:10B5080000301FD12046E1680DF10602FFF7AFFFBA
:10B518000028D4D02046E1680DF10602FFF7A7FF06
:10B528000028CCD0E26898F80030134459789D7808
:10B53800137805EB01259B07ADB201D50235ADB2F5
:10B54800022701E000273D466FF0010ABDF806B06A
:10B55800B74209D3A36B23B9228A5A4538BFADF83D
:10B568000630BDF80600ABE720460DF10501FFF7F0
:10B578005BFF0028A3D0A06B70B1B9F1300F0BD1DD
:10B5880098F80030AAEB03035B44AB4204D9036884
:10B598009DF805101B689847BDF80630228A9A4224
:10B5A80006D9E2689DF80510D1540133ADF806308C
:10B5B8000BF1010B0137CBE737B50024DDB2601C76
:10B5C800DB0904F1080418BF45F080056C44C0B2DB
:10B5D80004F8045C63B9C0F10403D154C0F1050355
:10B5E800134401A90532934204D1013003B030BDA0
:10B5F8000446E3E711F8014B03F8014BF3E770B594
:10B60800064615461C46FFF7D7FF0146B0680C44AE
:10B618000368C1F10501294422465B68984705463D
:10B6280006F04EFDB061A8B2031B5842584170BDE8
:10B63800E022C36810B51A7000220446C3685A7025
:10B64800806802220368E1685B6898474FF0FF331F
:10B65800A068E3630368DB689847A06803681B6B0E
:10B66800984706F02DFDC4E9060010BDF0B500248A
:10B6780002339BB20139671CA5B2CE5D581980B25E
:10B688003EB9431B1A442D0A02F8025C02F8014C29
:10B69800F0BD3C461654EEE710B50446806808B97C
:10B6A800002010BD03685B6B9847E36B68B9002BFB
:10B6B800F6D16FF00203A068E3630368DB6898477C
:10B6C800A06803681B6B9847EAE7B3FA83F0400960
:10B6D800E7E700002DE9F04F85B004468A46174693
:10B6E8001E46DDF83890DDF844B0FFF7D5FF8046F8
:10B6F800002840F0D580A06803685B6B9847002855
:10B708003DD001236F4AE38210689188927902AB99
:10B718000290ADF80C109A71052213F8010BE1683C
:10B72800885401320C2AF8D1B9F1000F3BD09DF8AA
:10B7380040509DF83C306D0145EAC30545F00405CD
:10B748006DB29DF8483045EA43056DB2002F2CD103
:10B75800E368EDB21D73638AE2681B0A5373E368FA
:10B76800628A50469A73258A294606F08DFE113062
:10B77800854221D2A06803681B6B984790E0A068B7
:10B78800216B0368A28E39B19B6A98470128B8D00B
:10B798006FF00103E36383E04B495B6A0291E16A5E
:10B7A800039102A9F1E74D46CBE716B965F07F058D
:10B7B800CEE765F03F05CBE70F2351462046E26808
:10B7C800FFF754FF0546B9F1000F21D0B4F810A0D7
:10B7D8004846514606F058FEAB1C03449A45C9D367
:10B7E8002B464946E2682046FFF740FFB4F8109020
:10B7F80005464946584606F047FE821C2A449145AC
:10B80800B8D32B4659462046E268FFF72FFF054676
:10B818000FB3B4F810903846494606F035FEAB1C15
:10B8280003449945A6D32B4639462046E268FFF7DC
:10B838001DFF05467EB1278A3046394606F024FEAC
:10B84800AB1C03449F4295D32B4631462046E26801
:10B85800FFF70CFF05466B1F1021E2689BB22046DC
:10B86800FFF7CDFE06F02CFC4FF47A75C4E906000C
:10B87800A06803681B699847B0B120460DF107011D
:10B88800FFF7FFFD04287FF475AFE368DD78BDB9E5
:10B8980006F016FC4FF00108E06184F82050E563DB
:10B8A800404605B0BDE8F08F06F00AFCE369C01A0F
:10B8B800A38A6B439842DBD36FF00303E36359E732
:10B8C800E56357E7342A01082437010810B5012435
:10B8D80086B004940B9C03949DF8284002949DF82C
:10B8E80024400194089C0094FFF7F4FE06B010BDB4
:10B8F8002DE9F74F0446FFF7CFFE8246C0B106F0A8
:10B90800DFFB4FF47A72638A81465343E269821AF5
:10B918009A4203D8A269821A93421CD294F8203022
:10B928004BB16FF00303A068E36303681B6B984790
:10B938004FF0000A73E0C021E2681170E2685370AA
:10B94800A06802220368E1685B6898470123C4E99C
:10B95800069984F82030A06803681B699847002876
:10B968005DD020460DF10701FFF78BFD0546002845
:10B9780070D0E068C4F81C90037803F0F003302B13
:10B9880054D1636A002B4AD09DF8076006F1020B78
:10B99800831910F80B705B7806F1030807EB03278F
:10B9A800BFB200EB08013A46584406F039FD0022C0
:10B9B800E368B84433443B449A70E168AA1B01EB3E
:10B9C8000B0091F800B0033A0BF0060BBBF1020F25
:10B9D800636AA2EB070226D105363E4411F80850E7
:10B9E800023A8844314498F8018098474022E36835
:10B9F80008EB05281A70E3681FFA88F883F801B085
:10BA0800E3684FEA18229A70E368042283F80380F7
:10BA1800A068E16803685B689847C4F818905046C6
:10BA280003B0BDE8F08F41449847F8E7C02B0BD12D
:10BA3800D02300220370E3685A70A06802220368CA
:10BA4800E1685B689847EAE7D02BE8D1002384F8DF
:10BA58002030E4E72046FFF71FFE0028DFD167E724
:10BA68002DE9F04704460D4691461F469DF8208073
:10BA7800FFF712FE20B3268A2846314606F004FD59
:10BA8800FB1D03449E421BD3294605232046E2683A
:10BA9800FFF7ECFD00254619AF42E268B6B209D8B7
:10BAA800731F08F130012046BDE8F0479BB2C9B2C8
:10BAB800FFF7A5BD19F8053001359355ADB2EAE792
:10BAC8000020BDE8F08773B505460E4614466AB1F6
:10BAD800018A104606F0D8FC03460022314600923F
:10BAE80028462246FFF7BCFF02B070BD1346F4E7B4
:10BAF800012A2DE9F04104460E46154629D8078A41
:10BB08003046394606F0C0FC0930874221D320462A
:10BB1800FFF7C2FDE8B1E38AE26801339BB2012B6B
:10BB280038BF0123E3821B0A5371E368E28A314676
:10BB38009A71E26807232046FFF798FDE36882219F
:10BB48001D540438E26883B22046BDE8F041FFF78F
:10BB580056BD0020BDE8F0810022FFF7C9BF016390
:10BB68008286704741627047C06B704738B504469B
:10BB78000D4609B9002038BD038A43B9084606F0C6
:10BB8800CFFAE060003818BF01202582F3E7C068CB
:10BB980006F084FB0028F4D1ECE7000070B500251E
:10BBA8000B4B0446456040F8283B0E4605F03AFE2C
:10BBB8004FF0FF334FF48071E3632046A660A5631E
:10BBC8002582FFF7D3FF0F2320466382A38270BD2F
:10BBD800C030010841827047002307B51A4619464C
:10BBE8000093034805F026FE03B05DF804FB00BF90
:10BBF800085400200023038283748360C360704765
:10BC080038B50C4605460021204606F077F9322C57
:10BC18000AD80E4B53F824302B60002328466B605B
:10BC2800BDE83840FFF7E6BF04F0C003C02B0AD1D7
:10BC3800CF2C08D8064B04F03F0453F82420034BBC
:10BC480053F82230E8E74FF0FF33E5E71C360108E8
:10BC5800DC3501084FF01061044AC0E900120022E7
:10BC6800FF21C0E90222C0E9061270470101010064
:10BC780009220023C270034AC16003704260037244
:10BC8800704700BF01010100034610B50C46FFF7DD
:10BC9800E1FF18462146FFF7EBFF10BD7047000093
:10BCA80038B50E4B05461A784FF47A73B3FBF2F3A6
:10BCB8000B4A1068B0FBF3F000F09CF8044658B942
:10BCC8000F2D09D8024629464FF0FF3000F042F800
:10BCD8002046044B1D6038BD0120FCE738000020D9
:10BCE800640000203C000020074A08B513680320C0
:10BCF80043F01003136000F01BF80020FFF7D0FF9B
:10BD0800FFF7CCFF002008BD00200240034A044B87
:10BD180011681B780B441360704700BF1054002053
:10BD280038000020014B1868704700BF10540020ED
:10BD380007490302CA6803F4E06322F4E0621204CC
:10BD4800120C134343F0BF6343F40033CB607047D6
:10BD580000ED00E0154B30B5DC68C4F30224C4F1F3
:10BD68000703251D042B28BF0423062D4FF0FF359C
:10BD780094BF0024033C05FA03F321EA0303A5401A
:10BD880022EA0502A340002843EA0203ACBF00F1FF
:10BD98006040074A4FEA0313DBB2ABBF00F56140CE
:10BDA80000F00F0080F80033135430BD00ED00E0C0
:10BDB80014ED00E0002807DB01234109034A00F0E5
:10BDC8001F00834042F82130704700BF00E100E0C7
:10BDD80000280CDB01220649430900F01F008240BD
:10BDE800203341F82320BFF34F8FBFF36F8F704785
:10BDF80000E100E00138B0F1807F0BD24FF0E02382
:10BE0800F021054A586182F8231000200722986122
:10BE18001A6170470120704700ED00E0002808DB38
:10BE280001224309034900F01F008240603341F8B2
:10BE38002320704700E100E0704708B5FFF7FCFFDA
:10BE480008BD704710B5044650B1437903F0FF02AE
:10BE580013B90271FFF7F5FF01230020637110BDCC
:10BE68000120FCE710B5044640B10223037102F03B
:10BE780065FD002020616071207110BD0120FCE784
:10BE8800012310B558B1046801F01001226803FAC3
:10BE980001F122EA010222600371002010BD184658
:10BEA800FCE790F821200346022A06D00422826388
:10BEB8000120002283F8202070470268C06B1168B7
:10BEC80021F00E011160116821F0010111600121BA
:10BED8001A6C01FA02F24260002083F82110E8E7A8
:10BEE80008B590F82130022B03D004238363012086
:10BEF80008BD03681A6822F00E021A601A6822F058
:10BF080001021A60284A934224D902F562729342C8
:10BF180019D01432934218D01432934217D01432E5
:10BF2800934214BF4FF480334FF480531F4A536039
:10BF3800012380F82130002380F82030436B03B1BF
:10BF480098470020D4E70123F0E71023EEE74FF4E9
:10BF58008073EBE716498B4216D014318B4215D00B
:10BF680014318B4214D014318B4214D014318B42CB
:10BF780014D014318B4214D0934214BF4FF4803341
:10BF88004FF080730B4AD2E70123FBE71023F9E750
:10BF98004FF48073F6E74FF48053F3E74FF48033A0
:10BFA800F0E74FF48013EDE7800002400004024000
:10BFB8000800024000000240044A08B551690142E5
:10BFC80002D0506102F078FD08BD00BF00040140B6
:10BFD800F8B50446E0B190F8913203F0FF021BB9BE
:10BFE80080F8902204F010FF032384F89132002394
:10BFF8002546637155F8040B01F0E9FE95E80E003B
:10C00800206801F0D4FE014628B1022384F8913259
:10C0180001252846F8BD206801F0E3FE0028F4D188
:10C0280002460127267904F11003C1B28E4203F1BA
:10C03800280318D800210A4604F5A873C8B2864216
:10C0480003F128031BD895E80E00206801F0CBFE09
:10C0580005460028D9D101236073206884F89132FD
:10C0680002F081F9D5E743E9062203F8277C03F8B3
:10C07800281C03F8252C43F8102C0130D5E743E998
:10C08800062203F8272C03F8280C03F8252C43F87C
:10C09800102C0131D2E738B5044610B901252846DD
:10C0A80038BD032380F89132006802F049F905464B
:10C0B8000028F3D1204604F0F9FE84F89152EEE707
:10C0C80038B590F890320446012B10D0012580F83D
:10C0D8009052006801F072FE2946204600F020FECA
:10C0E800206802F03EF9002084F8900238BD022052
:10C0F800FCE710B590F890320446012B10D00123CC
:10C1080080F89032006801F062FE0021204600F0BD
:10C1180007FE206802F027F9002084F8900210BD7D
:10C128000220FCE710B590F890220446012A0AD0B4
:10C138000122417380F89022006802F00CF9002077
:10C1480084F8900210BD0220FCE700002DE9F04FB2
:10C15800044687B0006802F008F910F4004500F0C2
:10C1680025844FF02809C54E2068B0F844301904DA
:10C1780002D407B0BDE8F08FB0F84470B9B217F038
:10C188000F0740F0BF8011F0100126D103889BB241
:10C19800334043F400430380B0F85030227C9BB214
:10C1A80003EBC20300EB4303B3F80434626AC3F33E
:10C1B80009031A44E3622046626204F094FE637B3A
:10C1C800002BD1D0A26A002ACED1637B216843F02C
:10C1D8008003A1F84C306273C6E70588ABB215F44A
:10C1E800006521D0B0F8503094F850219BB203EB91
:10C1F800C20300EB4303B3F80C34B4F85621C3F37D
:10C208000903C4F86C3104F5267102F0F5FA2268C6
:10C218002046138823F070031B051B0D43F0800391
:10C22800138004F051FE9FE71B049DD5038823F07B
:10C2380070031B051B0D43F080030380B0F85030DA
:10C2480094F850219BB203EBC20300EB4303B3F80D
:10C258000C34C3F30903C4F86C318BB1D4F86411FE
:10C2680071B1B4F8562102F0C7FAD4F86431D4F8A1
:10C278006C21294613442046C4F8643104F02AFE90
:10C2880021680A88170593B23FF56EAF03F440534F
:10C29800B3F5405F3FF468AFB1F8502001F20C40AD
:10C2A80092B2835AD4F86051C3F309033E2D8352E6
:10C2B8001DD9835A6F09ED0608BF07F1FF379BB2F6
:10C2C80043EA87236FEA43436FEA53439BB283529F
:10C2D8000B8823F4804323F070031B041B0C83F4A6
:10C2E800405343F4004343F080030B803CE7835AF8
:10C2F800002DE7D005F001079BB207EB550543EA8F
:10C308008523E3E730F8273019041FFA83F840F152
:10C31800F38030F8273009FB074223F070031B0530
:10C328001B0D43F0800320F8273092F85C5192F8F7
:10C338005031D2F8641100F5806E95B9B0F85050BC
:10C34800ADB2063505EBC3033EF81350C5F3090536
:10C35800002D00F0B6802B46B2F8562102F04CFAB8
:10C36800AFE092F85351022D40F08A8018F48045CE
:10C378000195B0F850504FEAC30BADB2D2F868C17E
:10C3880008F0400A5D443CD002353EF81550C5F32C
:10C398000905654514D94FF0000CC2F868C130F89A
:10C3A800232022F4804222F070021204120C82F43C
:10C3B800005242F4004242F0800220F8232006E0B6
:10C3C800ACEB050CC2F868C1BCF1000FE7D0BAF1BC
:10C3D800000F0DD030F8232022F4E04222F0700242
:10C3E8001204120C42F4004242F0C00220F823204A
:10C3F800002D66D0282202FB07422B46B2F85821AE
:10C40800ACE706353EF81550C5F30905654514D95E
:10C41800DDF804C0C2F868C130F8232022F4804255
:10C4280022F070021204120C82F4005242F400420C
:10C4380042F0800220F8232006E0ACEB050CC2F89D
:10C4480068C1BCF1000FE7D0BAF1000F0DD130F888
:10C45800232022F4E04222F070021204120C42F46B
:10C46800004242F0C00220F8232055B3282202FBE4
:10C4780007422B46B2F85A2170E700BF0F8FFFFF23
:10C4880030F8235025F4E04525F070052D042D0CD7
:10C4980045F4004545F0C00520F8235092F8505166
:10C4A80030F82530ED0013F4804FB0F850309BB2CF
:10C4B8002B4452D002333EF81350C5F30905002D22
:10C4C8009BD109FB07F16318D3F86C212A44C3F800
:10C4D8006C21D3F864212A44C3F86421D3F8682175
:10C4E8001AB1D3F860319D423FD209FB0743204679
:10C4F80093F8501104F0EEFC18F0800F3FF434AEBE
:10C50800206809FB07FC30F827309BB2334043F41E
:10C51800004320F8273004EB0C03DA7C012A54D1BD
:10C52800002107FB0992A1501A7F82B318F0400836
:10C538005A7C34D002BBB0F850201B7C92B21B014D
:10C5480000F2044010441A5AC2F309021A521A5A45
:10C5580092B242F400421A5219E006333EF81350E0
:10C56800C5F30905002DACD083E701F5A871206853
:10C57800214401F010FFBFE7012A08D1B0F850208C
:10C588001B7C92B200F204401B011044195228236C
:10C5980003FB0743197C204604F0A5FCE4E53AB9FF
:10C5A800B0F850201B7C92B21B0100F20C40C9E786
:10C5B800012AECD1B0F850201B7C92B200F20C405A
:10C5C8001B01104423F80080E1E7197CB0F85050B3
:10C5D8004FEAC10AADB218F4807B9A6A00F5806E02
:10C5E800554417D102353EF81550C5F30905954253
:10C5F80002D3C3F828B0CEE7521B9A625A6A0CF1EC
:10C6080010012A445A62DA6A21442A44DA6201F0A3
:10C61800C2FEA9E518F0400C08F4804800F0E48058
:10C6280002353EF815501FFA88F8C5F309059542FA
:10C638002CBF0022521B9A62002A55D1282303FBE3
:10C6480007435B7C002B3DD1B0F8502000F2044535
:10C6580092B20B011544EA5AC2F30902EA52EA5AA5
:10C668006FEA42426FEA524292B2EA52B0F8502060
:10C6780000F20C4092B21044C25AC2F30902C252EC
:10C68800C25A6FEA42426FEA524292B2C2522046FE
:10C6980004F029FCB8F1000F00F0E480282303FB24
:10C6A80007432268197C32F8213023F4E04323F051
:10C6B80070031B041B0C43F4404343F0800322F82F
:10C6C8002130CFE0012BE2D1B0F850C000F2044590
:10C6D8001FFA8CFC65440B01EA52B0F8505000F286
:10C6E8000C40ADB22844D1E7B8F1000F0DD030F8B6
:10C6F800212022F4E04222F070021204120C42F4CB
:10C70800404242F0800220F821204FF0280E0EFB14
:10C71800074E9EF83420012A40F0A480DEF8242039
:10C7280002EB050CCEF824C0DA6A2A44DA62DEF895
:10C738003030DEF82020934231D39B1ACEF83030C7
:10C74800282303FB07435D7C93B2002D41D1B0F849
:10C7580050E000F204451FFA8EFE7544090135F8D1
:10C7680001E03E2ACEF3090E25F801E023D94FEA6D
:10C77800521ED2066A5A08BF0EF1FF3E92B242EA32
:10C788008E226FEA42426FEA524292B26A522822DD
:10C7980002FB0742128B614601F0EDFD62E01BB916
:10C7A8002A468EF83430CBE700228EF83420CEF8B3
:10C7B80030201A46C4E70AB96A5AE2E735F801E0B8
:10C7C80002F001081FFA8EFE08EB52024EEA82229E
:10C7D800DBE7012DDBD1B0F8505000F20442ADB2D6
:10C7E8002A4409015352D2E706353EF815501FFA7C
:10C7F80088F8C5F3090595428CBF6246521B9A62B8
:10C80800002A57D1282303FB07435B7C002B3FD129
:10C81800B0F8502000F2044592B20B011544EA5AD0
:10C82800C2F30902EA52EA5A6FEA42426FEA5242F6
:10C8380092B2EA52B0F8502000F20C4092B2104482
:10C84800C25AC2F30902C252C25A6FEA42426FEA9E
:10C85800524292B2C252204604F045FBB8F1000F92
:10C868003FF41CAF282303FB07472268397C32F8C2
:10C87800213023F4E04323F040031B041B0C83F016
:10C88800300343F4004343F0800322F821306BE483
:10C89800012BE0D1B0F850C000F204451FFA8CFC1F
:10C8A80065440B01EA52B0F8505000F20C40ADB2AA
:10C8B8002844CFE7B8F1000F0DD130F8212022F439
:10C8C800E04222F070021204120C42F4404242F09C
:10C8D800800220F821204FF0280E0EFB074E9EF80C
:10C8E8003420012ABED1DEF8242002EB050CCEF854
:10C8F80024C0DA6A2A44DA62DEF83030DEF8202012
:10C9080093422ED39B1ACEF83030282303FB0743DB
:10C918005D7C93B2002D3ED1B0F850E000F20C459A
:10C928001FFA8EFE7544090135F801E03E2ACEF360
:10C93800090E25F801E020D94FEA521ED2066A5A9C
:10C9480008BF0EF1FF3E92B242EA8E226FEA4242DF
:10C958006FEA524292B26A52282202FB0742528B75
:10C9680019E71BB92A468EF83430CEE70022CEF8F4
:10C9780030208EF834201A46C7E70AB96A5AE5E724
:10C9880035F801E002F001081FFA8EFE08EB5202AA
:10C998004EEA8222DEE7012DDED1B0F8502000F207
:10C9A8000C4592B215440A01AB52D5E7420512D59F
:10C9B80022682046B2F8443023F480631B041B0C21
:10C9C800A2F8443004F09BFA2946204607B0BDE897
:10C9D800F04FFFF7A7BB43040AD52268B2F84430EA
:10C9E80023F480431B041B0CA2F84430FFF7C1BB9F
:10C9F800870405D52268B2F8443023F40053F1E7E0
:10CA0800C60419D522682046B2F8403023F0040342
:10CA18001B041B0CA2F84030B2F8403023F0080386
:10CA28001B041B0CA2F8403004F086FA2268B2F806
:10CA3800443023F48053D5E7050548D5236802AD73
:10CA4800184629461A4603F1200632F8047B964216
:10CA580021F8027BF9D1B3F8402092B242F00102EA
:10CA6800A3F84020B3F8402022F001021204120C6F
:10CA7800A3F84020B3F844205105FBD5B3F844206F
:10CA880022F480621204120CA3F8442035F8022B19
:10CA980020F8042B8642F9D1B3F84020204692B200
:10CAA80042F00802A3F84020B3F8442022F40062C0
:10CAB8001204120CA3F84420B3F8402092B242F0BA
:10CAC8000402A3F8402004F027FAFFF752BB8205BE
:10CAD8000DD522682046B2F8443023F400731B04B5
:10CAE8001B0CA2F8443004F006FAFFF742BBC3055A
:10CAF8007FF53FAB2268B2F8443023F4807371E7C6
:10CB080070B52824054601F00700444311F0800F52
:10CB180014BF04F1100104F5A87105EB040615BF54
:10CB280001240024747486F8514114BF4919491925
:10CB3800022BCB7008BF0023087008BF0B710A6175
:10CB480095F89032012B09D00123286885F8903296
:10CB580001F05AF9002085F8900270BD0220FCE728
:10CB6800282301F00702534311F0800F10B5044643
:10CB780018BF03F1100118440BBF03F5A871012376
:10CB8800002309190ABF0919437480F851310A7042
:10CB980094F89032012B09D00123206884F8903250
:10CBA80001F092FA002084F8900210BD0220FCE700
:10CBB80070B52824002601F007014C43051985F8B3
:10CBC800501185F8516104F5A8710144C5E959234C
:10CBD800C5F86C61006801F0DEFB304670BD2823A3
:10CBE80001F0070103FB0100D0F86C01704770B534
:10CBF800282501F007014D434419C4E909230122FE
:10CC08000026217484F83420627405F1100101446F
:10CC18002363E662006801F0BEFB304670BD38B59C
:10CC2800037901F00705AB4204462AD311F0800FBF
:10CC38004FF028031CD001226B4303F11001034479
:10CC480001445A7401230D708B7094F890229A4213
:10CC580019D0206884F8903201F009FB25B92068C2
:10CC680004F5267101F085FB002084F8900238BD98
:10CC780000224B4303F5A8710344014483F8512172
:10CC8800E0E70120F3E70220F1E738B5027901F087
:10CC98000F039A42044626D3282301F00702534380
:10CCA80011F0800F14BF03F1100103F5A8711844A7
:10CCB8004FF0000515BF012300230919091914BFF6
:10CCC800437480F851318D700A7094F89032012BBA
:10CCD8000BD00123206884F8903201F0E8FA284646
:10CCE80084F8905238BD0120FCE70220FAE710B51D
:10CCF800282411F0800F1BBF01F0070104FB01007D
:10CD080004FB0100103008BF00F5A87099B21AB9E9
:10CD18000273C180002010BD012283600273F9E70D
:10CD2800704700002DE9F341054638B30368DB0777
:10CD380010D42B689F075ED42B68190700F19580E3
:10CD48002B685A0700F1C180EB69002B40F02C8159
:10CD5800002029E0904C636803F00C03042B07D0F3
:10CD6800636803F00C03082B0AD16368DE0307D558
:10CD780023689C03DDD56B68002BDAD1012013E012
:10CD88006B68B3F5803F12D1236843F48033236086
:10CD9800FEF7C8FF064623689803CAD4FEF7C2FF09
:10CDA800801B6428F7D9032002B0BDE8F0819BB945
:10CDB800236823F480332360236823F480232360CB
:10CDC800FEF7B0FF064623689903B2D5FEF7AAFF1F
:10CDD800801B6428F7D9E6E7B3F5A02F236803D1B1
:10CDE80043F480232360CFE723F480332360236850
:10CDF80023F48023CBE7684C636813F00C0F07D04B
:10CE0800636803F00C03082B10D16368DA030DD4B0
:10CE180023689B0702D52B69012BAFD123686A6968
:10CE280023F0F80343EAC203236085E72A695B4BD2
:10CE38006AB101221A60FEF775FF064623689F074C
:10CE4800ECD4FEF76FFF801B0228F7D9ABE71A6016
:10CE5800FEF768FF0646236898077FF56DAFFEF773
:10CE680061FF801B0228F6D99DE7AA694A4E4B4B01
:10CE7800E2B10122C3F88024FEF754FF0446736A26
:10CE88009B070DD54FF4FA52454B1B68B3FBF2F3E1
:10CE9800019300BF019B5A1E0192002BF9D14FE765
:10CEA800FEF740FF001B0228E9D97CE7C3F880247D
:10CEB800FEF738FF0446736A9F077FF541AFFEF718
:10CEC80031FF001B0228F6D96DE7334CE369D8001F
:10CED80024D40127E36943F08053E361E36903F055
:10CEE80080530093009B2F4E3368D90518D5EB6803
:10CEF800012B26D1236A43F001032362FEF712FFB8
:10CF080041F288380646236A9B073FD5002F3FF435
:10CF18001BAFE36923F08053E36115E70027E2E7DD
:10CF2800336843F480733360FEF7FCFE8046336851
:10CF3800DA05DCD4FEF7F6FEA0EB08006428F6D983
:10CF480031E7ABB9236A41F2883823F00103236241
:10CF5800236A23F004032362FEF7E4FE0646236AED
:10CF68009807D3D5FEF7DEFE801B4045F7D91AE7B0
:10CF7800052B236A03D143F004032362BAE723F0A5
:10CF880001032362236A23F00403B6E7FEF7CAFE0F
:10CF9800801B4045B7D906E7001002400000424216
:10CFA80064000020007000402A4C626802F00C0205
:10CFB800082A3ED00022022B274B1A662CD1FEF7F6
:10CFC800B1FE06462368990120D42B6AB3F5803F49
:10CFD80005D16268A96822F400320A436260696A6E
:10CFE80062680B4322F474121343012263601A4BE4
:10CFF8001A66FEF797FE054623689A013FF5A8AE24
:10D00800FEF790FE401B0228F6D9CCE6FEF78AFE12
:10D01800801B0228D6D9C6E6FEF784FE054623689B
:10D028009B017FF595AEFEF77DFE401B0228F6D9E1
:10D03800B9E6012B3FF4A2AE60682B6A00F4803297
:10D048009A427FF49BAE6B6A00F47010C01A18BF46
:10D058000120A9E600100240000042420D4A536830
:10D0680003F00C01082912D10B48C3F38341DB03F9
:10D07800405C09D55368094AC3F340435043084A02
:10D08800D35CB0FBF3F07047064B58437047034836
:10D09800704700BF00100240D230010800127A0029
:10D0A800D030010800093D002DE9F0410D46044645
:10D0B80010B90120BDE8F081444A136803F0070362
:10D0C8008B4228D321688E0730D4CA0743D43F4AFD
:10D0D800136803F00703AB4265D822683C4D12F091
:10D0E800040F6CD1130706D56B68226923F46053CB
:10D0F80043EAC2036B60FFF7B1FF6B68354AC3F3BD
:10D108000313D35CD840344B1860344B1868FEF7CF
:10D11800C7FD0020CEE7136823F007030B43136015
:10D12800136803F007038B42C3D1CBE7284B11F0F8
:10D13800040F1EBF5A6842F4E0625A60080742BFF3
:10D148005A6842F460525A605A68A06822F0F002A5
:10D1580002435A60B9E762681D4E012A33681AD142
:10D1680013F4003FA5D0736841F2883823F0030315
:10D1780013437360FEF7D6FD07467368626803F0D1
:10D188000C03B3EB820FA2D0FEF7CCFDC01B4045C9
:10D19800F3D903208EE7022A02D113F0007FE1E7DA
:10D1A80013F0020FDEE7136823F007032B43136025
:10D1B800136803F00703AB427FF47BAF8DE76B681E
:10D1C800E16823F4E0630B436B608BE700200240C7
:10D1D800001002402C310108640000203C000020AF
:10D1E800044B054A5B68C3F30223D35C034A106807
:10D1F800D840704700100240243101086400002024
:10D20800044B054A5B68C3F3C223D35C034A106826
:10D21800D840704700100240243101086400002003
:10D2280003682DE9F3410546D80720D5364CE36954
:10D23800D9002AD40126E36943F08053E361E36906
:10D2480003F080530193019B304F3B68DA051ED5EC
:10D25800236A13F440732ED1236A6A6823F4407357
:10D26800134323621EB1E36923F08053E3612A6804
:10D27800910706D52449A8684B6823F44043034323
:10D288004B60D30637D4002012E00026DCE73B6869
:10D2980043F480733B60FEF745FD80463B68DB0541
:10D2A800D6D4FEF73FFDA0EB08006428F6D903208A
:10D2B80002B0BDE8F0816A6802F440729A42CBD0AD
:10D2C8000120134A236AC2F84004002023F4407165
:10D2D800DF07C2F840042162BED5FEF723FD41F204
:10D2E80088380746236A9807B6D4FEF71BFDC01B8B
:10D2F8004045F7D9DBE7044A6969536823F480039A
:10D308000B435360BFE700BF0010024000700040AD
:10D318000000424270477047036870B5DD681E69B7
:10D328000446B1070DD5AA070BD56FF002021A61A2
:10D33800012202779B699B0769D000F036FD002324
:10D348002377710710D56A070ED56FF0040223689A
:10D3580020461A61022222779B6913F4407F5CD031
:10D3680000F023FD0023237733070FD528070DD5B9
:10D378006FF00802236820461A6104222277DB69CD
:10D38800990750D000F011FD00232377F20610D53D
:10D39800EB060ED56FF01002236820461A610822AA
:10D3A8002277DB6913F4407F43D000F0FEFC0023B2
:10D3B8002377F00708D5E90706D56FF0010223683F
:10D3C80020461A6100F0CEFC320608D52B0606D599
:10D3D8006FF08002236820461A6100F09CF87006FE
:10D3E80008D5690606D56FF04002236820461A6101
:10D3F800FFF791FFB20622D5AB0620D56FF02002C9
:10D4080023682046BDE870401A6100F083B800F038
:10D41800CAFC2046FFF77EFF91E700F0C4FC2046D7
:10D42800FFF778FF9EE700F0BEFC2046FFF772FF8B
:10D43800AAE700F0B8FC2046FFF76CFFB7E770BD1D
:10D448001D4A0368904212D002F5006290420ED045
:10D45800B0F1804F0BD0A2F59832904207D002F578
:10D468008062904203D002F58062904207D14A68F8
:10D4780023F070031343CA6823F4407313434A69C3
:10D4880023F08003134303608B68C3620B688362D5
:10D49800094B984203D003F50063984201D10B6908
:10D4A8000363012343610369DB0742BF036923F078
:10D4B80001030361704700BF002C014010B504460A
:10D4C80030B390F83D3003F0FF021BB980F83C20E0
:10D4D80001F0B8FF0223206884F83D30211DFFF7D2
:10D4E800AFFF0123002084F8463084F83E3084F8EA
:10D4F8003F3084F8403084F8413084F8423084F872
:10D50800433084F8443084F8453084F83D3010BD09
:10D518000120FCE770477047026802F10C0353E8EA
:10D52800003F23F490730C3242E80031026800296E
:10D53800F2D102F1140353E8003F23F0010302F192
:10D54800140C4CE800310029F3D1036B012B0BD1EB
:10D5580002F10C0353E8003F23F0100302F10C0C16
:10D568004CE800310029F3D1202380F84230002311
:10D578000363704710B504460368C1681A6922F44A
:10D5880040520A431A6182680069D9680243606997
:10D5980021F4B05121F00C0102430A43DA605A69C0
:10D5A800A16922F440720A435A610E4A934215D186
:10D5B800FFF726FE19234343626820689200B3FBF5
:10D5C800F2F36422B3FBF2F102FB11331B01323395
:10D5D800B3FBF2F303EB0113836010BDFFF700FE0A
:10D5E800E8E700BF00380140704710B5044648B36B
:10D5F80090F8413003F0FF021BB980F84020FFF794
:10D60800F3FF2423226884F84130D368204623F4AA
:10D618000053D360FFF7AEFF236800201A6922F495
:10D6280090421A615A6922F02A025A61DA6842F471
:10D638000052DA602023606484F8413084F8423074
:10D64800606310BD0120FCE710B5044668B390F88C
:10D65800413003F0FF021BB980F84020FFF7C4FFF8
:10D668002423226884F84130D368204623F40053E9
:10D67800D360FFF77FFF236800201A6922F49042E5
:10D688001A615A6922F022025A615A6942F0080264
:10D698005A61DA6842F40052DA602023606484F840
:10D6A800413084F84230606310BD0120FCE790F8F7
:10D6B8004130202B10D189B182B1C28482840023E9
:10D6C800212201620168436480F84120CA68184633
:10D6D80042F08002CA6070470220704701207047FC
:10D6E80008B50023406AC385C38402F091F808BDD9
:10D6F800704790F8423007B5222B42D18168026802
:10D70800B1F5805F836A3FD1016900293FD1526832
:10D71800C2F3080223F8022B8362C38D013B9BB23C
:10D72800C385002B2DD10268D16821F02001D1607A
:10D73800D16821F48071D160516921F001015161F2
:10D74800202280F842204363026B012A026828D114
:10D75800036302F10C0353E8003F23F0100302F1C6
:10D768000C0C4CE800310029F3D11368DB0605D511
:10D7780001911368019353680193019B818DFFF711
:10D78800B7FF03B05DF804FB39B9016929B95268DC
:10D79800D2B21A70836A0133BEE7526802F07F0280
:10D7A800F7E702F02FF8ECE7036873B51A68044648
:10D7B8001607D9685D6908D1960668D58D0666D5BD
:10D7C80002B0BDE87040FFF794BF05F0010001F416
:10D7D800907505435BD0D60705D5CD0542BF636C70
:10D7E80043F001036364530704D518B1636C43F035
:10D7F80002036364960704D518B1636C43F004030D
:10D808006364150707D501F0200303431EBF636C4B
:10D8180043F008036364636C002B32D0920604D58E
:10D828008B0602D52046FFF764FF266820467369F9
:10D83800626C03F0400302F0080253EA020522D0AA
:10D84800FFF76AFE73695E0618D5226802F11403B1
:10D8580053E8003F23F04003143242E80031002926
:10D86800F3D1E06B50B1744B4363FEF739FB40B121
:10D87800E06B436B02B0BDE870401847204601F0EA
:10D88800C7FF02B070BD01F0C3FF6564F9E7206B04
:10D89800012840F09480D50640F19180C80640F1F7
:10D8A8008E80002201921A6801925A680192019AA8
:10D8B8005A6952064DD5E16B0A68526892B2002A3D
:10D8C800DFD0A08D9042DCD9E2858A69202A36D043
:10D8D80003F10C0252E8002F22F4807203F10C00CD
:10D8E80040E800210029F3D103F1140252E8002F87
:10D8F80022F0010203F1140040E800210029F3D1CD
:10D9080003F1140252E8002F22F0400203F1140040
:10D9180040E800210029F3D1202284F84220216325
:10D9280003F10C0252E8002F22F0100203F10C0060
:10D9380040E800210029F3D1E06BFEF7B2FA022398
:10D948006363E38DA18DC91A89B22046FFF7D0FE23
:10D9580097E7E28DE18D92B289B2002991D0A18D2D
:10D96800891A89B200298CD003F10C0252E8002FE1
:10D9780022F4907203F10C0545E800200028F3D149
:10D9880003F1140252E8002F22F0010203F11405FA
:10D9980045E800200028F3D1202284F842202063A3
:10D9A80003F10C0252E8002F22F0100203F10C05DB
:10D9B80045E800200028F3D102236363C5E7160673
:10D9C80028D50D0626D594F84120212A7FF459AF91
:10D9D800A168226AB1F5805F17D12169A9B932F827
:10D9E800021BC1F3080159602262E28C013A92B22B
:10D9F800E284002A7FF445AFDA6822F08002DA6018
:10DA0800DA6842F04002DA603BE7511C2162127882
:10DA18005A60EAE750067FF534AF4A067FF531AF22
:10DA2800DA68204622F04002DA60202384F8413088
:10DA380001F0EBFE25E700BFE9D6000890F840307A
:10DA4800012B11D02423026880F84130D36823F0D9
:10DA58000C0343F00803D360202380F841300023EF
:10DA680080F84030184670470220704790F84030E0
:10DA7800012B11D02423026880F84130D36823F0A9
:10DA88000C0343F00403D360202380F841300023C3
:10DA980080F84030184670470220704790F84120BF
:10DAA80090F84200104370470023C2854364222344
:10DAB8008285026980F84230816203681AB1DA68A7
:10DAC80042F48072DA605A69002042F001025A6119
