:020000040800F2
:1000000000C0002089570008D1570008D1570008C8
:10001000D1570008D1570008D15700080000000050
:10002000000000000000000000000000D1570008A0
:10003000D157000800000000D1570008C730000861
:10004000D1570008D1570008D1570008D1570008F0
:10005000D1570008D1570008B9310008BF31000856
:10006000C5310008CB310008D1310008D157000854
:10007000D1570008D1570008D1570008D1570008C0
:10008000D1570008D1570008D15700086153000824
:1000900055530008D1570008D1570008D731000840
:1000A000D157000831230008D15700084523000824
:1000B000492300085D23000871230008D157000878
:1000C000D1570008D1570008D1570008D157000870
:1000D000D1570008813C0008993C0008B53C000855
:1000E000FF310008D157000865530008D1570008B8
:1000F000C1230008D1570008D5230008D1570008B4
:10010000D1570008D157000885230008D1570008AF
:10011000D13C0008E93C000899230008AD23000801
:10012000D1570008D1570008D1570008D15700080F
:1001300000000000000000000000000000000000BF
:1001400000000000000000000000000000000000AF
:10015000000000000000000000000000000000009F
:10016000000000000000000000000000000000008F
:10017000000000000000000000000000000000007F
:10018000000000000000000000000000000000006F
:10019000000000000000000000000000000000005F
:1001A000000000000000000000000000000000004F
:1001B000000000000000000000000000000000003F
:1001C000000000000000000000000000000000002F
:1001D000000000000000000000000000000000001F
:0401E0005FF8E0F1F3
:1001E400034613F8012B002AFBD1181A0138704773
:1001F40010B5054C237833B9044B13B10448AFF35D
:1002040000800123237010BD0402002000000000C0
:100214006460000808B5034B1BB103490348AFF3FE
:10022400008008BD0000000008020020646000088F
:10023400F0B51F4BDC6814F00104FBD11D692F06D7
:1002440048BF1C4D01EB020742BF5D6005F18835D4
:100254005D600D46164BAF4213D81D6925F00205AB
:100264001D611D6945F001051D61114B944217D3B1
:100274001A6922F001021A611A6942F080021A61B5
:10028400F0BD1E6946F002061E615D611E6946F0FE
:1002940040061E61DE68F607FCD405F50065DAE762
:1002A400255AADB26552DD68ED07FCD40234DDE7B2
:1002B400002002402301674570B501212D2005F07F
:1002C40087FA4FF4E1313C4803F0EAFD4FF4FA6059
:1002D40005F0EAFA394B3A49D3F800480A68B4F110
:1002E400113F04D0374B1340B3F1005F54D04FF4A7
:1002F400803233493448FFF79BFF013454D1304CEA
:1003040032492D4805F0CCF9102221462A4805F03F
:1003140008FA25682E492848646805F0A8F91022CF
:100324002946254805F012FA2A49234805F09FF981
:1003340010222146204805F009FA27491E4805F0F5
:10034400AFF9642005F0B0FA1B4803F0ABFD01F0EF
:10035400A1F800F04DF84FF0E02200234FF0FF31F8
:100364001361536193619A0002F16042013302F513
:100374006142082BC2F88010C2F88011F3D1174AE9
:10038400536A23F4E02353620D4B5A681B6883F3CA
:100394000888BDE870401047B4F1223FADD14FF456
:1003A40080320F48FFF744FF4FF4006200200D49EC
:1003B400FFF73EFFA3E700BF9803002000F0030807
:1003C400008000080000FE2F008001087C60000807
:1003D400A3600008B5600008C660000800ED00E0F6
:1003E4000080020800F80308704770477047000057
:1003F40010B54FF0FF320024044B1A611C61DA601F
:10040400DC60FFF7F3FF204610BD00BF0010024080
:1004140038B50E4B05461A784FF47A73B3FBF2F3F2
:100424000B4A1068B0FBF3F000F09CF8044658B98E
:100434000F2D09D8024629464FF0FF3000F042F84C
:100444002046044B1D6038BD0120FCE7000000205D
:100454002C00002004000020074A08B5136803207C
:1004640043F01003136000F01BF80020FFF7D0FFE7
:10047400FFF7BBFF002008BD00200240034A044BE5
:1004840011681B780B441360704700BF20020020E2
:1004940000000020014B1868704700BF20020020B4
:1004A40007490302CA6803F4E06322F4E062120419
:1004B400120C134343F0BF6343F40033CB60704723
:1004C40000ED00E0154B30B5DC68C4F30224C4F140
:1004D4000703251D042B28BF0423062D4FF0FF35E9
:1004E40094BF0024033C05FA03F321EA0303A54067
:1004F40022EA0502A340002843EA0203ACBF00F14C
:100504006040074A4FEA0313DBB2ABBF00F561401A
:1005140000F00F0080F80033135430BD00ED00E00C
:1005240014ED00E0002807DB01234109034A00F031
:100534001F00834042F82130704700BF00E100E013
:1005440000280CDB01220649430900F01F00824009
:10055400203341F82320BFF34F8FBFF36F8F7047D1
:1005640000E100E00138B0F1807F0BD24FF0E023CE
:10057400F021054A586182F823100020072298616F
:100584001A6170470120704700ED00E0002808DB85
:1005940001224309034900F01F008240603341F8FF
:1005A4002320704700E100E0704708B5FFF7FCFF27
:1005B40008BD704710B5044650B1437903F0FF02FB
:1005C40013B90271FFF7F5FF01230020637110BD19
:1005D4000120FCE710B5044640B10223037102F088
:1005E40015FD002020616071207110BD0120FCE721
:1005F400012310B558B1046801F01001226803FA10
:1006040001F122EA010222600371002010BD1846A4
:10061400FCE790F821200346022A06D004228263D4
:100624000120002283F8202070470268C06B116803
:1006340021F00E011160116821F001011160012106
:100644001A6C01FA02F24260002083F82110E8E7F4
:1006540008B590F82130022B03D0042383630120D2
:1006640008BD03681A6822F00E021A601A6822F0A4
:1006740001021A60284A934224D902F56272934215
:1006840019D01432934218D01432934217D0143232
:10069400934214BF4FF480334FF480531F4A536086
:1006A400012380F82130002380F82030436B03B10C
:1006B40098470020D4E70123F0E71023EEE74FF436
:1006C4008073EBE716498B4216D014318B4215D058
:1006D40014318B4214D014318B4214D014318B4218
:1006E40014D014318B4214D0934214BF4FF480338E
:1006F4004FF080730B4AD2E70123FBE71023F9E79D
:100704004FF48073F6E74FF48053F3E74FF48033EC
:10071400F0E74FF48013EDE780000240000402404C
:100724000800024000000240044A08B55169014231
:1007340002D0506102F028FD08BD00BF0004014052
:10074400F8B50446E0B190F8913203F0FF021BB90A
:1007540080F8902204F050FD032384F891320023A2
:100764002546637155F8040B01F099FE95E80E00D7
:10077400206801F084FE014628B1022384F89132F6
:1007840001252846F8BD206801F093FE0028F4D125
:1007940002460127267904F11003C1B28E4203F107
:1007A400280318D800210A4604F5A873C8B2864263
:1007B40003F128031BD895E80E00206801F07BFEA6
:1007C40005460028D9D101236073206884F891324A
:1007D40002F031F9D5E743E9062203F8277C03F850
:1007E400281C03F8252C43F8102C0130D5E743E9E5
:1007F400062203F8272C03F8280C03F8252C43F8C9
:10080400102C0131D2E738B5044610B90125284629
:1008140038BD032380F89132006802F0F9F80546E8
:100824000028F3D1204604F039FD84F89152EEE714
:1008340038B590F890320446012B10D0012580F889
:100844009052006801F022FE2946204600F020FE66
:10085400206802F0EEF8002084F8900238BD0220EF
:10086400FCE710B590F890320446012B10D0012318
:1008740080F89032006801F012FE0021204600F05A
:1008840007FE206802F0D7F8002084F8900210BD1B
:100894000220FCE710B590F890220446012A0AD001
:1008A4000122417380F89022006802F0BCF8002015
:1008B40084F8900210BD0220FCE700002DE9F04FFF
:1008C400044687B0006802F0B8F810F4004500F060
:1008D40025844FF02809C54E2068B0F84430190427
:1008E40002D407B0BDE8F08FB0F84470B9B217F085
:1008F4000F0740F0BF8011F0100126D103889BB28E
:10090400334043F400430380B0F85030227C9BB260
:1009140003EBC20300EB4303B3F80434626AC3F38A
:1009240009031A44E3622046626204F0D4FC637B48
:10093400002BD1D0A26A002ACED1637B216843F078
:100944008003A1F84C306273C6E70588ABB215F496
:10095400006521D0B0F8503094F850219BB203EBDD
:10096400C20300EB4303B3F80C34B4F85621C3F3C9
:100974000903C4F86C3104F5267102F0A5FA226863
:100984002046138823F070031B051B0D43F08003DE
:10099400138004F091FC9FE71B049DD5038823F08A
:1009A40070031B051B0D43F080030380B0F8503027
:1009B40094F850219BB203EBC20300EB4303B3F85A
:1009C4000C34C3F30903C4F86C318BB1D4F864114B
:1009D40071B1B4F8562102F077FAD4F86431D4F83E
:1009E4006C21294613442046C4F8643104F06AFC9F
:1009F40021680A88170593B23FF56EAF03F440539C
:100A0400B3F5405F3FF468AFB1F8502001F20C40F9
:100A140092B2835AD4F86051C3F309033E2D835232
:100A24001DD9835A6F09ED0608BF07F1FF379BB242
:100A340043EA87236FEA43436FEA53439BB28352EB
:100A44000B8823F4804323F070031B041B0C83F4F2
:100A5400405343F4004343F080030B803CE7835A44
:100A6400002DE7D005F001079BB207EB550543EADB
:100A74008523E3E730F8273019041FFA83F840F19F
:100A8400F38030F8273009FB074223F070031B057D
:100A94001B0D43F0800320F8273092F85C5192F844
:100AA4005031D2F8641100F5806E95B9B0F8505009
:100AB400ADB2063505EBC3033EF81350C5F3090583
:100AC400002D00F0B6802B46B2F8562102F0FCF956
:100AD400AFE092F85351022D40F08A8018F480451B
:100AE4000195B0F850504FEAC30BADB2D2F868C1CB
:100AF40008F0400A5D443CD002353EF81550C5F379
:100B04000905654514D94FF0000CC2F868C130F8E6
:100B1400232022F4804222F070021204120C82F488
:100B2400005242F4004242F0800220F8232006E002
:100B3400ACEB050CC2F868C1BCF1000FE7D0BAF108
:100B4400000F0DD030F8232022F4E04222F070028E
:100B54001204120C42F4004242F0C00220F8232096
:100B6400002D66D0282202FB07422B46B2F85821FA
:100B7400ACE706353EF81550C5F30905654514D9AB
:100B8400DDF804C0C2F868C130F8232022F48042A2
:100B940022F070021204120C82F4005242F4004259
:100BA40042F0800220F8232006E0ACEB050CC2F8EA
:100BB40068C1BCF1000FE7D0BAF1000F0DD130F8D5
:100BC400232022F4E04222F070021204120C42F4B8
:100BD400004242F0C00220F8232055B3282202FB31
:100BE40007422B46B2F85A2170E700BF0F8FFFFF70
:100BF40030F8235025F4E04525F070052D042D0C24
:100C040045F4004545F0C00520F8235092F85051B2
:100C140030F82530ED0013F4804FB0F850309BB21B
:100C24002B4452D002333EF81350C5F30905002D6E
:100C34009BD109FB07F16318D3F86C212A44C3F84C
:100C44006C21D3F864212A44C3F86421D3F86821C1
:100C54001AB1D3F860319D423FD209FB07432046C5
:100C640093F8501104F02EFB18F0800F3FF434AECB
:100C7400206809FB07FC30F827309BB2334043F46B
:100C8400004320F8273004EB0C03DA7C012A54D10A
:100C9400002107FB0992A1501A7F82B318F0400883
:100CA4005A7C34D002BBB0F850201B7C92B21B019A
:100CB40000F2044010441A5AC2F309021A521A5A92
:100CC40092B242F400421A5219E006333EF813502D
:100CD400C5F30905002DACD083E701F5A8712068A0
:100CE400214401F0C0FEBFE7012A08D1B0F850202A
:100CF4001B7C92B200F204401B01104419522823B9
:100D040003FB0743197C204604F0E5FAE4E53AB90D
:100D1400B0F850201B7C92B21B0100F20C40C9E7D2
:100D2400012AECD1B0F850201B7C92B200F20C40A6
:100D34001B01104423F80080E1E7197CB0F85050FF
:100D44004FEAC10AADB218F4807B9A6A00F5806E4E
:100D5400554417D102353EF81550C5F3090595429F
:100D640002D3C3F828B0CEE7521B9A625A6A0CF138
:100D740010012A445A62DA6A21442A44DA6201F0F0
:100D840072FEA9E518F0400C08F4804800F0E480F5
:100D940002353EF815501FFA88F8C5F30905954247
:100DA4002CBF0022521B9A62002A55D1282303FB30
:100DB40007435B7C002B3DD1B0F8502000F2044582
:100DC40092B20B011544EA5AC2F30902EA52EA5AF2
:100DD4006FEA42426FEA524292B2EA52B0F85020AD
:100DE40000F20C4092B21044C25AC2F30902C25239
:100DF400C25A6FEA42426FEA524292B2C25220464B
:100E040004F069FAB8F1000F00F0E480282303FB32
:100E140007432268197C32F8213023F4E04323F09D
:100E240070031B041B0C43F4404343F0800322F87B
:100E34002130CFE0012BE2D1B0F850C000F20445DC
:100E44001FFA8CFC65440B01EA52B0F8505000F2D2
:100E54000C40ADB22844D1E7B8F1000F0DD030F802
:100E6400212022F4E04222F070021204120C42F417
:100E7400404242F0800220F821204FF0280E0EFB61
:100E8400074E9EF83420012A40F0A480DEF8242086
:100E940002EB050CCEF824C0DA6A2A44DA62DEF8E2
:100EA4003030DEF82020934231D39B1ACEF8303014
:100EB400282303FB07435D7C93B2002D41D1B0F896
:100EC40050E000F204451FFA8EFE7544090135F81E
:100ED40001E03E2ACEF3090E25F801E023D94FEABA
:100EE400521ED2066A5A08BF0EF1FF3E92B242EA7F
:100EF4008E226FEA42426FEA524292B26A5228222A
:100F040002FB0742128B614601F09DFD62E01BB9B2
:100F14002A468EF83430CBE700228EF83420CEF8FF
:100F240030201A46C4E70AB96A5AE2E735F801E004
:100F340002F001081FFA8EFE08EB52024EEA8222EA
:100F4400DBE7012DDBD1B0F8505000F20442ADB222
:100F54002A4409015352D2E706353EF815501FFAC8
:100F640088F8C5F3090595428CBF6246521B9A6204
:100F7400002A57D1282303FB07435B7C002B3FD176
:100F8400B0F8502000F2044592B20B011544EA5A1D
:100F9400C2F30902EA52EA5A6FEA42426FEA524243
:100FA40092B2EA52B0F8502000F20C4092B21044CF
:100FB400C25AC2F30902C252C25A6FEA42426FEAEB
:100FC400524292B2C252204604F085F9B8F1000FA1
:100FD4003FF41CAF282303FB07472268397C32F80F
:100FE400213023F4E04323F040031B041B0C83F063
:100FF400300343F4004343F0800322F821306BE4D0
:10100400012BE0D1B0F850C000F204451FFA8CFC6B
:1010140065440B01EA52B0F8505000F20C40ADB2F6
:101024002844CFE7B8F1000F0DD130F8212022F485
:10103400E04222F070021204120C42F4404242F0E8
:10104400800220F821204FF0280E0EFB074E9EF858
:101054003420012ABED1DEF8242002EB050CCEF8A0
:1010640024C0DA6A2A44DA62DEF83030DEF820205E
:1010740093422ED39B1ACEF83030282303FB074328
:101084005D7C93B2002D3ED1B0F850E000F20C45E7
:101094001FFA8EFE7544090135F801E03E2ACEF3AD
:1010A400090E25F801E020D94FEA521ED2066A5AE9
:1010B40008BF0EF1FF3E92B242EA8E226FEA42422C
:1010C4006FEA524292B26A52282202FB0742528BC2
:1010D40019E71BB92A468EF83430CEE70022CEF841
:1010E40030208EF834201A46C7E70AB96A5AE5E771
:1010F40035F801E002F001081FFA8EFE08EB5202F7
:101104004EEA8222DEE7012DDED1B0F8502000F253
:101114000C4592B215440A01AB52D5E7420512D5EB
:1011240022682046B2F8443023F480631B041B0C6D
:10113400A2F8443004F0DBF82946204607B0BDE8A5
:10114400F04FFFF7A7BB43040AD52268B2F8443036
:1011540023F480431B041B0CA2F84430FFF7C1BBEB
:10116400870405D52268B2F8443023F40053F1E72C
:10117400C60419D522682046B2F8403023F004038F
:101184001B041B0CA2F84030B2F8403023F00803D3
:101194001B041B0CA2F8403004F0C6F82268B2F815
:1011A400443023F48053D5E7050548D5236802ADC0
:1011B400184629461A4603F1200632F8047B964263
:1011C40021F8027BF9D1B3F8402092B242F0010237
:1011D400A3F84020B3F8402022F001021204120CBC
:1011E400A3F84020B3F844205105FBD5B3F84420BC
:1011F40022F480621204120CA3F8442035F8022B66
:1012040020F8042B8642F9D1B3F84020204692B24C
:1012140042F00802A3F84020B3F8442022F400620C
:101224001204120CA3F84420B3F8402092B242F006
:101234000402A3F8402004F067F8FFF752BB8205CC
:101244000DD522682046B2F8443023F400731B0401
:101254001B0CA2F8443004F046F8FFF742BBC30568
:101264007FF53FAB2268B2F8443023F4807371E712
:1012740070B52824054601F00700444311F0800F9F
:1012840014BF04F1100104F5A87105EB040615BFA1
:1012940001240024747486F8514114BF4919491972
:1012A400022BCB7008BF0023087008BF0B710A61C2
:1012B40095F89032012B09D00123286885F89032E3
:1012C40001F00AF9002085F8900270BD0220FCE7C5
:1012D400282301F00702534311F0800F10B5044690
:1012E40018BF03F1100118440BBF03F5A8710123C3
:1012F400002309190ABF0919437480F851310A708F
:1013040094F89032012B09D00123206884F890329C
:1013140001F042FA002084F8900210BD0220FCE79C
:1013240070B52824002601F007014C43051985F8FF
:10133400501185F8516104F5A8710144C5E9592398
:10134400C5F86C61006801F08EFB304670BD28233F
:1013540001F0070103FB0100D0F86C01704770B580
:10136400282501F007014D434419C4E9092301224A
:101374000026217484F83420627405F110010144BC
:101384002363E662006801F06EFB304670BD38B539
:10139400037901F00705AB4204462AD311F0800F0C
:1013A4004FF028031CD001226B4303F110010344C6
:1013B40001445A7401230D708B7094F890229A4260
:1013C40019D0206884F8903201F0B9FA25B9206860
:1013D40004F5267101F035FB002084F8900238BD35
:1013E40000224B4303F5A8710344014483F85121BF
:1013F400E0E70120F3E70220F1E738B5027901F0D4
:101404000F039A42044626D3282301F007025343CC
:1014140011F0800F14BF03F1100103F5A8711844F3
:101424004FF0000515BF012300230919091914BF42
:10143400437480F851318D700A7094F89032012B06
:101444000BD00123206884F8903201F098FA2846E2
:1014540084F8905238BD0120FCE70220FAE710B569
:10146400282411F0800F1BBF01F0070104FB0100C9
:1014740004FB0100103008BF00F5A87099B21AB936
:101484000273C180002010BD012283600273F9E75A
:101494007047000070B5FEF7FDFF05462F4C23682A
:1014A40043F00103236023689B073BD5236841F283
:1014B400883623F0F80343F080032360FEF7EAFF45
:1014C400002305466360636813F00C0F32D1244B8C
:1014D400244A1A60244B1868FEF79AFF0546002830
:1014E4003AD1FEF7D7FF0646236823F080732360C2
:1014F400236813F0007323D16360FEF7CBFF064625
:10150400236823F410232360236813F400331DD1CC
:10151400226822F480222260626A42F0807262624F
:10152400A36005E0FEF7B6FF401B0228BBD90325E4
:10153400284670BDFEF7AEFF401BB042C3D9F6E7A4
:10154400FEF7A8FF801B0228D2D9F0E7FEF7A2FF1E
:10155400801B6428D8D9EAE70125E9E70010024096
:101564002C00002000127A00040000202DE9F34131
:10157400054638B30368DB0710D42B689F075ED495
:101584002B68190700F195802B685A0700F1C18078
:10159400EB69002B40F02C81002029E0904C63681B
:1015A40003F00C03042B07D0636803F00C03082B2F
:1015B4000AD16368DE0307D523689C03DDD56B6815
:1015C400002BDAD1012013E06B68B3F5803F12D110
:1015D400236843F480332360FEF75CFF06462368E8
:1015E4009803CAD4FEF756FF801B6428F7D903205A
:1015F40002B0BDE8F0819BB9236823F480332360F3
:10160400236823F480232360FEF744FF06462368FF
:101614009903B2D5FEF73EFF801B6428F7D9E6E7AD
:10162400B3F5A02F236803D143F480232360CFE7CD
:1016340023F480332360236823F48023CBE7684CAE
:10164400636813F00C0F07D0636803F00C03082BD6
:1016540010D16368DA030DD423689B0702D52B6984
:10166400012BAFD123686A6923F0F80343EAC2036C
:10167400236085E72A695B4B6AB101221A60FEF791
:1016840009FF064623689F07ECD4FEF703FF801B7F
:101694000228F7D9ABE71A60FEF7FCFE064623687A
:1016A40098077FF56DAFFEF7F5FE801B0228F6D98B
:1016B4009DE7AA694A4E4B4BE2B10122C3F880244C
:1016C400FEF7E8FE0446736A9B070DD54FF4FA5201
:1016D400454B1B68B3FBF2F3019300BF019B5A1EF9
:1016E4000192002BF9D14FE7FEF7D4FE001B02282C
:1016F400E9D97CE7C3F88024FEF7CCFE0446736A7C
:101704009F077FF541AFFEF7C5FE001B0228F6D9FF
:101714006DE7334CE369D80024D40127E36943F02F
:101724008053E361E36903F080530093009B2F4EE1
:101734003368D90518D5EB68012B26D1236A43F009
:1017440001032362FEF7A6FE41F288380646236AA7
:101754009B073FD5002F3FF41BAFE36923F0805371
:10176400E36115E70027E2E7336843F480733360ED
:10177400FEF790FE80463368DA05DCD4FEF78AFE75
:10178400A0EB08006428F6D931E7ABB9236A41F22B
:10179400883823F001032362236A23F004032362BD
:1017A400FEF778FE0646236A9807D3D5FEF772FE45
:1017B400801B4045F7D91AE7052B236A03D143F070
:1017C40004032362BAE723F001032362236A23F0AC
:1017D4000403B6E7FEF75EFE801B4045B7D906E773
:1017E40000100240000042422C0000200070004023
:1017F4002A4C626802F00C02082A3ED00022022B16
:10180400274B1A662CD1FEF745FE0646236899013C
:1018140020D42B6AB3F5803F05D16268A96822F40D
:1018240000320A436260696A62680B4322F47412EC
:101834001343012263601A4B1A66FEF72BFE05461A
:1018440023689A013FF5A8AEFEF724FE401B022848
:10185400F6D9CCE6FEF71EFE801B0228D6D9C6E6D2
:10186400FEF718FE054623689B017FF595AEFEF74B
:1018740011FE401B0228F6D9B9E6012B3FF4A2AEB3
:1018840060682B6A00F480329A427FF49BAE6B6AE4
:1018940000F47010C01A18BF0120A9E6001002401D
:1018A400000042420D4A536803F00C01082912D18A
:1018B4000B48C3F38341DB03405C09D55368094AF1
:1018C400C3F340435043084AD35CB0FBF3F0704782
:1018D400064B584370470348704700BF001002404E
:1018E4006461000800127A006261000800093D008A
:1018F4002DE9F0410D46044610B90120BDE8F08100
:10190400444A136803F007038B4228D321688E07E7
:1019140030D4CA0743D43F4A136803F00703AB42E9
:1019240065D822683C4D12F0040F6CD1130706D51C
:101934006B68226923F4605343EAC2036B60FFF7C8
:10194400B1FF6B68354AC3F30313D35CD840344BFF
:101954001860344B1868FEF75BFD0020CEE713686F
:1019640023F007030B431360136803F007038B4250
:10197400C3D1CBE7284B11F0040F1EBF5A6842F4C1
:10198400E0625A60080742BF5A6842F460525A60E3
:101994005A68A06822F0F00202435A60B9E762680C
:1019A4001D4E012A33681AD113F4003FA5D0736881
:1019B40041F2883823F0030313437360FEF76AFD92
:1019C40007467368626803F00C03B3EB820FA2D07E
:1019D400FEF760FDC01B4045F3D903208EE7022AC1
:1019E40002D113F0007FE1E713F0020FDEE7136882
:1019F40023F007032B431360136803F00703AB4280
:101A04007FF47BAF8DE76B68E16823F4E0630B43FD
:101A14006B608BE70020024000100240B4610008B4
:101A24002C0000200400002003682DE9F341054642
:101A3400D80720D5364CE369D9002AD40126E369B6
:101A440043F08053E361E36903F080530193019B06
:101A5400304F3B68DA051ED5236A13F440732ED148
:101A6400236A6A6823F44073134323621EB1E36953
:101A740023F08053E3612A68910706D52449A868B6
:101A84004B6823F4404303434B60D30637D4002010
:101A940012E00026DCE73B6843F480733B60FEF70A
:101AA400F9FC80463B68DB05D6D4FEF7F3FCA0EBDB
:101AB40008006428F6D9032002B0BDE8F0816A6802
:101AC40002F440729A42CBD00120134A236AC2F82E
:101AD4004004002023F44071DF07C2F8400421626F
:101AE400BED5FEF7D7FC41F288380746236A98072B
:101AF400B6D4FEF7CFFCC01B4045F7D9DBE7044A58
:101B04006969536823F480030B435360BFE700BF44
:101B140000100240007000400000424270477047CD
:101B2400036870B5DD681E690446B1070DD5AA07C0
:101B34000BD56FF002021A61012202779B699B07A1
:101B440069D000F09AFC00232377710710D56A0747
:101B54000ED56FF00402236820461A610222227710
:101B64009B6913F4407F5CD000F087FC002323774B
:101B740033070FD528070DD56FF0080223682046D8
:101B84001A6104222277DB69990750D000F075FCB2
:101B940000232377F20610D5EB060ED56FF0100262
:101BA400236820461A6108222277DB6913F4407FF8
:101BB40043D000F062FC00232377F00708D5E9073F
:101BC40006D56FF00102236820461A6100F032FC4A
:101BD400320608D52B0606D56FF08002236820460E
:101BE4001A6100F09CF8700608D5690606D56FF0F6
:101BF4004002236820461A61FFF791FFB20622D5FE
:101C0400AB0620D56FF0200223682046BDE8704063
:101C14001A6100F083B800F02EFC2046FFF77EFF27
:101C240091E700F028FC2046FFF778FF9EE700F0DC
:101C340022FC2046FFF772FFAAE700F01CFC2046B6
:101C4400FFF76CFFB7E770BD1D4A0368904212D0DE
:101C540002F5006290420ED0B0F1804F0BD0A2F595
:101C64009832904207D002F58062904203D002F588
:101C74008062904207D14A6823F070031343CA6814
:101C840023F4407313434A6923F08003134303602E
:101C94008B68C3620B688362094B984203D003F5D7
:101CA4000063984201D10B69036301234361036913
:101CB400DB0742BF036923F001030361704700BFE0
:101CC400002C014010B5044630B390F83D3003F0C9
:101CD400FF021BB980F83C2001F004FF02232068B6
:101CE40084F83D30211DFFF7AFFF0123002084F865
:101CF400463084F83E3084F83F3084F8403084F82D
:101D0400413084F8423084F8433084F8443084F815
:101D1400453084F83D3010BD0120FCE77047704722
:101D2400026802F10C0353E8003F23F490730C3271
:101D340042E8003102680029F2D102F1140353E8A9
:101D4400003F23F0010302F1140C4CE80031002998
:101D5400F3D1036B012B0BD102F10C0353E8003FC9
:101D640023F0100302F10C0C4CE800310029F3D1EC
:101D7400202380F8423000230363704790F84130F9
:101D8400202B10D189B182B1C28482840023212204
:101D940001620168436480F84120CA68184642F031
:101DA4008002CA607047022070470120704708B55E
:101DB4000023406AC385C38401F022FF08BD704735
:101DC40090F8423007B5222B42D181680268B1F500
:101DD400805F836A3FD1016900293FD15268C2F311
:101DE400080223F8022B8362C38D013B9BB2C38597
:101DF400002B2DD10268D16821F02001D160D16877
:101E040021F48071D160516921F0010151612022D6
:101E140080F842204363026B012A026828D10363DD
:101E240002F10C0353E8003F23F0100302F10C0C01
:101E34004CE800310029F3D11368DB0605D5019184
:101E44001368019353680193019B818DFFF7B7FFDA
:101E540003B05DF804FB39B9016929B95268D2B2FB
:101E64001A70836A0133BEE7526802F07F02F7E713
:101E740001F0C0FEECE70000036873B51A6804467D
:101E84001607D9685D6908D1960668D58D0666D5AA
:101E940002B0BDE87040FFF793BF05F0010001F404
:101EA400907505435BD0D60705D5CD0542BF636C5D
:101EB40043F001036364530704D518B1636C43F022
:101EC40002036364960704D518B1636C43F00403FA
:101ED4006364150707D501F0200303431EBF636C39
:101EE40043F008036364636C002B32D0920604D57C
:101EF4008B0602D52046FFF763FF266820467369E8
:101F0400626C03F0400302F0080253EA020522D097
:101F1400FFF706FF73695E0618D5226802F1140301
:101F240053E8003F23F04003143242E80031002913
:101F3400F3D1E06B50B1744B4363FEF789FB40B1BE
:101F4400E06B436B02B0BDE870401847204601F0D7
:101F540057FE02B070BD01F053FE6564F9E7206BD3
:101F6400012840F09480D50640F19180C80640F1E4
:101F74008E80002201921A6801925A680192019A95
:101F84005A6952064DD5E16B0A68526892B2002A2A
:101F9400DFD0A08D9042DCD9E2858A69202A36D030
:101FA40003F10C0252E8002F22F4807203F10C00BA
:101FB40040E800210029F3D103F1140252E8002F74
:101FC40022F0010203F1140040E800210029F3D1BA
:101FD40003F1140252E8002F22F0400203F114002E
:101FE40040E800210029F3D1202284F84220216313
:101FF40003F10C0252E8002F22F0100203F10C004E
:1020040040E800210029F3D1E06BFEF702FB022334
:102014006363E38DA18DC91A89B22046FFF7CFFE11
:1020240097E7E28DE18D92B289B2002991D0A18D1A
:10203400891A89B200298CD003F10C0252E8002FCE
:1020440022F4907203F10C0545E800200028F3D136
:1020540003F1140252E8002F22F0010203F11405E7
:1020640045E800200028F3D1202284F84220206390
:1020740003F10C0252E8002F22F0100203F10C05C8
:1020840045E800200028F3D102236363C5E7160660
:1020940028D50D0626D594F84120212A7FF459AF7E
:1020A400A168226AB1F5805F17D12169A9B932F814
:1020B400021BC1F3080159602262E28C013A92B218
:1020C400E284002A7FF445AFDA6822F08002DA6005
:1020D400DA6842F04002DA603BE7511C2162127870
:1020E4005A60EAE750067FF534AF4A067FF531AF10
:1020F400DA68204622F04002DA60202384F8413076
:1021040001F07BFD25E700BFB31D000890F84030C7
:10211400012B11D02423026880F84130D36823F0C6
:102124000C0343F00803D360202380F841300023DC
:1021340080F84030184670470220704790F84030CD
:10214400012B11D02423026880F84130D36823F096
:102154000C0343F00403D360202380F841300023B0
:1021640080F84030184670470220704790F84120AC
:1021740090F84200104370470023C2854364222331
:102184008285026980F84230816203681AB1DA6894
:1021940042F48072DA605A69002042F001025A6106
:1021A400DA6842F02002DA60704770B590F8426055
:1021B400202E07D141B13AB100240463FFF7DCFFBC
:1021C400204670BD0220FCE70120FAE7836810B5C1
:1021D40004462BB10322014698470023C4E9023385
:1021E40010BD836810B5044613B103220146984715
:1021F400204610BD1B4B984221D0B0F1804F20D017
:10220400A3F5943398421ED003F5806398421CD002
:1022140003F5806398421AD003F58063984218D07E
:1022240003F58063984216D003F59033984214D096
:102234004FF6FF734FF6FF72934210D1FEE700236F
:10224400F8E70120704702207047032070470420FC
:10225400704705207047062070470720704700200C
:10226400704700BF002C0140014670B5044651F888
:10227400100FFFF7BFFF0546084601F063FB00237C
:10228400084A04F1600642F82530E36004F1B00521
:10229400B54204D0103D2846FFF7A3FFF8E72046D7
:1022A40070BD00BF24020020F8B504460846FFF7BD
:1022B400A1FF236903B1FEE71B4D04F10C0245F8AD
:1022C40020200E2204F110063046C4E90C33C4E980
:1022D4000E33C4E91033C4E91623216184F82C3089
:1022E400A36484F84C3084F84D30E46001F0A8FA1B
:1022F40004F1600504F1B00728461035FFF766FFC6
:10230400BD42F9D100234FF6FF72C4E90033C4E99A
:102314000632C4E90833A360636180233046A362B4
:10232400BDE8F840FFF7CEBC24020020034B186838
:1023340010B10430FFF7F4BB704700BF2402002043
:10234400FFF7F4BF034B586810B10430FFF7E8BB44
:10235400704700BF24020020034B986810B104307A
:10236400FFF7DEBB704700BF24020020034BD86890
:1023740010B10430FFF7D4BB704700BF2402002023
:10238400034B186910B10430FFF7CABB704700BF94
:1023940024020020034B586910B10430FFF7C0BB7E
:1023A400704700BF24020020034B986910B1043029
:1023B400FFF7B6BB704700BF24020020034BD86967
:1023C40010B10430FFF7ACBB704700BF24020020FB
:1023D400FFF7F4BF0022C0E90022C0E902227047DF
:1023E400F8B504460E4600F1600500F1B007284632
:1023F4001035FFF7EFFFBD42F9D1002320463146E7
:102404002361FFF751FF2046F8BD826810B50AB971
:1024140003F022FEC368BDE81040184708B500B9B0
:10242400FEE701F00BFA0068836E13B16030FFF72A
:10243400ECFF08BDFFF7F2BF10B500B9FEE7037F5C
:10244400013B072B10D8DFE803F004140F100F0F23
:102454000F12012401F0F2F90068063400EB0410B5
:1024640083680BB1FFF7D1FF10BD0324F2E7042406
:10247400F0E70224EEE7FFF7DFBFFFF7DDBF84B02C
:1024840004A800E90E00002004B0704703464FF48E
:102494003F420020A3F84400A3F840207047B0F85E
:1024A400403023F47C535B045B0CA0F840300020E4
:1024B4007047002070471FB5044604A800E90E00C9
:1024C40000200123A4F84030A4F84000A4F84400FC
:1024D400A4F8500004B010BDF0B50A78CD7830F8F7
:1024E4002240034624F4EC4424F070042404240C15
:1024F400032D03D8DFE805F041494745012048F2A0
:1025040080073C4323F8224033F822409F4EA4B274
:10251400344014433C4323F822400C7B03EB021C5D
:10252400002C40F08C80CC884F78640864007FB322
:10253400B3F8501089B26144A1F8004433F8221072
:102544004C0609D533F8221089B2314041F40041D8
:1025540041F0C00123F8221033F822108C4C89B2C8
:10256400012D01EA040101D081F0200141F4004170
:1025740041F0800123F822104DE0284644F4007411
:10258400BDE744F4C0640020B9E744F48064FAE78A
:10259400B3F85050ADB26544A5F80844B3F85040C0
:1025A400A4B26444B4F80C54C5F30905A4F80C545B
:1025B4000D693E2D30D9E906B4F80C144FEA5516CE
:1025C40008BF06F1FF3689B241EA86216FEA41412C
:1025D4006FEA514189B2A4F80C1433F822104F0465
:1025E4000DD533F8221021F4E04121F070010904E3
:1025F400090C41F4404141F0800123F82210654C5C
:10260400B2B91A8892B2224082F4405242F4004293
:1026140042F080021A80F0BDB4F80C14002DD5D01D
:1026240005F0010689B206EB550541EA8521D1E79B
:1026340033F8221089B2214081F4005196E7022D2B
:1026440033F822405BD1A4B2344044F4014444F052
:10265400800423F82240B3F850400E89A4B27608CF
:1026640064447600A4F800644E89B3F850407608B8
:10267400A4B264447600A4F808644978002948D1D7
:1026840033F822104E040DD533F8221021F4E04122
:1026940021F070010904090C41F4404141F080012A
:1026A40023F8221033F822104D060DD533F82210EA
:1026B40021F4E04121F070010904090C41F40041C6
:1026C40041F0C00123F8221048F2800433F82210AC
:1026D40021F4804121F070010904090C81F4405176
:1026E400214323F8221033F8221021F4E04121F091
:1026F40040010904090C0C4323F822408BE724F41D
:10270400E24424F070042404240C274323F82270A8
:10271400A1E733F822104C040DD533F8221021F42C
:10272400E04121F070010904090C41F4404141F0F9
:10273400800123F8221033F8221049060DD533F80E
:10274400221021F4E04121F070010904090C41F444
:10275400004141F0C00123F8221033F822100C4C40
:1027640089B22140012D18BF81F0200141F40041BC
:1027740041F0800123F8221033F8221021F4804123
:1027840021F070010904090CF0E600BF8F8FFFFFF0
:10279400BF8FFFFF8FBFFFFF4A780B78097BD9BB40
:1027A4000AB330F8232051060DD530F8232022F443
:1027B400E04222F070021204120C42F4004242F091
:1027C400C00220F8232030F8232022F4E04222F033
:1027D40040021204120C42F4004242F0800220F83B
:1027E40023200020704730F8232052040DD530F800
:1027F400232022F4E04222F070021204120C42F46C
:10280400404242F0800220F8232030F8232022F4B2
:10281400804222F07002DCE7002A4AD130F82320FB
:1028240051040DD530F8232022F4E04222F0700246
:102834001204120C42F4404242F0800220F8232099
:1028440030F8232052060DD530F8232022F4E0423C
:1028540022F070021204120C42F4004242F0C00250
:1028640020F8232048F2800130F8232022F4E042AB
:1028740022F070021204120C42F4004242F0C00230
:1028840020F8232030F8232022F4804222F0700222
:102894001204120C0A4320F8232030F8232022F4D7
:1028A400E04222F040021204120C114320F82310DB
:1028B40097E730F8232051040DD530F8232022F473
:1028C400E04222F070021204120C42F4404242F040
:1028D400800220F8232030F8232052060DD530F84A
:1028E400232022F4E04222F070021204120C42F47B
:1028F400004242F0C00220F8232048F2800130F860
:10290400232022F4E04222F070021204120C42F45A
:10291400404242F0800220F8232030F8232022F4A1
:10292400E04222F040021204120C0A4320F8232051
:1029340030F8232022F4804222F07002B3E74B786F
:102944000A788BB130F8223023F4E04323F04003BB
:102954001B041B0C83F0100343F4004343F0800377
:1029640020F822300020704730F8223023F48043CE
:1029740023F070031B041B0C83F48053ECE70B7BE4
:102984003BBB4B780A7833B330F822305B060DD565
:1029940030F8223023F4E04323F070031B041B0CB3
:1029A40043F4004343F0C00320F82230CB78012BDA
:1029B4000FD030F8223023F4E04323F040031B040B
:1029C4001B0C83F0200343F4004343F0800320F8FE
:1029D40022300020704730F822305B040DD530F8E7
:1029E400223023F4E04323F070031B041B0C43F454
:1029F400404343F0800320F8223030F8223023F49F
:102A0400804323F070031B041B0C83F44053DAE768
:102A140001220346A0F8402000200322A3F844002A
:102A2400A3F84020704711B98023A0F84C3000204F
:102A340070470020704700207047B0F8440080B20F
:102A440070470020704700EB4200013300F58060BE
:102A54005B0800EB8303834200D1704731F8022BFB
:102A640020F8042BF7E72DE9F0474B780446012BB7
:102A74000D460A7B40F01581D1F810908F694969A1
:102A84004F4528BF4F460ABBBFB2EA883B46FFF713
:102A9400DAFFB4F85000297880B204F20442090144
:102AA40002448F522A7834F8223023F4E04323F08E
:102AB40040031B041B0C83F03003002043F4004349
:102AC40043F0800324F82230BDE8F087EB7895F8D2
:102AD40000E0022B2E6A4FEA0E1C40F0CD80B14577
:102AE40030F82E2080F0B18022F4E04222F070020F
:102AF4001204120C42F4014242F0800220F82E200B
:102B040030F82E80B0F850E0F61B18F040082E6222
:102B140001EB070ABBB21FFA8EFE4DD000F20C4245
:102B2400724422F80C306A89FFF78DFFB14536BF35
:102B3400F31B00233E466A782B62C5F814A0B3B297
:102B440072BBB4F85020287892B204F20441000118
:102B54001144425A3E2EC2F30902425215D9F206DA
:102B6400425A4FEA561708BF07F1FF3792B242EABA
:102B740087226FEA42426FEA524292B242522A8953
:102B840051462046FFF75FFF8CE7425A002EF0D0F3
:102B940006F0010792B207EB560642EA8622ECE7FA
:102BA400012AECD1B4F85000297880B204F204422E
:102BB400090102448B52E2E700F20442724422F813
:102BC4000C302A89FFF73FFFB14536BFF31B43465C
:102BD4003E466A782B62C5F814A0B3B24ABBB4F877
:102BE4005020287892B204F20C4100011144425A58
:102BF4003E2EC2F30902425210D9425A7709F60610
:102C040008BF07F1FF3792B242EA87226FEA4242D5
:102C14006FEA524292B242526A89B1E7425A002E96
:102C2400F4D006F0010792B207EB560642EA862278
:102C3400F0E7012AF0D1B4F85000297880B204F208
:102C44000C42090102448B52E6E722F4E24222F0EC
:102C540070021204120C42F4004242F0800220F886
:102C64002E20B0F8503000F204429BB21A44B3B2A2
:102C740022F80C302A8985E730F82E20F61B2E62C4
:102C8400B0F850605206BBB2B6B206D500F20C42A0
:102C9400324422F80C306A8974E700F20442324468
:102CA400E6E7002A3BD18B690969B0F850008B42F2
:102CB40084BF5A1A0B462978AA6180B204F20C42E6
:102CC40009010244885A3E2BC0F3090088521AD9DC
:102CD4005809DB068B5A08BF00F1FF309BB243EA68
:102CE40080236FEA43436FEA53439BB28B522A78A3
:102CF40034F8223023F4804323F070031B041B0CAC
:102D040083F44053D9E60BB98B5AEAE7885A03F0A7
:102D1400010680B206EB530340EA8323E5E7CA7851
:102D2400022A70D1002B38D1B0F850200B7892B21F
:102D340000F204401B011044C25AC2F30902C252F9
:102D44000A693E2A44D9C15A5609D70608BF06F172
:102D5400FF3689B241EA86216FEA41416FEA514167
:102D640089B2C152B4F8500004F20C4180B201445B
:102D7400C85A3E2AC0F30900C85234D95009D606AD
:102D8400CA5A08BF00F1FF3092B242EA80226FEAC9
:102D940042426FEA524292B2CA52EB69002BA6D069
:102DA4002A7834F82210480401F0400327D5002B78
:102DB4009DD034F8223023F4E04323F070031B0445
:102DC4001B0C43F4004343F0C00324F822308EE785
:102DD400C15A002AC0D002F0010689B206EB52069D
:102DE40041EA8621BCE70AB9CA5AD0E7C85A02F0B8
:102DF400010680B206EB520240EA8222CBE7002BA6
:102E04007FF475AFD5E7012A5CD18A6909698A42E2
:102E140094BF0020501AA86188BF0A46002B7FF493
:102E240066AFB4F850102B7889B204F204401B0149
:102E34000844C15A3E2AC1F30901C1522BD9D10613
:102E4400C15A4FEA521608BF06F1FF3689B241EA69
:102E540086216FEA41416FEA514189B2C152B4F807
:102E6400500004F20C4180B20144C85A3E2AC0F317
:102E74000900C8521AD95009D206CA5A08BF00F12B
:102E8400FF3092B242EA80226FEA42426FEA524233
:102E940092B2CA522BE7C15A002ADAD002F00106D4
:102EA40089B206EB520641EA8621D6E70AB9CA5A24
:102EB400EAE7C85A02F0010680B206EB520240EA81
:102EC4008222E5E70120FFE500EB4200F0B500F5C2
:102ED40080605D0807460C462E46023436B9DB078F
:102EE40044BF30F8253001F81530F0BD37F8042B15
:102EF400013E92B204F8022C120A04F8012CECE709
:102F040002F00CBF02F012BF88B006285AD8DFE8DE
:102F140000F004111D2935414D002B4B2B489A69B3
:102F240042F004029A619B6903F004030193019B3C
:102F340008B07047244B26489A6942F008029A6107
:102F44009B6903F008030293029BF1E71E4B21489F
:102F54009A6942F010029A619B6903F0100303938B
:102F6400039BE5E7184B1C489A6942F020029A61DA
:102F74009B6903F020030493049BD9E7124B174881
:102F84009A6942F040029A619B6903F040030593F9
:102F9400059BCDE70C4B12489A6942F080029A6176
:102FA4009B6903F080030693069BC1E7064B0D481B
:102FB4009A6942F480729A619B6903F4807307935F
:102FC400079BB5E70020B3E700100240000801406A
:102FD400000C0140001001400014014000180140A1
:102FE400001C01400020014008B5074900F0FBFB2C
:102FF400C0F3C430012802D0022802D0FEE700202A
:1030040008BD1020FCE700BFC86500080268094B32
:103014009A420DD103F5CE331A6942F000521A6177
:103024001A6922F000521A61DA6922F00052DA6158
:10303400704700BF0074004010B5094986B00446CB
:1030440000F0AFFB019048B12046FFF7CDFF0146E9
:1030540001A8FDF7CDFA01A8FDF7BCFA06B010BD32
:10306400C8650008F8B51349064600F09AFBFFF757
:10307400C1F8114F054657F8203073B9B020FFF757
:103084003FFF0C490446304600F08BFB01462046C6
:10309400FFF7A6F957F825301C601C6844B1204698
:1030A400FFF7E2F82046BDE8F840B021FFF72ABF59
:1030B400F8BD00BF1063000824020020FDF7EAB940
:1030C400704708B5FDF7DAF9FDF76FFAFFF7F8FF77
:1030D40008BD70470F4B84B0DA6942F08052DA6160
:1030E400DA6902F080520192019A9A6942F001026F
:1030F4009A619A6902F001020292029A5A6942F0B4
:1031040040025A615B6903F040030393039B04B0DC
:10311400704700BF001002400C4BD3F8FC20D201D2
:103124005EBFD3F8FC2042F08072C3F8FC2000227A
:10313400074B5A601A6842F001021A6000BF00BFD0
:1031440000BF5868B0FA80F04009704700ED00E015
:10315400001000E008B5FFF7BDFFFFF7DDFFFDF746
:103164007BF9FFF7B6FF02F038FA0348FDF722FABD
:10317400BDE8084002F028BA240000200023C0E97A
:103184000033C0E9023370470023012803F1010230
:103194000AD11422DBB25343054A181D1044816836
:1031A40029B11A441369184713464008EDE77047DC
:1031B400440200200120FDF7B7BA0220FDF7B4BA9B
:1031C4000420FDF7B1BA0820FDF7AEBA1020FDF7D0
:1031D400ABBA08B52020FDF7A7FA4020FDF7A4FA02
:1031E4008020FDF7A1FA4FF48070FDF79DFABDE849
:1031F40008404FF40070FDF797BA38B506244FF431
:103204008065A8B2FDF790FA013C4FEA4505F8D174
:1032140038BD0000344A08B51046062300F8043BC4
:10322400FFF7ACFF072302F118001375FFF7A6FFA1
:10323400082302F12C0082F82830FFF79FFF0923AE
:1032440002F1400082F83C30FFF798FF0A2317216F
:1032540002F1540082F85030FFF790FF02F1680049
:1032640082F86410FFF78AFF02F17C0082F878107C
:10327400FFF784FF02F1900082F88C10FFF77EFFC5
:1032840002F1A40082F8A010FFF778FF82F8B410CE
:10329400282102F1B800FFF771FF02F1CC0082F897
:1032A400C810FFF76BFF02F1E00082F8DC10FFF7B3
:1032B40065FF02F1F40082F8F010FFF75FFF02F5FA
:1032C400847082F80411FFF759FF02F58E7082F8BA
:1032D4001811FFF753FFBDE8084002F5987082F813
:1032E4002C11FFF74BBF00BF4402002038B5054C3A
:1032F400A4F5A075143C201DFEF773FFAC42F9D170
:1033040038BD00BF84030020A04B82B09A69013805
:1033140042F001029A619B6903F001030193019B4E
:103324002B2834D8DFE810F02C0035003C00430093
:1033340048004F0054005B00600067007000750097
:103344007C0085008A0091009A00A300A800AF00C9
:10335400B800BD00C400330033003300C900D000FE
:10336400D500DC00E100E800ED00F400F900FE0007
:10337400030108010D0112011901200127012D018A
:10338400834A536843F0E06343F00103536002B09F
:1033940070477F4A536823F0010343F0E063F5E785
:1033A4007B4A536843F0E06343F00203EEE7784A54
:1033B400536823F00203F0E7754A536843F0E0636F
:1033C40043F00403E2E7724A536823F00403E4E79A
:1033D4006F4A536843F0E06343F00803D6E76C4A4E
:1033E400536823F00803D8E7694A536843F0E0635D
:1033F40043F03003CAE7664A536823F0300343F0CE
:10340400E06343F01003C1E7614A536823F03003DB
:10341400C3E75F4A536843F0E06343F0C003B5E792
:103424005B4A536823F0C00343F0E06343F0400376
:10343400ACE7574A536823F0C003AEE7544A5368D5
:1034440043F0E06343F44073A0E7514A536823F424
:10345400407343F0E06343F4007397E74C4A5368C6
:1034640023F4407343F0E06343F480738EE7484AE7
:10347400536823F4407390E7454A536843F0E0638C
:1034840043F4406382E7424A536823F4406343F0C1
:10349400E06343F4006379E73D4A536823F44063EF
:1034A4007BE73B4A536843F0E06343F480536DE7A2
:1034B400374A536823F480536FE7354A536843F01F
:1034C400E06343F4004361E7314A536823F4004363
:1034D40063E72F4A536843F0E06343F4803355E7CE
:1034E4002B4A536823F4803357E7294A536843F03F
:1034F400E06343F4003349E7254A536823F4003377
:103504004BE7234A536843F0E06343F480233DE7E9
:103514001F4A536823F480233FE71D4A536843F04E
:10352400E16333E71A4A536823F4002335E7184A62
:10353400536843F0E26329E7154A536823F4801380
:103544002BE7134A536823F0E0631FE7104A5368DC
:1035540023F0E06343F0807318E70D4A536823F0C7
:10356400E06343F0007311E7094A536823F0E06312
:1035740043F080630AE7064AD36943F48063D36166
:1035840005E7034AD36923F48063F8E70010024097
:103594000000014091FAA1F3B3FA83F370B50D0E64
:1035A4000F2691FAA1F1B1FA81F144599B0006FA70
:1035B40003F3890024EA03048A402243425170BD84
:1035C40091FAA1F3B3FA83F370B50D0E042691FAC0
:1035D400A1F1B1FA81F144599B0006FA03F3890081
:1035E40024EA03048A402243425170BD431C04D0A0
:1035F4000C3151F80C3C5A1C01D100207047834215
:1036040001F10C01F5D1012070470000431C2DE9A4
:10361400F34106460F4600D1FEE7594B00F00F0276
:10362400C0F3031001F0070853F82240FFF76CFCC5
:10363400B8F1010F054615D194FAA4F3B3FA83F354
:103644000321200E2A589B0001FA03F322EA030205
:1036540094FAA4F3B3FA83F39B00994011432950DD
:10366400012213E0C7F30620B8F1030F0AD801A31F
:1036740053F828F08B36000865360008EF3600084A
:10368400FD360008FEE7FFF73FFE082221462846E4
:1036940008F1FF38FFF77EFFB8F1010F06D817F0E5
:1036A400080218BF04222146FFF78AFF94FAA4F205
:1036B400230EB2FA82F2E9580F239200934094FA4F
:1036C400A4F2B2FA82F2C7F301170B409200012F61
:1036D40023FA02F312D0022F3BD0082B21D104226B
:1036E40021462846FFF756FF1BE07F2801D1092217
:1036F400CCE7FFF709FEFAE70022C7E7042B04D161
:10370400082221462846FFF745FF230A93FAA3F32C
:10371400B3FA83F20123E968934021EA14210B43AD
:10372400EB60184B9A6942F001029A619B6903F0BD
:1037340001030193019BA6F10D03012B14D8124A36
:10374400536823F0E06343F08063536002B0BDE844
:10375400F081042B04D1082221462846FFF71AFFE2
:10376400EB6823EA1423DBE70F2E02D0133E012E6D
:10377400ECD8054A536823F0E06343F00073E4E7B0
:103784007461000800100240000001400B685A1CDC
:1037940001D100207047834201D1486870470C3141
:1037A400F4E7431C01D0FFF7F1BF002070474B68DA
:1037B40013B94FF0FF307047834201D10868704756
:1037C4000C31F4E708B1FFF7F2BF4FF0FF30704758
:1037D40003460868421C00D17047984201D18868AA
:1037E40070470C31F5E7431C01D0FFF7F1BF704778
:1037F4000F4B1A6842F001021A6059680D4A0A40D8
:103804005A601A6822F0847222F480321A601A68AC
:1038140022F480221A605A6822F4FE025A604FF49D
:103824001F029A604FF00062034B9A60704700BF1A
:10383400001002400000FFF800ED00E0043870477B
:103844000368384A88B0934218D102F564429169FA
:1038540041F400619161926902F400620092009A5D
:10386400314A934217D1314BDA6942F01002DA61DE
:10387400DB6903F010030593059B43E0B3F1804F2C
:1038840017D12A4AD16941F00101D161D26902F00C
:1038940001020192019A264A934218D1234BDA6914
:1038A40042F02002DA61DB6903F020030693069BF1
:1038B40028E0204A934218D102F50332D16941F03D
:1038C4000201D161D26902F002020292029A1A4AFA
:1038D400934217D1154B9A6942F400529A619B693D
:1038E40003F400530793079B0CE0144A93420BD153
:1038F4000E4BDA6942F00402DA61DB6903F0040377
:103904000393039B08B070470D4A9342A8D1074B19
:10391400DA6942F00802DA61DB6903F00803049310
:10392400049BEFE7002C014000100040001002400F
:10393400001400400004004000340140000800402E
:10394400000C00400368234A93420DD122498A693E
:1039540022F400628A61214A93420DD102F50032B9
:10396400D36923F010032AE0B3F1804F0DD11A4933
:10397400CA6922F00102CA61194A93420DD102F5C3
:10398400FE32D36923F0200319E0164A93420ED184
:103994001149CA6922F00202CA61134A934201BF63
:1039A40002F55C42936923F40053936170470F4A14
:1039B400934206D102F50232D36923F00403D361A2
:1039C40070470B4A9342C6D102F50132D36923F002
:1039D4000803F4E7002C01400010024000100040EE
:1039E400001400400004004000340140000800407E
:1039F400000C0040431C21D0194B984221D010D810
:103A0400A3F5006398421ED007D8B0F1804F1CD0B4
:103A1400A3F5806398421AD0FEE7124B984218D05F
:103A2400FAE7114B984216D003F50063984214D07C
:103A3400A3F590339842EFD1372070476FF00D0013
:103A44007047362070471E2070471C2070471D2089
:103A5400704732207047192070472C20704700BFF0
:103A640000100040000C0040002C0140431C21D0F9
:103A7400194B984221D010D8A3F5006398421ED068
:103A840007D8B0F1804F1CD0A3F5806398421AD0B8
:103A9400FEE7124B984218D0FAE7114B984216D021
:103AA40003F50063984214D0A3F590339842EFD104
:103AB400372070476FF00D007047362070471E2086
:103AC40070471C2070471D207047322070471B2010
:103AD40070472E20704700BF00100040000C0040CB
:103AE400002C014038B50446FFF7AAFE0068FFF732
:103AF40081FFD4E91212FCF7E5FC2068FFF77AFF96
:103B0400FCF710FD22681046FFF7B0FF054610468B
:103B1400FFF770FF85420BD0D4E912122846FCF758
:103B2400D1FC2068FFF7A2FFBDE83840FCF7FABCDF
:103B340038BD000008B5074B90F8652053F8220003
:103B4400FEF714FB00F02200A0F122035842584172
:103B540008BD00BF8403002008B5074B90F865201A
:103B640053F82200FEF702FB00F02100A0F121032C
:103B74005842584108BD00BF8403002038B515469B
:103B84000446B8B1016590F96400FCF7D9FCB4F8B7
:103B94007630E16E9BB294F865001944064BAAB2E4
:103BA40053F82000FEF7EAF894F96400BDE83840C1
:103BB400FCF7B8BC38BD00BF8403002048B1836D56
:103BC400013306D190F86520024B53F82200FEF72A
:103BD4009DBA70478403002048B1836D013306D138
:103BE40090F86520024B53F82200FEF7A7BA7047FD
:103BF40084030020836C04381847C36C04381847C6
:103C040030B5044650F8043985B01D6815F0010537
:103C140012D0002200921A6800925B680093009B05
:103C2400FFF788FF40BB0122204604F1620105B082
:103C3400BDE83040FEF7B9BA196811F0020106D0A8
:103C440001951A6801925B680193019BE8E71A6881
:103C540012F0040206D002911A6802925B68029381
:103C6400029BDDE719680907DAD503921A68039203
:103C74005B680393039BD3E705B030BD08B52520EB
:103C8400FCF784FC024B1868BDE80840FEF7F4B862
:103C940084030020262008B5FCF778FC034B586801
:103CA40018B1BDE80840FEF7E7B808BD840300205A
:103CB400272008B5FCF76AFC034B986818B1BDE8E7
:103CC4000840FEF7D9B808BD8403002008B53420A5
:103CD400FCF75CFC024BD868BDE80840FEF7CCB8A2
:103CE4008403002008B53520FCF750FC024B18690A
:103CF400BDE80840FEF7C0B88403002003460A4923
:103D040010B508680344EFF30882934205D90C22E6
:103D14004FF0FF30054B1A6010BD054A054C121BCD
:103D24009342F4D20B60F7E73000002044110020E6
:103D340000C0002000040000FEE700001622024B31
:103D44004FF0FF301A607047441100200120704783
:103D540007B503688DF8071001225B680DF10701B0
:103D6400984703B05DF804FB014800F0B1B800BF08
:103D740090060020F8B50E4617461546ADB100F082
:103D840073FD90B10A4800F0A3F8A84228BF284662
:103D940004460028F3D031462246054800F0B9F81D
:103DA4002D1B264400F07CFDE8E7781BF8BD00BF1E
:103DB40090060020014800F04EB900BFCA0500205B
:103DC40010B5044800F070F9044600F09FFD204649
:103DD40010BD00BFCA0500202DE9F04106460F467C
:103DE400154694B201F05EFDF060224639460B4858
:103DF40000F0B7F98046A4EB0804A4B200F086FDF5
:103E040047443CB101F04EFDF368C01AB3689842D0
:103E1400EBD32D1B2846BDE8F08100BFCA05002066
:103E24002DE9FF470646884617461C469DB201F019
:103E340039FD0DF10E09F0602B463A4641460F4814
:103E4400CDF8009000F0D3F9824600F05FFDBDF894
:103E54000E30ED1AADB21F44BAF1000F04D0641B4A
:103E6400204604B0BDE8F087002DF9D001F01AFD1A
:103E7400F368C01AB3689842DED3F0E7CA0500209D
:103E8400014800F048B900BFCA05002008B503483E
:103E940000F02EF80028FADC08BD00BF90060020D0
:103EA40000F0ACBC00F0CEBC4FF47A720021034B9E
:103EB400C3E90112024A1A60704700BF9803002048
:103EC400CC6100080023A0F88230A0F8803070474D
:103ED400B0F88230B0F880209BB292B2981A7F304A
:103EE400434203F07F0300F07F0058BF58427047FD
:103EF400B0F88030B0F882209BB292B203F1800017
:103F0400801A434203F07F0300F07F0058BF5842F9
:103F14007047F8B5B0F880600446B6B2B0F88000D7
:103F2400C6F1800696420F46154680B20AD920444F
:103F340001F0F0FFB4F880301D4405F07F05A4F8CB
:103F44008050F8BD3246204401F0E4FF2046AA1B0D
:103F5400B919EDE7B0F88020B0F8823092B29BB284
:103F64009A422BBFB0F88030B0F88230B0F882208B
:103F7400C3F1800328BF9B1A9BB20B80A0F8843046
:103F8400B0F882309BB218447047B0F88220B0F881
:103F94008430134403F07F03A0F882307047002379
:103FA400A0F8C230A0F8C030C023A0F8C4307047D5
:103FB400B0F8C23082B09BB2ADF80630B0F8C01091
:103FC400BDF8063089B29BB29942B0F8C0300246BF
:103FD4009BB21ED37F2B08D9B0F8C0309BB2802B84
:103FE40009D1BDF806309BB22BB1B2F8C0309BB2F8
:103FF400D01802B07047BDF8063000209BB2402BA9
:10400400F7D9B2F8C0309BB2A2F8C430A2F8C0000D
:10401400EBE7BDF80610403389B28B42E5D30020AC
:10402400E7E7B0F8C030194489B2A0F8C010B0F87E
:10403400C020B0F8C43092B29BB29A4224BFC023CD
:10404400A0F8C430B0F8C0309BB2BF2B84BF0023AB
:10405400A0F8C0307047B0F8C03082B09BB2ADF861
:104064000430B0F8C43002469BB2ADF80630B0F864
:10407400C210BDF8043089B29BB2994208D8BDF889
:104084000430B0F8C2209BB292B2981A02B07047C2
:10409400BDF80600BDF80410B2F8C23080B289B28F
:1040A4009BB20844C01AF1E7B0F8C02082B092B2C3
:1040B400ADF80420B0F8C420034692B2ADF806204F
:1040C400B0F8C210BDF8062089B292B2914204BF82
:1040D4000022A0F8C220B0F8C210BDF8042089B2B2
:1040E40092B2914214D0B0F8C22092B2511C89B25B
:1040F400A0F8C210B3F8C210805CBDF8062089B2E3
:1041040092B2914202D30022A3F8C22002B07047B7
:104114004FF0FF30FAE7B0F8C03082B09BB2ADF890
:104124000430B0F8C4309BB2ADF80630B0F8C22009
:10413400BDF8063092B29BB29A4224BF0023A0F885
:10414400C230B0F8C220BDF8043092B29BB29A4299
:104154000FBF4FF0FF30B0F8C2309BB2C05C02B06A
:10416400704737B50446B4F8C03008469BB2ADF882
:104174000430B4F8C4309BB2ADF80630B4F8C210C1
:10418400BDF8063089B29BB2994224BF0023A4F83B
:10419400C230B4F8C210BDF8043089B29BB299425F
:1041A40094BFBDF80450BDF80650B4F8C230B4F85A
:1041B400C210ED1AADB2954228BF154689B22A46FF
:1041C400214401F0A7FEB4F8C23028462B449BB228
:1041D400A4F8C230B4F8C220BDF8063092B29BB243
:1041E4009A4224BF0023A4F8C23003B030BDF7B50F
:1041F4001C46B0F8C030089D9BB2ADF80430B0F84E
:10420400C4309BB2ADF80630B0F8C260BDF80630D9
:10421400B6B29BB29E4224BF0023A0F8C230B0F8CD
:10422400C260BDF80430B6B29BB29E4294BFBDF8E2
:104234000430BDF80630B0F8C2609B1B9BB2A342A9
:1042440028BF23460024B0F8C260B6B20644A7B221
:10425400BB4210D82B80B0F8C22013449BB2A0F804
:10426400C230B0F8C220BDF8063092B29BB29A4276
:1042740020D2002018E016F804C08C4516D1B0F8FE
:10428400C2309BB201333B449BB2A0F8C230B0F8B9
:10429400C220BDF8063092B29BB29A4224BF0023DA
:1042A400A0F8C23001202F8003B0F0BD02F804C092
:1042B4000134CCE70023A0F8C230DAE7D0F8D432D6
:1042C40010B500EB8300D0F8C0428CB1D0F8C432F2
:1042D4001BB194F80002FF2801D1002010BD9B6897
:1042E400214694F801229847FF2384F80032F4E72A
:1042F4000320F3E70A2303800048704738010020B5
:1043040070B5832106460F4800F0ABFC0121054639
:104314000C4800F0A6FC822104460A4800F0A1FCE7
:104324000DB11022AA711CB14022227100226271C7
:1043340018B14022027100224271432301483380A4
:1043440070BD00BF3400002070B5832106460F48BD
:1043540000F087FC012105460C4800F082FC822114
:1043640004460A4800F07DFC0DB11022AA711CB16C
:10437400402222710022627118B14022027100228F
:10438400427143230148338070BD00BF7800002090
:1043940070B5832106460F4800F063FC01210546F1
:1043A4000C4800F05EFC822104460A4800F059FCE7
:1043B4000DB11022AA711CB1002222710222627175
:1043C40018B1002202710222427143230148338052
:1043D40070BD00BFBC00002038B5D0F8D43204460C
:1043E400B03350F823508DB101F056F8D4F8D432DC
:1043F400C5F80C0204EB8304D4F8C432D5F80402E3
:10440400DB6805F503719847002038BD0320FCE7FD
:10441400F8B5D0F8D4620A4600EB8606D6F8C05246
:1044240035B3142701F00F0C07FB0C07BB698BB1E4
:104434004FF0280ED0F8C8420EFB0C44246AB3FB9C
:10444400F4FC04FB1C332BB91A46BB6101F016F8CB
:104454000020F8BD0023C5F81432D6F8C4321B6915
:10446400002BF5D0D5F8080205F504719847EFE75D
:104474000320EEE7F7B50022D0F8D432044600EB6F
:104484008303D3F8C0620D468DF80520ADF80620ED
:10449400002E65D091F800C01CF0600229D0202ABB
:1044A4005AD1CA884F78F2B11CF0800F0ED0D3F8DD
:1044B400C432314638469B689847EA883146072A11
:1044C40028BF0722204600F056FE09E0402A28BFF4
:1044D4004022314686F8007286F8012200F060FE20
:1044E400002003B0F0BDD3F8C43238469B68984727
:1044F400F6E74B780B2B2FD801A252F823F000BF1C
:1045040035450008E54400085D4500085D450008A0
:104514005D4500085D4500085D4500085D450008EF
:104524005D4500085D4500084545000855450008FF
:1045340090F89C32032B0FD102220DF10601C1E742
:1045440090F89C32032B07D101220DF10501B9E744
:1045540090F89C32032BC3D02946204600F0DEFDA0
:104564000320BEE738B504460025822100F059FF38
:1045740001212046A4F84C5000F053FF832120462B
:10458400A4F8785100F04DFFD4F8D432256604EB3A
:104594008303D3F8C02252B1D3F8C4325B6898477E
:1045A400D4F8D432B03344F82350C4F8BC520020B9
:1045B40038BD0000F8B504462C4D4FF407720021B5
:1045C400284601F069FCD4F8D432B03344F82350BF
:1045D400237CC4F8BC52CBBB4FF40073822102226B
:1045E400204600F014FF01214FF40073A4F84C108E
:1045F4000222204600F00BFF01261023002703228D
:104604008321A4F8623020460823A4F8786100F0DE
:10461400FEFED4F8D432A4F8606004EB8303D3F82C
:10462400C432C5F804721B689847D5F80422C5F84B
:104634001472C5F81872B2B1237C93B94FF40073A5
:104644003146204600F021FF0020F8BD402382219E
:104654000222204600F0DBFE01214023A4F84C1086
:10466400C6E74023ECE70220EFE700BFA8030020E1
:1046740039B1D0F8D43200EB8300C0F8C412002062
:10468400704703207047D0F8D432B03350F8233049
:104694002BB10020C3F80812C3F81022704703207E
:1046A4007047D0F8D432B03350F823301BB1002017
:1046B400C3F80412704703207047D0F8D43210B501
:1046C400B03350F823207AB1D2F8144201236CB9E4
:1046D400C2F81432D2F810328221D2F808220364CC
:1046E40000F0CCFE204610BD0320FCE71846FAE794
:1046F400D0F8D42208B5B03250F8222062B1037C3D
:10470400D2F8042233B94FF40073012100F0BDFE46
:10471400002008BD4023F8E70320FAE7D0F8D422AC
:1047240008B5B03250F8223033B1002301211A46C3
:1047340000F0ABFE002008BD0320FCE7002070471A
:1047440021280ED022281DD0202808D10A68184B11
:104754001A600A791A714A795A718A799A71002011
:104764007047134B1A680A701A68120A4A705A88FA
:104774008A70DA78CA701A790A715A794A719B79FF
:104784008B71ECE70B4A4B8812780B49002A14BF53
:104794001A46012202F001020A700A7812B10021BD
:1047A400064A1160064AC3F340031370D7E700BFFB
:1047B4004401002061010020C9050020C405002037
:1047C400C805002008B50948FFF77CFB0848FFF737
:1047D400E6FB0122074B06481A70FFF7E9FB014686
:1047E4000548FFF75EFF002008BD00BF90060020CB
:1047F400CA050020600100201807002010B50C4CE9
:1048040022789AB90B490C4800F0B2F870B90B49F8
:10481400094800F0DAF848B909490748FFF728FFC2
:1048240020B9054800F0EAF80123237010BD00BF49
:104834001607002094010020180700200001002022
:104844004C01002010B5064C23783BB1054800F01C
:10485400D7F8044800F09FF80023237010BD00BF70
:1048640016070020180700200A4B10B51C6814B165
:10487400FBF710FE041B084B93F89C32032B07D163
:10488400022C05D8054B1878C0B200F0010010BD09
:104894000020FAE7C405002018070020C9050020FD
:1048A40037B50F4CD4F8BC32D3F81432ABB90D4839
:1048B4000DF10601FFF74EFBBDF80630054663B166
:1048C400FBF7E8FD084B29461860BDF80620204692
:1048D400FFF7D9FE2046FFF7F0FE03B030BD00BF5E
:1048E4001807002090060020C405002010B50024FD
:1048F400044B05481C60FFF748FBFFF7D1FF204637
:1049040010BD00BFC40500209006002038B50A4D34
:104914002B780BB1002038BD0848FFF749FB01464E
:104924000028F7D0012406482C70FFF7BAFE04488B
:10493400FFF7DEFE2046EEE760010020CA050020F6
:104944001807002008B509880648FFF76AFB00220B
:10495400054B1A70FFF7DAFF10B90448FFF7DEFEC3
:10496400002008BDCA0500206001002018070020AF
:1049740078B10023C0F8B832C0F8C432C0F8D032DD
:1049840009B1C0F8B4120123027080F89C3200F01F
:10499400FDBC0320704710B5044600F031FD01232F
:1049A40084F89C32D4F8B8321BB120465B68217974
:1049B400984700232046C4F8C432C4F8B432C4F87B
:1049C400D032BDE8104000F00DBD002313B50446FD
:1049D400ADF8063081B1CB6AC0F8B81223B10DF13D
:1049E40006009847C4F8D0020020D4F8D832013326
:1049F400C4F8D83202B010BD0320FBE700F0F9BCC4
:104A040010B5044600F0FCFCD4F8B8321BB12046C3
:104A14005B6821799847002010BDD0F8B8320BB1FB
:104A24001B6818471846704708B5D0F8B8325B6859
:104A34009847002818BF032008BD38B500F2AA25FE
:104A44000446284600F05FFB012394F8AA12C4F838
:104A54009432B4F8B032C4F8983201F01F03012B39
:104A640008D0022B0CD08BB929462046BDE838402B
:104A740000F014B929462046BDE8384000F072BA67
:104A840029462046BDE8384000F09BBA2046BDE8E0
:104A9400384001F0800100F0CBBC70B504461646E6
:104AA40009BBD0F89432032B0CD1D0E9573293428E
:104AB4000AD99B1A9A4228BF1A463146C0F85C317B
:104AC40000F07BFB002070BD90F89C32032B06D1D4
:104AD400D0F8B8321B6913B1C0F8D41298472046F5
:104AE40000F073FBEEE790F89C32032BEAD1D0F888
:104AF400B8329B69002BE5D0BDE870400022C0F8B5
:104B0400D422184770B5044616460D4600293DD1F7
:104B1400D0F89432022B0ED1D0E90732934212D945
:104B24009A1A3146C26100F033FB2B462A462946C5
:104B3400204600F0AAFC94F8A03213B1002384F8B4
:104B4400A032002070BD0CD18269934209D8D0F8FC
:104B540098329A4205D20A4600F01AFBC4F89852D9
:104B6400E3E794F89C32032B08D1D4F8B832DB681D
:104B740023B100222046C4F8D4229847802120463D
:104B840000F056FC204600F02BFBD4E790F89C3252
:104B9400032BD6D1D0F8B8325B69002BD1D0BDE855
:104BA40070400022C0F8D4221847F8B50123002130
:104BB40080F89C32D0F8B8320446C0F894124160B0
:104BC400C0F8A41280F8A012B3B900260022402530
:104BD400012711464023204600F019FC2B460022F1
:104BE40080212046A4F86471C4F8605100F00FFCE1
:104BF4003046A7842562F8BD5B68002BE5D0984752
:104C04000028E2D00326E1E701740020704790F801
:104C14009C32042B1EBF90F89C32DBB280F89D328C
:104C2400042380F89C320020704790F89C32042BB7
:104C340002BF90F89D32DBB280F89C3200207047AE
:104C440008B590F89C22032A05D1D0F8B83213B1E4
:104C5400DB6903B19847002008BD0020704700209D
:104C6400704710B5428803789A420AD904782044E0
:104C7400234444789BB2052CF6D184788C42F3D13A
:104C840010BD0020FCE710B50446802100F0D0FBE5
:104C94002046BDE81040002100F0CABB73B50B7874
:104CA400044603F06003202B0D4609D0402B07D0A7
:104CB40093B12046FFF7E7FF0025284602B070BDF8
:104CC40029462046D4F8D432AE3354F823309B68B6
:104CD40002B0BDE8704018474B78092BE9D801A20F
:104CE40052F823F0074F00084B4F0008B74C000858
:104CF4002F4F0008B74C0008014E0008114D000862
:104D0400B74C0008DB4E0008434E000800234988D6
:104D1400ADF806300B0A013B062BCAD801A252F8A3
:104D240023F000BF454D0008774D0008914D000861
:104D3400B74C0008B74C0008D34D0008E94D0008F3
:104D4400D0F8B4321B68207C0DF106019847EA883C
:104D5400002A00F0A380BDF80630002BA9D09A42A7
:104D640028BF1A460146ADF80620204600F003FA93
:104D7400A2E7027CD0F8B83232B99B6A0DF1060082
:104D8400984702234370E2E7DB6AF7E7C9B2D0F839
:104D9400B432052912D8DFE801F00307090B0D0F1F
:104DA4005B68002BCFD184E79B68FAE7DB68F8E700
:104DB4001B69F6E75B69F4E79B69F2E7DB69002BA3
:104DC4003FF477AF0DF10602007C9847BFE7037C00
:104DD400002B7FF46EAFD0F8B8320DF106005B6B98
:104DE4009847B4E7037C002B7FF463AFD0F8B83264
:104DF4000DF106001B6B98470723C3E78B88002B34
:104E04007FF457AFCB88002B7FF453AF4D887F2DB1
:104E14003FF64FAF90F89C32032B3FF44AAFEDB20C
:104E2400294680F89E5200F022FB204600F0CDF97E
:104E34001DB1022384F89C323EE70123FAE7897806
:104E4400474D0129297003D9FFF71DFF032534E7D6
:104E540090F89C32022BDEB208D0032E17D0FFF755
:104E640012FF20462978FFF7DFFDEFE7B1B10121FA
:104E74004160FFF7D2FD0546204625B1FFF703FF49
:104E840084F89C6219E700F0A0F90323D2E749B93A
:104E94000223416080F89C32FFF7C6FD204600F0F3
:104EA40094F909E741680129F8D0C9B2FFF7BCFDBC
:104EB400297820466160FFF7B0FD05460028EDD053
:104EC4002046FFF7E0FE20462179FFF7ADFD0223DF
:104ED40084F89C32F1E6CA88012A7FF4EAAE90F89D
:104EE4009C120229CBB207D8002B3FF4E2AE014654
:104EF400002341F8083F38E7032B7FF4DAAE011DA5
:104F040033E790F89C32013B022B3FF6D2AECA88BD
:104F1400022A7FF4CEAED0F8A4320146002B0CBF97
:104F24000123032341F80C3F1FE74B88012B02D1D7
:104F3400C4F8A432B2E7022B7FF4BBAE8B881B0A01
:104F440080F8A032AAE790F89C32013B022B3FF68E
:104F5400B0AE4B88012B7FF4AFAE0023E8E700BF6F
:104F6400F409002070B50B78044603F060025B0678
:104F74000E4601D5402A1FD194F89C32013B022BE6
:104F84001AD831792046022917D8FFF766FE88B966
:104F9400D4F8B8329B686BB1C4F8D40231462046C9
:104FA40098470546F3881BB915B9204600F00DF95A
:104FB400284670BD0325F5E72046FFF764FE00256B
:104FC400F6E770B50B78044603F06003202B0E4619
:104FD4008A880D7957D0402B55D01BB12046FFF756
:104FE40052FE3CE04B78012B3BD0032B24D0002B0A
:104FF400F4D190F89C32022BD9B260D00329EDD1C0
:1050040012F0800F4FF0140205F00F0302FB0303AC
:1050140066D09B8C002BE1D0142605F07F0303FBA4
:105024000666802D064467D02946204600F00EFA15
:10503400002866D0012360E090F89C32022BDAB29B
:1050440033D0032ACAD14B8833B9690604D0F38814
:1050540013B9294600F0ECF9204600F0B6F8002018
:1050640070BD90F89C32022BDAB21ED0032AB5D15F
:105074004B88002BF3D16B0602D0294600F0DFF9F0
:10508400204600F0A2F829462046FFF7E8FD002854
:10509400E5D1D4F8B832C4F8D4029B68002BDED032
:1050A40031462046BDE8704018476A0696D0294626
:1050B40000F0BEF98021204600F0BAF9CFE7690676
:1050C4008CD113064FF000034FF002024CBF00F1E5
:1050D400140100F5AA710B60204600F04CF8BEE7FD
:1050E400B3F86431002B3FF479AF142606FB0506B0
:1050F40006F5AA76002D97D10023336002223146AB
:10510400EAE73060FAE70B7803704B7843704B881A
:1051140043808B888380CB88C380704710B5044656
:10512400802100F085F92046BDE81040002100F000
:105134007FB970B50D4616460446A0B1FBF750F88A
:10514400C0B2013080284FEA40038CBF4FF4807313
:105154009BB233802B70032300216B700223013C2C
:1051640014F8012F02B970BDEA545A1CD2B20233AA
:10517400A954DBB2F4E71346022210B5C0E90633A2
:10518400C0F894220A46002100F078F9002010BDEE
:1051940008B513460A46002100F070F9002008BD46
:1051A4001346032210B5C0E95633C0F894220A46C8
:1051B400002100F06AF9002010BD08B513460A4624
:1051C400002100F062F9002008BD08B50422002384
:1051D400C0F8942219461A4600F050F9002008BD80
:1051E40008B505220023C0F8942219461A4600F097
:1051F4004CF9002008BD000037B5244B0268044672
:105204009A4240D1224D03E0A968FEF7FFF90C351C
:105214002868431CF8D11F4B0121DA69132042F49A
:105224000002DA61DB69002203F400030193019BAD
:10523400FBF748F91320FBF775F90022012114202C
:10524400FBF740F91420FBF76DF9A37A012B1AD16F
:105254004FF48022104B2A205A61DA6822F480220B
:10526400DA609A6842F480229A601A6842F48022D2
:105274001A60FBF757F900222A20114603B0BDE853
:105284003040FBF71FB903B030BD00BF005C0040E5
:105294002C62000800100240000401400268044B24
:1052A4009A4201BF034AD36923F40003D3617047D0
:1052B400005C00400010024000F52671D0F8D402D2
:1052C400FFF7BBBB282303FB0103D0F8D402D3F8B8
:1052D4006421FFF7E2BB282303FB0103D0F8D402C7
:1052E4005A6AFFF70FBCD0F8D402FFF7A9BC10B577
:1052F4000446D0F8D402FFF758FCD4F8D4020121B4
:10530400BDE81040FFF780BC10B50446D0F8D402C5
:10531400FFF77DFCA37A23B1024A136943F0060325
:10532400136110BD00ED00E010B5837A044633B17B
:1053340000F04CF9054A136923F006031361D4F80D
:10534400D402BDE81040FFF770BC00BF00ED00E0E0
:105354000148FBF7B3BA00BFF8090020FFF7F8BF14
:1053640008B5074B9B7A33B1064A136923F0060349
:10537400136100F02BF94FF48022034B5A6108BDEE
:10538400F809002000ED00E00004014070B5054676
:1053940000F000F90423104C2371104BC4F8D452CC
:1053A40023600223E380A36000232046C5F8C8429B
:1053B4002373FBF7C5F900B1FEE70526084D6B68BA
:1053C4002A8929882046FCF74AF8013E05F10C0594
:1053D400F5D1304670BD00BFF8090020005C0040E4
:1053E400F061000808B5D0F8C802FBF70CFA0020F9
:1053F40008BD08B5D0F8C802FBF71AFA002008BDAA
:1054040008B5D0F8C802FBF72CFA002008BD10B587
:105414001446D0F8C8021A462346FBF729FF002099
:1054240010BD08B5D0F8C802FBF752FF002008BD34
:1054340008B5D0F8C802FBF7AAFF002008BD08B5DC
:10544400D0F8C802FBF7D9FF002008BD282211F0CC
:10545400800FD0F8C8321BBF01F07F0102FB01337B
:1054640002FB0133987C08BF93F85201704708B5DA
:10547400D0F8C802FBF70EFA002008BD08B5D0F832
:10548400C802FBF76CFF002008BD08B5D0F8C802BD
:10549400FBF746FF002008BDD0F8C802FBF757BF52
:1054A400122301480B807047800100200423014827
:1054B4000B8070477C01002000487047D00C00200E
:1054C400002370B51E464D1C040FB0F1204F34BFAD
:1054D4003034373401F8134005F813600133DCB27B
:1054E400A2424FEA0010EFD870BD00001A2310B595
:1054F4000B800A4BD3F8E807D3F8F02780180AD0BA
:10550400D3F8EC4706490822FFF7DAFF04222046C5
:105514001031FFF7D5FF034810BD00BF00F0FF1F97
:10552400640100206201002008B50A4602480349CC
:10553400FFF7FFFD014808BDD1600008D00D002031
:105544000A4608B5044920B90448FFF7F2FD0248A9
:1055540008BD0348F9E700BFD00D0020E46000084F
:105564000461000808B50A4602480349FFF7E1FD53
:10557400014808BD24610008D00D002008B50A4682
:1055840002480349FFF7D5FD014808BD4061000802
:10559400D00D002008B501210C20FEF737F8084B88
:1055A4000A201A68074B1B6BC3F30F23536100F0E7
:1055B4007BF9BDE8084000210C20FEF727B800BFA6
:1055C4000800002074610008FFF718B908B5FDF75A
:1055D40081FDBDE8084000F000B870B596B0202207
:1055E40000210DA800F058FC1422002101A800F0AD
:1055F40053FC182200210DEB020000F04DFC0224A4
:10560400012610254FF420130CA8CDE910650C9445
:1056140013941593FBF7AAFF00B1FEE70F23CDE91E
:1056240001344FF480630390CDE90430314601A87E
:10563400FCF75EF900B1FEE74FF4800306A8069577
:105644000B93FCF7F1F900B1FEE716B070BD70B52D
:1056540005460C46084649B1FAF7C2FD2B680246D6
:1056640021462846BDE870405B68184770BD08B500
:10567400FFF7EDFF08BD03681B68184708B502492A
:10568400FFF7E5FF08BD00BF5F61000838B50546B8
:10569400FFF7DDFF04462846FFF7F0FF204438BD3E
:1056A400FFF7F4BF0023012A98BF0A2230B58BB05C
:1056B4000C468DF8243009A92546B4FBF2F404FB0A
:1056C4001253DBB2092B94BF30333733DBB2AA4217
:1056D40001F8013DF0D9FFF7BAFF0BB030BD2DE959
:1056E400F04107460E4614462AB9BDE8F041036866
:1056F400C9B21B6818470A2A05D1002905DBBDE891
:10570400F041FFF7CFBFD2B2F9E72D21FFF7B3FF86
:105714002246054671423846FFF7C4FF2844BDE8D7
:10572400F08138B50546FFF7DAFF04462846FFF74F
:10573400A5FF204438BD10B422B9026810BC126819
:10574400C9B2104710BCD2B2FFF7ACBF38B505469A
:10575400FFF7F1FF04462846FFF790FF204438BDC9
:1057640008B50320FAF79CFEBDE8084000F0C4B871
:1057740008B5AFF30080FAF79FFDFAF735FE00F0A5
:10578400A1F8FAE7FEF734F80B480C490C4A002359
:1057940002E0D458C4500433C4188C42F9D3094AE3
:1057A400094C002301E013600432A242FBD300F051
:1057B4008BFBFFF7DDFF7047000000200402002090
:1057C40048670008040200204C110020FEE7000096
:1057D400C3B2322B2DE9F0410D462AD82C4A00F4ED
:1057E400E06452F823301C43621C4ED0294EC4F3AB
:1057F400031756F8273004F00F0823FA08F3DB07E1
:1058040010D520462449FDF7F1FE18B32046FDF7D4
:1058140013FC012256F8273002FA08F223EA0203A5
:1058240046F82730052D1FD8DFE805F01F2B252764
:10583400292D00F0C002C02A27D1CF2B25D8174B21
:1058440000F03F0253F82220114B00F4E06453F8B7
:105854002230C8E720461249FDF7C8FE0028D8D0F8
:105864002046FDF7FFFBD4E7FEE700212046BDE814
:10587400F041FDF7CBBE1021F8E72021F6E7032124
:10588400F4E70121F2E70921F0E7BDE8F08100BF68
:105894002C660008D00E0020C8650008EC650008DE
:1058A40010630008FDF70ABC38B5044648B1FDF79B
:1058B40005FC054600F022F8FDF700FC431BA3425B
:1058C400F8D338BD08B5084B2BB1084800F017F8D9
:1058D40008B1AFF30080064B2BB10648FEF76AFA15
:1058E40008B1AFF3008008BD00000000EC0E0020FA
:1058F4000000000098030020FDF72CBC7047B0F8AE
:105904000831B0F80421981A00F03F007047B0F84D
:105914000831B0F804219BB293421ABFD0F8FC308E
:10592400985C4FF0FF30704790F80631B0F80A01E8
:10593400C0B2834227BFC3F13F03C018C01A00F1AD
:10594400FF30704707B503688DF8071001225B68C4
:105954000DF10701984703B05DF804FBB0F8761029
:10596400826F10B50A4402F03F02A0F87620B0F826
:105974007610B0F8722089B28A421AD0B0F8764014
:105984004032A4B2B0F87610121B544289B204F02B
:105994003F0402F03F02C1F1400158BF62428A4213
:1059A40028BF0A4604498267FEF7E8F84FF0FF3043
:1059B40010BD0020FCE700BF615900082DE9F84341
:1059C400036804469B688846164698470123237457
:1059D400D4F8EC30B4F8067101338146C7F14007BE
:1059E40009D194F8113133B1002304F1940084F8FF
:1059F4001131FEF7E3F8236820469B689847002896
:105A0400F9D03546BD4225D84D4523D8B4F80631E2
:105A1400D4F800015A19402A184430D82A4641467D
:105A240000F078FA2F46B4F806311D4405F03F051E
:105A3400A4F8065104F194052846FEF78DF830B910
:105A44003A4628461549C4F80C71FEF797F83046D3
:105A5400BDE8F8834F4528BF4F4623683A46414680
:105A64005B6820469847236820469B689847ED1B4F
:105A7400B844B4F806718146C7F14007C2E7C3F1E0
:105A840040073A46414600F045FAD4F80001EA1BC3
:105A940008EB070100F03EFAC5E700BF61590008B2
:105AA400C0F8F030009B914208BF4FF0FF31C0F8BE
:105AB400F43000F11403C0F8FC300023C0E93A21AB
:105AC40000F15402A0F80831C0E94023A0F80A31DB
