:020000040800F2
:1020000000C0002085550008CD550008CD550008BA
:10201000CD550008CD550008CD5500080000000042
:10202000000000000000000000000000CD55000886
:10203000CD55000800000000CD5500081B4C0008DD
:10204000CD550008CD550008CD550008CD550008E8
:10205000CD550008CD550008C9530008CF530008DE
:10206000D5530008DB530008E1530008CD550008A4
:10207000CD550008CD550008CD550008CD550008B8
:10208000CD550008CD550008CD550008ED66000877
:10209000E1660008CD550008CD550008E75300085B
:1020A000CD550008CD220008CD550008E1220008DA
:1020B000E5220008F92200080D230008CD5500088C
:1020C000CD550008CD550008CD550008CD55000868
:1020D000CD55000811530008295300084553000846
:1020E000FD530008CD550008F1660008CD550008E5
:1020F0005D230008CD55000871230008CD55000868
:10210000CD550008CD55000821230008CD55000805
:10211000615300087953000835230008492300085B
:10212000CD550008CD550008CD550008CD55000807
:10213000000000000000000000000000000000009F
:10214000000000000000000000000000000000008F
:10215000000000000000000000000000000000007F
:10216000000000000000000000000000000000006F
:10217000000000000000000000000000000000005F
:10218000000000000000000000000000000000004F
:10219000000000000000000000000000000000003F
:1021A000000000000000000000000000000000002F
:1021B000000000000000000000000000000000001F
:1021C000000000000000000000000000000000000F
:1021D00000000000000000000000000000000000FF
:0421E0005FF8E0F1D3
:1021E400034613F8012B002AFBD1181A0138704753
:1021F40010B5054C237833B9044B13B10448AFF33D
:1022040000800123237010BD0402002000000000A0
:102214002C73000808B5034B1BB103490348AFF303
:10222400008008BD00000000080200202C73000894
:102234004FF41651014803F0D3BA00BF98030020AD
:1022440008B50549054803F017FABDE808404FF4FE
:10225400FA7003F0E0B900BF44730008980300204B
:1022640003460A4910B508680344EFF30882934211
:1022740005D90C224FF0FF30054B1A6010BD054AFA
:10228400054C121B9342F4D20B60F7E700000020C8
:10229400140F002000C0002000040000FEE700002E
:1022A4001622024B4FF0FF301A607047140F0020C3
:1022B40001207047836810B5044613B10322014618
:1022C4009847204610BD0000034B186810B1043035
:1022D40001F0A2BB704700BF20020020FFF7F4BF4B
:1022E400034B586810B1043001F096BB704700BF2F
:1022F40020020020034B986810B1043001F08CBB1D
:10230400704700BF20020020034BD86810B104308E
:1023140001F082BB704700BF20020020034B186904
:1023240010B1043001F078BB704700BF20020020D8
:10233400034B586910B1043001F06EBB704700BF05
:1023440020020020034B986910B1043001F064BBF3
:10235400704700BF20020020034BD86910B104303D
:1023640001F05ABB704700BF20020020FFF7F4BF02
:10237400826810B50AB904F0D3FFC368BDE8104001
:10238400184708B500B9FEE702F01AFF0068836E2B
:1023940013B16030FFF7ECFF08BDFFF7F2BF10B5D3
:1023A40000B9FEE7037F013B072B10D8DFE803F0F9
:1023B40004140F100F0F0F12012402F001FF006824
:1023C400063400EB041083680BB1FFF7D1FF10BD96
:1023D4000324F2E70424F0E70224EEE7FFF7DFBF6B
:1023E400FFF7DDBF7047000038B50E4B05461A787D
:1023F4004FF47A73B3FBF2F30B4A1068B0FBF3F0BB
:1024040000F09CF8044658B90F2D09D80246294615
:102414004FF0FF3000F042F82046044B1D6038BDF9
:102424000120FCE704000020300000200800002008
:10243400074A08B51368032043F01003136000F043
:102444001BF80020FFF7D0FFFFF7CCFF002008BDEA
:1024540000200240034A044B11681B780B441360AC
:10246400704700BF4002002004000020014B1868A0
:10247400704700BF4002002007490302CA6803F402
:10248400E06322F4E0621204120C134343F0BF63CE
:1024940043F40033CB60704700ED00E0154B30B5DA
:1024A400DC68C4F30224C4F10703251D042B28BFF0
:1024B4000423062D4FF0FF3594BF0024033C05FA96
:1024C40003F321EA0303A54022EA0502A3400028FE
:1024D40043EA0203ACBF00F16040074A4FEA03132A
:1024E400DBB2ABBF00F5614000F00F0080F80033B1
:1024F400135430BD00ED00E014ED00E0002807DBCC
:1025040001234109034A00F01F00834042F82130AF
:10251400704700BF00E100E000280CDB01220649FF
:10252400430900F01F008240203341F82320BFF309
:102534004F8FBFF36F8F704700E100E00138B0F1B7
:10254400807F0BD24FF0E023F021054A586182F8D6
:1025540023100020072298611A61704701207047F8
:1025640000ED00E0002808DB01224309034900F0E4
:102574001F008240603341F82320704700E100E0EF
:10258400704708B5FFF7FCFF08BD704710B5044657
:1025940050B1437903F0FF0213B90271FFF7F5FF5D
:1025A40001230020637110BD0120FCE790F8212075
:1025B4000346022A06D0042282630120002283F803
:1025C400202070470268C06B116821F00E01116071
:1025D400116821F00101116001211A6C01FA02F263
:1025E4004260002083F82110E8E7000008B590F865
:1025F4002130022B03D004238363012008BD036828
:1026040042491A6822F00E021A601A6822F0010286
:102614001A603F4A934240D98B4237D014318B42DF
:1026240036D014318B4235D014318B4222D0143140
:102634008B4222D014318B4222D0934223D002F514
:102644006272934222D01432934221D014329342C4
:1026540020D01432934214BF4FF480334FF480538C
:102664002C4A53604FF480730384436B03B198473F
:102674000020C3E74FF48053F2E74FF48033EFE7D1
:102684004FF48013ECE74FF08073E9E70123E7E7A9
:102694001023E5E74FF48073E2E78B422ED01E4906
:1026A4008B422DD014318B422CD014318B4219D053
:1026B40014318B4219D014318B4219D093421AD061
:1026C400164A93421AD01432934219D014329342C8
:1026D40018D01432934214BF4FF480334FF4805314
:1026E4000F4ABEE74FF48053FAE74FF48033F7E71D
:1026F4004FF48013F4E74FF08073F1E70123EFE721
:102704001023EDE74FF48073EAE700BF08000240AE
:1027140080000240000402401C0002400804024001
:1027240000000240044A08B55169014202D05061D8
:1027340002F032FE08BD00BF00040140F0B50446BB
:1027440087B010B390F8A93203F0FF021BB980F8E8
:10275400A82203F025FF032325466E4684F8A932F8
:1027640055F8100B01F022FC0FCD0FC62B6825463F
:102774003360271D55F8100B97E80E0001F006FC96
:10278400064630B1022384F8A9320125284607B051
:10279400F0BD0146206801F013FC31464FF0010EF4
:1027A40028260846D4F804C0CAB2944501F10101B0
:1027B4001DD8002128260A46C8B2844501F101012A
:1027C40022D80FCD6E460FC62B683360206897E879
:1027D4000E0001F0F7FB05460028D3D1012384F84D
:1027E4002400206884F8A93201F088FECEE706FBB5
:1027F4000243C3E90E0083F829E083F82820DA862F
:1028040083F82B001864CFE706FB0043C3E95E227C
:1028140083F8692183F8680183F86B21C3F8802168
:10282400CAE738B590F8A8320446012B10D0012528
:1028340080F8A852006801F0B0FB2946204600F059
:10284400FCFD206801F058FE002084F8A80238BD81
:102854000220FCE710B590F8A8220446012A0BD008
:10286400012280F8241080F8A822006801F03EFEBE
:10287400002084F8A80210BD0220FCE72DE9F04FE7
:10288400044685B0006801F03BFE000408D5282703
:10289400DFF808832068B0F844301D0400F1C180DB
:1028A400206801F02DFE41050FD522682046B2F8BC
:1028B400443023F480631B041B0CA2F8443003F05F
:1028C400DCFE00212046FFF7C5FF206801F018FE5A
:1028D400410408D52268B2F8443023F480431B0431
:1028E4001B0CA2F84430206801F00AFE820408D5CB
:1028F4002268B2F8443023F400531B041B0CA2F8E2
:102904004430206801F0FCFDC3041CD52268204635
:10291400B2F8403023F004031B041B0CA2F840302F
:10292400B2F8403023F008031B041B0CA2F840301B
:1029340003F0C0FE2268B2F8443023F480531B0431
:102944001B0CA2F84430206801F0DAFD070546D5D7
:1029540068462368064619461A4603F1200532F8EC
:10296400047B954226F8027BF9D1B3F8402092B259
:1029740042F00102A3F84020B3F8402022F0010203
:102984001204120CA3F84020B3F844205605FBD5DA
:10299400B3F8442022F480621204120CA3F84420F9
:1029A40030F8022B21F8042B8D42F9D1B3F84020E2
:1029B400204692B242F00802A3F84020B3F8442023
:1029C40022F400621204120CA3F84420B3F840204D
:1029D40092B242F00402A3F8402003F05BFE2068A8
:1029E40001F08EFD82050BD522682046B2F84430F2
:1029F40023F400731B041B0CA2F8443003F039FECB
:102A0400206801F07DFDC30508D52268B2F8443082
:102A140023F480731B041B0CA2F8443005B0BDE8FA
:102A2400F08FB0F84450A9B215F00F0540F0C18002
:102A340011F010012DD103889BB203EA080343F47B
:102A440000430380B0F8503094F828209BB203EB85
:102A5400C20300EB4303B3F80434E26BC3F309038A
:102A64001A4463642046E26303F0FBFD94F82430C7
:102A7400002B3FF40FAF226C2168002A7FF40AAFC9
:102A840094F8243043F08003A1F84C3084F82420D7
:102A940000E70588ABB215F4006521D0B0F85030DA
:102AA40094F868219BB203EBC20300EB4303B3F831
:102AB4000C34B4F86E21C3F30903C4F8843104F56B
:102AC4002C7101F0F7FF22682046138823F070036D
:102AD4001B051B0D43F08003138003F0B3FDD9E6FF
:102AE4001A047FF5D7AE038823F070031B051B0D72
:102AF40043F080030380B0F8503094F868219BB20F
:102B040003EBC20300EB4303B3F80C34C3F3090330
:102B1400C4F884318BB1D4F87C1171B1B4F86E214E
:102B240001F0C8FFD4F87C31D4F884212946134439
:102B34002046C4F87C3103F08BFD21680B881B050B
:102B44003FF5A8AEB1F85030D4F878519BB201F2F9
:102B54000C40DDB9C25A22F4F8421204120CC252DB
:102B6400C25A6FEA42426FEA524292B2C2520B8890
:102B740023F4804323F070031B041B0C83F44053A1
:102B840043F4004343F080030B8083E63E2D07D8D3
:102B94006A08EE0748BF01329202E6E70F8FFFFF93
:102BA4006E09C24AED0608BF06F1FF3642EA8622E4
:102BB400DBE730F8253019049EB240F1F28030F89A
:102BC400253007FB054123F070031B051B0D43F063
:102BD400800320F8253091F8743100F5806EBBB97C
:102BE400B0F8503091F868219BB2063303EBC2036E
:102BF4003EF81390C9F30909B9F1000F00F0B6804B
:102C04004B46B1F86E21D1F87C1101F053FFADE0D1
:102C140091F86B3191F86821022B40F08580B0F86F
:102C240050904FEAC20B1FFA89F916F4804AD1F882
:102C34008031D94406F0400C3BD009F102093EF83A
:102C44001990C9F3090999451FD8A3EB0903C1F8E1
:102C54008031EBB1BCF1000F0DD030F8223023F4F9
:102C6400E04323F070031B041B0C43F4004343F0C4
:102C7400C00320F82230B9F1000F77D0282101FBDE
:102C840005414B46B1F87021BDE70023C1F88031FE
:102C940030F8223023F4804323F070031B041B0C10
:102CA40083F4005343F4004343F0800320F82230BC
:102CB400D0E709F106093EF81990C9F309099945C5
:102CC4001FD8A3EB0903C1F88031E3B1BCF1000FB5
:102CD4000DD130F8223023F4E04323F070031B04B9
:102CE4001B0C43F4004343F0C00320F82230B9F135
:102CF400000F3BD0282101FB05414B46B1F872215E
:102D040081E7C1F880A130F8223023F4804323F016
:102D140070031B041B0C83F4005343F4004343F07F
:102D2400800320F82230D1E730F8223023F4E04346
:102D340023F070031B041B0C43F4004343F0C00353
:102D440020F8223091F8683130F82320DB0012F4A7
:102D5400804FB0F8502092B254D0023213443EF85F
:102D64001390C9F30909B9F1000F8AD107FB05F1E2
:102D74006318D3F884214A44C3F88421D3F87C210E
:102D84004A44C3F87C21D3F880211AB1D3F87831AE
:102D9400994541D207FB0543204693F8681103F097
:102DA40057FC320620687FF575AD30F8253007FBF7
:102DB40005499BB203EA080343F4004320F8253095
:102DC40099F82B3099F82810032B04D01BB1022B4F
:102DD40037D1F30535D4B0F8503007FB05429BB228
:102DE400023303EBC10300EB4303B3F80034166C66
:102DF400C3F309039E4216D800232046136403F04C
:102E040030FC47E5063213443EF81390C9F3090930
:102E1400B9F1000FAAD070E701F5B471206821441C
:102E240001F084FBBDE7D16BF61A1944D163516CF0
:102E340016641944516405FB0771214401F076FBC3
:102E440028E5282202FB0542B0F850C04FEAC10B26
:102E54001FFA8CFC16F0400E136C00F5806ADC44FB
:102E640006F4804600F0EC800CF1020C3AF81CC029
:102E7400CCF3090C9C451BD30025156499F8293023
:102E8400B6B2002B54D0012B79D1B0F850C000F267
:102E940004421FFA8CFC0B016244D552B0F8502056
:102EA40000F20C4092B21044C55268E00080FFFF6B
:102EB400A3EB0C031364002E79D1282303FB0543F1
:102EC40093F84C20012A40F0F880DA6BD3F848E0FC
:102ED40002EB0C065A6CDE6362445A649A6B9645A4
:102EE40074D3AEEB020EC3F848E099F829C093B24C
:102EF400BCF1000F40F09780B0F850E000F2044CB1
:102F04001FFA8EFEF4440901002A6CD13CF801201A
:102F140022F4F8421204120C2CF801203CF801208F
:102F24006FEA42426FEA524292B22CF8012068E002
:102F3400B0F8502000F2044592B20B011544EA5A4D
:102F440022F4F8421204120CEA52EA5A6FEA42429C
:102F54006FEA524292B2EA52B0F8502000F20C40AA
:102F640092B21044C25A22F4F8421204120CC25211
:102F7400C25A6FEA42426FEA524292B2C2522046A9
:102F840003F06FFB002E00F0988099F82810226857
:102F940032F8213023F4E04323F070031B041B0CAC
:102FA40043F4404343F0800322F8213085E030F8B5
:102FB400213023F4E04323F070031B041B0C43F47F
:102FC400404343F0800320F8213076E7BEF1000F40
:102FD40003D1624683F84CE087E7002283F84C2053
:102FE4009A64724681E73E2A13D84FEA520ED207FA
:102FF40048BF0EF1010E4FEA8E2E1FFA8EFE2CF8FA
:1030040001E0282202FB0542128E314601F07EFACD
:1030140053E04FEA521ED2067D4A08BF0EF1FF3E2E
:1030240042EA8E2280E7BCF1010FEAD1B0F850C029
:1030340000F204421FFA8CFC624409015352E0E797
:103044000CF1060C3AF81CC0CCF3090C9C4549D988
:10305400C2F840E0B6B299F82930002B40F08E80D7
:10306400B0F8502000F2044592B20B011544EA5A1C
:1030740022F4F8421204120CEA52EA5A6FEA42426B
:103084006FEA524292B2EA52B0F8502000F20C4079
:1030940092B21044C25A22F4F8421204120CC252E0
:1030A400C25A6FEA42426FEA524292B2C252204678
:1030B40003F0D7FA002E3FF468AF99F8281022687D
:1030C40032F8213023F4E04323F040031B041B0CAB
:1030D40083F0300343F4004343F0800322F82130AB
:1030E400FFF7D8BBA3EB0C031364B6B2002BB2D02A
:1030F4006EB930F8213023F4E04323F070031B044D
:103104001B0C43F4404343F0800320F82130282370
:1031140003FB054393F84C20012ACED15A6CDE6B95
:103124006244D3F848E05A649A6B66449645DE6379
:1031340037D3AEEB020EC3F848E099F829C093B236
:10314400BCF1000F57D1B0F850E000F20C4C1FFA5C
:103154008EFEF44409018ABB3CF8012022F4F842B3
:103164001204120C2CF801203CF801206FEA4242B0
:103174006FEA524292B22CF801202DE0012B96D135
:10318400B0F8505000F20442ADB22A4400250B01BD
:10319400D552B0F8502000F20C4092B21044C552FF
:1031A40085E7BEF1000F03D1624683F84CE0C4E723
:1031B40000229A6483F84C207246BEE73E2A10D857
:1031C4004FEA520ED20748BF0EF1010E4FEA8E2E7F
:1031D4001FFA8EFE2CF801E0282202FB05456A8EB8
:1031E40013E74FEA521ED206094A08BF0EF1FF3E0A
:1031F40042EA8E22BEE7BCF1010FEDD1B0F85020B7
:1032040000F20C4C92B294440A012CF80230E3E729
:103214000080FFFF11F0800F70B5054601F0070034
:103224004FF028011CD0012400FB011129444C70EB
:103234000A614A780870CB7002B1C881022B04BFBE
:1032440000230B7195F8A832012B13D001232868B1
:1032540085F8A83200F0CAFE002085F8A80270BDE7
:10326400002601FB00F404F5B4712C44294484F8CD
:103274006961DDE70220F2E711F0800F10B501F07B
:10328400070204464FF0280113D0012302FB011169
:1032940001444B700A7094F8A832012B13D0012317
:1032A400206884F8A83200F0E5FF002084F8A80222
:1032B40010BD01FB02F303F5B47101440344002083
:1032C40083F86901E6E70220F2E770B528240026B6
:1032D40001F007014C43051985F8681104F5B47130
:1032E4000144C5E95F23C5F8846185F86961006814
:1032F40001F01CF9304670BD282301F0070103FBDF
:103304000100D0F88401704770B501F00705282149
:1033140001FB05040026C4E90F23012205FB01116A
:1033240084F84C200144A364666484F8292084F85A
:103334002850006801F0FAF8304670BD38B543688B
:1033440001F007059D42044628D811F0800F4FF084
:1033540028031AD005FB0333C11801234B70012342
:103364000D708B7094F8A8229A4219D0206884F8C2
:10337400A83201F052F825B9206804F52C7101F047
:10338400C3F8002084F8A80238BD00224B4303F59B
:10339400B4710344014483F86921E0E70120F3E7B1
:1033A4000220F1E738B5436801F00F029A4204465F
:1033B40026D811F0800F01F007024FF0280115D034
:1033C400012302FB011101444B7000250A708D702A
:1033D40094F8A832012B15D00123206884F8A83270
:1033E40001F03BF8284684F8A85238BD01FB02F3EB
:1033F40003F5B47101440344002083F86901E4E750
:103404000120F2E70220F0E710B5282411F0800F24
:103414001BBF01F0070101FB044404FB0100001978
:1034240008BF00F5B47099B21AB90273C1800020C4
:1034340010BD012283600273F9E770472DE9F3415F
:10344400054638B30368DB0710D42B689F075ED4A6
:103454002B68190700F195802B685A0700F1C18089
:10346400EB69002B40F02C81002029E0904C63682C
:1034740003F00C03042B07D0636803F00C03082B40
:103484000AD16368DE0307D523689C03DDD56B6826
:10349400002BDAD1012013E06B68B3F5803F12D121
:1034A400236843F480332360FEF7E0FF0646236875
:1034B4009803CAD4FEF7DAFF801B6428F7D90320E7
:1034C40002B0BDE8F0819BB9236823F48033236004
:1034D400236823F480232360FEF7C8FF064623688D
:1034E4009903B2D5FEF7C2FF801B6428F7D9E6E73B
:1034F400B3F5A02F236803D143F480232360CFE7DF
:1035040023F480332360236823F48023CBE7684CBF
:10351400636813F00C0F07D0636803F00C03082BE7
:1035240010D16368DA030DD423689B0702D52B6995
:10353400012BAFD123686A6923F0F80343EAC2037D
:10354400236085E72A695B4B6AB101221A60FEF7A2
:103554008DFF064623689F07ECD4FEF787FF801B88
:103564000228F7D9ABE71A60FEF780FF0646236806
:1035740098077FF56DAFFEF779FF801B0228F6D917
:103584009DE7AA694A4E4B4BE2B10122C3F880245D
:10359400FEF76CFF0446736A9B070DD54FF4FA528D
:1035A400454B1B68B3FBF2F3019300BF019B5A1E0A
:1035B4000192002BF9D14FE7FEF758FF001B0228B8
:1035C400E9D97CE7C3F88024FEF750FF0446736A08
:1035D4009F077FF541AFFEF749FF001B0228F6D98C
:1035E4006DE7334CE369D80024D40127E36943F041
:1035F4008053E361E36903F080530093009B2F4EF3
:103604003368D90518D5EB68012B26D1236A43F01A
:1036140001032362FEF72AFF41F288380646236A33
:103624009B073FD5002F3FF41BAFE36923F0805382
:10363400E36115E70027E2E7336843F480733360FE
:10364400FEF714FF80463368DA05DCD4FEF70EFF7C
:10365400A0EB08006428F6D931E7ABB9236A41F23C
:10366400883823F001032362236A23F004032362CE
:10367400FEF7FCFE0646236A9807D3D5FEF7F6FE4E
:10368400801B4045F7D91AE7052B236A03D143F081
:1036940004032362BAE723F001032362236A23F0BD
:1036A4000403B6E7FEF7E2FE801B4045B7D906E700
:1036B4000010024000004242300000200070004030
:1036C4002A4C626802F00C02082A3ED00022022B27
:1036D400274B1A662CD1FEF7C9FE064623689901CA
:1036E40020D42B6AB3F5803F05D16268A96822F41F
:1036F40000320A436260696A62680B4322F47412FE
:103704001343012263601A4B1A66FEF7AFFE0546A7
:1037140023689A013FF5A8AEFEF7A8FE401B0228D5
:10372400F6D9CCE6FEF7A2FE801B0228D6D9C6E65F
:10373400FEF79CFE054623689B017FF595AEFEF7D8
:1037440095FE401B0228F6D9B9E6012B3FF4A2AE40
:1037540060682B6A00F480329A427FF49BAE6B6AF5
:1037640000F47010C01A18BF0120A9E6001002402E
:103774000000424230B5184B87B002AC03F110058B
:10378400224618685968083303C2AB421446F7D17D
:1037940040F201231149ADF804304B6803F00C02E8
:1037A400082A17D1C3F3834218326A44DB0312F8A0
:1037B400100C0CD54B680A4AC3F3404350431833EA
:1037C4006B4413F8143CB0FBF3F007B030BD054B69
:1037D4005843FAE70248F8E74A7300080010024029
:1037E40000127A0000093D002DE9F0410D4604461F
:1037F40010B90120BDE8F081444A136803F00703BF
:103804008B4228D321688E0730D4CA0743D43F4A59
:10381400136803F00703AB4265D822683C4D12F0ED
:10382400040F6CD1130706D56B68226923F4605327
:1038340043EAC2036B60FFF79DFF6B68354AC3F32D
:103844000313D35CD840344B1860344B1868FEF72C
:10385400CBFD0020CEE7136823F007030B4313606E
:10386400136803F007038B42C3D1CBE7284B11F055
:10387400040F1EBF5A6842F4E0625A60080742BF50
:103884005A6842F460525A605A68A06822F0F00202
:1038940002435A60B9E762681D4E012A33681AD19F
:1038A40013F4003FA5D0736841F2883823F0030372
:1038B40013437360FEF7DAFD07467368626803F02A
:1038C4000C03B3EB820FA2D0FEF7D0FDC01B404522
:1038D400F3D903208EE7022A02D113F0007FE1E737
:1038E40013F0020FDEE7136823F007032B43136082
:1038F400136803F00703AB427FF47BAF8DE76B687B
:10390400E16823F4E0630B436B608BE70020024023
:10391400001002409C7300083000002008000020C2
:1039240003682DE9F3410546D80721D5364CE369F0
:10393400D9002BD40126E36943F08053E361E369A2
:1039440003F080530193019B304F3B68DA051FD588
:10395400236A6A6813F440732ED1236A6A6823F4D5
:103964004073134323621EB1E36923F08053E36180
:103974002A68910706D52449A8684B6823F4404374
:1039840003434B60D30636D4002012E00026DBE765
:103994003B6843F480733B60FEF768FD80463B68F8
:1039A400DB05D5D4FEF762FDA0EB08006428F6D948
:1039B400032002B0BDE8F08102F440729A42CCD0F8
:1039C4000120134A236AC2F84004002023F4407102
:1039D400DF07C2F840042162BFD5FEF747FD41F27C
:1039E40088380746236A9807B7D4FEF73FFDC01B03
:1039F4004045F7D9DCE7044A6969536823F4800336
:103A04000B435360C0E700BF001002400070004049
:103A14000000424270477047036810B51A690446B3
:103A240091070ED5DA6892070BD56FF002021A617E
:103A3400012202779B699B0777D0FEF7D1FC002314
:103A4400237723681A69500710D5DA6851070DD512
:103A54006FF004021A61022222779B69204613F454
:103A6400407F68D0FEF7BCFC0023237723681A69E3
:103A740012070FD5DA6810070CD56FF008021A6127
:103A840004222277DB69204699075AD0FEF7A8FC66
:103A94000023237723681A69D20610D5DA68D00682
:103AA4000DD56FF010021A6108222277DB692046D7
:103AB40013F4407F4BD0FEF793FC00232377236855
:103AC4001A69D10708D5DA68D20705D56FF0010263
:103AD40020461A61FEF761FC23681A69100608D5AE
:103AE400DA68110605D56FF0800220461A6100F0ED
:103AF40036F823681A69520608D5DA68500605D5DF
:103B04006FF0400220461A61FFF785FF23681A69A7
:103B1400910622D5DA6892061FD56FF0200220465E
:103B2400BDE810401A6100F019B8FEF757FC2046B2
:103B3400FFF770FF83E7FEF751FC2046FFF76AFFAB
:103B440092E7FEF74BFC2046FFF764FFA0E7FEF781
:103B540045FC2046FFF75EFFAFE710BD7047704796
:103B64000368DA6822F49072DA605A6922F001027A
:103B74005A61026B012A02BFDA6822F01002DA608D
:103B8400202380F83E3000230363704790F83D30D3
:103B9400202B18D1A9B1A2B190F83C30012B12D03E
:103BA400C28400238284212201620168036480F8B4
:103BB4003C3080F83D20CA68184642F08002CA6052
:103BC4007047012070470220704708B50023406AFF
:103BD400C385C38401F05CFB08BD704790F83E3098
:103BE40007B5222B37D181680268B1F5805F836AFB
:103BF40034D10169002934D15268C2F3080223F890
:103C0400022BC28D8362013A92B2C2851ABB036849
:103C1400D96821F02001D960D96821F48071D96074
:103C2400596921F001015961202180F83E10016B8E
:103C3400012920D10263D96821F01001D9601968E3
:103C4400C90605D501921A6801925B680193019B2C
:103C5400818DFFF7C2FF03B05DF804FB39B9016938
:103C640029B95268D2B21A70836A0133C9E752681B
:103C740002F07F02F7E701F005FBECE7036837B5D4
:103C84001A68044612F00F0FD9685D6909D19506C8
:103C940040F182808D067FD503B0BDE83040FFF748
:103CA4009DBF15F0010543D012F0010F02F004038B
:103CB4005BD11BB1236C43F002032364900741D50D
:103CC400236C12F0080F43F00403236403D0236C25
:103CD40043F008032364236C002B57D0920604D5C9
:103CE4008B0602D52046FFF779FF216820464B69F1
:103CF400226C03F0400302F0080253EA020547D0A5
:103D0400FFF72EFF4B695D063DD54B69A06B23F091
:103D140040034B61002836D0694B4363FEF766FCD1
:103D2400002833D0A06B436B03B0BDE83040184784
:103D340011F4907F30D012F0010F02F0040307D188
:103D440093070DD41007C6D501F020032B43BDE71C
:103D5400C8050FD4002BF3D19307F3D5002DAFD1B1
:103D64001507B8D511F0200FB0E7C80502D4002B11
:103D7400A0D1F1E7236C500743F001032364EBD592
:103D8400002DDDD096E7204601F082FA03B030BD65
:103D940001F07EFA2564F9E7206B012855D1D0069D
:103DA40053D5CD0651D5002101911A6801925A6864
:103DB4000192019A5A6912F040022AD0A06B02685B
:103DC400526892B2002AE1D0A58D9542DED9E285EF
:103DD4008269202A15D0DA6822F48072DA605A697E
:103DE40022F001025A615A6922F040025A612022EB
:103DF40084F83E202163DA6822F01002DA60FEF7CC
:103E0400D5FBE38DA18DC91A89B22046FFF7E5FEE3
:103E1400BCE7E08DE58DA18DADB280B2002DB5D0AB
:103E2400091A89B20029B1D0D86820F49070D860FA
:103E3400586920F001005861202084F83E00226374
:103E4400DA6822F01002DA60DFE7100626D50D06E4
:103E540024D594F83D20212A98D1A168226AB1F58D
:103E6400805F16D12169A1B932F8021BC1F30801A0
:103E740059602262E28C013A92B2E284002A85D12E
:103E8400DA6822F08002DA60DA6842F04002DA602E
:103E94007CE7511C216212785A60EBE750067FF5EB
:103EA40075AF4A067FF572AFDA68204622F0400209
:103EB400DA60202384F83D3001F0E7F966E700BFBB
:103EC400CF3B000890F83C30012B11D0242302682A
:103ED40080F83D30D36823F00C0343F00803D3602B
:103EE400202380F83D30002380F83C30184670478A
:103EF4000220704790F83C30012B11D02423026833
:103F040080F83D30D36823F00C0343F00403D360FE
:103F1400202380F83D30002380F83C301846704759
:103F24000220704790F83D2090F83E0010437047FF
:103F3400C28582858162034622220020186483F8A8
:103F44003C0083F83E201B68DA6842F48072DA6031
:103F54005A6942F001025A61DA6842F02002DA60DA
:103F6400704770B490F83E60202E0DD149B142B133
:103F740090F83C40012C07D00024046370BCFFF788
:103F8400D7BF012070BC70470220FBE784B001A8B2
:103F940080E80E0004B00020704703464FF43F420F
:103FA4000020A3F84400A3F840207047B0F8403044
:103FB40023F47C535B045B0CA0F840300020704772
:103FC4000020704784B010B5044603A880E80E00B2
:103FD40000200123A4F84030A4F84000A4F84400D1
:103FE400A4F85000BDE8104004B07047F0B50A785A
:103FF400CD7830F82240034624F4EC4424F07004D5
:104004002404240C032D4ED8DFE805F0024A484668
:10401400284644F4007448F280073C4323F82240C5
:1040240033F82240904EA4B234401443274323F87B
:1040340022700C7B03EB0217002C40F08180CC88AB
:1040440091F801C064086400BCF1000F2DD0B3F8EE
:10405400501089B23944A1F8004433F822104F06B5
:1040640009D533F8221089B2314041F4004141F0BE
:10407400C00123F8221033F822107C4C89B2012DA0
:1040840001EA040101D081F0200141F4004141F032
:10409400800123F82210AEE044F4C0640020BAE7A3
:1040A40044F48064FAE70120B5E7B3F85050ADB2A8
:1040B4003D44A5F80844B3F850400D69A4B23C440B
:1040C4006DBBB4F80C1421F4F8410904090CA4F8EC
:1040D4000C14B4F80C146FEA41416FEA514189B2EF
:1040E400A4F80C1433F8221049040DD533F8221027
:1040F40021F4E04121F070010904090C41F440412C
:1041040041F0800123F8221033F8221021F4804179
:1041140021F070010904090C81F44051B5E73E2DEA
:1041240005D86908EE0748BF01318902D7E76E094F
:104134004F49ED0608BF06F1FF3641EA8621CEE776
:1041440033F82240A4B2344044F4014444F08004DF
:1041540023F82240B3F85040B1F808C0A4B24FEAA3
:104164005C0C3C444FEA4C0CA4F800C4B3F8504037
:10417400A4B23C444F897F087F00A4F808744978AE
:10418400D1BB33F822104F0409D533F8221089B279
:10419400314041F4404141F0800123F8221033F8CA
:1041A40022104D060DD533F8221021F4E04121F000
:1041B40070010904090C41F4004141F0C00123F8E5
:1041C400221048F2800433F8221021F4804121F0B7
:1041D40070010904090C81F44051214323F8221091
:1041E40033F8221021F4E04121F040010904090CC4
:1041F4000C4323F82240F0BD33F822104C0409D5B7
:1042040033F8221089B2314041F4404141F0800139
:1042140023F8221033F8221049060DD533F8221062
:1042240021F4E04121F070010904090C41F400413A
:1042340041F0C00123F8221033F822100B4C89B24C
:104244002140012D18BF81F0200141F4004141F0CB
:10425400800123F8221033F8221021F4804121F048
:1042640070010904090C10E78F8FFFFFBF8FFFFF58
:104274000080FFFF4A780B78097BD9BB0AB330F87A
:10428400232051060DD530F8232022F4E04222F0F9
:1042940070021204120C42F4004242F0C00220F8F0
:1042A400232030F8232022F4E04222F040021204BA
:1042B400120C42F4004242F0800220F82320002035
:1042C400704730F8232052040DD530F8232022F40F
:1042D400E04222F070021204120C42F4404242F016
:1042E400800220F8232030F8232022F4804222F098
:1042F4007002DCE7002A4AD130F8232051040DD59E
:1043040030F8232022F4E04222F070021204120C4E
:1043140042F4404242F0800220F8232030F8232067
:1043240052060DD530F8232022F4E04222F0700228
:104334001204120C42F4004242F0C00220F823207E
:1043440048F2800130F8232022F4E04222F0700287
:104354001204120C42F4004242F0C00220F823205E
:1043640030F8232022F4804222F070021204120C4E
:104374000A4320F8232030F8232022F4E04222F0DC
:1043840040021204120C114320F8231097E730F86E
:10439400232051040DD530F8232022F4E04222F0EA
:1043A40070021204120C42F4404242F0800220F8DF
:1043B400232030F8232052060DD530F8232022F490
:1043C400E04222F070021204120C42F4004242F065
:1043D400C00220F8232048F2800130F8232022F480
:1043E400E04222F070021204120C42F4404242F005
:1043F400800220F8232030F8232022F4E04222F027
:1044040040021204120C0A4320F8232030F823201F
:1044140022F4804222F07002B3E74B780A788BB121
:1044240030F8223023F4E04323F040031B041B0C38
:1044340083F0100343F4004343F0800320F8223058
:104444000020704730F8223023F4804323F07003B7
:104454001B041B0C83F48053ECE70B7B3BBB4B78B6
:104464000A7833B330F822305B060DD530F82230A9
:1044740023F4E04323F070031B041B0C43F40043B8
:1044840043F0C00320F82230CB78012B0FD030F852
:10449400223023F4E04323F040031B041B0C83F07D
:1044A400200343F4004343F0800320F8223000202B
:1044B400704730F822305B040DD530F8223023F4F5
:1044C400E04323F070031B041B0C43F4404343F00C
:1044D400800320F8223030F8223023F4804323F084
:1044E40070031B041B0C83F44053DAE711B98023D7
:1044F400A0F84C300020704700207047002070471F
:10450400B0F8440080B270470020704700EB4200CE
:10451400013300F580605B0800EB8303984200D10F
:10452400704731F8022B20F8042BF7E72DE9F04708
:104534004B780446012B0D460A7B40F08581D1F867
:1045440010808F694969474528BF47460ABBBFB2F7
:10455400EA883B46FFF7DAFFB4F85000297880B2C6
:1045640004F20442090102448F522A7834F82230BA
:1045740023F4E04323F040031B041B0C83F03003BB
:10458400002043F4004343F0800324F82230BDE8C4
:10459400F087EB7895F800E0022B2E6A4FEA0E1CA8
:1045A40040F0B880B04580F09A8030F82E30F61B89
:1045B40023F4E04323F070031B041B0C43F4014376
:1045C40043F0800320F82E3030F82E90B0F850E0FD
:1045D40019F040092E62BBB201EB070A1FFA8EFEE6
:1045E4003FD000F20C42724422F80C306A89FFF783
:1045F4008DFFB04536BFF31B00233E466A782B621D
:10460400C5F814A0B3B2002A40F0D280B4F8500028
:10461400297880B204F204420901024486B9885A16
:1046240020F4F8400004000C8852885A6FEA404095
:104634006FEA504080B288522A895146204666E08B
:104644003E2E05D87008F60748BF01308002F1E716
:104654007709F0069B4808BF07F1FF3740EA872037
:10466400E8E700F20442724422F80C302A89FFF78A
:104674004DFFB04536BFF31B4B463E466A782B626E
:10468400C5F814A0B3B2002A40F0D180B4F85000A9
:10469400297880B204F20C420901024476B9885A9E
:1046A40020F4F8400004000C8852885A6FEA404015
:1046B4006FEA504080B288526A89BEE73E2E05D820
:1046C4007008F60748BF01308002F3E77709F00667
:1046D4007C4808BF07F1FF3740EA8720EAE730F853
:1046E4002E2022F4E24222F070021204120C42F450
:1046F400004242F0800220F82E20B0F8503000F240
:1047040004429BB21A44B3B222F80C302A89FFF750
:10471400FDFE2AE730F82E20F61B22F4E04222F0B8
:1047240070021204120C42F4014242F0800220F89A
:104734002E2030F82E90B0F850E019F040092E6287
:10474400BBB201EB070A1FFA8EFE3ED000F20C4208
:10475400724422F80C306A89FFF7D8FEB04536BFA0
:10476400F31B00233E46C5F814A02B62002E3FF431
:10477400FCAE6A78B3B2DAB9B4F85020287892B2B1
:1047840004F204413E2E4FEA0010114407D8720887
:10479400F60748BF0132920292B242524CE77709BF
:1047A400F206484A08BF07F1FF3742EA8722F3E7D7
:1047B400012A7FF441AFB4F85000297880B204F2A2
:1047C4000442090102448B5236E700F20442724467
:1047D40022F80C302A89FFF799FEB04536BFF31B47
:1047E4004B463E46C5F814A02B62002E3FF4BDAEE6
:1047F4006A78B3B2DAB9B4F85020287892B204F2E5
:104804000C413E2E4FEA0010114407D87208F607F7
:1048140048BF0132920292B242524DE77709F20642
:10482400284A08BF07F1FF3742EA8722F3E7012A43
:104834007FF442AFB4F85000297880B204F20C42FD
:10484400090102448B5237E7002A3DD18B6909697B
:10485400B0F850008B4284BF5A1A0B462978AA61DB
:1048640080B204F20C42090102446BB98B5A23F45E
:10487400F8431B041B0C8B528B5A6FEA43436FEAB9
:1048840053439BB28B5208E03E2B12D85808DE07E4
:1048940048BF0130800280B288522A7834F822302E
:1048A40023F4804323F070031B041B0C83F4405354
:1048B40066E65809DB06034B08BF00F1FF3043EA04
:1048C4008023DEE70080FFFFCA78022A7FD153BB32
:1048D400B0F850200B78096992B200F204401B0131
:1048E400104404F20C4600293AD1C25A22F4F84288
:1048F4001204120CC252C25A6FEA42426FEA524286
:1049040092B2C252B4F8502092B23244D15A21F435
:10491400F8410904090CD152D15A6FEA41416FEAB6
:10492400514189B2D152EB69002BB6D044F2400315
:104934002A7834F8221003EA01008B4301D00028BE
:10494400ABD134F8223023F4E04323F070031B048A
:104954001B0C43F4004343F0C00324F822309CE7CB
:104964003E2913D84A0811F001011ABF571CBF028F
:104974009702BFB2C752B4F8500080B23044034427
:1049840001B10132920292B21A80CCE74F0911F0C0
:104994001F01474A0FD042EA872292B2C252B4F8AA
:1049A400502092B2324413443A4601B97A1E404927
:1049B40041EA8222E7E707F1FF3C42EA8C2292B205
:1049C400C252B4F8502092B216443344ECE7012AA0
:1049D4006CD189692A69914294BF0020881AA86120
:1049E40088BF1146002B7FF458AFB4F850202B78C1
:1049F40092B204F204461B01164404F20C40F1B9CD
:104A0400F25A22F4F8421204120CF252F25A6FEAE9
:104A140042426FEA524292B2F252B4F8502092B239
:104A24000244D15A21F4F8410904090CD152D15A53
:104A34006FEA41416FEA514189B2D1522DE73E29D3
:104A440013D84A0811F001011ABF571CBF0297027C
:104A5400BFB2F752B4F85060B6B23044034401B167
:104A64000132920292B21A8017E74F0911F01F0126
:104A74000F4A0FD042EA872292B2F252B4F8502081
:104A840092B2024413443A4601B97A1E084941EAF3
:104A94008222E7E707F1FF3C42EA8C2292B2F2520B
:104AA400B4F8502092B210440344ECE701206EE5C0
:104AB4000080FFFF00EB4200F0B500F580605D0868
:104AC4000C4607462E46023436B9DB0744BF30F89D
:104AD400253001F81530F0BD37F8042B013E92B2B1
:104AE40004F8022C120A04F8012CECE788B006281A
:104AF4005AD8DFE800F004111D2935414D002B4B35
:104B04002B489A6942F004029A619B6903F00403FA
:104B14000193019B08B07047244B26489A6942F0E0
:104B240008029A619B6903F008030293029BF1E770
:104B34001E4B21489A6942F010029A619B6903F066
:104B440010030393039BE5E7184B1C489A6942F052
:104B540020029A619B6903F020030493049BD9E724
:104B6400124B17489A6942F040029A619B6903F01C
:104B740040030593059BCDE70C4B12489A6942F01C
:104B840080029A619B6903F080030693069BC1E748
:104B9400064B0D489A6942F480729A619B6903F44A
:104BA40080730793079BB5E70020B3E7001002402A
:104BB40000080140000C01400010014000140140B5
:104BC40000180140001C0140002001400B68032B29
:104BD40018D90378312B15D14378452B12D183781A
:104BE400412B0FD1C378462B0CD1BFF34F8F06490D
:104BF400064BCA6802F4E0621343CB60BFF34F8FE5
:104C040000BFFDE7704700BF00ED00E00400FA05B7
:104C1400FDF72CBC704708B5FDF71CFCFDF7B1FC93
:104C2400FFF7F8FF08BD70470F4B84B0DA6942F014
:104C34008052DA61DA6902F080520192019A9A692B
:104C440042F001029A619A6902F001020292029A08
:104C54005A6942F040025A615B6903F040030393CE
:104C6400039B04B0704700BF001002400C4BD3F804
:104C7400FC20D2015EBFD3F8FC2042F08072C3F85E
:104C8400FC200022074B5A601A6842F001021A60A5
:104C940000BF00BF00BF5868B0FA80F040097047F9
:104CA40000ED00E0001000E008B5FFF7BDFFFFF7DE
:104CB400DDFFFDF7BDFBFFF7B6FF00F023FC034863
:104CC400FDF764FCBDE8084000F09ABC2800002011
:104CD400A04B82B09A69013842F001029A619B6943
:104CE40003F001030193019B2B2834D8DFE810F073
:104CF4002C0035003C00430048004F0054005B008A
:104D040060006700700075007C0085008A009100D7
:104D14009A00A300A800AF00B800BD00C40033008F
:104D240033003300C900D000D500DC00E100E80006
:104D3400ED00F400F900FE00030108010D01120169
:104D44001901200127012D01834A536843F0E063D0
:104D540043F00103536002B070477F4A536823F065
:104D6400010343F0E063F5E77B4A536843F0E063F3
:104D740043F00203EEE7784A536823F00203F0E7B6
:104D8400754A536843F0E06343F00403E2E7724A70
:104D9400536823F00403E4E76F4A536843F0E06385
:104DA40043F00803D6E76C4A536823F00803D8E7B6
:104DB400694A536843F0E06343F03003CAE7664A44
:104DC400536823F0300343F0E06343F01003C1E77A
:104DD400614A536823F03003C3E75F4A536843F0E2
:104DE400E06343F0C003B5E75B4A536823F0C003B4
:104DF40043F0E06343F04003ACE7574A536823F0C1
:104E0400C003AEE7544A536843F0E06343F440738D
:104E1400A0E7514A536823F4407343F0E06343F43A
:104E2400007397E74C4A536823F4407343F0E063FC
:104E340043F480738EE7484A536823F4407390E741
:104E4400454A536843F0E06343F4406382E7424ACF
:104E5400536823F4406343F0E06343F4006379E769
:104E64003D4A536823F440637BE73B4A536843F06D
:104E7400E06343F480536DE7374A536823F4805367
:104E84006FE7354A536843F0E06343F4004361E756
:104E9400314A536823F4004363E72F4A536843F0CD
:104EA400E06343F4803355E72B4A536823F480339B
:104EB40057E7294A536843F0E06343F4003349E772
:104EC400254A536823F400334BE7234A536843F0DD
:104ED400E06343F480233DE71F4A536823F48023AF
:104EE4003FE71D4A536843F0E16333E71A4A5368C6
:104EF40023F4002335E7184A536843F0E26329E7B3
:104F0400154A536823F480132BE7134A536823F09C
:104F1400E0631FE7104A536823F0E06343F08073B3
:104F240018E70D4A536823F0E06343F0007311E778
:104F3400094A536823F0E06343F080630AE7064AB2
:104F4400D36943F48063D36105E7034AD36923F447
:104F54008063F8E7001002400000014091FAA1F3D9
:104F6400B3FA83F370B50D0E0F2691FAA1F1B1FADD
:104F740081F144599B0006FA03F3890024EA0304EF
:104F84008A402243425170BD91FAA1F3B3FA83F3EC
:104F940070B50D0E042691FAA1F1B1FA81F14459CC
:104FA4009B0006FA03F3890024EA03048A4022439F
:104FB400425170BD431C2DE9F34106460F4600D112
:104FC400FEE7584B00F00F02C0F3031001F007088E
:104FD40053F82250FFF78AFDB8F1010F044615D1AA
:104FE40095FAA5F3B3FA83F30321280E22589B0004
:104FF40001FA03F322EA030295FAA5F3B3FA83F361
:105004009B0099401143215001223BE0C7F3062045
:10501400B8F1030F0AD801A353F828F0335000085D
:105024000D5000087F500008A1500008FEE7FFF76C
:105034004FFE082229462046FFF790FF95FAA5F275
:105044002B0EB2FA82F2E1580F239200934095FAA4
:10505400A5F2B2FA82F2C7F301170B409200012FB6
:1050640023FA02F31CD0022F45D0082B2BD10422A3
:1050740029462046FFF772FF25E07F2801D0FFF77D
:1050840027FE092229462046FFF768FF17F0080289
:1050940018BF04222946FFF777FFCFE70022C9E7AC
:1050A400042B04D1082229462046FFF757FF012389
:1050B4002A0A92FAA2F2B2FA82F2E168934021EA51
:1050C40015210B43E360184B9A6942F001029A617F
:1050D4009B6903F001030193019BA6F10D03012BCE
:1050E40014D8124A536823F0E06343F0806353609A
:1050F40002B0BDE8F081042B04D1082229462046E1
:10510400FFF72CFFE36823EA1523DBE70F2E02D019
:10511400133E012EECD8054A536823F0E06343F0B4
:105124000073E4E75C7300080010024000000140D3
:105134000B685A1C01D100207047834201D1486892
:1051440070470C31F4E7431C01D0FFF7F1BF002096
:1051540070474B6813B94FF0FF307047834201D159
:10516400086870470C31F4E708B1FFF7F2BF4FF05D
:10517400FF3070470E4B1A6842F001021A605968FA
:105184000C4A0A405A601A6822F0847222F480326F
:105194001A601A6822F480221A605A6822F4FE0205
:1051A4005A604FF41F029A60034B044A9A60704796
:1051B400001002400000FFF800ED00E000200008AD
:1051C4000438704708B5074B90F8612053F8220063
:1051D400FEF7A8FE00F02200A0F122035842584135
:1051E40008BD00BF4402002008B5074B90F86120B9
:1051F40053F82200FEF796FE00F02100A0F12103EF
:105204005842584108BD00BF4402002038B5154635
:105214000446B8B1C16490F96000FDF77DF9B4F8B3
:105224007230A16E9BB294F861001944064BAAB285
:1052340053F82000FEF7AAFC94F96000BDE838405A
:10524400FDF75CB938BD00BF4402002048B1436D8E
:10525400013306D190F86120024B53F82200FEF787
:1052640031BE70474402002048B1436D013306D17A
:1052740090F86120024B53F82200FEF73BBE7047C2
:1052840044020020436C04381847836C04381847E0
:1052940030B5044650F8043985B01D6815F0010591
:1052A40012D0002200921A6800925B680093009B5F
:1052B400FFF788FF40BB0122204604F15E0105B0E0
:1052C400BDE83040FEF74DBE196811F0020106D06A
:1052D40001951A6801925B680193019BE8E71A68DB
:1052E40012F0040206D002911A6802925B680293DB
:1052F400029BDDE719680907DAD503921A6803925D
:105304005B680393039BD3E705B030BD08B5252044
:10531400FDF728F9024B1868BDE80840FEF7AEBC5B
:1053240044020020262008B5FDF71CF9034B5868F9
:1053340018B1BDE80840FEF7A1BC08BD4402002036
:10534400272008B5FDF70EF9034B986818B1BDE89E
:105354000840FEF793BC08BD4402002008B5342081
:10536400FDF700F9024BD868BDE80840FEF786BC9B
:105374004402002008B53520FDF7F4F8024B186903
:10538400BDE80840FEF77ABC440200200023C0E9CF
:105394000033C0E9023370470023012803F10102FE
:1053A4000AD11422DBB25343054A181D1044816804
:1053B40029B11A441369184713464008EDE77047AA
:1053C400580200200120FDF7ADB90220FDF7AAB96B
:1053D4000420FDF7A7B90820FDF7A4B91020FDF7B4
:1053E400A1B938B505242025A8B2FDF79BF9013CE5
:1053F4004FEA4505F8D138BD38B506244FF4806529
:10540400A8B2FDF78FF9013C4FEA4505F8D138BD44
:10541400344A08B51046062300F8043BFFF7B6FFEC
:10542400072302F118001375FFF7B0FF082302F1F8
:105434002C0082F82830FFF7A9FF092302F140006D
:1054440082F83C30FFF7A2FF0A23172102F154002F
:1054540082F85030FFF79AFF02F1680082F8641076
:10546400FFF794FF02F17C0082F87810FFF78EFFBB
:1054740002F1900082F88C10FFF788FF02F1A4007B
:1054840082F8A010FFF782FF82F8B410282102F1FD
:10549400B800FFF77BFF02F1CC0082F8C810FFF7D9
:1054A40075FF02F1E00082F8DC10FFF76FFF02F1F4
:1054B400F40082F8F010FFF769FF02F5847082F8B7
:1054C4000411FFF763FF02F58E7082F81811FFF7DD
:1054D4005DFFBDE8084002F5987082F82C11FFF7D3
:1054E40055BF00BF5802002038B5054CA4F5A0757F
:1054F400143C201DFCF7DEFEAC42F9D138BD00BFE0
:105504009803002010B596B0142200210EA801F0D3
:1055140027FE1422002101A801F022FE18220021F6
:105524000DEB020001F01CFE02244FF48033012233
:10553400CDE91343CDE90C234FF4E0130CA81092EA
:105544001593FDF77BFF00B1FEE70F23CDE901348E
:105554004FF480630390CDE90430214601A8FEF79F
:1055640043F900B1FEE7122306934FF400430B9076
:1055740006A80893FEF7D4F900B1FEE716B010BDF3
:105584000C480D490D4A002302E0D458C45004339A
:10559400C4188C42F9D30A4A0A4C002301E0136070
:1055A4000432A242FBD3FFF7E5FD01F0F1FD00F068
:1055B4002FF970470000002004020020A87600089C
:1055C400040200201C0F0020FEE7000008B50121A2
:1055D4000C20FFF7EFFC084B0A201A68074B1B6BE3
:1055E400C3F30F23536100F016F8BDE8084000210F
:1055F4000C20FFF7DFBC00BF0C0000205C73000828
:1056040000F076BB08B5FFF70FFBBDE80840FFF7D5
:1056140079BFFFF7FDBA38B5044648B1FFF7F8FA89
:10562400054600F001F9FFF7F3FA431BA342F8D350
:1056340038BD70B505460C46084649B1FCF7D0FDA7
:105644002B68024621462846BDE870405B6818472F
:1056540070BD000008B50249FFF7EBFF08BD00BFAD
:105664005C75000838B50546FFF7E3FF0446284695
:10567400FFF7F0FF204438BDFFF7F4BF07B5036818
:105684008DF8071001225B680DF10701984703B0FC
:105694005DF804FB014800F0CEB800BF7804002098
:1056A4002DE9F0410E4617461546DFF83880ADB1B6
:1056B40000F042FB90B1404600F0BDF8A84228BF7C
:1056C400284604460028F3D031462246054800F017
:1056D400D3F82D1B264400F04FFBE8E7781BBDE808
:1056E400F08100BF78040020014800F067B900BFD2
:1056F400B203002010B5044800F089F9044600F014
:1057040071FB204610BD00BFB20300202DE9F84311
:1057140006460F46154694B2FFF77BFFDFF8349038
:10572400F06022463946484600F0CEF98046A4EBA4
:105734000804A4B200F056FB47443CB1FFF769FFEC
:10574400F368C01AB3689842EBD32D1B2846BDE812
:10575400F88300BFB20300202DE9F04F85B0064660
:10576400884617461C469DB2FFF753FFDFF84CA04E
:10577400F0600DF10E092B463A4641465046CDF8ED
:10578400009000F0E7F9834600F02CFBBDF80E30E2
:10579400ED1AADB21F44BBF1000F04D0641B2046C8
:1057A40005B0BDE8F08F002DF9D0FFF732FFF368A4
:1057B400C01AB3689842DED3F0E700BFB2030020FA
:1057C400014800F05BB900BFB203002010B5034CE0
:1057D400204600F040F80028FADC10BD78040020D0
:1057E40000F086BA4FF47A720021034BC3E9011228
:1057F400024A1A60704700BF9803002068750008C9
:1058040008B50320FCF738FEBDE8084000F00AB8EC
:1058140008B5AFF30080FCF70BFDFCF711FD01F0B8
:105824007DF8FAE7FFF740BA70470023A0F882300A
:10583400A0F880307047B0F88230B0F880209BB276
:1058440092B2981A7F30434203F07F0300F07F0046
:1058540058BF58427047B0F88030B0F882209BB2ED
:1058640092B203F18000801A434203F07F0300F0F8
:105874007F0058BF58427047F8B5B0F880600446BE
:10588400B6B2B0F88000C6F1800696420F461546BF
:1058940080B20AD9204401F0A1FCB4F880301D4440
:1058A40005F07F05A4F88050F8BD3246204401F08D
:1058B40095FC2046AA1BB919EDE7B0F88020B0F892
:1058C400823092B29BB29A422BBFB0F88030B0F8CB
:1058D4008230B0F88220C3F1800328BF9B1A9BB2A8
:1058E4000B80A0F88430B0F882309BB21844704723
:1058F400B0F88220B0F88430134403F07F03A0F89A
:10590400823070470023A0F8C230A0F8C030C02312
:10591400A0F8C4307047B0F8C23082B09BB2ADF882
:105924000630B0F8C010BDF8063089B29BB2994277
:10593400B0F8C03002469BB21ED37F2B08D9B0F812
:10594400C0309BB2802B09D1BDF806309BB22BB17D
:10595400B2F8C0309BB2D01802B07047BDF8063020
:1059640000209BB2402BF7D9B2F8C0309BB2A2F80A
:10597400C430A2F8C000EBE7BDF80610403389B28A
:105984008B42E5D30020E7E7B0F8C030194489B270
:10599400A0F8C010B0F8C020B0F8C43092B29BB2E6
:1059A4009A4224BFC023A0F8C430B0F8C0309BB2E0
:1059B400BF2B84BF0023A0F8C0307047B0F8C030BC
:1059C40082B09BB2ADF80430B0F8C43002469BB24A
:1059D400ADF80630B0F8C210BDF8043089B29BB2FD
:1059E400994208D8BDF80430B0F8C2209BB292B2F4
:1059F400981A02B07047BDF80600BDF80410B2F85A
:105A0400C23080B289B29BB20844C01AF1E7B0F840
:105A1400C02082B092B2ADF80420B0F8C42003468E
:105A240092B2ADF80620B0F8C210BDF8062089B2D3
:105A340092B2914204BF0022A0F8C220B0F8C21072
:105A4400BDF8042089B292B2914214D0B0F8C220B9
:105A540092B2511C89B2A0F8C210B3F8C210805C93
:105A6400BDF8062089B292B2914202D30022A3F873
:105A7400C22002B070474FF0FF30FAE7B0F8C030F0
:105A840082B09BB2ADF80430B0F8C4309BB2ADF82C
:105A94000630B0F8C220BDF8063092B29BB29A42EA
:105AA40024BF0023A0F8C230B0F8C220BDF80430EF
:105AB40092B29BB29A420FBF4FF0FF30B0F8C2309F
:105AC4009BB2C05C02B0704737B50446B4F8C0302E
:105AD40008469BB2ADF80430B4F8C4309BB2ADF8BC
:105AE4000630B4F8C210BDF8063089B29BB29942B0
:105AF40024BF0023A4F8C230B4F8C210BDF80430A7
:105B040089B29BB2994294BFBDF80450BDF80650C7
:105B1400B4F8C230B4F8C210ED1AADB2954228BF41
:105B2400154689B22A46214401F058FBB4F8C23024
:105B340028462B449BB2A4F8C230B4F8C220BDF866
:105B4400063092B29BB29A4224BF0023A4F8C2301A
:105B540003B030BDF7B51C46B0F8C030089D9BB209
:105B6400ADF80430B0F8C4309BB2ADF80630B0F8EC
:105B7400C260BDF80630B6B29BB29E4224BF002379
:105B8400A0F8C230B0F8C260BDF80430B6B29BB21F
:105B94009E4294BFBDF80430BDF80630B0F8C26030
:105BA4009B1B9BB2A34228BF23460024B0F8C260CB
:105BB400B6B20644A7B2BB4210D82B80B0F8C220BC
:105BC40013449BB2A0F8C230B0F8C220BDF806302E
:105BD40092B29BB29A4220D2002018E016F804C078
:105BE4008C4516D1B0F8C2309BB201333B449BB212
:105BF400A0F8C230B0F8C220BDF8063092B29BB211
:105C04009A4224BF0023A0F8C23001202F8003B0A1
:105C1400F0BD02F804C00134CCE70023A0F8C23080
:105C2400DAE700207047000021280ED022281DD07A
:105C3400202808D10A681A4B1A600A791A714A791D
:105C44005A718A799A7100207047154B1A680A7044
:105C54001A68120A4A705A888A70DA78CA701A79ED
:105C64000A715A794A719B798B71ECE70D4A4B881A
:105C740012780D49002A14BF1A46012202F00102CB
:105C84000A700A7812B10021084A1160084AC3F365
:105C940040031370074A137801331370D3E700BF2E
:105CA4003400002051000020B1030020AC03002088
:105CB400B0030020A803002010B5094C0948FFF7E1
:105CC400B4FD2046FFF71EFE0122074B20461A7042
:105CD400FFF721FE0146054800F0A0FF002010BD9B
:105CE400B2030020780400205000002000050020AA
:105CF40010B50C4C22789AB90B490C4800F0B0F856
:105D040070B90B49094800F0BEF848B90949074879
:105D140000F072FF20B9054800F0CAF8012323708F
:105D240010BD00BFFE0400208400002000050020F8
:105D3400700100203C00002038B50C4B0C4D1C6851
:105D44003CB995F89C32032B0CD0002000F00100E4
:105D540038BDFCF78BFB95F89C32032BF5D1001B67
:105D64000228F2D8034B1878C0B2EFE7AC03002046
:105D740000050020B103002037B50F4CD4F8BC3225
:105D8400D3F81432ABB90D480DF10601FFF795FDB8
:105D9400BDF80630054663B1FCF768FB084B29469D
:105DA4001860BDF80620204600F02DFF204600F0C4
:105DB4003EFF03B030BD00BF000500207804002082
:105DC400AC03002010B50024044B05481C60FFF709
:105DD4008FFDFFF7D1FF204610BD00BFAC030020AC
:105DE4007804002038B50A4D2B780BB1002038BD5B
:105DF4000848FFF790FD01460028F7D00124064823
:105E04002C7000F00BFF044800F029FF2046EEE759
:105E140050000020B20300200005002038B50C4DCE
:105E24000C462B78032B03D9FEF7D0FE00232B70EE
:105E340021880848FFF7A8FD0022074B1A70FFF7D6
:105E4400D1FF10B9054800F01DFF002038BD00BF88
:105E5400A8030020B2030020500000200005002009
:105E640078B10023C0F8B832C0F8C032C0F8CC32E0
:105E740009B1C0F8B4120123027080F89C3200F01A
:105E84004BBC03207047002313B50446ADF806301D
:105E940061B1CB6AC0F8B81213B9002002B010BDCA
:105EA4000DF106009847C4F8CC02F6E70320F5E7A5
:105EB40000F062BCD0F8B8320BB11B68184703205D
:105EC400704708B5D0F8B8320BB15B68984700202A
:105ED40008BD38B500F2AA250446284600F0EDFABC
:105EE400012394F8AA12C4F89432B4F8B032C4F876
:105EF400983201F01F03012B08D0022B0CD08BB970
:105F040029462046BDE8384000F0ECB82946204632
:105F1400BDE8384000F01EBA29462046BDE83840A6
:105F240000F03CBA2046BDE8384001F0800100F0A2
:105F34003BBC70B504461546F9B9D0F89432032B2E
:105F44000CD1D0E9573293420AD99B1A9A4228BFFE
:105F54001A462946C0F85C3100F003FB002070BDEE
:105F640090F89C32032B04D1D0F8B8321B6903B1EA
:105F74009847204600F0FDFAF0E790F89C32032B96
:105F8400ECD1D0F8B8329B69002BE7D0BDE8704063
:105F9400184770B5044616460D46B9BBD0F894327E
:105FA400022B0ED1D0E90732934213D99A1A314603
:105FB400C26100F0C1FA2B462A462946204600F069
:105FC40021FC94F8A032012B02D1002384F8A032E2
:105FD400002070BD0CD18269934209D8D0F8983260
:105FE4009A4205D20A4600F0A7FAC4F89852E2E7AA
:105FF40094F89C32032B05D1D4F8B832DB680BB18A
:1060040020469847204600F0BFFADAE790F89C3221
:10601400032BDDD1D0F8B8325B69002BD8D0BDE8B2
:10602400704018470123002170B580F89C32D0F8E5
:10603400B8320446C0F894124160C0F8A412DBB12F
:10604400D0F8BC2212B15B6803B198470022402506
:10605400012611464023204600F095FB2B460022E2
:1060640080212046A4F86461C4F8605100F08BFBE1
:106074000020A684256270BD0320FCE70174002083
:10608400704790F89C32DBB280F89D32042380F88C
:106094009C320020704790F89C32042B02BF90F889
:1060A4009D32DBB280F89C3200207047D0F8B822D1
:1060B40008B54AB190F89C32032B01D1D3690BB9CE
:1060C400002008BD9847FBE70320FAE710B5044613
:1060D400802100F069FB2046BDE81040002100F05B
:1060E40063BB000037B50B78044603F06003202B34
:1060F4000D4612D0402B10D0002B57D14B78092BD2
:1061040054D8DFE813F0FD001801530011015300C7
:10611400810013005300E7009D0029462046D4F86F
:10612400B8329B6803B0BDE8304018470023498863
:10613400ADF806300B0A013B062B37D8DFE803F035
:10614400041C2936364F5900D0F8B4321B68207C21
:106154000DF106019847EA88002A00F09E80BDF8F8
:1061640006301BB39A4228BF1A460146ADF80620F2
:10617400204600F0D4F91CE0027CD0F8B83232B9E1
:106184009B6A0DF10600984702234370E3E7DB6A3C
:10619400F7E7C9B2D0F8B432052918D8DFE801F01E
:1061A400030D0F1113155B68002BD0D12046FFF7A8
:1061B4008DFF0025284603B030BD9B68F4E7DB68FB
:1061C400F2E71B69F0E75B69EEE79B69ECE7DB69E3
:1061D400002BEBD00DF10602007C9847BBE7037C53
:1061E400002BE3D1D0F8B8320DF106005B6B984771
:1061F400B1E7037C002BD9D1D0F8B8320DF10600F9
:106204001B6B98470723C0E78B88002BCED1CB8824
:10621400002BCBD14D887F2DC8D890F89C32032B0E
:10622400C4D0E9B280F89E1200F0DEFA204600F0F5
:10623400A0F91DB1022384F89C32BAE70123FAE7DE
:106244008978434D0129297003D9FFF73FFF0325BE
:10625400B0E790F89C32022BDAB208D0032A15D0AA
:10626400FFF734FF20462978FFF72BFEEFE7A1B1B3
:1062740001214160FFF71EFE0546204615B1FFF7D8
:1062840025FF97E700F075F90323D4E749B9022302
:10629400416080F89C32FFF714FE204600F069F953
:1062A40087E741680129F8D0C9B2FFF70AFE2978C7
:1062B40020466160FFF7FEFD05460028EDD020462C
:1062C400FFF704FF20462179FFF7FBFD022384F842
:1062D4009C326FE7CA88012A7FF468AF90F89C1259
:1062E4000229CBB207D8002B3FF460AF014600234C
:1062F40041F8083F3CE7032B7FF458AF011D37E713
:1063040090F89C32013B022B3FF650AFCA88022A18
:106314007FF44CAFD0F8A4320146002B0CBF01230C
:10632400032341F80C3F23E74B88012B7FF441AF53
:10633400C4F8A432B1E790F89C32013B022B3FF63B
:1063440035AF4B88012B7FF434AF0023F0E700BF57
:10635400D007002038B50B78044603F060025B06D2
:106364000D4601D5402A15D194F89C32013B022BED
:1063740010D82B79022B0DD8D4F8B83229462046F0
:106384009B689847EA8822B918B9204600F0F1F8CA
:10639400002038BD2046FFF799FEF9E770B50B7869
:1063A400044603F06003202B0D468A8851D0402B0D
:1063B4004FD063BB6B78D1B2012B39D0032B1FD0E4
:1063C4002BBB90F89C32022BD8B253D003281ED199
:1063D40012F0800F4FF0140201F00F0302FB03438D
:1063E40058D09B8C9BB1142501F07F0303FB05550A
:1063F40025444B065AD10023022229462B6045E04E
:1064040090F89C32022BDAB22BD0032A03D0204618
:10641400FFF75CFE0AE06B882BB94A0603D0EB88D1
:106424000BB900F0C1F9204600F0A3F8002070BDBC
:1064340090F89C32022BDAB213D0032AE7D16B888E
:10644400002BF3D14E0601D000F0B5F9204600F040
:1064540090F8D4F8B83229462046BDE870409B68CD
:1064640018474B06D3D000F09FF98021204600F056
:106474009BF9DBE74906CAD1002312064FF002025A
:106484004CBF04F1140104F5AA710B60204600F01E
:1064940046F8CBE7B3F86431002BB8D0142301F0ED
:1064A4007F0503FB054505F5AA75A2E7204600F024
:1064B40089F900289FD001239EE70B7803704B785D
:1064C40043704B8843808B888380CB88C38070471C
:1064D40010B50446802100F067F92046BDE810405D
:1064E400002100F061B970B50D461646044670B13E
:1064F400FBF776FEC3B201335B0033802B700323BA
:1065040000216B700223013C14F8012F02B970BD05
:10651400EA545A1CD2B20233A954DBB2F4E713464C
:10652400022210B5C0E90633C0F894220A460021BD
:1065340000F061F9002010BD08B513460A46002199
:1065440000F059F9002008BD1346032210B5C0E934
:106554005633C0F894220A46002100F053F9002073
:1065640010BD08B513460A46002100F04BF900207F
:1065740008BD08B504220023C0F8942219461A461F
:1065840000F039F9002008BD08B505220023C0F841
:10659400942219461A4600F035F9002008BD00007F
:1065A40037B5244B026804469A4240D1224D03E099
:1065B400A968FEF7FFFC0C352868431CF8D11F4B73
:1065C4000121DA69132042F40002DA61DB69002256
:1065D40003F400030193019BFBF760FF1320FBF717
:1065E4008DFF002201211420FBF758FF1420FBF734
:1065F40085FFA369012B1AD14FF48022104B2A2066
:106604005A61DA6822F48022DA609A6842F48022BD
:106614009A601A6842F480221A60FBF76FFF002226
:106624002A20114603B0BDE83040FBF737BF03B062
:1066340030BD00BF005C0040AC7300080010024095
:106644000004014000F52C71D0F8E802FFF741BCCA
:10665400282303FB0103D0F8E802D3F87C21FFF7D9
:1066640068BC282303FB0103D0F8E802DA6BFFF7C8
:1066740090BCD0F8E802FFF719BD10B50446D0F875
:10668400E802FFF7CFFCD4F8E8020121BDE810408E
:10669400FFF7F4BC10B50446D0F8E802FFF7F1FCAC
:1066A400A36923B1024A136943F00603136110BDC1
:1066B40000ED00E0836910B5044633B1FEF7A2FF94
:1066C400054A136923F006031361D4F8E802BDE810
:1066D4001040FFF7E0BC00BF00ED00E00148FCF70C
:1066E400CDB800BFD4070020FFF7F8BF08B5074BAB
:1066F4009B6933B1064A136923F006031361FEF75D
:1067040081FF4FF48022034B5A6108BDD407002057
:1067140000ED00E00004014070B50546FEF756FFA9
:106724000423124C63600023C4E90733C4E905332E
:10673400E3600F4BC4F8E85223600223C5F8C44257
:1067440020462361A360FBF7F9FF054600B1FEE78D
:10675400084E73683289318820460135FCF754FEAF
:10676400052D06F10C06F4D1002070BDD4070020DD
:10677400005C00402476000808B5D0F8C402FCF799
:1067840050F8002008BD10B51446D0F8C4021A46CB
:106794002346FCF73FFD002010BD08B5D0F8C40225
:1067A400FCF76AFD002008BD08B5D0F8C402FCF768
:1067B400C5FD002008BD08B5D0F8C402FCF7F2FD01
:1067C400002008BD282211F0800FD0F8C4321BBF6E
:1067D40001F07F0101FB022202FB01339B1814BF6D
:1067E400987893F86A01704708B5D0F8C402FCF7AA
:1067F40031F8002008BD08B5D0F8C402FCF784FDC8
:10680400002008BD08B5D0F8C402FCF75EFD0020E6
:1068140008BDD0F8C402FCF76FBD00001223014884
:106824000B80704770000020042301480B807047E0
:106834006C00002000487047C00A0020002370B597
:106844001E464D1CDCB2A24200D870BD040FB0F14C
:10685400204F34BF3034373401F81340000105F8B9
:1068640013600133EEE700001A2310B50B800A4BC6
:10687400D3F8E807D3F8F02780180AD0D3F8EC4708
:1068840006490822FFF7DAFF042220461031FFF7F9
:10689400D5FF034810BD00BF00F0FF1F54000020C7
:1068A4005200002010B5044C0A4604482146FFF764
:1068B4001AFE204610BD00BFC00B00208C750008D6
:1068C4000A4608B5044920B90448FFF70CFE0248FB
:1068D40008BD0348F9E700BFC00B00209F750008FE
:1068E400C175000810B5044C0A4604482146FFF758
:1068F400FAFD204610BD00BFC00B0020E375000860
:1069040010B5044C0A4604482146FFF7ECFD204626
:1069140010BD00BFC00B00200176000808B5084B6D
:106924002BB1084800F0BBF908B1AFF30080064B67
:106934002BB10648FEF7D8FE08B1AFF3008008BDBE
:1069440000000000C00C002000000000980300209C
:1069540010B5D0F8BC428CB1D0F8C0321BB194F859
:106964000002FF2801D1002010BD9B68214694F845
:1069740001229847FF2384F80032F4E70320F3E769
:106984004323038000487047E8000020432303802A
:10699400004870472C0100204323038000487047BF
:1069A400A40000200A23038000487047A8010020A7
:1069B40038B5D0F8BC4205466CB1FFF72AFFD5F8CC
:1069C400C032C4F80C02DB68D4F8040204F5037185
:1069D4009847002038BD0320FCE7F8B5D0F8BC5236
:1069E40004460A46D0F8C47215B3142606FB010601
:1069F400B3697BB14FF0280C0CFB0177BF6BB3FB81
:106A0400F7FC07FB1C332BB91A46B361FFF7F3FEFF
:106A14000020F8BD0023C5F81432D4F8C0321B6935
:106A2400002BF5D0D5F8080205F504719847EFE777
:106A34000320EEE70023F7B5D0F8BC6204460D4608
:106A44008DF80530ADF80630002E63D00F7817F0BE
:106A5400600328D0202B59D1CA884B78EAB1390673
:106A64000ED5D0F8C01218468F683146B847EA8868
:106A74003146072A28BF07222046FFF750FD09E0C8
:106A8400402A28BF4022314686F8003286F8012287
:106A9400FFF75AFD002003B0F0BDD0F8C0028468AF
:106AA4001846A047F6E74B780B2B2FD801A252F8D3
:106AB40023F000BFE96A0008996A0008116B000816
:106AC400116B0008116B0008116B0008116B0008B2
:106AD400116B0008116B0008116B0008F96A0008BB
:106AE400096B000890F89C32032B0FD102220DF1A0
:106AF4000601C1E790F89C32032B07D101220DF166
:106B04000501B9E790F89C32032BC3D029462046EF
:106B1400FFF7DEFC0320BEE738B5044600258221DA
:106B2400FFF73BFE01212046A4F84C50FFF735FE49
:106B340083212046A4F87851FFF72FFED4F8BC3205
:106B440025664BB1D4F8C0325B689847D4F8BC02D0
:106B540000F058FAC4F8BC52002038BD70B50446A1
:106B64004FF4077000F046FA0546C4F8BC0208B9B1
:106B7400022070BD237C93BB4FF400738221022258
:106B84002046FFF700FE01214FF40073A4F84C10D7
:106B940002222046FFF7F7FD01261023032283215A
:106BA400A4F8623020460823A4F87861FFF7EBFDCF
:106BB400D4F8C032A4F860601B6898470023C5F875
:106BC4001432C5F81832237CA3B94FF4007331464C
:106BD4002046D5F80422FFF715FE0020C9E740231C
:106BE400822102222046FFF7CEFD01214023A4F892
:106BF4004C10CDE74023EAE719B1C0F8C0120020D9
:106C0400704703207047D0F8BC322BB10020C3F882
:106C14000812C3F81022704703207047D0F8BC3222
:106C24001BB10020C3F80412704703207047D0F84A
:106C3400BC2210B57AB1D2F8144201236CB9C2F85F
:106C44001432D2F810328221D2F808220364FFF7FA
:106C5400D2FD204610BD0320FCE71846FAE7D0F821
:106C6400BC2208B562B1037CD2F8042233B94FF4D4
:106C740000730121FFF7C6FD002008BD4023F8E79B
:106C84000320FAE708B5D0F8BC3233B10023012160
:106C94001A46FFF7B7FD002008BD0320FCE7B0F853
:106CA4000431B0F80021981A00F03F007047B0F8A2
:106CB4000431B0F800219BB293421ABFD0F8F830E7
:106CC400985C4FF0FF30704790F80231B0F806013D
:106CD400C0B2834227BFC3F13F03C018C01A00F1FA
:106CE400FF30704707B503688DF8071001225B6811
:106CF4000DF10701984703B05DF804FBB0F872107A
:106D0400426F10B50A4402F03F02A0F87220B0F8B6
:106D14007210B0F86E2089B28A421AD0B0F872406C
:106D24004032A4B2B0F87210121B544289B204F07B
:106D34003F0402F03F02C1F1400158BF62428A425F
:106D440028BF0A4604494267FEF760FA4FF0FF3055
:106D540010BD0020FCE700BF016D000803682DE9A9
:106D6400F0479B68044688461646984701232374D7
:106D7400D4F8E830B4F8029101338246C9F14009ED
:106D840004F1940708D194F80C312BB10023384650
:106D940084F80C31FEF75AFA236820469B6898471A
:106DA4000028F9D035464D4523D8554521D8B4F8A7
:106DB4000221D4F8FC005319402B10442FD82A4642
:106DC400414600F00BFAA946B4F8023138461D4496
:106DD40005F03F05A4F80251FEF706FA30B94A4619
:106DE40038461649C4F80891FEF710FA3046BDE853
:106DF400F087D14528BFD14623684A4641465B689F
:106E040020469847236820469B689847A5EB0905C8
:106E1400C844B4F802918246C9F14009C3E7C2F1FB
:106E240040094A46414600F0D9F9D4F8FC00A5EBE4
:106E3400090208EB090100F0D1F9C5E7016D00086A
:106E4400037C33B1B0F80221B0F806319BB29A4208
:106E5400FAD17047C0F8EC30009B914208BF4FF064
:106E6400FF31C0F8F03000F11103C0F8F83000230E
:106E7400C0E9392100F15102A0F80431C0E93F23EF
:106E8400A0F8063170470000F7B54FF47A73164640
:106E94000022C0E90123184B184F03604FF0FF3361
:106EA400C0F8E8300D4604461549786AFEF74BF9F8
:106EB400854215D1BB6AC4F8E8307A6A4FF0FF33D3
:106EC400012E08BFC4F8E830C4F8E420009320463B
:106ED4004FF0FF33D4F8E810FFF7BCFF03B0F0BD68
:106EE40008492846FEF740F90549C4F8E800284651
:106EF400FEF73AF90246E1E7687600089074000864
:106F040030740008D0730008D0F8E83010B50133AD
:106F140004460ED10368DB68984794F80C3143B9F2
:106F2400012304F1940084F80C31BDE81040FEF70D
:106F34009BB910BD10B50446FFF7E6FFB4F8042171
:106F4400B4F8003192B29A4217BFD4F8F8204FF047
:106F5400FF30D05C01331CBF03F03F03A4F80031C1
:106F640010BD0000002202490248FFF78DBF00BF98
:106F740000380140C00C002010B50446FEF749FB60
:106F8400E060236820465B699847002808DAFEF72A
:106F940040FBE368C01AA3689842F2D34FF0FF3075
:106FA40010BDF8B507460D460C468E18B44201D103
:106FB400601BF8BD3846FFF7DFFF031EF8DB04F85B
:106FC400013BF3E72DE9F0410746884616461D4686
:106FD40073B100243846FFF7CFFF031E05DB43459A
:106FE40003D033550134A542F4D12046BDE8F081E5
:106FF4001C46FAE7024B0146186800F02DB800BFA2
:10700400B4010020024B0146186800F0F5B800BF37
:10701400B401002070B50F4E0C463168054611B915
:1070240000F0A6F830602146284600F0A1F8431C81
:1070340003D14FF0FF34204670BDC41C24F0030478
:10704400A042F8D0211A284600F092F80130F2D17B
:10705400EFE700BFD40D00202DE9F041CD1C25F051
:10706400030508350C2D38BF0C25002D064601DB21
:10707400A94204D90C2333600020BDE8F081314FCC
:1070840000F062F83B681C4644BB29463046FFF7D3
:10709400C1FF431C044650D13C682146002941D11C
:1070A400002C44D02368304604EB030800F060F859
:1070B40080453CD1216830466D1A2946FFF7AAFF66
:1070C400013034D023682B4423603B68002B36D036
:1070D4005A68A24229D100225A600EE02268521B4B
:1070E4001DD40B2A16D96119A342256018BF596013
:1070F400636808BF396062514B60304600F02AF87B
:1071040004F10B00231D20F00700C21AB5D01B1A8E
:10711400A350B2E7A3426268DED13A60EDE72346AA
:107124006468B1E70C464968B8E71346CEE70C2318
:107134003046336000F00EF89EE70560DDE75B60E3
:10714400FFDE00BFD80D0020014800F045B800BFA5
:10715400180F0020014800F040B800BF180F0020AD
:1071640003460244934200D1704703F8011BF9E738
:1071740038B50023054D044608462B60FBF770F82C
:10718400431C02D12B6803B1236038BD140F0020C7
:1071940070B500260C4D0D4C641BA410A64209D1F9
:1071A40000F0C2F800260A4D0A4C641BA410A64243
:1071B40005D170BD55F8043B98470136EEE755F804
:1071C400043B98470136F2E78C7600088C76000879
:1071D4008C760008A0760008704770470A449142F4
:1071E40000F1FF3300D1704710B511F8014B914203
:1071F40003F8014FF9D110BD38B50546002940D038
:1072040051F8043C0C1F002BB8BFE418FFF79CFF97
:107214001C4A136833B9636014602846BDE83840DB
:10722400FFF798BFA34208D9206821188B4201BFF9
:1072340019685B6809182160EDE71A465B680BB1B1
:10724400A342FAD911685018A0420BD12068014416
:10725400501883421160E0D118685B6808441060DC
:107264005360DAE702D90C232B60D6E72068211893
:107274008B4201BF19685B68091821606360546020
:10728400CBE738BDD80D0020062008B500F02CF857
:107294000120FBF703F81F2938B505460C4604D92D
:1072A400162303604FF0FF3038BDC26B12B152F8A1
:1072B40021304BB9284600F031F8224601462846D1
:1072C400BDE8384000F018B8012B0AD0591C03D18E
:1072D400162303600120E7E70021204642F824102A
:1072E40098470020E0E70000024B01461868FFF7CA
:1072F400D2BF00BFB401002038B50023064D0446B8
:10730400084611462B60FAF7CBFF431C02D12B68C9
:1073140003B1236038BD00BF140F0020FAF7C8BFC3
:1073240008B5FFF7B1FF0000F8B500BFF8BC08BC12
:107334009E467047F8B500BFF8BC08BC9E4670472F
:1073440068656C6C6F0002030405060708090A0BE4
:107354000C0D0E0F101000000101000002020000CD
:1073640004040000080800001010000020200000A1
:10737400404000008080000001000104020002047B
:107384000400040408000804100010042000200471
:107394004000400480008004000000000000000061
:1073A40001020304060708090B000000005C00400A
:1073B400000000000C000000005C00400000000021
:1073C400FFFFFFFF000000000000000003000000BA
:1073D40000440040100800000A000000003801408A
:1073E40010060000170000000038014010050000DE
:1073F4001B00000000480040100000002B000000AB
:10740400004C0040100000002B0100000048004028
:10741400100A00003200000000500040100000007C
:10742400FFFFFFFF0000000000000000020000005A
:107434000044004012080000090000000038014028
:10744400120600001600000000380140120500007A
:107454001A00000000480040120000002A0000004A
:10746400004C0040120000002A01000000480040C7
:10747400120A00002C00000000500040120000001E
:10748400FFFFFFFF000000000000000000000000FC
:1074940001000000020000000300000004000000DE
:1074A40005000000060000000700000008000000BE
:1074B400090000000A0000000B0000000C0000009E
:1074C4000D0000000E0000000F000000100000007E
:1074D400110000001200000013000000140000005E
:1074E400150000001600000017000000180000003E
:1074F400190000001A0000001B0000001C0000001E
:107504001D0000001E0000001F00000020000000FD
:1075140021000000220000002300000024000000DD
:1075240025000000260000002700000028000000BD
:10753400290000002A0000002B0000002C0000009D
:107544002D0000002E0000002F000000300000007D
:1075540031000000320000000D0A000000000000AD
:107564000000000081560008A5560008995600083E
:10757400D1570008ED560008F9560008C557000811
:10758400115700085D57000853544D6963726F65C5
:107594006C656374726F6E69637300424C55454247
:1075A4005554544F4E5F4631303352435420434474
:1075B4004320696E204853204D6F646500424C554A
:1075C40045425554544F4E5F463130335243542054
:1075D40043444320696E204653204D6F6465004246
:1075E4004C5545425554544F4E5F46313033524307
:1075F400542043444320436F6E66696700424C55F0
:1076040045425554544F4E5F463130335243542013
:1076140043444320496E74657266616365000000EB
:1076240000000000200000000000000080000000B6
:10763400600000000000000001000000E000A00065
:107644000100000082000000200100000000000092
:10765400830000002801000000000000000000007A
:1076640000000000E96C0008616D0008CD6C0008A2
:10767400456E0008A36C0008396F0008B36C00085D
:08768400A76F0008C96F0008A0
:10768C00055800081922000815540008E95700088D
:04769C00696F00080A
:0876A000F5210008ED5400087B
:1076A800200F002001000000100000000008014029
:1076B800000C014000100140001401400018014076
:1076C800001C014000200140003002400000000082
:1076D8000024F40000C2010000000800BD5C00089E
:1076E800275C00082D5C0008215E0008C95D0008C1
:1076F80001011A0300000000000000000000000063
:10770800000000000000000000000000040309045D
:1077180012010002020200408304405700000102E7
:1077280003010000216800082D680008A968000806
:10773800C56800086D680008E96800080569000860
:107748003968000809074300020104C0320904002F
:1077580000010202000005240010010524010001B7
:10776800042402020524060001070583030800100B
:1077780009040100020A0000000705010240000098
:10778800070582024000000009024300020100C010
:10779800320904000001020200000524001001055E
:1077A80024010001042402020524060001070583C0
:1077B8000308001009040100020A0000000705017F
:1077C8000240000007058202400000000902430051
:1077D800020100C032090400000102020000052471
:1077E80000100105240100010424020205240600FA
:1077F800010705830308001009040100020A0000BC
:1078080000070501020002000705820200020000CD
:10781800616B00081D6B0008396A00080000000051
:1078280055690008DF690008B56900080000000014
:107838000000000000000000916900088569000848
:107848009D690008A96900080A06000200000040B6
:1078580001000000B801002000000000DC0D00203D
:10786800440E0020AC0E00200000000000000000C4
:107878000000000000000000000000000000000000
:1078880000000000000000000000000000000000F0
:1078980000000000000000000000000000000000E0
:0478A80000000000DC
:040000050800558515
:00000001FF
