:020000040800F2
:1000000000C00020097C0008517C0008517C0008D9
:10001000517C0008517C0008517C00080000000061
:10002000000000000000000000000000517C0008FB
:10003000517C000800000000517C00085F47000868
:10004000517C0008517C0008517C0008517C00085C
:10005000517C0008517C00085148000857480008AE
:100060005D4800086348000869480008517C0008A2
:10007000517C0008517C0008517C0008517C00082C
:10008000517C0008517C0008517C0008D96C0008A4
:10009000CD6C0008517C0008517C00086F480008B6
:1000A000517C0008C9390008517C0008DD3900087E
:1000B000E1390008F5390008093A0008517C0008C8
:1000C000517C0008517C0008517C0008517C0008DC
:1000D000517C0008F9550008115600082D560008FB
:1000E00097480008517C0008DD6C0008517C00082E
:1000F000593A0008517C00086D3A0008517C00080C
:10010000517C0008517C00081D3A0008517C000811
:100110004956000861560008313A0008453A00087F
:10012000517C0008517C0008517C0008517C00087B
:1001300000000000000000000000000000000000BF
:1001400000000000000000000000000000000000AF
:10015000000000000000000000000000000000009F
:10016000000000000000000000000000000000008F
:10017000000000000000000000000000000000007F
:10018000000000000000000000000000000000006F
:10019000000000000000000000000000000000005F
:1001A000000000000000000000000000000000004F
:1001B000000000000000000000000000000000003F
:1001C000000000000000000000000000000000002F
:1001D000000000000000000000000000000000001F
:0401E0005FF8E0F1F3
:1001E40010F8012B11F8013B012A28BF9A42F7D0DD
:1001F400D01A7047034613F8012B002AFBD1181AB2
:100204000138704710B5054C237833B9044B13B14A
:100214000448AFF300800123237010BD380200208E
:1002240000000000F083000808B5034B1BB103492C
:100234000348AFF3008008BD000000003C0200202A
:10024400F08300081A4BDA68D207FCD41A69120644
:1002540041BF184A5A6002F188325A601A6942F062
:1002640002021A6158611A6942F040021A61104B85
:10027400DA68D207FCD41A6922F002021A611A69F8
:1002840042F001021A618BB20380094BDA68D2078B
:10029400FCD4090C4180DA68D207FCD41A6922F034
:1002A40001021A611A6942F080021A61704700BFA4
:1002B400002002402301674508B50F4904460F4852
:1002C40007F0B0F94FF4FA7007F0A6FD0B4805F0FB
:1002D400A5FA72B60A482146FFF7B4FFBFF34F8F61
:1002E4000849094BCA6802F4E0621343CB60BFF3C8
:1002F4004F8F00BFFDE700BF30840008A84C0020EA
:1003040000F8030800ED00E00400FA0508B50F4A00
:100314000F4B9A6062B601212D2007F099FC012150
:100324002D2007F0FFFC4FF4E1310A4805F074FA80
:100334004FF4FA6007F070FD0749064807F072F9B8
:10034400BDE80840054800F0A2B800BF00800008DE
:1003540000ED00E0A84C0020498400085802002069
:1003640010B507F057FD094C2368C01AC8280BD9EB
:100374002D2007F011FDB0FA80F12D20490907F076
:10038400D1FC07F047FD206010BD00BF54020020DF
:10039400002307B51A4619460093044807F0FEF8EF
:1003A400034803B05DF804EB00F042B814310020B8
:1003B40058020020014800F069B800BF580200202C
:1003C4001FB5174800F028F9FFF7CAFF154805F0D4
:1003D400ADF900280ADD144901A807F077FA11489D
:1003E40005F0A4F920B901A807F02EFA04B010BD55
:1003F4000C4805F0A1F9C4B2214601A807F0D3FACC
:100404000A2CECD101A9074807F002F9074901A811
:1004140007F018FB0028E2D04FF02230FFF74CFF22
:1004240058020020A84C00201685000869840008A2
:100434004FF0000CF8B5064600F500570F4D07F6CF
:100444003864C0F800CBC7E9CACC0FCD0FC40FCDB8
:100454000FC495E803005C2284E80300614607F5B5
:10046400666007F0A0FE064B3046C7F8603E054BB9
:1004740005491E6000F002FA3046F8BD0884000801
:1004840000FFFF0020490020A9050008704700F084
:10049400C5B9000070B5044600F0DAF9064604F563
:1004A4003855383528460D495EB100F0E3F818B1E7
:1004B40028460B4900F0D4F8204600F0D9F930461C
:1004C40070BD00F0D7F818B92846044900F0C8F800
:1004D400012304F5005484F8363EF0E770840008E4
:1004E40073840008124B10B59A4214461ED010466D
:1004F400104907F073FE90B120460F4907F06EFED5
:1005040068B10E490E4807F079F80E490C4807F017
:1005140066F82146BDE81040094807F083B8204634
:10052400094907F05BFE08B10849EBE710BD00BFBD
:10053400168500087D84000896840008AA840008B3
:10054400A84C0020B9840008BE840008D8840008A0
:10055400F8B505460E461446EAB11046FFF74AFEC2
:1005640083B2B3F5C05F05D3BDE8F8400A490B4830
:1005740007F044B80A4F01339AB23946204600F0D6
:1005840084F83B78302B06D03A4631462846BDE8FD
:10059400F840FFF7A7BFF8BDE7840008A84C002087
:1005A400203100200A4604490346086810B1194660
:1005B400FFF7CEBF704700BF2049002010B5104C94
:1005C40023689BB90F49104807F009F80F490E48F2
:1005D40007F028F80E490C4807F001F80D490A48BD
:1005E40007F020F807F016FC206010BD07F012FC9D
:1005F4002368C01A41F288339842E3D8F5E700BF74
:100604001C310020F4840008A84C00205984000800
:10061400FF8400089684000810B5044600F538509D
:100624000749383000F026F840B92046FFF732FF7A
:1006340020B12046BDE81040FFF7C0BF10BD00BF89
:100644000B850008002307B51A4619460093034892
:1006540006F0A4FF03B05DF804FB00BF24490020AA
:1006640010B5044628B121B1132207F0A4FD0023DC
:10067400E37410BD08B528B129B1FFF7B1FDB0FA94
:1006840080F0400908BD0846FCE72DE9F8430F4611
:1006940078B10026441E551E14F8018F07EB060995
:1006A400B8F1000F01D0B54206D8002389F8003014
:1006B40000E00870BDE8F883404607F053FD0028C9
:1006C400EAD1013689F80080E6E700207047036824
:1006D40010B4DC6B4B23A44610BC604707B5036819
:1006E4008DF8071001225B680DF10701984703B0EC
:1006F4005DF804FB036918680368DB68184707B5ED
:1007040003680122DB6A0DF107019847012814BF31
:100714004FF0FF309DF8070003B05DF804FB436E13
:10072400184490F820007047036810B51B6904460C
:10073400984708B9207F10BD0120FCE708B503687D
:100744005B6B9847003818BF012008BDF8B5064612
:100754000F46144607F05EFB054607F05BFB401BA3
:10076400844213D907F056FB034630685B1BA3424F
:10077400026805D21369984710B907F04DFBF1E7F9
:10078400306803685B699847B842E6D1F8BD000059
:100794002DE9F0471646054686B003684C6803A861
:1007A4001C49DF6B02945FFA84FA07F08FF810217A
:1007B40003A807F067F8514603A807F001F9C4F34A
:1007C4000729154903A807F0DFF8494603A807F0ED
:1007D400F7F8C4F30748104903A807F0D5F84146D1
:1007E40003A807F0EDF8240E0B4903A807F0CCF892
:1007F400214603A807F0E4F84B2332460399284620
:10080400B847044603A807F01FF8204606B0BDE821
:10081400F08700BF168500084784000810B5044619
:1008240001210F2007F014FA01210F2007F07AFAB2
:10083400054B1C60054B04F50054C4F83033002309
:10084400C4F8343310BD00BF3049002059090008F2
:10085400034610B400F50051D1E9CC214C1000EB53
:100864006100C90748BF1B5910BC48BF9A581047BC
:10087400014800F0CEBF00BF34490020C0F8001B7F
:100884007047000013B500686A4603681C6A0723B2
:10089400A047431E052B0CD800F108030DEB030001
:1008A400002300F8083C684607F0E0FA00B202B002
:1008B40010BD0148FBE700BFF1D8FFFF2DE9F04F61
:1008C40004460E469046204F87B007F1340B57F884
:1008D400045BAE422ED845452CD806222946204634
:1008E40006F0C4FD0A2007F097FA4FF00A091749E9
:1008F400204606F074FE2146684606F091FF14492E
:1009040003A806F0E3FF03A9684607F0D1F882467E
:1009140003A806F099FFBAF1000F684605DB06F05C
:1009240093FF284607B0BDE8F08F06F08DFFB9F1BC
:100934000109DCD15F45CAD106223146204606F0C2
:1009440095FD0025EDE700BF00000020128500089A
:100954001785000830B54FF4E13204464FF41651C0
:100964001D4887B0FFF7AAFF054650B91B491C482C
:1009740006F044FE4FF4FA7007F04EFA002007B078
:1009840030BD184903A806F0A1FF0A22294668468B
:1009940006F0D1FF694603A807F034F80146104871
:1009A40006F036FE684606F04FFF03A806F04CFF3B
:1009B40006222946084806F059FD07484FF4967167
:1009C40006F0FEFE084B04F50050C0F83033002357
:1009D400C0F83433D2E700BF084A00201A85000863
:1009E400A84C002034850008FD0E0008006806F0BD
:1009F400F6BD000038B504460D460068094906F006
:100A0400EEFD2946206806F0EAFD20460649FFF778
:100A1400EDFF20680368DB689847BDE83840002094
:100A240007F0FAB9428500081485000830B500249F
:100A3400054685B01649FFF7DDFF23462846CDE974
:100A44000244CDE90044134A134900F0D7F90128C0
:100A54001CD123460F4A11492846CDE90244CDE969
:100A6400004400F0CBF928460D49FFF7C3FF2346A5
:100A74002846CDE90244CDE90044064A074900F07E
:100A8400BDF9431E5842584105B030BD2046FBE72E
:100A940045850008548700084F8500085C870008D6
:100AA4005D850008F0B50D4685B04849044601A8A7
:100AB40006F00CFF284601A906F0D6FF064601A859
:100AC40006F0C2FE06B32C212046FFF7DBFE46B239
:100AD400012E13D10A212046FFF7D4FEC3B2092BFD
:100AE40005D840B204EB8000436803B15E77284622
:100AF400374906F0FDFE012005B0F0BD3146284619
:100B040006F06FFF0020F7E7324901A806F0DEFE89
:100B1400284601A906F0A8FF074601A806F094FE9E
:100B2400CFB12C212046FFF7ADFE06460A21204610
:100B3400FFF7A8FEF3B2092BD9D876B204EB8606E8
:100B44007368002BD3D0012280B2B0F5806F5A773E
:100B5400CDD8D882CBE7204901A806F0B7FE2846B5
:100B640001A906F081FF064601A806F06DFEAEB1AC
:100B74002C212046FFF786FE06464FF47A720A219E
:100B84002046FFF7E3FDF3B2092BB0D876B204EBAD
:100B940086067368002BAAD01F77A8E70F4901A81F
:100BA40006F094FE284601A906F05EFF064601A859
:100BB40006F04AFE002EA5D02046FFF737FF002896
:100BC40095D1204600F0FCF891E700BF6585000848
:100BD40016850008728500087E850008888500084F
:100BE4002DE9F04F054685B01046DDE912AB0F46FE
:100BF400402114461E4606F045FE07F00BF98046D8
:100C0400002007F009F9286803681B699847002841
:100C140010DC07F0FFF8A0EB0800B842F0D3204640
:100C240006F049FF2046534906F062FE002005B055
:100C3400BDE8F08F002007F0EFF8286803685B69CF
:100C4400984743B2002BDEDDC1B2204606F0ABFE6E
:100C540076B1314601A806F039FE204601A906F016
:100C640003FF814601A806F0EFFDB9F1000F73D12F
:100C74000E9B73B1194601A806F028FE204601A96F
:100C840006F0F2FE814601A806F0DEFDB9F1000F80
:100C940064D10F9B73B1194601A806F017FE2046D4
:100CA40001A906F0E1FE814601A806F0CDFDB9F1E7
:100CB400000F55D1109B73B1194601A806F006FE2A
:100CC400204601A906F0D0FE814601A806F0BCFD2D
:100CD400B9F1000F46D1119B73B1194601A806F072
:100CE400F5FD204601A906F0BFFE814601A806F0E5
:100CF400ABFDB9F1000F37D1BAF1000F0ED0514658
:100D040001A806F0E3FD204601A906F0ADFE8146E8
:100D140001A806F099FDB9F1000F27D1BBF1000F2E
:100D24000ED0594601A806F0D1FD204601A906F0CF
:100D34009BFE814601A806F087FDB9F1000F17D18B
:100D440021462846FFF7AEFE00283FF45CAF20465C
:100D5400084906F0CDFD56E7012068E7022066E762
:100D6400032064E7042062E7052060E706205EE7CD
:100D740007205CE716850008F0B516461F460446B2
:100D84000D468BB00D4907A806F0A0FD149B29461B
:100D94000593139B07AA0493129B20460393119B6C
:100DA4000293109BCDE900733346FFF719FF044605
:100DB40007A806F049FD20460BB0F0BD16850008D3
:100DC40010B50B4986B00446FFF714FE00234EF617
:100DD4006021CDE90333CDE9013300932046054B6F
:100DE400054AFFF7C9FF431E5842584106B010BDDB
:100DF40093850008548700089D85000810B586B0C7
:100E04000B9C04940A9C0394099C0294089CCDE9CD
:100E1400003413460A464FF47A71FFF7ADFF06B06B
:100E240010BD0000F0B50D4685B018490446FFF723
:100E3400E1FD00232046CDE90233CDE90033144A15
:100E44001449FFF7DBFF264604F12807012200219D
:100E5400206806F0B7FC56F8043F1BB1003818BFF1
:100E640001201877BE42F1D100232046CDE9023398
:100E7400CDE90033064A084904EB8504FFF7BEFFB9
:100E8400606800B1007F05B0F0BD00BFAC8500080C
:100E940054870008B78500085C8700087FB50024E4
:100EA40005461149FFF7A6FD23462846CDE902442D
:100EB400CDE900440D4A0E49FFF7A0FF012811D1E6
:100EC4002C212846FFF7DEFC234646B2CDE9024436
:100ED4002846CDE90044054A0649FFF78FFF30460E
:100EE40004B070BD6326FAE7C28500085487000881
:100EF400C78500085C87000830B58BB006F08AFF10
:100F04001C4D2B68C01A1C4B984230D91B48FFF764
:100F1400C5FF04461A4901A806F0D8FC0A22214656
:100F240004A806F0F6FC04A901A806F06BFD154917
:100F340006F074FD04461148FFF778FD0A220146C5
:100F440007A806F0E6FC07A9204606F05BFD01466B
:100F54000D4806F05DFB07A806F076FC04A806F031
:100F640073FC01A806F070FC06F054FF2860012011
:100F74000BB030BD2C490020F0490200DC490020B0
:100F8400CD850008E7850008A84C002070B504460C
:100F94000E4615460C49006806F021FB31462068D0
:100FA40006F01DFB0A222946206806F089FB20462C
:100FB4000649FFF71BFD20680368DB689847BDE816
:100FC4007040002006F028BF428500081485000800
:100FD4002DE9FF4100EB8108D8F8043005460F469F
:100FE400BBB100240A461C49FFF7D0FF234628461C
:100FF400CDE90244CDE90044184A1949FFF7FEFE41
:1010040001280BD039462846D8F80440FFF70AFFD8
:1010140020770026304604B0BDE8F0814FF47A72A0
:101024002C212846FFF792FB4FF47A722C21284694
:10103400FFF78CFB0A212846FFF724FC06462346CB
:101044002846CDE90244CDE90044044A0549FFF7A6
:10105400D5FE002ED6D0DDE7F185000854870008C0
:10106400678500085C8700082DE9F04104460F46B7
:1010740016461D4612490068BDF8188006F0AFFAFE
:101084003946206806F0ABFA0A223146206806F099
:1010940017FB2946206806F0A6FA0A224146206872
:1010A40006F001FB20460749FFF7A0FC206803680F
:1010B400DB689847BDE8F041002006F0ADBE00BFF4
:1010C40042850008148500082DE9FF4700EB8207DC
:1010D4007B6804461BB9002004B0BDE8F0870025F6
:1010E40089B22C2300912F49FFF7BEFF2B462046DF
:1010F400CDE90255CDE900552B4A2C49FFF77EFE78
:101104000128E8D14FF47A722C212046FFF71EFB08
:101114004FF47A722C212046FFF718FB2C2120462D
:10112400FFF7B0FB0A2106462046FFF7ABFB8046DB
:10113400AE420EDC7B682046A3F8168000231A4AD0
:10114400CDE90233CDE900331949FFF757FE3046A4
:10115400C2E706F05FFE8246206803681B69984771
:10116400814658B906F056FE7B68A0EB0A009B68DE
:10117400984203D2484606F04FFEEDE72068013559
:1011840003685B6998477B68C0B2196ED3F864C082
:101194004A1C02F03F0262451EBFC91881F82000B4
:1011A4001A66C5E7FE8500085487000867850008AD
:1011B4005C870008F0B5044687B0002006F02CFEDA
:1011C40006F028FE43F6972705460026E38A83B1F6
:1011D40006F020FE03465B1BBB42206909D8E18A66
:1011E400C4E918663F2928BF3F21227DFFF76CFF21
:1011F400ECE70026C4E918662769386803681B69A8
:101204009847054688B9227D20690E49FFF7BEFE3E
:101214002577CDE90255CDE900552B460A4A0B49FD
:101224002069FFF7EBFD07B0F0BD002332211A4619
:101234003846CDE90366CDE901660096FFF79CFDCB
:10124400DBE700BF0B860008548700085C870008B2
:101254002DE9F047064600259846036886B01B6BC7
:1012640091468A469847002006F0D6FD34693549F0
:101274002046C6E91855377DFFF7BCFB2B462046B0
:10128400CDE90255CDE900552F4A3049FFF7B6FDA7
:10129400012804D00020307706B0BDE8F0872C493F
:1012A400206806F09CF92B49206806F098F90A2278
:1012B4003946206806F004FA2C21206806F093F9D8
:1012C4002549206806F08BF92449206806F087F93F
:1012D4005146206806F083F92149206806F07FF919
:1012E4000A224946206806F0DEF91E492046FFF727
:1012F4007DFB20680368DB689847284606F08CFD70
:101304004FF47A71204601FB08F1CDE90355CDE98C
:1013140001550D4B144A0095FFF72EFD0128B9D154
:101324002C212046FFF7AEFA0A2105462046FFF796
:10133400A9FAEDB2C0B2BD4208BF00280CBF01201B
:101344000020A8E739860008548700085C87000855
:1013540042850008458600084F8600085486000828
:10136400218600081485000858860008D0E910304A
:10137400181A48BF403070472DE9F0410025044653
:101384000746A84686B057F8046F46B1737F33B159
:10139400204686F81D80E9B2FFF71AFEF082013577
:1013A4000A2DF0D10025206803681B69984710B9FD
:1013B40006B0BDE8F08100230F211A462046CDE98E
:1013C4000355CDE901550095FFF7D6FCEBE72DE970
:1013D400F74F044600208846009206F01DFD206960
:1013E400FFF7CAFF002704F1200A009B9F424DD259
:1013F400009B5046DD1BFFF7B9FF854228BF054619
:101404000DB3A946C3465046FFF7B0FF10B9A84430
:101414002F44EAE7666EC6F140024A45A8BF4A4631
:101424008242A8BF02460AEB06015846019206F022
:101434002FFF019A164406F03F06B9EB02096666CF
:101444009344E0D1E3E706F0E5FCA369C01AB0F5E4
:10145400FA7F05D94FF00103637706F0DBFCA06146
:101464002069FFF789FFE38A83B1D4E91821891A37
:101474000029D8BF4031013989B2994228BF1946A1
:101484002069227DFFF720FE0028AED1384603B044
:10149400BDE8F08F38B50446002004F1200506F0BD
:1014A400BBFC2846FFF762FF70B906F0B3FCA369E2
:1014B400C01AB0F5FA7F04D90123637706F0AAFCB9
:1014C400A0612069FFF758FF2846FFF74FFFE38A22
:1014D40080B2184438BD0000F0B50446164685B005
:1014E40000200F4606F098FC2069FFF745FFB3B2D1
:1014F40025690093227D00242C2328461C49FFF7EC
:10150400B3FD23462846CDE90244CDE90044194AF7
:101514001949FFF773FC012802D0002005B0F0BD83
:1015240028683246036839465B6898472868036828
:10153400DB68984723462846CDE90244CDE90044B8
:101544000C4A0E49FFF75AFC0128E6D128464FF40D
:101554007A722C21FFF7FAF828464FF47A722C217C
:10156400FFF7F4F80A212846FFF78CF9D6E700BF05
:1015740064860008548700086E8600087086000898
:1015840073B500241548234622462146009406F0EC
:1015940005F83323124E134D009309220A213046D5
:1015A40005F018FE28462146242240F8086B06F070
:1015B400FAFD4FF47A730C490C488B600C4BC1E96B
:1015C40018444C600B600D61CC828C618C830C756B
:1015D400696002B0BDE8704000F0EAB9204B002019
:1015E400084A0020DC4900207449002034490020C6
:1015F40014870008014800F020B800BF34490020D7
:10160400704770B504460D4606F004FCA061A0685E
:101614002946BDE8704003681B68184770B5044646
:101624000D46164606F0F6FBA061A0683246036834
:101634002946BDE870405B68184710B50446C06889
:1016440006F020FC204610BD2DE9F04105460E466B
:1016540006F0E0FB4FF47A780746A86803681B6934
:101664009847044638B1A86803685B6998473070A6
:101674000120BDE8F08106F046FA06F0CBFBAB8A08
:10168400C01B08FB03F39842E7D32046F1E738B5C3
:10169400158814462944FFF7D7FF08B10135258082
:1016A40038BD2DE9F74F002688460DF10602C168C2
:1016B4000446ADF80660FFF7EAFF80B10125E36850
:1016C4008DF8056093F80090BDF80670052F0AD1D7
:1016D4004FF0FF33A068E36303681B6B9847002057
:1016E40003B0BDE8F08F20460DF10501FFF7ACFF14
:1016F4000028F4D09DF80520E1687B1CCA559BB2F4
:1017040002F07F01120605FB0166ADF806304FEAD0
:10171400C515D9D409F0F009013BB9F1300F88F8A7
:1017240000301FD12046E1680DF10602FFF7AFFF3C
:101734000028D4D02046E1680DF10602FFF7A7FF88
:101744000028CCD0E26898F80030134459789D788A
:10175400137805EB01259B07ADB201D50235ADB277
:10176400022701E000273D466FF0010ABDF806B0EC
:10177400B74209D3A36B23B9228A5A4538BFADF8BF
:101784000630BDF80600ABE720460DF10501FFF772
:101794005BFF0028A3D0A06B70B1B9F1300F0BD15F
:1017A40098F80030AAEB03035B44AB4204D9036806
:1017B4009DF805101B689847BDF80630228A9A42A6
:1017C40006D9E2689DF80510D1540133ADF806300E
:1017D4000BF1010B0137CBE710B50446806808B95B
:1017E400002010BD03685B6B9847E36B68B9002B5E
:1017F400F6D16FF00203A068E3630368DB689847DF
:10180400A06803681B6B9847EAE7B3FA83F04009C2
:10181400E7E72DE9F74F0446FFF7DEFF8246C0B144
:1018240006F0F8FA4FF47A72638A81465343E26908
:10183400821A9A4203D8A269821A93421CD294F85B
:1018440020304BB16FF00303A068E36303681B6BA4
:1018540098474FF0000A73E0C021E2681170E26813
:101864005370A06802220368E1685B68984701230B
:10187400C4E9069984F82030A06803681B69984776
:1018840000285DD020460DF10701FFF70AFF054649
:10189400002870D0E068C4F81C90037803F0F003CB
:1018A400302B54D1636A002B4AD09DF8076006F1AF
:1018B400020B831910F80B705B7806F1030807EB31
:1018C4000327BFB200EB08013A46584406F052FC25
:1018D4000022E368B84433443B449A70E168AA1B8D
:1018E40001EB0B0091F800B0033A0BF0060BBBF1CF
:1018F400020F636AA2EB070226D105363E4411F8B3
:101904000850023A8844314498F8018098474022AC
:10191400E36808EB05281A70E3681FFA88F883F86F
:1019240001B0E3684FEA18229A70E368042283F84E
:101934000380A068E16803685B689847C4F818905E
:10194400504603B0BDE8F08F41449847F8E7C02BF8
:101954000BD1D02300220370E3685A70A0680222DE
:101964000368E1685B689847EAE7D02BE8D1002375
:1019740084F82030E4E72046FFF72EFF0028DFD16B
:1019840067E738B504460D4609B9002038BD038A17
:1019940043B9084606F06EFAE060003818BF01202B
:1019A4002582F3E7C06806F023FB0028F4D1ECE7B6
:1019B40070B500250B4B0446456040F8283B0E46A5
:1019C40005F0E4FD4FF0FF334FF48071E3632046EC
:1019D400A660A5632582FFF7D4FF0F232046638208
:1019E400A38270BD6C870008002307B51A46194608
:1019F4000093034805F0D2FD03B05DF804FB00BF7B
:101A0400284B00207047000038B50E4B05461A7865
:101A14004FF47A73B3FBF2F30B4A1068B0FBF3F0A4
:101A240000F09CF8044658B90F2D09D802462946FF
:101A34004FF0FF3000F042F82046044B1D6038BDE3
:101A44000120FCE734000020600000203800002062
:101A5400074A08B51368032043F01003136000F02D
:101A64001BF80020FFF7D0FFFFF7CCFF002008BDD4
:101A740000200240034A044B11681B780B44136096
:101A8400704700BF304B002034000020014B186821
:101A9400704700BF304B002007490302CA6803F4B3
:101AA400E06322F4E0621204120C134343F0BF63B8
:101AB40043F40033CB60704700ED00E0154B30B5C4
:101AC400DC68C4F30224C4F10703251D042B28BFDA
:101AD4000423062D4FF0FF3594BF0024033C05FA80
:101AE40003F321EA0303A54022EA0502A3400028E8
:101AF40043EA0203ACBF00F16040074A4FEA031314
:101B0400DBB2ABBF00F5614000F00F0080F800339A
:101B1400135430BD00ED00E014ED00E0002807DBB5
:101B240001234109034A00F01F00834042F8213099
:101B3400704700BF00E100E000280CDB01220649E9
:101B4400430900F01F008240203341F82320BFF3F3
:101B54004F8FBFF36F8F704700E100E00138B0F1A1
:101B6400807F0BD24FF0E023F021054A586182F8C0
:101B740023100020072298611A61704701207047E2
:101B840000ED00E0002808DB01224309034900F0CE
:101B94001F008240603341F82320704700E100E0D9
:101BA400704708B5FFF7FCFF08BD704710B5044641
:101BB40050B1437903F0FF0213B90271FFF7F5FF47
:101BC40001230020637110BD0120FCE710B5044619
:101BD40040B10223037102F065FD002020616071B1
:101BE400207110BD0120FCE7012310B558B1046831
:101BF40001F01001226803FA01F122EA01022260D5
:101C04000371002010BD1846FCE790F8212003461C
:101C1400022A06D0042282630120002283F82020B5
:101C240070470268C06B116821F00E0111601168E1
:101C340021F00101116001211A6C01FA02F24260E3
:101C4400002083F82110E8E708B590F82130022B32
:101C540003D004238363012008BD03681A6822F0BB
:101C64000E021A601A6822F001021A60284A93428E
:101C740024D902F56272934219D01432934218D0D7
:101C84001432934217D01432934214BF4FF480336A
:101C94004FF480531F4A5360012380F821300023FE
:101CA40080F82030436B03B198470020D4E7012328
:101CB400F0E71023EEE74FF48073EBE716498B420D
:101CC40016D014318B4215D014318B4214D01431F8
:101CD4008B4214D014318B4214D014318B4214D063
:101CE400934214BF4FF480334FF080730B4AD2E712
:101CF4000123FBE71023F9E74FF48073F6E74FF471
:101D04008053F3E74FF48033F0E74FF48013EDE7AB
:101D1400800002400004024008000240000002402B
:101D2400044A08B55169014202D0506102F078FDBD
:101D340008BD00BF00040140F8B50446E0B190F8C6
:101D4400913203F0FF021BB980F8902204F010FFD7
:101D5400032384F8913200232546637155F8040B5C
:101D640001F0E9FE95E80E00206801F0D4FE01467A
:101D740028B1022384F8913201252846F8BD206851
:101D840001F0E3FE0028F4D102460127267904F18C
:101D94001003C1B28E4203F1280318D800210A4669
:101DA40004F5A873C8B2864203F128031BD895E84A
:101DB4000E00206801F0CBFE05460028D9D101238E
:101DC4006073206884F8913202F081F9D5E743E921
:101DD400062203F8277C03F8281C03F8252C43F873
:101DE400102C0130D5E743E9062203F8272C03F829
:101DF400280C03F8252C43F8102C0131D2E738B510
:101E0400044610B90125284638BD032380F89132D1
:101E1400006802F049F905460028F3D1204604F091
:101E2400F9FE84F89152EEE738B590F89032044602
:101E3400012B10D0012580F89052006801F072FE49
:101E44002946204600F020FE206802F03EF90020DA
:101E540084F8900238BD0220FCE710B590F8903267
:101E64000446012B10D0012380F89032006801F061
:101E740062FE0021204600F007FE206802F027F9E8
:101E8400002084F8900210BD0220FCE710B590F801
:101E940090220446012A0AD00122417380F890223C
:101EA400006802F00CF9002084F8900210BD0220B2
:101EB400FCE700002DE9F04F044687B0006802F00B
:101EC40008F910F4004500F025844FF02809C54EA8
:101ED4002068B0F84430190402D407B0BDE8F08F8C
:101EE400B0F84470B9B217F00F0740F0BF8011F09A
:101EF400100126D103889BB2334043F4004303808E
:101F0400B0F85030227C9BB203EBC20300EB4303D6
:101F1400B3F80434626AC3F309031A44E362204643
:101F2400626204F094FE637B002BD1D0A26A002A83
:101F3400CED1637B216843F08003A1F84C306273F7
:101F4400C6E70588ABB215F4006521D0B0F850306F
:101F540094F850219BB203EBC20300EB4303B3F8A4
:101F64000C34B4F85621C3F30903C4F86C3104F5F6
:101F7400267102F0F5FA22682046138823F07003D4
:101F84001B051B0D43F08003138004F051FE9FE7F3
:101F94001B049DD5038823F070031B051B0D43F020
:101FA40080030380B0F8503094F850219BB203EBC7
:101FB400C20300EB4303B3F80C34C3F30903C4F8BE
:101FC4006C318BB1D4F8641171B1B4F8562102F0BC
:101FD400C7FAD4F86431D4F86C2129461344204656
:101FE400C4F8643104F02AFE21680A88170593B204
:101FF4003FF56EAF03F44053B3F5405F3FF468AF71
:10200400B1F8502001F20C4092B2835AD4F86051D6
:10201400C3F309033E2D83521DD9835A6F09ED067C
:1020240008BF07F1FF379BB243EA87236FEA4343B4
:102034006FEA53439BB283520B8823F4804323F00B
:1020440070031B041B0C83F4405343F4004343F01C
:1020540080030B803CE7835A002DE7D005F001078D
:102064009BB207EB550543EA8523E3E730F82730B5
:1020740019041FFA83F840F1F38030F8273009FB84
:10208400074223F070031B051B0D43F0800320F867
:10209400273092F85C5192F85031D2F8641100F56F
:1020A400806E95B9B0F85050ADB2063505EBC30358
:1020B4003EF81350C5F30905002D00F0B6802B46F9
:1020C400B2F8562102F04CFAAFE092F85351022DC7
:1020D40040F08A8018F480450195B0F850504FEADA
:1020E400C30BADB2D2F868C108F0400A5D443CD0DD
:1020F40002353EF81550C5F30905654514D94FF06E
:10210400000CC2F868C130F8232022F4804222F087
:1021140070021204120C82F4005242F4004242F0A3
:10212400800220F8232006E0ACEB050CC2F868C15D
:10213400BCF1000FE7D0BAF1000F0DD030F8232026
:1021440022F4E04222F070021204120C42F4004223
:1021540042F0C00220F82320002D66D0282202FB82
:1021640007422B46B2F85821ACE706353EF8155025
:10217400C5F30905654514D9DDF804C0C2F868C182
:1021840030F8232022F4804222F070021204120C50
:1021940082F4005242F4004242F0800220F82320EC
:1021A40006E0ACEB050CC2F868C1BCF1000FE7D047
:1021B400BAF1000F0DD130F8232022F4E04222F0CE
:1021C40070021204120C42F4004242F0C00220F8E1
:1021D400232055B3282202FB07422B46B2F85A218A
:1021E40070E700BF0F8FFFFF30F8235025F4E04560
:1021F40025F070052D042D0C45F4004545F0C0056F
:1022040020F8235092F8505130F82530ED0013F4A3
:10221400804FB0F850309BB22B4452D002333EF87A
:102224001350C5F30905002D9BD109FB07F1631871
:10223400D3F86C212A44C3F86C21D3F864212A44CE
:10224400C3F86421D3F868211AB1D3F860319D42F0
:102254003FD209FB0743204693F8501104F0EEFCEB
:1022640018F0800F3FF434AE206809FB07FC30F807
:1022740027309BB2334043F4004320F8273004EB6B
:102284000C03DA7C012A54D1002107FB0992A150E6
:102294001A7F82B318F040085A7C34D002BBB0F8DD
:1022A40050201B7C92B21B0100F2044010441A5AC5
:1022B400C2F309021A521A5A92B242F400421A5252
:1022C40019E006333EF81350C5F30905002DACD0D0
:1022D40083E701F5A8712068214401F010FFBFE7EE
:1022E400012A08D1B0F850201B7C92B200F20440BD
:1022F4001B0110441952282303FB0743197C204671
:1023040004F0A5FCE4E53AB9B0F850201B7C92B285
:102314001B0100F20C40C9E7012AECD1B0F85020AF
:102324001B7C92B200F20C401B01104423F8008085
:10233400E1E7197CB0F850504FEAC10AADB218F485
:10234400807B9A6A00F5806E554417D102353EF8B9
:102354001550C5F30905954202D3C3F828B0CEE75A
:10236400521B9A625A6A0CF110012A445A62DA6AC0
:1023740021442A44DA6201F0C2FEA9E518F0400CB7
:1023840008F4804800F0E48002353EF815501FFA46
:1023940088F8C5F3090595422CBF0022521B9A62A6
:1023A400002A55D1282303FB07435B7C002B3DD136
:1023B400B0F8502000F2044592B20B011544EA5AD9
:1023C400C2F30902EA52EA5A6FEA42426FEA5242FF
:1023D40092B2EA52B0F8502000F20C4092B210448B
:1023E400C25AC2F30902C252C25A6FEA42426FEAA7
:1023F400524292B2C252204604F029FCB8F1000FB6
:1024040000F0E480282303FB07432268197C32F898
:10241400213023F4E04323F070031B041B0C43F42A
:10242400404343F0800322F82130CFE0012BE2D176
:10243400B0F850C000F204451FFA8CFC65440B014F
:10244400EA52B0F8505000F20C40ADB22844D1E743
:10245400B8F1000F0DD030F8212022F4E04222F030
:1024640070021204120C42F4404242F0800220F83E
:1024740021204FF0280E0EFB074E9EF83420012A2F
:1024840040F0A480DEF8242002EB050CCEF824C032
:10249400DA6A2A44DA62DEF83030DEF82020934229
:1024A40031D39B1ACEF83030282303FB07435D7CDD
:1024B40093B2002D41D1B0F850E000F204451FFA68
:1024C4008EFE7544090135F801E03E2ACEF3090E6B
:1024D40025F801E023D94FEA521ED2066A5A08BFF2
:1024E4000EF1FF3E92B242EA8E226FEA42426FEA56
:1024F400524292B26A52282202FB0742128B614670
:1025040001F0EDFD62E01BB92A468EF83430CBE7CA
:1025140000228EF83420CEF830201A46C4E70AB9D7
:102524006A5AE2E735F801E002F001081FFA8EFE6C
:1025340008EB52024EEA8222DBE7012DDBD1B0F830
:10254400505000F20442ADB22A4409015352D2E77A
:1025540006353EF815501FFA88F8C5F3090595426B
:102564008CBF6246521B9A62002A57D1282303FB70
:1025740007435B7C002B3FD1B0F8502000F20445A8
:1025840092B20B011544EA5AC2F30902EA52EA5A1A
:102594006FEA42426FEA524292B2EA52B0F85020D5
:1025A40000F20C4092B21044C25AC2F30902C25261
:1025B400C25A6FEA42426FEA524292B2C252204673
:1025C40004F045FBB8F1000F3FF41CAF282303FBD4
:1025D40007472268397C32F8213023F4E04323F0A2
:1025E40040031B041B0C83F0300343F4004343F00B
:1025F400800322F821306BE4012BE0D1B0F850C005
:1026040000F204451FFA8CFC65440B01EA52B0F851
:10261400505000F20C40ADB22844CFE7B8F1000F9F
:102624000DD130F8212022F4E04222F0700212048D
:10263400120C42F4404242F0800220F821204FF074
:10264400280E0EFB074E9EF83420012ABED1DEF878
:10265400242002EB050CCEF824C0DA6A2A44DA629C
:10266400DEF83030DEF8202093422ED39B1ACEF8C9
:102674003030282303FB07435D7C93B2002D3ED109
:10268400B0F850E000F20C451FFA8EFE75440901C3
:1026940035F801E03E2ACEF3090E25F801E020D9F1
:1026A4004FEA521ED2066A5A08BF0EF1FF3E92B29A
:1026B40042EA8E226FEA42426FEA524292B26A5270
:1026C400282202FB0742528B19E71BB92A468EF8CF
:1026D4003430CEE70022CEF830208EF834201A466B
:1026E400C7E70AB96A5AE5E735F801E002F00108DC
:1026F4001FFA8EFE08EB52024EEA8222DEE7012D1B
:10270400DED1B0F8502000F20C4592B215440A0113
:10271400AB52D5E7420512D522682046B2F84430C0
:1027240023F480631B041B0CA2F8443004F09BFACE
:102734002946204607B0BDE8F04FFFF7A7BB430486
:102744000AD52268B2F8443023F480431B041B0CDE
:10275400A2F84430FFF7C1BB870405D52268B2F85C
:10276400443023F40053F1E7C60419D52268204607
:10277400B2F8403023F004031B041B0CA2F84030D1
:10278400B2F8403023F008031B041B0CA2F84030BD
:1027940004F086FA2268B2F8443023F48053D5E773
:1027A400050548D5236802AD184629461A4603F1A3
:1027B400200632F8047B964221F8027BF9D1B3F863
:1027C400402092B242F00102A3F84020B3F8402026
:1027D40022F001021204120CA3F84020B3F84420A2
:1027E4005105FBD5B3F8442022F480621204120C84
:1027F400A3F8442035F8022B20F8042B8642F9D1A3
:10280400B3F84020204692B242F00802A3F84020D8
:10281400B3F8442022F400621204120CA3F84420FA
:10282400B3F8402092B242F00402A3F8402004F02E
:1028340027FAFFF752BB82050DD522682046B2F86D
:10284400443023F400731B041B0CA2F8443004F03E
:1028540006FAFFF742BBC3057FF53FAB2268B2F827
:10286400443023F4807371E770B52824054601F0E1
:102874000700444311F0800F14BF04F1100104F564
:10288400A87105EB040615BF01240024747486F8AE
:10289400514114BF49194919022BCB7008BF0023B9
:1028A400087008BF0B710A6195F89032012B09D0AA
:1028B4000123286885F8903201F05AF9002085F840
:1028C400900270BD0220FCE7282301F00702534365
:1028D40011F0800F10B5044618BF03F1100118441D
:1028E4000BBF03F5A8710123002309190ABF0919B5
:1028F400437480F851310A7094F89032012B09D056
:102904000123206884F8903201F092FA002084F8C0
:10291400900210BD0220FCE770B52824002601F0C7
:1029240007014C43051985F8501185F8516104F5E8
:10293400A8710144C5E95923C5F86C61006801F028
:10294400DEFB304670BD282301F0070103FB0100C4
:10295400D0F86C01704770B5282501F007014D438C
:102964004419C4E9092301220026217484F834207F
:10297400627405F1100101442363E662006801F00A
:10298400BEFB304670BD38B5037901F00705AB4294
:1029940004462AD311F0800F4FF028031CD00122E3
:1029A4006B4303F11001034401445A7401230D7075
:1029B4008B7094F890229A4219D0206884F890324F
:1029C40001F009FB25B9206804F5267101F085FBA7
:1029D400002084F8900238BD00224B4303F5A8710F
:1029E4000344014483F85121E0E70120F3E7022086
:1029F400F1E738B5027901F00F039A42044626D371
:102A0400282301F00702534311F0800F14BF03F190
:102A1400100103F5A87118444FF0000515BF0123F8
:102A240000230919091914BF437480F851318D70BA
:102A34000A7094F89032012B0BD00123206884F89B
:102A4400903201F0E8FA284684F8905238BD01200B
:102A5400FCE70220FAE710B5282411F0800F1BBF11
:102A640001F0070104FB010004FB0100103008BF62
:102A740000F5A87099B21AB90273C180002010BD84
:102A8400012283600273F9E7704700002DE9F341E6
:102A9400054638B30368DB0710D42B689F075ED460
:102AA4002B68190700F195802B685A0700F1C18043
:102AB400EB69002B40F02C81002029E0904C6368E6
:102AC40003F00C03042B07D0636803F00C03082BFA
:102AD4000AD16368DE0307D523689C03DDD56B68E0
:102AE400002BDAD1012013E06B68B3F5803F12D1DB
:102AF400236843F480332360FEF7C8FF0646236847
:102B04009803CAD4FEF7C2FF801B6428F7D90320B8
:102B140002B0BDE8F0819BB9236823F480332360BD
:102B2400236823F480232360FEF7B0FF064623685E
:102B34009903B2D5FEF7AAFF801B6428F7D9E6E70C
:102B4400B3F5A02F236803D143F480232360CFE798
:102B540023F480332360236823F48023CBE7684C79
:102B6400636813F00C0F07D0636803F00C03082BA1
:102B740010D16368DA030DD423689B0702D52B694F
:102B8400012BAFD123686A6923F0F80343EAC20337
:102B9400236085E72A695B4B6AB101221A60FEF75C
:102BA40075FF064623689F07ECD4FEF76FFF801B72
:102BB4000228F7D9ABE71A60FEF768FF06462368D8
:102BC40098077FF56DAFFEF761FF801B0228F6D9E9
:102BD4009DE7AA694A4E4B4BE2B10122C3F8802417
:102BE400FEF754FF0446736A9B070DD54FF4FA525F
:102BF400454B1B68B3FBF2F3019300BF019B5A1EC4
:102C04000192002BF9D14FE7FEF740FF001B022889
:102C1400E9D97CE7C3F88024FEF738FF0446736AD9
:102C24009F077FF541AFFEF731FF001B0228F6D95D
:102C34006DE7334CE369D80024D40127E36943F0FA
:102C44008053E361E36903F080530093009B2F4EAC
:102C54003368D90518D5EB68012B26D1236A43F0D4
:102C640001032362FEF712FF41F288380646236A05
:102C74009B073FD5002F3FF41BAFE36923F080533C
:102C8400E36115E70027E2E7336843F480733360B8
:102C9400FEF7FCFE80463368DA05DCD4FEF7F6FE68
:102CA400A0EB08006428F6D931E7ABB9236A41F2F6
:102CB400883823F001032362236A23F00403236288
:102CC400FEF7E4FE0646236A9807D3D5FEF7DEFE38
:102CD400801B4045F7D91AE7052B236A03D143F03B
:102CE40004032362BAE723F001032362236A23F077
:102CF4000403B6E7FEF7CAFE801B4045B7D906E7D2
:102D040000100240000042426000002000700040B9
:102D14002A4C626802F00C02082A3ED00022022BE0
:102D2400274B1A662CD1FEF7B1FE0646236899019B
:102D340020D42B6AB3F5803F05D16268A96822F4D8
:102D440000320A436260696A62680B4322F47412B7
:102D54001343012263601A4B1A66FEF797FE054679
:102D640023689A013FF5A8AEFEF790FE401B0228A7
:102D7400F6D9CCE6FEF78AFE801B0228D6D9C6E631
:102D8400FEF784FE054623689B017FF595AEFEF7AA
:102D94007DFE401B0228F6D9B9E6012B3FF4A2AE12
:102DA40060682B6A00F480329A427FF49BAE6B6AAF
:102DB40000F47010C01A18BF0120A9E600100240E8
:102DC400000042420D4A536803F00C01082912D155
:102DD4000B48C3F38341DB03405C09D55368094ABC
:102DE400C3F340435043084AD35CB0FBF3F070474D
:102DF400064B584370470348704700BF0010024019
:102E04007E87000800127A007C87000800093D00D4
:102E14002DE9F0410D46044610B90120BDE8F081CA
:102E2400444A136803F007038B4228D321688E07B2
:102E340030D4CA0743D43F4A136803F00703AB42B4
:102E440065D822683C4D12F0040F6CD1130706D5E7
:102E54006B68226923F4605343EAC2036B60FFF793
:102E6400B1FF6B68354AC3F30313D35CD840344BCA
:102E74001860344B1868FEF7C7FD0020CEE71368CE
:102E840023F007030B431360136803F007038B421B
:102E9400C3D1CBE7284B11F0040F1EBF5A6842F48C
:102EA400E0625A60080742BF5A6842F460525A60AE
:102EB4005A68A06822F0F00202435A60B9E76268D7
:102EC4001D4E012A33681AD113F4003FA5D073684C
:102ED40041F2883823F0030313437360FEF7D6FDF1
:102EE40007467368626803F00C03B3EB820FA2D049
:102EF400FEF7CCFDC01B4045F3D903208EE7022A20
:102F040002D113F0007FE1E713F0020FDEE713684C
:102F140023F007032B431360136803F00703AB424A
:102F24007FF47BAF8DE76B68E16823F4E0630B43C8
:102F34006B608BE70020024000100240D887000835
:102F44006000002038000020044B054A5B68C3F38E
:102F54000223D35C034A1068D84070470010024033
:102F6400D087000860000020044B054A5B68C3F367
:102F7400C223D35C034A1068D84070470010024053
:102F8400D08700086000002003682DE9F34105465E
:102F9400D80720D5364CE369D9002AD40126E36941
:102FA40043F08053E361E36903F080530193019B91
:102FB400304F3B68DA051ED5236A13F440732ED1D3
:102FC400236A6A6823F44073134323621EB1E369DE
:102FD40023F08053E3612A68910706D52449A86841
:102FE4004B6823F4404303434B60D30637D400209B
:102FF40012E00026DCE73B6843F480733B60FEF795
:1030040045FD80463B68DB05D6D4FEF73FFDA0EBCB
:1030140008006428F6D9032002B0BDE8F0816A688C
:1030240002F440729A42CBD00120134A236AC2F8B8
:103034004004002023F44071DF07C2F840042162F9
:10304400BED5FEF723FD41F288380746236A980768
:10305400B6D4FEF71BFDC01B4045F7D9DBE7044A95
:103064006969536823F480030B435360BFE700BFCF
:103074000010024000700040000042427047704758
:10308400036870B5DD681E690446B1070DD5AA074B
:103094000BD56FF002021A61012202779B699B072C
:1030A40069D000F036FD00232377710710D56A0735
:1030B4000ED56FF00402236820461A61022222779B
:1030C4009B6913F4407F5CD000F023FD0023237739
:1030D40033070FD528070DD56FF008022368204663
:1030E4001A6104222277DB69990750D000F011FDA0
:1030F40000232377F20610D5EB060ED56FF01002ED
:10310400236820461A6108222277DB6913F4407F82
:1031140043D000F0FEFC00232377F00708D5E9072D
:1031240006D56FF00102236820461A6100F0CEFC38
:10313400320608D52B0606D56FF080022368204698
:103144001A6100F09CF8700608D5690606D56FF080
:103154004002236820461A61FFF791FFB20622D588
:10316400AB0620D56FF0200223682046BDE87040EE
:103174001A6100F083B800F0CAFC2046FFF77EFF16
:1031840091E700F0C4FC2046FFF778FF9EE700F0CB
:10319400BEFC2046FFF772FFAAE700F0B8FC204609
:1031A400FFF76CFFB7E770BD1D4A0368904212D069
:1031B40002F5006290420ED0B0F1804F0BD0A2F520
:1031C4009832904207D002F58062904203D002F513
:1031D4008062904207D14A6823F070031343CA689F
:1031E40023F4407313434A6923F0800313430360B9
:1031F4008B68C3620B688362094B984203D003F562
:103204000063984201D10B6903630123436103699D
:10321400DB0742BF036923F001030361704700BF6A
:10322400002C014010B5044630B390F83D3003F053
:10323400FF021BB980F83C2001F0B8FF022320688C
:1032440084F83D30211DFFF7AFFF0123002084F8EF
:10325400463084F83E3084F83F3084F8403084F8B7
:10326400413084F8423084F8433084F8443084F8A0
:10327400453084F83D3010BD0120FCE770477047AD
:10328400026802F10C0353E8003F23F490730C32FC
:1032940042E8003102680029F2D102F1140353E834
:1032A400003F23F0010302F1140C4CE80031002923
:1032B400F3D1036B012B0BD102F10C0353E8003F54
:1032C40023F0100302F10C0C4CE800310029F3D177
:1032D400202380F8423000230363704710B504466E
:1032E4000368C1681A6922F440520A431A61826869
:1032F4000069D9680243606921F4B05121F00C01DE
:1033040002430A43DA605A69A16922F440720A430B
:103314005A610E4A934215D1FFF726FE19234343FF
:10332400626820689200B3FBF2F36422B3FBF2F10B
:1033340002FB11331B013233B3FBF2F303EB011332
:10334400836010BDFFF700FEE8E700BF00380140CE
:10335400704710B5044648B390F8413003F0FF02BB
:103364001BB980F84020FFF7F3FF2423226884F878
:103374004130D368204623F40053D360FFF7AEFFF7
:10338400236800201A6922F490421A615A6922F0D3
:103394002A025A61DA6842F40052DA602023606437
:1033A40084F8413084F84230606310BD0120FCE7AA
:1033B40010B5044668B390F8413003F0FF021BB91E
:1033C40080F84020FFF7C4FF2423226884F84130AA
:1033D400D368204623F40053D360FFF77FFF2368AC
:1033E40000201A6922F490421A615A6922F02202DA
:1033F4005A615A6942F008025A61DA6842F400528A
:10340400DA602023606484F8413084F842306063D9
:1034140010BD0120FCE790F84130202B10D189B178
:1034240082B1C28482840023212201620168436440
:1034340080F84120CA68184642F08002CA6070478A
:10344400022070470120704708B50023406AC385F5
:10345400C38402F091F808BD704790F8423007B574
:10346400222B42D181680268B1F5805F836A3FD123
:10347400016900293FD15268C2F3080223F8022BE4
:103484008362C38D013B9BB2C385002B2DD102689F
:10349400D16821F02001D160D16821F48071D1601C
:1034A400516921F001015161202280F842204363D7
:1034B400026B012A026828D1036302F10C0353E86A
:1034C400003F23F0100302F10C0C4CE800310029FA
:1034D400F3D11368DB0605D5019113680193536892
:1034E4000193019B818DFFF7B7FF03B05DF804FBE7
:1034F40039B9016929B95268D2B21A70836A0133A1
:10350400BEE7526802F07F02F7E702F02FF8ECE71B
:10351400036873B51A6804461607D9685D6908D14B
:10352400960668D58D0666D502B0BDE87040FFF7F3
:1035340094BF05F0010001F4907505435BD0D607F4
:1035440005D5CD0542BF636C43F0010363645307A3
:1035540004D518B1636C43F002036364960704D581
:1035640018B1636C43F004036364150707D501F0D5
:10357400200303431EBF636C43F008036364636C5E
:10358400002B32D0920604D58B0602D52046FFF7D5
:1035940064FF266820467369626C03F0400302F0FE
:1035A400080253EA020522D0FFF76AFE73695E0639
:1035B40018D5226802F1140353E8003F23F04003B6
:1035C400143242E800310029F3D1E06B50B1744B5E
:1035D4004363FEF739FB40B1E06B436B02B0BDE8D7
:1035E40070401847204601F0C7FF02B070BD01F0DB
:1035F400C3FF6564F9E7206B012840F09480D50689
:1036040040F19180C80640F18E80002201921A6830
:1036140001925A680192019A5A6952064DD5E16B9A
:103624000A68526892B2002ADFD0A08D9042DCD999
:10363400E2858A69202A36D003F10C0252E8002F71
:1036440022F4807203F10C0040E800210029F3D138
:1036540003F1140252E8002F22F0010203F11400D6
:1036640040E800210029F3D103F1140252E8002FAD
:1036740022F0400203F1140040E800210029F3D1B4
:10368400202284F84220216303F10C0252E8002F27
:1036940022F0100203F10C0040E800210029F3D1CC
:1036A400E06BFEF7B2FA02236363E38DA18DC91ABE
:1036B40089B22046FFF7D0FE97E7E28DE18D92B202
:1036C40089B2002991D0A18D891A89B200298CD0A0
:1036D40003F10C0252E8002F22F4907203F10C055E
:1036E40045E800200028F3D103F1140252E8002F2A
:1036F40022F0010203F1140545E800200028F3D16B
:10370400202284F84220206303F10C0252E8002FA7
:1037140022F0100203F10C0545E800200028F3D143
:1037240002236363C5E7160628D50D0626D594F84B
:103734004120212A7FF459AFA168226AB1F5805F44
:1037440017D12169A9B932F8021BC1F308015960E4
:103754002262E28C013A92B2E284002A7FF445AFFD
:10376400DA6822F08002DA60DA6842F04002DA6055
:103774003BE7511C216212785A60EAE750067FF554
:1037840034AF4A067FF531AFDA68204622F04002B2
:10379400DA60202384F8413001F0EBFE25E700BF16
:1037A4004D34000890F84030012B11D024230268D6
:1037B40080F84130D36823F00C0343F00803D3604E
:1037C400202380F84130002380F8403018467047A9
:1037D4000220704790F84030012B11D02423026856
:1037E40080F84130D36823F00C0343F00403D36022
:1037F400202380F84130002380F840301846704779
:103804000220704790F8412090F84200104370471E
:103814000023C285436422238285026980F84230F2
:10382400816203681AB1DA6842F48072DA605A6914
:10383400002042F001025A61DA6842F02002DA60A4
:10384400704770B590F84260202E07D141B13AB16B
:1038540000240463FFF7DCFF204670BD0220FCE770
:103864000120FAE7836810B504462BB10322014610
:1038740098470023C4E9023310BD836810B5044699
:1038840013B1032201469847204610BD1B4B9842B2
:1038940021D0B0F1804F20D0A3F5943398421ED0AC
:1038A40003F5806398421CD003F5806398421AD0D4
:1038B40003F58063984218D003F58063984216D0CC
:1038C40003F59033984214D04FF6FF734FF6FF720E
:1038D400934210D1FEE70023F8E70120704702204D
:1038E4007047032070470420704705207047062066
:1038F4007047072070470020704700BF002C01402C
:10390400014670B5044651F8100FFFF7BFFF054696
:10391400084601F07BFB0023084A04F1600642F8E4
:103924002530E36004F1B005B54204D0103D2846CB
:10393400FFF7A3FFF8E7204670BD00BF344B00201B
:10394400F8B504460846FFF7A1FF236903B1FEE773
:103954001B4D04F10C0245F820200E2204F1100640
:103964003046C4E90C33C4E90E33C4E91033C4E966
:103974001623216184F82C30A36484F84C3084F835
:103984004D30E46001F0C0FA04F1600504F1B007C1
:1039940028461035FFF766FFBD42F9D100234FF6E4
:1039A400FF72C4E90033C4E90632C4E90833A360F2
:1039B400636180233046A362BDE8F840FFF732BC60
:1039C400344B0020034B186810B10430FFF758BB88
:1039D400704700BF344B0020FFF7F4BF034B586817
:1039E40010B10430FFF74CBB704700BF344B0020CC
:1039F400034B986810B10430FFF742BB704700BF17
:103A0400344B0020034BD86810B10430FFF738BBA7
:103A1400704700BF344B0020034B186910B10430C9
:103A2400FFF72EBB704700BF344B0020034B58698F
:103A340010B10430FFF724BB704700BF344B0020A3
:103A4400034B986910B10430FFF71ABB704700BFED
:103A5400344B0020034BD86910B10430FFF710BB7E
:103A6400704700BF344B0020FFF7F4BF0022C0E9C9
:103A74000022C0E902227047F8B504460E4600F160
:103A8400600500F1B00728461035FFF7EFFFBD428F
:103A9400F9D10023204631462361FFF751FF204628
:103AA400F8BD826810B50AB904F09CFCC368BDE88F
:103AB4001040184708B500B9FEE701F023FA006882
:103AC400836E13B16030FFF7ECFF08BDFFF7F2BF60
:103AD40010B500B9FEE7037F013B072B10D8DFE8E0
:103AE40003F004140F100F0F0F12012401F00AFA4F
:103AF4000068063400EB041083680BB1FFF7D1FFB4
:103B040010BD0324F2E70424F0E70224EEE7FFF7F4
:103B1400DFBFFFF7DDBF84B004A800E90E0000207A
:103B240004B0704703464FF43F420020A3F844001A
:103B3400A3F840207047B0F8403023F47C535B0472
:103B44005B0CA0F8403000207047002070471FB580
:103B5400044604A800E90E0000200123A4F8403024
:103B6400A4F84000A4F84400A4F8500004B010BD28
:103B7400F0B50A78CD7830F82240034624F4EC44BA
:103B840024F070042404240C032D03D8DFE805F08A
:103B940041494745012048F280073C4323F822402D
:103BA40033F822409F4EA4B2344014433C4323F8DC
:103BB40022400C7B03EB021C002C40F08C80CC8850
:103BC4004F78640864007FB3B3F8501089B261443D
:103BD400A1F8004433F822104C0609D533F822101A
:103BE40089B2314041F4004141F0C00123F8221070
:103BF40033F822108C4C89B2012D01EA040101D062
:103C040081F0200141F4004141F0800123F82210A9
:103C14004DE0284644F40074BDE744F4C064002039
:103C2400B9E744F48064FAE7B3F85050ADB26544A0
:103C3400A5F80844B3F85040A4B26444B4F80C5452
:103C4400C5F30905A4F80C540D693E2D30D9E906D5
:103C5400B4F80C144FEA551608BF06F1FF3689B2C2
:103C640041EA86216FEA41416FEA514189B2A4F8E1
:103C74000C1433F822104F040DD533F8221021F41C
:103C8400E04121F070010904090C41F4404141F084
:103C9400800123F82210654CB2B91A8892B22240EE
:103CA40082F4405242F4004242F080021A80F0BD95
:103CB400B4F80C14002DD5D005F0010689B206EB3A
:103CC400550541EA8521D1E733F8221089B2214014
:103CD40081F4005196E7022D33F822405BD1A4B25F
:103CE400344044F4014444F0800423F82240B3F8FF
:103CF40050400E89A4B2760864447600A4F80064A7
:103D04004E89B3F850407608A4B264447600A4F80F
:103D140008644978002948D133F822104E040DD59F
:103D240033F8221021F4E04121F070010904090C58
:103D340041F4404141F0800123F8221033F822106D
:103D44004D060DD533F8221021F4E04121F0700125
:103D54000904090C41F4004141F0C00123F8221088
:103D640048F2800433F8221021F4804121F07001DC
:103D74000904090C81F44051214323F8221033F83B
:103D8400221021F4E04121F040010904090C0C4304
:103D940023F822408BE724F4E24424F07004240442
:103DA400240C274323F82270A1E733F822104C0493
:103DB4000DD533F8221021F4E04121F070010904FB
:103DC400090C41F4404141F0800123F8221033F8FA
:103DD400221049060DD533F8221021F4E04121F0D8
:103DE40070010904090C41F4004141F0C00123F8B9
:103DF400221033F822100C4C89B22140012D18BF37
:103E040081F0200141F4004141F0800123F82210A7
:103E140033F8221021F4804121F070010904090CC7
:103E2400F0E600BF8F8FFFFFBF8FFFFF8FBFFFFF45
:103E34004A780B78097BD9BB0AB330F823205106A2
:103E44000DD530F8232022F4E04222F0700212044F
:103E5400120C42F4004242F0C00220F8232030F851
:103E6400232022F4E04222F040021204120C42F415
:103E7400004242F0800220F823200020704730F8EE
:103E8400232052040DD530F8232022F4E04222F0FE
:103E940070021204120C42F4404242F0800220F8F4
:103EA400232030F8232022F4804222F07002DCE741
:103EB400002A4AD130F8232051040DD530F82320AC
:103EC40022F4E04222F070021204120C42F4404246
:103ED40042F0800220F8232030F8232052060DD52A
:103EE40030F8232022F4E04222F070021204120C73
:103EF40042F4004242F0C00220F8232048F280013C
:103F040030F8232022F4E04222F070021204120C52
:103F140042F4004242F0C00220F8232030F823206B
:103F240022F4804222F070021204120C0A4320F898
:103F3400232030F8232022F4E04222F0400212042D
:103F4400120C114320F8231097E730F82320510472
:103F54000DD530F8232022F4E04222F0700212043E
:103F6400120C42F4404242F0800220F8232030F840
:103F7400232052060DD530F8232022F4E04222F00B
:103F840070021204120C42F4004242F0C00220F803
:103F9400232048F2800130F8232022F4E04222F06A
:103FA40070021204120C42F4404242F0800220F8E3
:103FB400232030F8232022F4E04222F040021204AD
:103FC400120C0A4320F8232030F8232022F48042E4
:103FD40022F07002B3E74B780A788BB130F82230C4
:103FE40023F4E04323F040031B041B0C83F0100371
:103FF40043F4004343F0800320F82230002070474C
:1040040030F8223023F4804323F070031B041B0C8C
:1040140083F48053ECE70B7B3BBB4B780A7833B3D8
:1040240030F822305B060DD530F8223023F4E0431B
:1040340023F070031B041B0C43F4004343F0C00340
:1040440020F82230CB78012B0FD030F8223023F423
:10405400E04323F040031B041B0C83F0200343F4D0
:10406400004343F0800320F822300020704730F8EA
:1040740022305B040DD530F8223023F4E04323F0E2
:1040840070031B041B0C43F4404343F0800320F8EB
:10409400223030F8223023F4804323F070031B04D1
:1040A4001B0C83F44053DAE701220346A0F84020B6
:1040B40000200322A3F84400A3F84020704711B95C
:1040C4008023A0F84C300020704700207047002067
:1040D4007047B0F8440080B270470020704700EB8E
:1040E4004200013300F580605B0800EB83038342E8
:1040F40000D1704731F8022B20F8042BF7E72DE9A3
:10410400F0474B780446012B0D460A7B40F015819D
:10411400D1F810908F6949694F4528BF4F460ABBB3
:10412400BFB2EA883B46FFF7DAFFB4F850002978BB
:1041340080B204F20442090102448F522A7834F80E
:10414400223023F4E04323F040031B041B0C83F0D0
:104154003003002043F4004343F0800324F822306A
:10416400BDE8F087EB7895F800E0022B2E6A4FEA61
:104174000E1C40F0CD80B14530F82E2080F0B18087
:1041840022F4E04222F070021204120C42F40142C2
:1041940042F0800220F82E2030F82E80B0F850E053
:1041A400F61B18F040082E6201EB070ABBB21FFA97
:1041B4008EFE4DD000F20C42724422F80C306A8913
:1041C400FFF78DFFB14536BFF31B00233E466A78E7
:1041D4002B62C5F814A0B3B272BBB4F8502028788F
:1041E40092B204F2044100011144425A3E2EC2F339
:1041F4000902425215D9F206425A4FEA561708BF2D
:1042040007F1FF3792B242EA87226FEA42426FEA2D
:10421400524292B242522A8951462046FFF75FFF2A
:104224008CE7425A002EF0D006F0010792B207EB59
:10423400560642EA8622ECE7012AECD1B4F8500093
:10424400297880B204F20442090102448B52E2E765
:1042540000F20442724422F80C302A89FFF73FFF2F
:10426400B14536BFF31B43463E466A782B62C5F818
:1042740014A0B3B24ABBB4F85020287892B204F226
:104284000C4100011144425A3E2EC2F3090242522B
:1042940010D9425A7709F60608BF07F1FF3792B2E0
:1042A40042EA87226FEA42426FEA524292B2425293
:1042B4006A89B1E7425A002EF4D006F0010792B29F
:1042C40007EB560642EA8622F0E7012AF0D1B4F859
:1042D4005000297880B204F20C42090102448B5246
:1042E400E6E722F4E24222F070021204120C42F4D5
:1042F400004242F0800220F82E20B0F8503000F244
:1043040004429BB21A44B3B222F80C302A8985E7DE
:1043140030F82E20F61B2E62B0F850605206BBB265
:10432400B6B206D500F20C42324422F80C306A8947
:1043340074E700F204423244E6E7002A3BD18B6979
:104344000969B0F850008B4284BF5A1A0B46297889
:10435400AA6180B204F20C4209010244885A3E2B3D
:10436400C0F3090088521AD95809DB068B5A08BFD2
:1043740000F1FF309BB243EA80236FEA43436FEAC4
:1043840053439BB28B522A7834F8223023F480436F
:1043940023F070031B041B0C83F44053D9E60BB9C0
:1043A4008B5AEAE7885A03F0010680B206EB5303FE
:1043B40040EA8323E5E7CA78022A70D1002B38D17A
:1043C400B0F850200B7892B200F204401B01104464
:1043D400C25AC2F30902C2520A693E2A44D9C15AD6
:1043E4005609D70608BF06F1FF3689B241EA86218D
:1043F4006FEA41416FEA514189B2C152B4F85000A9
:1044040004F20C4180B20144C85A3E2AC0F30900A8
:10441400C85234D95009D606CA5A08BF00F1FF3031
:1044240092B242EA80226FEA42426FEA524292B268
:10443400CA52EB69002BA6D02A7834F8221048041B
:1044440001F0400327D5002B9DD034F8223023F40B
:10445400E04323F070031B041B0C43F4004343F0BC
:10446400C00324F822308EE7C15A002AC0D002F0DB
:10447400010689B206EB520641EA8621BCE70AB975
:10448400CA5AD0E7C85A02F0010680B206EB5202BB
:1044940040EA8222CBE7002B7FF475AFD5E7012AEF
:1044A4005CD18A6909698A4294BF0020501AA861C4
:1044B40088BF0A46002B7FF466AFB4F850102B78FF
:1044C40089B204F204401B010844C15A3E2AC1F3D4
:1044D4000901C1522BD9D106C15A4FEA521608BF5D
:1044E40006F1FF3689B241EA86216FEA41416FEA5B
:1044F400514189B2C152B4F8500004F20C4180B267
:104504000144C85A3E2AC0F30900C8521AD95009B6
:10451400D206CA5A08BF00F1FF3092B242EA8022A2
:104524006FEA42426FEA524292B2CA522BE7C15A30
:10453400002ADAD002F0010689B206EB520641EAFB
:104544008621D6E70AB9CA5AEAE7C85A02F0010630
:1045540080B206EB520240EA8222E5E70120FFE541
:1045640000EB4200F0B500F580605D0807460C469C
:104574002E46023436B9DB0744BF30F8253001F843
:104584001530F0BD37F8042B013E92B204F8022C2A
:10459400120A04F8012CECE703F06CBC03F072BCC3
:1045A40088B006285AD8DFE800F004111D293541E7
:1045B4004D002B4B2B489A6942F004029A619B6987
:1045C40003F004030193019B08B07047244B264871
:1045D4009A6942F008029A619B6903F00803029306
:1045E400029BF1E71E4B21489A6942F010029A613E
:1045F4009B6903F010030393039BE5E7184B1C48E6
:104604009A6942F020029A619B6903F020030493A3
:10461400049BD9E7124B17489A6942F040029A6109
:104624009B6903F040030593059BCDE70C4B1248AF
:104634009A6942F080029A619B6903F080030693B1
:10464400069BC1E7064B0D489A6942F480729A6151
:104654009B6903F480730793079BB5E70020B3E7D6
:104664000010024000080140000C0140001001400D
:104674000014014000180140001C014000200140CA
:1046840008B5074900F008FCC0F3C430012802D083
:10469400022802D0FEE7002008BD1020FCE700BF7E
:1046A400648C00080268094B9A420DD103F5CE339D
:1046B4001A6942F000521A611A6922F000521A6112
:1046C400DA6922F00052DA61704700BF00740040DA
:1046D40010B5094986B0044600F0BCFB019048B10E
:1046E4002046FFF7CDFF014601A8FDF77DFA01A89A
:1046F400FDF76CFA06B010BD648C0008F8B51349D8
:10470400064600F0A7FBFFF7C1F8114F054657F81E
:10471400203073B9B020FFF73FFF0C490446304600
:1047240000F098FB01462046FFF7A6F957F825301C
:104734001C601C6844B12046FFF7E2F82046BDE83F
:10474400F840B021FFF72ABFF8BD00BFAC890008CC
:10475400344B0020FDF79AB9704708B5FDF78AF984
:10476400FDF71FFAFFF7F8FF08BD70470F4B84B041
:10477400DA6942F08052DA61DA6902F08052019219
:10478400019A9A6942F001029A619A6902F001025F
:104794000292029A5A6942F040025A615B6903F03C
:1047A40040030393039B04B0704700BF0010024012
:1047B4000C4BD3F8FC20D2015EBFD3F8FC2042F0AE
:1047C4008072C3F8FC200022074B5A601A6842F03A
:1047D40001021A6000BF00BF00BF5868B0FA80F041
:1047E4004009704700ED00E0001000E008B5FFF755
:1047F400BDFFFFF7DDFFFDF72BF9FFF7B6FF02F072
:10480400A8FB0348FDF7D2F9BDE8084002F098BBC5
:10481400580000200023C0E90033C0E90233704788
:104824000023012803F101020AD11422DBB253430D
:10483400054A181D1044816829B11A4413691847A0
:1048440013464008EDE77047544B00200120FDF764
:1048540067BA0220FDF764BA0420FDF761BA0820A4
:10486400FDF75EBA1020FDF75BBA08B52020FDF70E
:1048740057FA4020FDF754FA8020FDF751FA4FF41F
:104884008070FDF74DFABDE808404FF40070FDF765
:1048940047BA38B506244FF48065A8B2FDF740FA4C
:1048A400013C4FEA4505F8D138BD0000344A08B54B
:1048B4001046062300F8043BFFF7ACFF072302F180
:1048C40018001375FFF7A6FF082302F12C0082F8E5
:1048D4002830FFF79FFF092302F1400082F83C30A3
:1048E400FFF798FF0A23172102F1540082F8503091
:1048F400FFF790FF02F1680082F86410FFF78AFF67
:1049040002F17C0082F87810FFF784FF02F1900036
:1049140082F88C10FFF77EFF02F1A40082F8A01049
:10492400FFF778FF82F8B410282102F1B800FFF7EE
:1049340071FF02F1CC0082F8C810FFF76BFF02F19F
:10494400E00082F8DC10FFF765FF02F1F40082F862
:10495400F010FFF75FFF02F5847082F80411FFF78F
:1049640059FF02F58E7082F81811FFF753FFBDE866
:10497400084002F5987082F82C11FFF74BBF00BF76
:10498400544B002038B5054CA4F5A075143C201DEB
:10499400FEF773FFAC42F9D138BD00BF944C002040
:1049A400A04B82B09A69013842F001029A619B6976
:1049B40003F001030193019B2B2834D8DFE810F0A6
:1049C4002C0035003C00430048004F0054005B00BD
:1049D40060006700700075007C0085008A0091000B
:1049E4009A00A300A800AF00B800BD00C4003300C3
:1049F40033003300C900D000D500DC00E100E8003A
:104A0400ED00F400F900FE00030108010D0112019C
:104A14001901200127012D01834A536843F0E06303
:104A240043F00103536002B070477F4A536823F098
:104A3400010343F0E063F5E77B4A536843F0E06326
:104A440043F00203EEE7784A536823F00203F0E7E9
:104A5400754A536843F0E06343F00403E2E7724AA3
:104A6400536823F00403E4E76F4A536843F0E063B8
:104A740043F00803D6E76C4A536823F00803D8E7E9
:104A8400694A536843F0E06343F03003CAE7664A77
:104A9400536823F0300343F0E06343F01003C1E7AD
:104AA400614A536823F03003C3E75F4A536843F015
:104AB400E06343F0C003B5E75B4A536823F0C003E7
:104AC40043F0E06343F04003ACE7574A536823F0F4
:104AD400C003AEE7544A536843F0E06343F44073C1
:104AE400A0E7514A536823F4407343F0E06343F46E
:104AF400007397E74C4A536823F4407343F0E06330
:104B040043F480738EE7484A536823F4407390E774
:104B1400454A536843F0E06343F4406382E7424A02
:104B2400536823F4406343F0E06343F4006379E79C
:104B34003D4A536823F440637BE73B4A536843F0A0
:104B4400E06343F480536DE7374A536823F480539A
:104B54006FE7354A536843F0E06343F4004361E789
:104B6400314A536823F4004363E72F4A536843F000
:104B7400E06343F4803355E72B4A536823F48033CE
:104B840057E7294A536843F0E06343F4003349E7A5
:104B9400254A536823F400334BE7234A536843F010
:104BA400E06343F480233DE71F4A536823F48023E2
:104BB4003FE71D4A536843F0E16333E71A4A5368F9
:104BC40023F4002335E7184A536843F0E26329E7E6
:104BD400154A536823F480132BE7134A536823F0D0
:104BE400E0631FE7104A536823F0E06343F08073E7
:104BF40018E70D4A536823F0E06343F0007311E7AC
:104C0400094A536823F0E06343F080630AE7064AE5
:104C1400D36943F48063D36105E7034AD36923F47A
:104C24008063F8E7001002400000014091FAA1F30C
:104C3400B3FA83F370B50D0E0F2691FAA1F1B1FA10
:104C440081F144599B0006FA03F3890024EA030422
:104C54008A402243425170BD91FAA1F3B3FA83F31F
:104C640070B50D0E042691FAA1F1B1FA81F14459FF
:104C74009B0006FA03F3890024EA03048A402243D2
:104C8400425170BD431C04D00C3151F80C3C5A1CE9
:104C940001D100207047834201F10C01F5D10120BC
:104CA40070470000431C2DE9F34106460F4600D12E
:104CB400FEE7594B00F00F02C0F3031001F00708A0
:104CC40053F82240FFF76CFCB8F1010F054615D1EB
:104CD40094FAA4F3B3FA83F30321200E2A589B0019
:104CE40001FA03F322EA030294FAA4F3B3FA83F376
:104CF4009B00994011432950012213E0C7F3062079
:104D0400B8F1030F0AD801A353F828F0234D000883
:104D1400FD4C0008874D0008954D0008FEE7FFF79D
:104D24003FFE08222146284608F1FF38FFF77EFFA0
:104D3400B8F1010F06D817F0080218BF0422214663
:104D4400FFF78AFF94FAA4F2230EB2FA82F2E9582A
:104D54000F239200934094FAA4F2B2FA82F2C7F3BA
:104D640001170B409200012F23FA02F312D0022FF5
:104D74003BD0082B21D1042221462846FFF756FFB9
:104D84001BE07F2801D10922CCE7FFF709FEFAE7EF
:104D94000022C7E7042B04D1082221462846FFF746
:104DA40045FF230A93FAA3F3B3FA83F20123E968D4
:104DB400934021EA14210B43EB60184B9A6942F0AB
:104DC40001029A619B6903F001030193019BA6F11F
:104DD4000D03012B14D8124A536823F0E06343F007
:104DE4008063536002B0BDE8F081042B04D1082233
:104DF40021462846FFF71AFFEB6823EA1423DBE772
:104E04000F2E02D0133E012EECD8054A536823F02E
:104E1400E06343F00073E4E7908700080010024069
:104E240000000140431C06D17047834202D18968C7
:104E3400FFF738BF0C310B685A1CF6D1FEE70B683C
:104E44005A1C01D100207047834201D14868704741
:104E54000C31F4E7431C01D0FFF7F1BF0020704789
:104E64004B6813B94FF0FF307047834201D1086893
:104E740070470C31F4E708B1FFF7F2BF4FF0FF3091
:104E8400704703460868421C00D17047984201D11C
:104E9400886870470C31F5E7431C01D0FFF7F1BF78
:104EA400704703468B42084604D01BB100290CBF4F
:104EB40018460020704700000F4B1A6842F00102A8
:104EC4001A6059680D4A0A405A601A6822F08472BE
:104ED40022F480321A601A6822F480221A605A6816
:104EE40022F4FE025A604FF41F029A604FF00062EF
:104EF400034B9A60704700BF001002400000FFF8A7
:104F040000ED00E0043870470368384A88B09342E3
:104F140018D102F56442916941F40061916192698A
:104F240002F400620092009A314A934217D1314B45
:104F3400DA6942F01002DA61DB6903F010030593C9
:104F4400059B43E0B3F1804F17D12A4AD16941F060
:104F54000101D161D26902F001020192019A264A4B
:104F6400934218D1234BDA6942F02002DA61DB69FB
:104F740003F020030693069B28E0204A934218D1AD
:104F840002F50332D16941F00201D161D26902F024
:104F940002020292029A1A4A934217D1154B9A6955
:104FA40042F400529A619B6903F400530793079BF0
:104FB4000CE0144A93420BD10E4BDA6942F004021E
:104FC400DA61DB6903F004030393039B08B07047C1
:104FD4000D4A9342A8D1074BDA6942F00802DA611C
:104FE400DB6903F008030493049BEFE7002C014002
:104FF4000010004000100240001400400004004073
:105004000034014000080040000C00400368234ABB
:1050140093420DD122498A6922F400628A61214AAD
:1050240093420DD102F50032D36923F010032AE034
:10503400B3F1804F0DD11A49CA6922F00102CA6145
:10504400194A93420DD102F5FE32D36923F02003AD
:1050540019E0164A93420ED11149CA6922F002029C
:10506400CA61134A934201BF02F55C42936923F477
:105074000053936170470F4A934206D102F50232FE
:10508400D36923F00403D36170470B4A9342C6D11A
:1050940002F50132D36923F00803F4E7002C014040
:1050A40000100240001000400014004000040040C2
:1050B4000034014000080040000C0040431C21D093
:1050C400194B984221D010D8A3F5006398421ED002
:1050D40007D8B0F1804F1CD0A3F5806398421AD052
:1050E400FEE7124B984218D0FAE7114B984216D0BB
:1050F40003F50063984214D0A3F590339842EFD19E
:10510400372070476FF00D007047362070471E201F
:1051140070471C2070471D207047322070471920AB
:1051240070472C20704700BF00100040000C004066
:10513400002C0140431C21D0194B984221D010D897
:10514400A3F5006398421ED007D8B0F1804F1CD05D
:10515400A3F5806398421AD0FEE7124B984218D008
:10516400FAE7114B984216D003F50063984214D025
:10517400A3F590339842EFD1372070476FF00D00BC
:105184007047362070471E2070471C2070471D2032
:105194007047322070471B2070472E20704700BF95
:1051A40000100040000C0040002C014038B50446BB
:1051B400FFF7AAFE0068FFF781FFD4E91212FCF79B
:1051C4007DFC2068FFF77AFFFCF7A8FC22681046F4
:1051D400FFF7B0FF05461046FFF770FF85420BD07E
:1051E400D4E912122846FCF769FC2068FFF7A2FFF5
:1051F400BDE83840FCF792BC38BD00002DE9F04F03
:105204008B4692469946044687B018B9002007B0E9
:10521400BDE8F08F7D49406DFFF71CFE7C490646D2
:10522400A06DFFF717FE7B490746E06DFFF712FEFE
:1052340079490546206EFFF70DFE8046002EE5D025
:10524400A36D013301D0002FE0D0E36D013301D011
:10525400002DDBD0236E013302D0B8F1000FD5D07E
:1052640030463946FFF71DFE0646206020B9014648
:10527400FFF717FE0646206029463046FFF711FE69
:1052840041462060FFF70DFE20600028BED0634B2E
:10529400984252D103F55843DA6842F48042DA6006
:1052A400DA6822F48042DA609A6942F480429A61B0
:1052B4009B69002203F480430193019B25235349F6
:1052C400606D84F8652084F86430FFF7ABFD1FB18E
:1052D4004F49A06DFFF7A6FD2DB14E49E06DFFF7D4
:1052E400A1FD4FF48075B8F1000F05D04A49206E36
:1052F40045F40075FFF796FD94F86520484B261D8C
:1053040043F8226023680022C4E9013B109B94F90E
:105314006400C4E904390C230121C4E90635C4F846
:105324000CA02262FCF7CAFB3046002F6AD1FEF7BC
:105334003FF8B0FA80F0400969E73A4B984215D13A
:1053440003F5E6331A6942F400321A611A6922F449
:1053540000321A61DA6942F40032DA61DB6901224F
:1053640003F400330293029B2623A8E72E4B9842B2
:1053740015D103F5E4331A6942F480221A611A69DB
:1053840022F480221A61DA6942F48022DA61DB694C
:10539400022203F480230393039B27238FE7234BE9
:1053A400984215D103F5E2331A6942F400221A61D6
:1053B4001A6922F400221A61DA6942F40022DA61DD
:1053C400DB69032203F400230493049B342376E76C
:1053D400174B98427FF41AAF03F5E0331A6942F48D
:1053E40080121A611A6922F480121A61DA6942F48D
:1053F4008012DA61DB69042203F480130593059BB0
:1054040035235CE7FDF7A5FF93E700BF4C8900084F
:10541400EC880008B088000874880008003801404F
:10542400944C00200044004000480040004C0040E0
:105434000050004008B5074B90F8652053F822004F
:10544400FEF7E0F900F02200A0F12203584258418F
:1054540008BD00BF944C002008B5074B90F86520A8
:1054640053F82200FEF7CEF900F02100A0F1210349
:105474005842584108BD00BF944C002070B50E46F8
:10548400054610B94FF0FF3070BDFFF7D3FF044657
:105494000028F7D1294611F8663F0122337095F8A8
:1054A4006500034B53F82000FEF7CBF92046EBE7E9
:1054B400944C002038B50D460446B8B1FFF7BAFF46
:1054C400A0B994F96400E564FCF736FB94F8650030
:1054D400074B04F1660153F820000122FEF7B1F9ED
:1054E40094F96400BDE83840FCF718BB38BD00BF30
:1054F400944C002038B515460446B8B1016590F9BE
:105504006400FCF719FBB4F87630E16E9BB294F8B2
:1055140065001944064BAAB253F82000FDF77BFF3F
:1055240094F96400BDE83840FCF7F8BA38BD00BF10
:10553400944C002048B1836D013306D190F8652066
:10554400024B53F82200FEF72DB97047944C00200B
:1055540048B1836D013306D190F86520024B53F8AE
:105564002200FEF737B97047944C0020836C04384E
:105574001847C36C0438184730B5044650F804394A
:1055840085B01D6815F0010512D0002200921A683A
:1055940000925B680093009BFFF74CFF40BB012225
:1055A400204604F1620105B0BDE83040FEF749B978
:1055B400196811F0020106D001951A6801925B681E
:1055C4000193019BE8E71A6812F0040206D00291E5
:1055D4001A6802925B680293029BDDE71968090767
:1055E400DAD503921A6803925B680393039BD3E7AB
:1055F40005B030BD08B52520FCF7C4FA024B186885
:10560400BDE80840FDF784BF944C0020262008B56F
:10561400FCF7B8FA034B586818B1BDE80840FDF729
:1056240077BF08BD944C0020272008B5FCF7AAFAE0
:10563400034B986818B1BDE80840FDF769BF08BD81
:10564400944C002008B53420FCF79CFA024BD8682F
:10565400BDE80840FDF75CBF944C002008B5352038
:10566400FCF790FA024B1869BDE80840FDF750BFFB
:10567400944C002003460A4910B508680344EFF32C
:105684000882934205D90C224FF0FF30054B1A6073
:1056940010BD054A054C121B9342F4D20B60F7E788
:1056A40064000020545A002000C0002000040000C0
:1056B400FEE700001622024B4FF0FF301A607047DD
:1056C400545A00200120704707B503688DF807106D
:1056D40001225B680DF10701984703B05DF804FBF4
:1056E400014800F0B1B800BFA04F0020F8B50E4645
:1056F40017461546ADB100F073FD90B10A4800F0AD
:10570400A3F8A84228BF284604460028F3D031460F
:105714002246054800F0B9F82D1B264400F07CFD14
:10572400E8E7781BF8BD00BFA04F0020014800F057
:105734004EB900BFDA4E002010B5044800F070F9ED
:10574400044600F09FFD204610BD00BFDA4E002045
:105754002DE9F04106460F46154694B202F05AFB75
:10576400F060224639460B4800F0B7F98046A4EBB6
:105774000804A4B200F086FD47443CB102F04AFBA1
:10578400F368C01AB3689842EBD32D1B2846BDE8D2
:10579400F08100BFDA4E00202DE9FF470646884617
:1057A40017461C469DB202F035FB0DF10E09F06060
:1057B4002B463A4641460F48CDF8009000F0D3F905
:1057C400824600F05FFDBDF80E30ED1AADB21F4405
:1057D400BAF1000F04D0641B204604B0BDE8F08782
:1057E400002DF9D002F016FBF368C01AB368984292
:1057F400DED3F0E7DA4E0020014800F048B900BFDC
:10580400DA4E002008B5034800F02EF80028FADC30
:1058140008BD00BFA04F002000F0ACBC00F0CEBC1F
:105824004FF47A720021034BC3E90112024A1A6051
:10583400704700BFA84C0020F08700080023A0F8A0
:105844008230A0F880307047B0F88230B0F8802001
:105854009BB292B2981A7F30434203F07F0300F068
:105864007F0058BF58427047B0F88030B0F88220AB
:105874009BB292B203F18000801A434203F07F038B
:1058840000F07F0058BF58427047F8B5B0F8806008
:105894000446B6B2B0F88000C6F1800696420F46C0
:1058A400154680B20AD9204402F0F2FCB4F88030E4
:1058B4001D4405F07F05A4F88050F8BD324620440D
:1058C40002F0E6FC2046AA1BB919EDE7B0F88020E7
:1058D400B0F8823092B29BB29A422BBFB0F88030BB
:1058E400B0F88230B0F88220C3F1800328BF9B1A3D
:1058F4009BB20B80A0F88430B0F882309BB218447D
:105904007047B0F88220B0F88430134403F07F036A
:10591400A0F8823070470023A0F8C230A0F8C0304D
:10592400C023A0F8C4307047B0F8C23082B09BB234
:10593400ADF80630B0F8C010BDF8063089B29BB29D
:105944009942B0F8C03002469BB21ED37F2B08D9CF
:10595400B0F8C0309BB2802B09D1BDF806309BB2A1
:105964002BB1B2F8C0309BB2D01802B07047BDF86A
:10597400063000209BB2402BF7D9B2F8C0309BB25E
:10598400A2F8C430A2F8C000EBE7BDF8061040331B
:1059940089B28B42E5D30020E7E7B0F8C030194460
:1059A40089B2A0F8C010B0F8C020B0F8C43092B2E8
:1059B4009BB29A4224BFC023A0F8C430B0F8C030D0
:1059C4009BB2BF2B84BF0023A0F8C0307047B0F84F
:1059D400C03082B09BB2ADF80430B0F8C430024697
:1059E4009BB2ADF80630B0F8C210BDF8043089B2ED
:1059F4009BB2994208D8BDF80430B0F8C2209BB2DB
:105A040092B2981A02B07047BDF80600BDF80410AF
:105A1400B2F8C23080B289B29BB20844C01AF1E72E
:105A2400B0F8C02082B092B2ADF80420B0F8C4201F
:105A3400034692B2ADF80620B0F8C210BDF80620B5
:105A440089B292B2914204BF0022A0F8C220B0F8F9
:105A5400C210BDF8042089B292B2914214D0B0F8B9
:105A6400C22092B2511C89B2A0F8C210B3F8C2107D
:105A7400805CBDF8062089B292B2914202D3002222
:105A8400A3F8C22002B070474FF0FF30FAE7B0F835
:105A9400C03082B09BB2ADF80430B0F8C4309BB2D1
:105AA400ADF80630B0F8C220BDF8063092B29BB211
:105AB4009A4224BF0023A0F8C230B0F8C220BDF837
:105AC400043092B29BB29A420FBF4FF0FF30B0F84D
