:020000040800F2
:1000000000C00020F5B500083DB600083DB6000868
:100010003DB600083DB600083DB6000800000000EF
:100020000000000000000000000000003DB60008D5
:100030003DB60008000000003DB60008078000083B
:100040003DB600083DB600083DB600083DB60008C4
:100050003DB600083DB60008F9800008FF800008A2
:10006000058100080B810008118100083DB60008D9
:100070003DB600083DB600083DB600083DB6000894
:100080003DB600083DB600083DB6000885A600084C
:1000900079A600083DB600083DB6000817810008A3
:1000A0003DB60008717200083DB600088572000870
:1000B000897200089D720008B17200083DB6000800
:1000C0003DB600083DB600083DB600083DB6000844
:1000D0003DB60008A58F0008BD8F0008D98F000825
:1000E0003F8100083DB6000889A600083DB600081B
:1000F000017300083DB60008157300083DB60008FE
:100100003DB600083DB60008C57200083DB60008BF
:10011000F58F00080D900008D9720008ED720008F4
:100120003DB600083DB600083DB600083DB60008E3
:1001300000000000000000000000000000000000BF
:1001400000000000000000000000000000000000AF
:10015000000000000000000000000000000000009F
:10016000000000000000000000000000000000008F
:10017000000000000000000000000000000000007F
:10018000000000000000000000000000000000006F
:10019000000000000000000000000000000000005F
:1001A000000000000000000000000000000000004F
:1001B000000000000000000000000000000000003F
:1001C000000000000000000000000000000000002F
:1001D000000000000000000000000000000000001F
:0401E0005FF8E0F1F3
:1001E80010F8012B11F8013B012A28BF9A42F7D0D9
:1001F800D01A7047034613F8012B002AFBD1181AAE
:100208000138704781F0004102E000BF83F00043ED
:1002180030B54FEA41044FEA430594EA050F08BF99
:1002280090EA020F1FBF54EA000C55EA020C7FEA5D
:10023800645C7FEA655C00F0E2804FEA5454D4EBDA
:100248005555B8BF6D420CDD2C4480EA020281EAA4
:10025800030382EA000083EA010180EA020281EADC
:100268000303362D88BF30BD11F0004F4FEA01312E
:100278004FF4801C4CEA113102D0404261EB41013D
:1002880013F0004F4FEA03334CEA133302D05242C3
:1002980063EB430394EA050F00F0A780A4F101047F
:1002A800D5F1200E0DDB02FA0EFC22FA05F28018B9
:1002B80041F1000103FA0EF2801843FA05F359419F
:1002C8000EE0A5F120050EF1200E012A03FA0EFC1E
:1002D80028BF4CF0020C43FA05F3C01851EBE37148
:1002E80001F0004507D54FF0000EDCF1000C7EEB65
:1002F80000006EEB0101B1F5801F1BD3B1F5001FA3
:100308000CD349085FEA30004FEA3C0C04F10104C1
:100318004FEA445212F5800F80F09A80BCF1004FEA
:1003280008BF5FEA500C50F1000041EB045141EA6C
:10033800050130BD5FEA4C0C404141EB0101013C35
:1003480028BFB1F5801FE9D291F0000F04BF014624
:100358000020B1FA81F308BF2033A3F10B03B3F1F6
:1003680020020CDA0C3208DD02F1140CC2F10C0286
:1003780001FA0CF021FA02F10CE002F11402D8BFE4
:10038800C2F1200C01FA02F120FA0CFCDCBF41EAB0
:100398000C019040E41AA2BF01EB0451294330BD7F
:1003A8006FEA04041F3C1CDA0C340EDC04F114045C
:1003B800C4F1200220FA04F001FA02F340EA030033
:1003C80021FA04F345EA030130BDC4F10C04C4F179
:1003D800200220FA02F001FA04F340EA0300294659
:1003E80030BD21FA04F0294630BD94F0000F83F4A3
:1003F800801306BF81F480110134013D4EE77FEA86
:10040800645C18BF7FEA655C29D094EA050F08BFD1
:1004180090EA020F05D054EA000C04BF19461046B2
:1004280030BD91EA030F1EBF0021002030BD5FEAF6
:10043800545C05D14000494128BF41F0004130BD1E
:1004480014F580043CBF01F5801130BD01F0004572
:1004580045F0FE4141F470014FF0000030BD7FEAE5
:10046800645C1ABF194610467FEA655C1CBF0B46E0
:10047800024650EA013406BF52EA033591EA030FF7
:1004880041F4002130BD00BF90F0000F04BF0021EF
:10049800704730B54FF4806404F132044FF0000522
:1004A8004FF0000150E700BF90F0000F04BF00219B
:1004B800704730B54FF4806404F1320410F0004501
:1004C80048BF40424FF000013EE700BF42004FEAFC
:1004D800E2014FEA31014FEA02701FBF12F07F4379
:1004E80093F07F4F81F06051704732F07F4208BF30
:1004F800704793F07F4F04BF41F40021704730B537
:100508004FF4607401F0004521F000411CE700BF82
:1005180050EA010208BF704730B54FF000050AE005
:1005280050EA010208BF704730B511F0004502D506
:10053800404261EB41014FF4806404F132045FEA08
:10054800915C3FF4D8AE4FF003025FEADC0C18BFB1
:1005580003325FEADC0C18BF033202EBDC02C2F1A3
:10056800200300FA03FC20FA02F001FA03FE40EA35
:100578000E0021FA02F11444BDE600BF70B54FF039
:10058800FF0C4CF4E06C1CEA11541DBF1CEA135517
:1005980094EA0C0F95EA0C0F00F0DEF82C4481EA7F
:1005A800030621EA4C5123EA4C5350EA013518BF9F
:1005B80052EA033541F4801143F4801338D0A0FB8C
:1005C80002CE4FF00005E1FB02E506F00042E0FB39
:1005D80003E54FF00006E1FB03569CF0000F18BF3F
:1005E8004EF0010EA4F1FF04B6F5007F64F54074E7
:1005F80004D25FEA4E0E6D4146EB060642EAC6217A
:1006080041EA55514FEAC52040EA5E504FEACE2EE6
:10061800B4F1FD0C88BFBCF5E06F1ED8BEF1004FE9
:1006280008BF5FEA500E50F1000041EB045170BD65
:1006380006F0004646EA010140EA020081EA0301A9
:10064800B4EB5C04C2BFD4EB0C0541EA045170BDA5
:1006580041F480114FF0000E013C00F3AB8014F11F
:10066800360FDEBF002001F0004170BDC4F1000468
:10067800203C35DA0C341BDC04F11404C4F12005E9
:1006880000FA05F320FA04F001FA05F240EA020044
:1006980001F0004221F0004110EBD37021FA04F67A
:1006A80042EB06015EEA430E08BF20EAD37070BD34
:1006B800C4F10C04C4F1200500FA04F320FA05F093
:1006C80001FA04F240EA020001F0004110EBD37095
:1006D80041F100015EEA430E08BF20EAD37070BD05
:1006E800C4F1200500FA05F24EEA020E20FA04F3DE
:1006F80001FA05F243EA020321FA04F001F000418D
:1007080021FA04F220EA020000EBD3705EEA430EFD
:1007180008BF20EAD37070BD94F0000F0FD101F02C
:100728000046400041EB010111F4801F08BF013C65
:10073800F7D041EA060195F0000F18BF704703F0A3
:100748000046520043EB030313F4801F08BF013D2A
:10075800F7D043EA0603704794EA0C0F0CEA1355E6
:1007680018BF95EA0C0F0CD050EA410618BF52EAA0
:100778004306D1D181EA030101F000414FF00000A6
:1007880070BD50EA410606BF1046194652EA4306B4
:1007980019D094EA0C0F02D150EA013613D195EA28
:1007A8000C0F05D152EA03361CBF104619460AD170
:1007B80081EA030101F0004141F0FE4141F470017A
:1007C8004FF0000070BD41F0FE4141F4780170BD6A
:1007D80070B54FF0FF0C4CF4E06C1CEA11541DBFCF
:1007E8001CEA135594EA0C0F95EA0C0F00F0A7F8D1
:1007F800A4EB050481EA030E52EA03354FEA0131FE
:1008080000F088804FEA03334FF0805545EA131310
:1008180043EA12634FEA022245EA111545EA1065D8
:100828004FEA00260EF000419D4208BF964244F16F
:10083800FD0404F5407402D25B084FEA3202B61A8E
:1008480065EB03055B084FEA32024FF480104FF462
:10085800002CB6EB020E75EB030E22BFB61A7546D6
:1008680040EA0C005B084FEA3202B6EB020E75EB69
:10087800030E22BFB61A754640EA5C005B084FEAD1
:100888003202B6EB020E75EB030E22BFB61A75469E
:1008980040EA9C005B084FEA3202B6EB020E75EBA9
:1008A800030E22BFB61A754640EADC0055EA060E6A
:1008B80018D04FEA051545EA16754FEA06164FEAAD
:1008C800C30343EA52734FEAC2025FEA1C1CC0D159
:1008D80011F4801F0BD141EA00014FF000004FF0E6
:1008E800004CB6E711F4801F04BF01430020B4F1A7
:1008F800FD0C88BFBCF5E06F3FF6AFAEB5EB030C5F
:1009080004BFB6EB020C5FEA500C50F1000041EB5B
:10091800045170BD0EF0004E4EEA113114EB5C0428
:10092800C2BFD4EB0C0541EA045170BD41F48011FB
:100938004FF0000E013C90E645EA060E8DE60CEA03
:10094800135594EA0C0F08BF95EA0C0F3FF43BAF20
:1009580094EA0C0F0AD150EA01347FF434AF95EAD7
:100968000C0F7FF425AF104619462CE795EA0C0FBB
:1009780006D152EA03353FF4FDAE1046194622E788
:1009880050EA410618BF52EA43067FF4C5AE50EA62
:1009980041047FF40DAF52EA43057FF4EBAE12E752
:1009A8004FF0FF3C06E000BF4FF0010C02E000BF33
:1009B8004FF0010C4DF804CD4FEA410C7FEA6C5C16
:1009C8004FEA430C18BF7FEA6C5C1BD001B050EAB9
:1009D800410C0CBF52EA430C91EA030F02BF90EAA4
:1009E800020F0020704710F1000F91EA030F58BF63
:1009F800994208BF90422CBFD8176FEAE37040F0C5
:100A0800010070474FEA410C7FEA6C5C02D150EA62
:100A1800013C07D14FEA430C7FEA6C5CD6D152EA1D
:100A2800033CD3D05DF8040B704700BF84461046E2
:100A380062468C461946634600E000BF01B5FFF7E1
:100A4800B7FF002848BF10F1000F01BD4DF808EDB1
:100A5800FFF7F4FF0CBF012000205DF808FB00BF82
:100A68004DF808EDFFF7EAFF34BF012000205DF8DC
:100A780008FB00BF4DF808EDFFF7E0FF94BF012029
:100A880000205DF808FB00BF4DF808EDFFF7CEFF2A
:100A980094BF012000205DF808FB00BF4DF808ED69
:100AA800FFF7C4FF34BF012000205DF808FB00BF3A
:100AB8004A0011D212F5001211D20DD56FF47873D5
:100AC800B3EB62520ED44FEAC12343F0004343EA2A
:100AD800505323FA02F070474FF00000704750EA75
:100AE800013002D14FF0FF3070474FF000007047DF
:100AF80080F0004002E000BF81F0004142001FBFCB
:100B08005FEA410392EA030F7FEA226C7FEA236CD3
:100B18006AD04FEA1262D2EB1363C1BFD2184140C8
:100B280048404140B8BF5B42192B88BF704710F05E
:100B3800004F40F4000020F07F4018BF404211F001
:100B4800004F41F4000121F07F4118BF494292EA69
:100B5800030F3FD0A2F1010241FA03FC10EB0C0095
:100B6800C3F1200301FA03F100F0004302D5494222
:100B780060EB4000B0F5000F13D3B0F1807F06D3CF
:100B880040084FEA310102F10102FE2A51D2B1F1C7
:100B9800004F40EBC25008BF20F0010040EA0300BC
:100BA8007047490040EB0000013A28BFB0F5000F3C
:100BB800EDD2B0FA80FCACF1080CB2EB0C0200FAF2
:100BC8000CF0AABF00EBC25052421843BCBFD04041
:100BD8001843704792F0000F81F4000106BF80F4BB
:100BE80000000132013BB5E74FEA41037FEA226C7E
:100BF80018BF7FEA236C21D092EA030F04D092F049
:100C0800000F08BF0846704790EA010F1CBF00207C
:100C1800704712F07F4F04D1400028BF40F00040D9
:100C2800704712F100723CBF00F50000704700F0F9
:100C3800004343F0FE4040F4000070477FEA226220
:100C480016BF08467FEA23630146420206BF5FEAF1
:100C5800412390EA010F40F4800070474FF00003F1
:100C680004E000BF10F0004348BF40425FEA000CB8
:100C780008BF704743F0964301464FF000001CE060
:100C880050EA010208BF70474FF000030AE000BFB6
:100C980050EA010208BF704711F0004302D54042F4
:100CA80061EB41015FEA010C02BF84460146002066
:100CB80043F0B64308BFA3F18053A3F50003BCFA81
:100CC8008CF2083AA3EBC25310DB01FA02FC63442E
:100CD80000FA02FCC2F12002BCF1004F20FA02F235
:100CE80043EB020008BF20F00100704702F1200228
:100CF80001FA02FCC2F1200250EA4C0021FA02F289
:100D080043EB020008BF20EADC7070474FF0FF0C8D
:100D18001CEAD0521EBF1CEAD15392EA0C0F93EA88
:100D28000C0F6FD01A4480EA010C400218BF5FEA2A
:100D380041211ED04FF0006343EA501043EA51119D
:100D4800A0FB01310CF00040B1F5000F3EBF490097
:100D580041EAD3715B0040EA010062F17F02FD2A9B
:100D68001DD8B3F1004F40EBC25008BF20F001007E
:100D7800704790F0000F0CF0004C08BF49024CEA95
:100D8800502040EA51207F3AC2BFD2F1FF0340EA27
:100D9800C250704740F400004FF00003013A5DDC98
:100DA80012F1190FDCBF00F000407047C2F10002D9
:100DB800410021FA02F1C2F1200200FA02FC5FEAC6
:100DC800310040F1000053EA4C0308BF20EADC7010
:100DD800704792F0000F00F0004C02BF400010F482
:100DE800000F013AF9D040EA0C0093F0000F01F02F
:100DF800004C02BF490011F4000F013BF9D041EA51
:100E08000C018FE70CEAD15392EA0C0F18BF93EA52
:100E18000C0F0AD030F0004C18BF31F0004CD8D17C
:100E280080EA010000F00040704790F0000F17BF03
:100E380090F0004F084691F0000F91F0004F14D049
:100E480092EA0C0F01D142020FD193EA0C0F03D1A1
:100E58004B0218BF084608D180EA010000F00040A4
:100E680040F0FE4040F40000704740F0FE4040F47F
:100E7800400070474FF0FF0C1CEAD0521EBF1CEA1E
:100E8800D15392EA0C0F93EA0C0F69D0A2EB03023C
:100E980080EA010C49024FEA402037D04FF08053D6
:100EA80043EA111143EA10130CF000408B4238BF9B
:100EB8005B0042F17D024FF4000C8B4224BF5B1AA9
:100EC80040EA0C00B3EB510F24BFA3EB510340EAF7
:100ED8005C00B3EB910F24BFA3EB910340EA9C00A5
:100EE800B3EBD10F24BFA3EBD10340EADC001B0115
:100EF80018BF5FEA1C1CE0D1FD2A3FF650AF8B42B9
:100F080040EBC25008BF20F0010070470CF0004CC5
:100F18004CEA50207F32C2BFD2F1FF0340EAC250F0
:100F2800704740F400004FF00003013A37E792F0B1
:100F3800000F00F0004C02BF400010F4000F013A0F
:100F4800F9D040EA0C0093F0000F01F0004C02BF0A
:100F5800490011F4000F013BF9D041EA0C0195E773
:100F68000CEAD15392EA0C0F08D142027FF47DAF0C
:100F780093EA0C0F7FF470AF084676E793EA0C0FFC
:100F880004D14B023FF44CAF08466EE730F0004CFA
:100F980018BF31F0004CCAD130F000427FF45CAF8A
:100FA80031F000437FF43CAF5FE700BF4FF0FF3CF8
:100FB80006E000BF4FF0010C02E000BF4FF0010C4B
:100FC8004DF804CD4FEA40024FEA41037FEA226C14
:100FD80018BF7FEA236C11D001B052EA530C18BF36
:100FE80090EA010F58BFB2EB030088BFC81738BF9B
:100FF8006FEAE17018BF40F0010070477FEA226C89
:1010080002D15FEA402C05D17FEA236CE4D15FEA84
:10101800412CE1D05DF8040B704700BF84460846B8
:101028006146FFE70FB5FFF7C9FF002848BF10F179
:10103800000F0FBD4DF808EDFFF7F4FF0CBF0120BE
:1010480000205DF808FB00BF4DF808EDFFF7EAFF48
:1010580034BF012000205DF808FB00BF4DF808ED03
:10106800FFF7E0FF94BF012000205DF808FB00BFF8
:101078004DF808EDFFF7D2FF94BF012000205DF87E
:1010880008FB00BF4DF808EDFFF7C8FF34BF01208B
:1010980000205DF808FB00BF42000ED2B2F1FE4FFF
:1010A8000BD34FF09E03B3EB126209D44FEA00232F
:1010B80043F0004323FA02F070474FF000007047F6
:1010C80012F1610F01D1420202D14FF0FF30704797
:1010D8004FF00000704700BF53B94AB9002908BF54
:1010E80000281CBF4FF0FF314FF0FF3000F00CB864
:1010F800ADF1080C6DE904CE0BF02AFEDDF804E032
:10110800DDE9022304B07047704700BF10B5054CF5
:10111800237833B9044B13B10448AFF3008001239B
:10112800237010BDC80200200000000054D0000841
:1011380008B5034B1BB103490348AFF3008008BD52
:1011480000000000CC02002054D000081A4BDA68D6
:10115800D207FCD41A69120641BF184A5A6002F134
:1011680088325A601A6942F002021A6158611A6993
:1011780042F040021A61104BDA68D207FCD41A69AF
:1011880022F002021A611A6942F001021A618BB256
:101198000380094BDA68D207FCD4090C4180DA686D
:1011A800D207FCD41A6922F001021A611A6942F0C6
:1011B80080021A61704700BF002002402301674582
:1011C80008B50F4904460F4809F000FF4FF4FA70BC
:1011D8000AF016FB0B4807F0F5FF72B60A482146DD
:1011E800FFF7B4FFBFF34F8F0849094BCA6802F4F1
:1011F800E0621343CB60BFF34F8F00BFFDE700BF32
:10120800F0D00008546E002000F8030800ED00E05C
:101218000400FA0508B50F4A0F4B9A6062B601211F
:101228002D200AF009FA4FF4E1310C4807F0C8FF05
:101238004FF4FA600AF0E4FA0949084809F0C6FED2
:10124800084800F0C8F8BDE80840074A07490848B8
:1012580002F080BE0080000800ED00E0546E00201F
:1012680006D10008E802002000E78F01002D3101B7
:10127800986C002010B50AF0C1FA094C2368C01A0E
:10128800C8280BD92D200AF07BFAB0FA80F12D205E
:1012980049090AF03BFA0AF0B1FA206010BD00BF14
:1012A800E402002008B5FFF7E5FF0B4800F002FA5A
:1012B800012803D14FF02230FFF782FF064800F0E3
:1012C800F9F9022802D14FF01130F5E70348BDE8DB
:1012D800084002F061BE00BFE8020020986C0020C0
:1012E800002307B51A4619460093044809F02AFE58
:1012F800034803B05DF804EB00F00AB83052002050
:10130800E8020020014800F065B800BFE8020020AC
:101318004FF0006370B50026036000F5805300F5B8
:101328008044C3F8046B00F540530546C3E9CB6617
:101338006C221F4984F83B6E04F63C600AF0D0FD2D
:101348003146A02204F6A8600AF036FD194B4FF08A
:101358007E52C4F8AC3E184BC4F8B82EC4F8B03E60
:1013680041F20C03A4F8C03E4FF08143C4F8C43ED8
:101378004FF08243C4F8E02E41F614020F49C4F836
:10138800C83E0F4BC4F8D41EA4F8E82E0D490E4AE7
:10139800C4F8CC3EC4F8F43E0C4B2846C4F8D81E1A
:1013A800C4F8F02E0A491D6001F06EFA284670BD97
:1013B80070D000081DD10008F601050020D10008F2
:1013C800000080BFF70105000000F0415C6A0020C2
:1013D800B1150008704701F00FBA000070B5044657
:1013E80001F024FA064604F59C453C3528460D498B
:1013F8005EB100F0AAF918B128460B4900F09BF934
:10140800204601F03BFA304670BD00F09EF918B94D
:101418002846044900F08FF9012304F5804484F834
:101428003A3EF0E725D1000828D1000838B50D4626
:101438000446244928460AF0E6FC38B1224904F556
:101448009C403C3000F077F920492EE0284620499E
:101458000AF0D9FC08B11F49F1E728461E490AF0ED
:10146800D2FC08B11D49EAE728461D490AF0CBFC21
:1014780048B1012204F5804320461A4983F83B2EDF
:1014880001F018FEE0E7284617490AF0BCFC28B12D
:10149800022204F5804383F83B2ED5E728461349FA
:1014A8000AF0B1FC00B1FEE7114904F54C503C309C
:1014B80000F08EFF014620B12046BDE8384001F01B
:1014C80031BA38BD32D1000841D10008D0D1000866
:1014D80049D1000828D1000859D100086ED1000868
:1014E80074D1000800D001088CD10008AFD10008E1
:1014F800C1D1000838B5114B05469A4214461BD095
:1015080010460F490AF07FFCB0B120460D490AF099
:101518007AFC88B10C490D4809F044FD0C490B4888
:1015280009F031FD2146094809F050FD21462846B9
:10153800BDE83840FFF77ABF38BD00BF5DD200086C
:10154800E2D10008D8D20008FBD10008546E002070
:101558000AD20008F8B505460E461446EAB1104608
:10156800FEF748FE83B2B3F5C05F05D3BDE8F84087
:101578000A490B4809F016BD0A4F01339AB2394699
:10158800204600F0EDF83B78302B06D03A4631463D
:101598002846BDE8F840FFF7ADBFF8BD0FD20008F8
:1015A800546E00205C5200200A460449034608682D
:1015B80010B11946FFF7CEBF704700BF5C6A002024
:1015C80010B5104C23689BB90F49104809F0DBFC93
:1015D8000F490E4809F0FAFC0E490C4809F0D3FCF3
:1015E8000D490A4809F0F2FC0AF008F9206010BD1C
:1015F8000AF004F92368C01A47F230539842E3D836
:10160800F5E700BF385200201CD20008546E0020B5
:1016180027D2000838D20008D8D2000800F5804345
:1016280093F83A3E2BB100F59C4002493C3000F05B
:1016380082B8704741D1000838B504461948037884
:101648001BB92022184900F067F804F59C453C3581
:101658002846144900F079F870B92946114800F075
:101668006AF804F54C5029463C3000F00DFF01465D
:1016780010B1204601F056F928460C4900F065F8EB
:1016880020B12046BDE83840FFF79ABF28460849F0
:1016980000F05BF820B12046BDE83840FFF7BEBF38
:1016A80038BD00BF3C52002025D1000841D10008B8
:1016B80028D1000810B5044600F59C4008493C3084
:1016C80000F043F830B92046FFF788FE10B12046F5
:1016D800FFF7B2FF04F5804494F83B0E10BD00BF3D
:1016E80044D20008002307B519461A460093074854
:1016F80009F028FCCB21064803F0E2FB0449054821
:1017080003B05DF804EB03F01FBC00BF946A00202F
:10171800806A0020606A002038B51546044608B182
:1017280009B9017038BD013A0AF04EFB00232C4478
:1017380004F8013CF6E710B5044628B121B113229C
:101748000AF042FB0023E37410BD08B528B129B1A3
:10175800FEF746FDB0FA80F0400908BD0846FCE7F0
:101768002DE9F8430F4678B10026441E551E14F89B
:10177800018F07EB0609B8F1000F01D0B54206D872
:10178800002389F8003000E00870BDE8F88340467F
:101798000AF058FA0028EAD1013689F80080E6E70D
:1017A80008460AF063B8084611460AF015B9084613
:1017B8000AF054B84FF6FF7399421FBFCB0900EBEC
:1017C800C300406801F07F0114BF00EBC100002096
:1017D800704770B540B14A68C38893420BD10A6814
:1017E800C41D13449A4200D170BD12F8015B14F86D
:1017F800016FAE42F6D00068ECE710B50446B4F5C8
:10180800803F084609D20B6804F109011B68984714
:1018180010B10123C480838010BD0020FCE702467C
:101828000B6808465B681146184738B50B790446BB
:10183800042B0D460AD0052B13D0022B17D10846CE
:10184800FEF7D8FCC4E90050002307E00D682846DD
:101858000DB1FEF7CFFC0123C4E9005023722046E6
:1018680038BD0B68DA880833C0E90032ECE700239A
:10187800C0E9003301238360F1E72DE9FF411746F2
:101888000C4671B3DE6A01883046FFF793FF0146C4
:1018980038B34FF00108C588B8F1000F17D001A878
:1018A800FFF7C3FF029A974211D1002301999A4288
:1018B80006D12946304604B0BDE8F041FFF77ABFAB
:1018C80014F803C0C85C844501D10133EFE7294609
:1018D8003046FFF76FFF014618B1C58888F0010848
:1018E800DAE7002004B0BDE8F08100000000000045
:1018F8002DE9F74F9DF930509B4692462C4601271B
:101908000A23019014B15F43013CFBE750465CA3F6
:10191800D3E900235946FFF7B7F8002872D04FF4EF
:101928008076DFF86C81DFF86C91524678E9020125
:101938005B46FFF79FF848B1D9E91023504659464E
:10194800FEF71CFE82468B46344424B2524B761076
:101958004345A9F10809E8D14FF0FF3800220023D8
:1019680050465946FFF79AF870B147A3D3E90023C8
:1019780050465946FFF77EF830B1464B03EBC8098D
:101988004FFA88F3013342D150465946FFF790F891
:101998000A2206460346092B55D83046FEF774FD41
:1019A80002460B4650465946FEF730FC80463846FC
:1019B8008946FEF769FD02460B4640464946FEF752
:1019C800DDFD89468046FFF773F88346FEF75CFD28
:1019D80002460B4640464946FEF718FC02460B46AF
:1019E800FEF716FCFFF764F85844874208D801361A
:1019F800002C42D0092E40D900200126013424B2FF
:101A08000A222AE04FF480764FF00808A6E7002261
:101A180079E80201214BFEF7B1FD52465B46FFF71C
:101A28003DF860B11C4B504603EBC8035946D3E957
:101A38000023FEF7A3FD82468B46A41B24B2761032
:101A480008F1FF389CE7013DB7FBF2F7B3FBF2F36F
:101A58006DB2A0E71846013D6DB2B0FBF2F302FB90
:101A6800130109B9002DF5DC019BC3E90060184694
:101A78001C819D7203B0BDE8F08F0020C0E700BF55
:101A880000000000D0126341F168E388B5F8E43E35
:101A9800E0D9000850D9000898D90008000024406F
:101AA8002DE9F84303790546DA070C4610D50022DC
:101AB8000368886860B1834225D183882168013B27
:101AC8009BB2838023B90368DAB11360FFF7A7FEDE
:101AD8002A79D30607D52E88E06A3146FFF76AFED1
:101AE800A38E0380A68612F0600F06D04FF6FF780B
:101AF8002E8846450AD12E806E8000232B71BDE8C2
:101B0800F883A360E2E702460068D3E73146E06A5B
:101B1800FFF750FE07462146B0F80690FFF7C0FFD2
:101B2800A38E3B80A6864E46E3E72DE9F0470026C4
:101B380004460D46B046A28CB3B29A42276A10D822
:101B48000023A3844FF6FF73BC42238507D02B687C
:101B580039465B682846984704232462E384BDE835
:101B6800F0871FFA86FA07EBCA09D9F8041019B1E9
:101B78002B6828465B68984747F83A800136C9F8C9
:101B88000480D8E738B504460568A06830B920460F
:101B980050F80C1BFFF7C9FF204638BD03682946DB
:101BA800A360FFF73CFEF0E7022310B503710023A2
:101BB8000A79DCB2A24202D80023835410BD0C6813
:101BC800E45CC4540133F4E78B8C30B5013B0D6AF7
:101BD8009BB205EBC304616869B1628835F833507C
:101BE800954208D9551C01EBC20102EBC31265806E
:101BF8000160828030BD002303604FF6FF7383804D
:101C0800F8E74FF6FF732DE9F34717460A8D0546A7
:101C18009A420C460BD01146206AFFF7CBFD038889
:101C280028602385AA80284602B0BDE8F0878B8CFF
:101C380053B16846FFF7C8FF009B6E4623B1DDE944
:101C4800000185E80300EEE7E28CA38C93421CD1E7
:101C5800B3F5007F43D05B009EB2236A3968A34284
:101C68004FEAC60234D10B68384611469847002817
:101C780035D02346024604F1200153F804CB8B42A9
:101C880042F804CBF9D12062E684B4F824803846BF
:101C980008F101039BB2B3F5007F0CBF7F268026B5
:101CA800A3843B68F1001B68D4F82090984700286B
:101CB80008BF0026002309EBC80ACAF80400214619
:101CC80029F838602846AAF80230FFF77DFFAAE70E
:101CD800D1F8088038461946C0470028D3D10023D8
:101CE8002B604FF6FF73AB809DE7000037B50D46BC
:101CF800044651F80C2B6846FFF783FF009B43B955
:101D0800012223604FF6FF732A71A380204603B097
:101D180030BD034A23605A60BDF80420A280F5E76D
:101D28000000FFFF2DE9F0418AB0054601A80C46E6
:101D380080E80E00109F00294BD09DF80C3033B17D
:101D4800042329602B7101200AB0BDE8F081029EAE
:101D5800032E11D80A4671188A4205D163B9014683
:101D68002846FFF721FFEEE712F801CBBCF1000F80
:101D780008BF43F00103EFE70DF11C0C04AB07C8E3
:101D880083E807008CE807006146B868D7F8008048
:101D9800FFF71FFD30B18388013383800523286056
:101DA8002B71D0E741463046FFF727FD78B1C31DB8
:101DB800A219944206D1002306443372BB6803601B
:101DC800B860EBE714F8011B03F8011FF1E70123E2
:101DD8003B710020B8E770B586B003AC054684E8CF
:101DE8000E000A9E40B13146FFF75AFE009628467B
:101DF80094E80E00FFF796FF06B070BD2DE9F0439A
:101E080091B0044603A80D4680E80E00DDF8608016
:101E1800002940D02379002B41D14FF0FF332360B4
:101E2800202323710AAF07C8434687E807002946DD
:101E38002046049AFFF721FD054660BB97E8070096
:101E48000DAE86E80700414606A8FFF74FFF069F3C
:101E58000FB3414608A8FFF749FFDDF82090B9F114
:101E6800000F18D0CDF80080384696E80E00FFF72E
:101E780059FF80B14FF6FF73BDF82420BDF81C5000
:101E8800FA80618899420ED0D8F82C00FFF792FCAE
:101E9800C5804D466280284611B0BDE8F083202BEE
:101EA800C0D00025F7E72580F3E713B550F8044BB9
:101EB800009490E80E0004F13800FFF79FFF02B08D
:101EC80010BD70B586B006460C46FFF7EEFF3668C3
:101ED800054620460CB1FEF78DF90023CDE90340F5
:101EE8008DF81430009606AB284613E90E00FFF76C
:101EF80072FF06B070BD30B587B00C460546FFF7D7
:101F0800D4FF2C22049201222B68039400938DF8AD
:101F1800142006AB13E90E00FFF75DFF07B030BDD4
:101F280030B587B00C460546FFF7BFFF0322049281
:101F380001222B68039400938DF8142006AB13E953
:101F48000E00FFF748FF07B030BD30B587B00C462C
:101F58000546FFF7AAFF0C22049201222B6803947E
:101F680000938DF8142006AB13E90E00FFF733FF3A
:101F780007B030BD70B544680A44D0E90053AB429D
:101F880004D382681B1B1A44826070BD9142F8D04A
:101F980011F8015B5E1C46601D70EEE738B505461A
:101FA80008460C46FEF726F9214602462846FFF762
:101FB800E1FF38BD2DE9F04186B00DF11604074662
:101FC80016461D46A046304629460A220023FFF73A
:101FD80083F8303204F8012D32462B460A2A73F171
:101FE800000306460D46EED221463846A8EB040209
:101FF800FFF7C0FF06B0BDE8F081D0E900239342A7
:102008003BBF5A1C42600022012238BF1970836806
:102018001344836070470000F8B50D461646222128
:102028000446FFF7EAFF2E44B54204D12221204698
:10203800FFF7E3FFF8BD15F8011B0B4B1F7967B1DC
:102048005A7902338A42F9D15C212046FFF7D5FF3D
:1020580039462046FFF7D1FFE6E70029F9D12046A7
:102068000249FFF79BFFDFE74BD200085ED200086A
:1020780070B51D1E0646144605DA2D21FFF7BDFF73
:10208800644265EB450522462B463046FFF792FF32
:1020980070BD0000F0B5194606468DB010461446CE
:1020A8001D46FEF7D3FC28B930464549FFF776FFB1
:1020B8000DB0F0BD0022002320462946FEF7C6FCDD
:1020C80068B922462B4620462946FEF7A1F8024663
:1020D8000B4620462946FEF7B9FC0028E4D1002229
:1020E800002320462946FEF7BBFC30B12D2130469F
:1020F800FFF783FF05F100431D469DF9483022464E
:10210800009303A82B46FFF7F3FB0DF12E010D46B4
:102118004FF00A0CBDF914709DF91640039BB3FBF0
:10212800FCF00CFB1032303201F8012D1A46092A56
:102138000346F4D830466A1AFFF71CFFACB10AAA66
:10214800104621464FF00A0C049B013949B2B1F1FF
:10215800FF3F2BD12E23E4B2511E091B141B30461E
:1021680004F8013C521AFFF705FF002FA0D06521A3
:102178003046FFF742FF002FBCB205DA2D2130466A
:10218800FFF73BFF6442A4B229460A20B4FBF0F2F1
:1021980000FB1243303301F8013D2346092B94B26A
:1021A800F4D830466A1AFFF7E5FE81E7B3FBFCFE78
:1021B8000CFB1E33303300F8013D7346C5E700BF02
:1021C80065D20008F7B50679054616F010000C46EA
:1021D80007D02988D06AFFF7EDFA202E05D969497A
:1021E800CAE0202E46D8012EF9D9023E1E2EF6D876
:1021F80001A353F826F000BF2B2300084923000849
:1022080027230008412300087B230008E721000852
:10221800E7210008E721000863230008E7210008F8
:1022280057230008E7210008B5220008E721000825
:10223800E7210008E7210008E7210008E721000856
:10224800E7210008E7210008E7210008E721000846
:10225800E7210008E721000875230008E7210008A6
:102268006F230008E7210008CF220008E7210008B3
:10227800E3220008402EB2D14FF6FF765B212046BC
:10228800FFF7BBFE2D88B5420BD0E2682946D06A1D
:10229800FFF790FA05462146FFF794FFED88B5420F
:1022A80016D15D212046FFF7A8FE09E02868FEF751
:1022B8000DF90B460621024600912046FFF7EAFE7B
:1022C800A06803B0F0BD09230093D0E90023F4E728
:1022D8002C212046FFF791FED7E74FF6FF777B21A9
:1022E8002046FFF78AFE2D88BD4216D00126E268F7
:1022F8002946D06AFFF75EFA05462146FFF762FFD6
:10230800ED88BD4209D0002E0CBF2C213A21204671
:10231800FFF773FE86F00106E9E77D21C2E72D6825
:1023280045B12846FDF766FF024629462046FFF7D5
:1023380073FEC5E72A46F8E72968CA880831F5E731
:1023480029682046CA880831FFF714FEB8E72A68CA
:10235800D3172046FFF78CFEB2E700232A682046F1
:10236800FFF728FEACE7D0E90023F2E7D0E9002325
:10237800F5E72B7823B104492046FFF70FFE9FE7C6
:102388000249F9E765D200086AD200086FD200084E
:1023980030B5144687B01D46E318CDE90234002352
:1023A8000A46CDE90001CDE9043140B102A9FFF7A1
:1023B80009FF854284BF0023235407B030BD02A81B
:1023C8000249FFF7EBFD0498F3E700BF65D2000868
:1023D8002DE9F043254B97B0059300238DF818306D
:1023E800079308AB10934FF4802311934FF6FF73B4
:1023F8004FF0FF09ADF848301D4B0127CDE91439DE
:102408001C4B01AD02930B2305AC064688462846B3
:102418001949039301948DF81070FFF781FD174B4C
:10242800414602930C232846039301948DF81070BB
:10243800FFF747FD124B28460293092311490393DE
:1024480001948DF81070FFF756FD13ABCDE90134F8
:10245800324695E803004B46FFF79AFF2046FFF700
:1024680091FB304617B0BDE8F08300BF00000020A4
:102478000000FFFF75D2000881D2000885D200084D
:1024880092D20008D8D200082DE9F047354B9AB00F
:10249800099300238DF828300B930CAB14934FF459
:1024A800802315934FF6FF734FF0FF09ADF85830AE
:1024B8002D4B0126CDE918392C4B05AD06930B237E
:1024C80009AC0746884628462949079305948DF89C
:1024D8002060FFF725FD274B4FF0090A06930C23D0
:1024E80028462549079305948DF82060FFF72DFDB0
:1024F800224B2846224906930594CDF81CA08DF856
:102508002060FFF7F8FC1F4B2846CDE9063A0594F2
:102518008DF82060FFF7C9FC1B4B8DF81060029303
:1025280010230094039302AB0ECBFFF754FC174B18
:102538004146069305232846079305948DF82060A5
:10254800FFF7BFFC17ABCDE905343A4695E8030021
:102558004B46FFF71DFF2046FFF714FB38461AB01D
:10256800BDE8F087000000200000FFFF75D20008DA
:1025780081D2000885D200089CD2000892D20008B7
:10258800D8D20008A9D2000827D20008A3D2000890
:1025980000207047036810B4DC6B4B23A44610BCC2
:1025A800604707B503688DF8071001225B680DF1D5
:1025B8000701984703B05DF804FB036918680368CE
:1025C800DB68184707B503680122DB6A0DF10701CC
:1025D8009847012814BF4FF0FF309DF8070003B05B
:1025E8005DF804FB436E184490F8200070470368B8
:1025F80010B51B690446984708B9207F10BD012013
:10260800FCE708B503685B6B9847003818BF0120E2
:1026180008BD000030B504468BB040F25B72254916
:10262800254802F084F84FF49671234802F0BAF86E
:102638002249214802F07EF82149201DFFF724FF96
:102648004FF4C05105461C4802F078F801230022D7
:10265800CDE901321B4B1C4A00931C491C4B164800
:10266800039501F01BFF18BB1A4907A808F034FEB0
:10267800114802F061F80A22014604A808F04FFE4A
:1026880004A907A808F0C4FE0146134808F094FC02
:1026980004A808F0DFFD07A808F0DCFD0F4B0020B8
:1026A80004F54054C4F83433C4F838030BB030BDD3
:1026B8000B4BF4E7B3D20008A46A00209D29000858
:1026C80025D10008D0D20008CCD20008D8D2000802
:1026D800C3D2000805D30008546E00203D3000081E
:1026E800ED26000810B50A4904460A4802F01CF80D
:1026F80060B90949094808F069FC094A002004F54D
:102708004053C3F83423C3F8380310BD054AF5E72E
:10271800D0D20008A46A002022D30008546E0020FA
:102728003D30000879330008F8B506460F461446D0
:1027380009F064F8054609F061F8401B844213D992
:1027480009F05CF8034630685B1BA342026805D2B7
:102758001369984710B909F053F8F1E7306803682E
:102768005B699847B842E6D1F8BD00002DE9F0470B
:102778001646054686B003684C6803A81C49DF6BFB
:1027880002945FFA84FA08F0A7FD102103A808F064
:102798007FFD514603A808F019FEC4F3072915491F
:1027A80003A808F0F7FD494603A808F00FFEC4F394
:1027B8000748104903A808F0EDFD414603A808F0B2
:1027C80005FE240E0B4903A808F0E4FD214603A8E2
:1027D80008F0FCFD4B23324603992846B8470446C7
:1027E80003A808F037FD204606B0BDE8F08700BF13
:1027F8005DD200086ED5000810B5044601210F20EF
:1028080008F01AFF01210F2008F080FF054B1C601B
:10281800054B04F54054C4F834330023C4F8383366
:1028280010BD00BFA06A0020952B0008034610B415
:1028380000F54051D1E9CD214C1000EB6100C907EA
:1028480048BF1B5910BC48BF9A58104710B5002400
:10285800074B00F54050C0F834330649C0F83843F8
:10286800054808F0B3FB642008F0CAFF204610BDF5
:10287800952B000833D30008786B0020014801F03D
:102888001FBE00BFA46A002000F58050C0F8041BDA
:1028980070470000F8B50D4604461B491B4817460B
:1028A80008F094FB1A49194808F06DFB2846FDF713
:1028B800A1FC0A220146154808F000FC15491348F6
:1028C80008F061FB3946114808F080FB11490F48B0
:1028D80008F059FB29460D4808F078FB05262A46DA
:1028E80039460D4801F0D7FE68B9642008F088FF22
:1028F800013EF4D10949054808F068FB084B04F586
:102908004050C0E9CD36F8BD3FD30008546E0020D2
:102918004ED300080AD20008A46A002057D3000842
:10292800952B0008014AFFF7B5BF00BFD0D20008B9
:1029380021B10B7813B1024AFFF7ACBF704700BF53
:1029480076D30008B3F5C05F2DE9F0410E46044682
:1029580011461D4604D9BDE8F0410D49FFF7E8BF0F
:1029680041F6083800EB08071A46384609F0B8FA65
:102978000023254405F8083004F58054D4F8043BB6
:1029880023B139463046BDE8F0411847BDE8F0812B
:10299800B6D300081346064A10B40446106820B19E
:1029A8000A46214610BCFFF7CDBF10BC704700BFD8
:1029B800A06A00202DE9F0430B7807463A2B0C4615
:1029C80087B04FD104AB0093354903AB02AA601C12
:1029D80009F048F9032845D1049D002D49D1039EEB
:1029E8003B6806F500361E44029BAB423AD90027E5
:1029F800637A10228DF81430A37A394605A88DF829
:102A080015308DF8167009F013F9029A6B1C9A426A
:102A180081462AD9E37A10228DF81430237B39466F
:102A280005A88DF8153009F003F949EA0027BFB267
:102A380005EB06083B464246CDE9009019491A487D
:102A480008F0D7FA00233A464146012002F082FCFA
:102A58000434034658B142461449134808F0C9FAE9
:102A680002F044FC07B0BDE8F083FF20DDE7023543
:102A7800BAE7042D0DD105AA0D4904F1090009F0A2
:102A8800F1F8059A0B4912043A60074808F0B1FAC0
:102A9800E8E7012DE6D10849034808F097FAE1E78D
:102AA800D1D30008DED30008546E0020FFD30008FD
:102AB8001ED4000823D400084DD4000813B50068BC
:102AC8006A4603681C6A0723A047431E052B0CD8D7
:102AD80000F108030DEB0300002300F8083C6846EA
:102AE80008F0B8FE00B202B010BD0148FBE700BF15
:102AF800F1D8FFFF2DE9F04F04460E469046204FCF
:102B080087B007F1340B57F8045BAE422ED8454521
:102B18002CD806222946204608F07CF90A2008F01D
:102B28006FFE4FF00A091749204608F02CFA214693
:102B3800684608F07BFB144903A808F0CDFB03A9FD
:102B4800684608F0A9FC824603A808F083FBBAF19E
:102B5800000F684605DB08F07DFB284607B0BDE896
:102B6800F08F08F077FBB9F10109DCD15F45CAD1D4
:102B780006223146204608F04DF90025EDE700BF52
:102B88000400002061D4000866D4000830B54FF472
:102B9800E13204464FF416511D4887B0FFF7AAFFEB
:102BA800054650B91B491C4808F0FCF94FF4FA7067
:102BB80008F026FE002007B030BD184903A808F029
:102BC8008BFB0A222946684608F0BBFB694603A826
:102BD80008F01EFC0146104808F0EEF9684608F0B7
:102BE80039FB03A808F036FB06222946084808F0F6
:102BF80011F907484FF4967108F0E8FA084B04F504
:102C08004050C0F834330023C0F83833D2E700BF4F
:102C1800786B002069D40008546E002083D4000823
:102C2800D5380008006808F0AEB9000038B5044689
:102C38000D460068094908F0A6F92946206808F0F9
:102C4800A2F920460649FFF7EDFF20680368DB6814
:102C58009847BDE83840002008F0D2BD91D400085C
:102C680063D4000830B50024054685B01649FFF73F
:102C7800DDFF23462846CDE90244CDE90044134A46
:102C8800134900F003FA01281CD123460F4A1149C1
:102C98002846CDE90244CDE9004400F0F7F928467A
:102CA8000D49FFF7C3FF23462846CDE90244CDE985
:102CB8000044064A074900F0E9F9431E58425841C2
:102CC80005B030BD2046FBE794D4000828DA000898
:102CD8009ED4000830DA0008ACD40008F0B50D46E0
:102CE80085B04849044601A808F0F6FA284601A923
:102CF80008F0AEFB064601A808F0ACFA06B32C2192
:102D08002046FFF7DBFE46B2012E13D10A212046EA
:102D1800FFF7D4FEC3B2092B05D840B204EB8000FC
:102D2800436803B15E772846374908F0E7FA01207F
:102D380005B0F0BD3146284608F059FB0020F7E7FA
:102D4800324901A808F0C8FA284601A908F080FB12
:102D5800074601A808F07EFACFB12C212046FFF7DC
:102D6800ADFE06460A212046FFF7A8FEF3B2092B5E
:102D7800D9D876B204EB86067368002BD3D001222B
:102D880080B2B0F5806F5A77CDD8D882CBE720498A
:102D980001A808F0A1FA284601A908F059FB06463F
:102DA80001A808F057FAAEB12C212046FFF786FE9D
:102DB80006464FF47A720A212046FFF7B5FCF3B2B3
:102DC800092BB0D876B204EB86067368002BAAD01C
:102DD8001F77A8E70F4901A808F07EFA284601A93D
:102DE80008F036FB064601A808F034FA002EA5D0F4
:102DF8002046FFF737FF002895D1204600F0FCF861
:102E080091E700BFB4D400085DD20008C1D400081F
:102E1800CDD40008D7D400082DE9F04F054685B079
:102E28001046DDE912AB0F46402114461E4608F055
:102E38002FFA08F0E3FC8046002008F0E1FC28683F
:102E480003681B699847002810DC08F0D7FCA0EB42
:102E58000800B842F0D3204608F021FB2046534929
:102E680008F04CFA002005B0BDE8F08F002008F00B
:102E7800C7FC286803685B69984743B2002BDEDD0E
:102E8800C1B2204608F095FA76B1314601A808F09B
:102E980023FA204601A908F0DBFA814601A808F0C8
:102EA800D9F9B9F1000F73D10E9B73B1194601A876
:102EB80008F012FA204601A908F0CAFA814601A8CA
:102EC80008F0C8F9B9F1000F64D10F9B73B1194626
:102ED80001A808F001FA204601A908F0B9FA8146CC
:102EE80001A808F0B7F9B9F1000F55D1109B73B1DB
:102EF800194601A808F0F0F9204601A908F0A8FA37
:102F0800814601A808F0A6F9B9F1000F46D1119B36
:102F180073B1194601A808F0DFF9204601A908F0A5
:102F280097FA814601A808F095F9B9F1000F37D151
:102F3800BAF1000F0ED0514601A808F0CDF920468D
:102F480001A908F085FA814601A808F083F9B9F1CA
:102F5800000F27D1BBF1000F0ED0594601A808F089
:102F6800BBF9204601A908F073FA814601A808F0C8
:102F780071F9B9F1000F17D121462846FFF7AEFEC7
:102F880000283FF45CAF2046084908F0B7F956E737
:102F9800012068E7022066E7032064E7042062E76F
:102FA800052060E706205EE707205CE75DD20008A1
:102FB800F0B516461F4604460D468BB00D4907A8C6
:102FC80008F08AF9149B29460593139B07AA0493D2
:102FD800129B20460393119B0293109BCDE900732B
:102FE8003346FFF719FF044607A808F033F92046CF
:102FF8000BB0F0BD5DD2000810B50B4986B0044691
:10300800FFF714FE00234EF66021CDE90333CDE926
:10301800013300932046054B054AFFF7C9FF431EBD
:103028005842584106B010BDE2D4000828DA00081A
:10303800ECD4000838B5044605250F4801F0E0F83F
:103048000E48FFF7D9FF60B9642008F0D9FB013DAD
:10305800F3D10B490B4807F0B9FF2046FFF7F6FB01
:1030680007E0094B04F54054C4F834330023C4F88E
:103078003833002038BD00BFA46A00204C6B002004
:10308800FBD40008546E00201D26000810B586B039
:103098000B9C04940A9C0394099C0294089CCDE917
:1030A800003413460A464FF47A71FFF781FF06B0E1
:1030B80010BD0000F0B50646B5B04048FFF7D2FD98
:1030C8000546002839D050233D4A3E4905A801F05D
:1030D80047FC3D4905A801F08FFD044638BB05A80B
:1030E80001F098FDC82822D105A801F092FE0746F4
:1030F80002F0EAF8354B3649039307F2FF73002BC9
:10310800B8BF07F6FE73DB123248CDE900440493DA
:1031180007F05CFF694601A802F080F90446002820
:1031280035D02D492B4807F051FF02F0DFF8002574
:103138002A4B18A8059308F08DF8284635B0F0BD3D
:1031480004F1D0030DEB0304002330461BA904F857
:10315800643CFFF72FFC16E0622CDFBF04F1D002BD
:103168006A4402F8643C01340EE005A801F094FBBF
:1031780050B105A801F051FBC3B20A2B01D00D2BA9
:10318800EAD1002CDCD10024154800F005FF09988D
:1031980003685B6B98470028E7D105A801F07CFB22
:1031A8000028E2D102F0A2F80E490A4807F00EFF03
:1031B8000D49084807F00AFFBAE700BF4C6B00202A
:1031C800B3D20008E46A002022D500080080020873
:1031D8005FD50008546E002070D5000858DA000842
:1031E800986C00207DD5000899D50008F0B50D46EB
:1031F80085B018490446FFF719FD00232046CDE99C
:103208000233CDE90033144A1449FFF73FFF26463D
:1032180004F1280701220021206807F0D9FF56F899
:10322800043F1BB1003818BF01201877BE42F1D106
:1032380000232046CDE90233CDE90033064A084988
:1032480004EB8504FFF722FF606800B1007F05B03A
:10325800F0BD00BFACD5000828DA0008B7D50008D3
:1032680030DA0008F0B585B006460C4608F0C6FA14
:10327800074608F0C3FAC31BA34201D3002033E07A
:10328800002530461A49FFF7D1FC2B463046CDE9D8
:103298000255CDE90055174A1749FFF7F7FE0128EF
:1032A80004D04FF47A7008F0ABFAE2E7134B144AF3
:1032B8000193144B144900933046144BCDE9025541
:1032C800FFF7E4FE04462B463046CDE90255CDE92A
:1032D8000055084A0E49FFF7D9FE012C06D0023CDA
:1032E800E4B2012CCAD8022005B0F0BD2046FBE7A5
:1032F800C2D5000828DA0008C9D50008E0D50008BA
:10330800D8D50008EAD50008E4D50008D0D50008CB
:1033180030DA00087FB5002405461149FFF786FC1E
:1033280023462846CDE90244CDE900440D4A0E491A
:10333800FFF7ACFE012811D12C212846FFF7BEFB70
:10334800234646B2CDE902442846CDE90044054A61
:103358000649FFF79BFE304604B070BD6326FAE7C6
:10336800F7D5000828DA0008FCD5000830DA00088C
:103378002DE9F04105468AB0294800F075FF04465A
:1033880030B92846FFF756FE20460AB0BDE8F0815E
:1033980008F034FADFF88C80D8F80030C01A224BD5
:1033A8009842F1D92148FFF7B5FF0646204901A800
:1033B80007F092FF0A22314604A807F0B0FF04A9DB
:1033C80001A808F025F81B4908F02EF80746174809
:1033D800FFF748FC0A22014607A807F0A0FF07A943
:1033E800384608F015F80146134807F0E5FD07A828
:1033F80007F030FF04A807F02DFF01A807F02AFF07
:10340800092E07DC2846FFF715FE08F0F7F9C8F87B
:103418000000B9E70548FFF725FC0028F2D0F4E7DB
:10342800A46A00209C6A0020F04902004C6B00202E
:1034380002D600081CD60008546E002070B5044659
:103448000E4615460C49006807F09DFD3146206878
:1034580007F099FD0A222946206807F02DFE20462C
:103468000649FFF7DFFB20680368DB689847BDE87B
:103478007040002008F0C4B991D4000863D4000853
:103488002DE9FF4100EB8108D8F8043005460F46C6
:10349800BBB100240A461C49FFF7D0FF2346284643
:1034A800CDE90244CDE90044184A1949FFF7EEFD79
:1034B80001280BD039462846D8F80440FFF796FE75
:1034C80020770026304604B0BDE8F0814FF47A72C8
:1034D8002C212846FFF728F94FF47A722C21284628
:1034E800FFF722F90A212846FFF7E8FA064623469D
:1034F8002846CDE90244CDE90044044A0549FFF7CE
:10350800C5FD002ED6D0DDE726D6000828DA00084B
:10351800B6D4000830DA00087FB504460D460068C6
:10352800224907F030FD2B21206807F030FD29469D
:103538000025206807F027FD3F21206807F027FDB8
:103548001B492046FFF76EFB20680368DB68984735
:10355800002008F055F92046CDE90255CDE900557F
:10356800144B154A1549FFF791FD0138C0B20228DE
:1035780018D84FF47A722C212046FFF7D5F801228B
:103588002946206807F024FE06462B462046CDE94A
:103598000255CDE900550A4A0A49FFF777FD70B28E
:1035A80004B070BD4FF0FF30FAE700BF91D40008B7
:1035B80063D4000833D600083BD6000843D6000879
:1035C80028DA000830DA00082DE9F04104460F46F1
:1035D80016461D4612490068BDF8188007F0D3FC4E
:1035E8003946206807F0CFFC0A223146206807F0E8
:1035F80063FD2946206807F0CAFC0A224146206874
:1036080007F043FD20460749FFF70CFB20680368D5
:10361800DB689847BDE8F041002008F0F1B800BF2A
:1036280091D4000863D400082DE9FF4700EB820716
:103638007B6804461BB9002004B0BDE8F08700256C
:1036480089B22C2300912F49FFF7BEFF2B46204655
:10365800CDE90255CDE900552B4A2C49FFF716FD57
:103668000128E8D14FF47A722C212046FFF75CF844
:103678004FF47A722C212046FFF756F82C21204669
:10368800FFF71CFA0A2106462046FFF717FA80467C
:10369800AE420EDC7B682046A3F8168000231A4A47
:1036A800CDE90233CDE900331949FFF7EFFC304685
:1036B800C2E708F0A3F88246206803681B699847A8
:1036C800814658B908F09AF87B68A0EB0A009B6815
:1036D800984203D2484608F093F8EDE72068013590
:1036E80003685B6998477B68C0B2196ED3F864C0F9
:1036F8004A1C02F03F0262451EBFC91881F820002B
:103708001A66C5E74AD6000828DA0008B6D40008C1
:1037180030DA0008F0B5044687B0002008F070F8E9
:1037280008F06CF843F6972705460026E38A83B12C
:1037380008F064F803465B1BBB42206909D8E18A9C
:10374800C4E918663F2928BF3F21227DFFF76CFF97
:10375800ECE70026C4E918662769386803681B691E
:103768009847054688B9227D20690E49FFF766FE0D
:103778002577CDE90255CDE900552B460A4A0B4974
:103788002069FFF783FC07B0F0BD002332211A46F9
:103798003846CDE90366CDE901660096FFF708FCD7
:1037A800DBE700BF57D6000828DA000830DA00083F
:1037B8002DE9F047064600259846036886B01B6B3E
:1037C80091468A469847002008F01AF83469354926
:1037D8002046C6E91855377DFFF728FA2B462046BC
:1037E800CDE90255CDE900552F4A3049FFF74EFC87
:1037F800012804D00020307706B0BDE8F0872C49B6
:10380800206807F0C0FB2B49206807F0BCFB0A22A0
:103818003946206807F050FC2C21206807F0B7FBD8
:103828002549206807F0AFFB2449206807F0ABFB67
:103838005146206807F0A7FB2149206807F0A3FB41
:103848000A224946206807F020FC1E492046FFF757
:10385800E9F920680368DB689847284607F0D0FF35
:103868004FF47A71204601FB08F1CDE90355CDE903
:1038780001550D4B144A0095FFF79AFB0128B9D161
:103888002C212046FFF71AF90A2105462046FFF7A2
:1038980015F9EDB2C0B2BD4208BF00280CBF012027
:1038A8000020A8E785D6000828DA000830DA0008E2
:1038B80091D4000891D600089BD600085ED700086E
:1038C8006DD6000863D40008A0D60008F0B58DB006
:1038D800064607F093FF0746B54D07F08FFF42F203
:1038E8000F72C31B934204D9B249B34807F06EFB69
:1038F800FFE000242846B149FFF798F9C821284677
:10390800CDE90344CDE90144AD4BAE4A0094FFF73D
:103918004FFB012800F0F080642007F071FFDCE71E
:10392800A949A348FFF7F8FD20F004035BB2012B77
:1039380005D0FA2007F064FF32E1A449D5E7A4498D
:1039480006A807F0C9FC9A48FFF7E4FC0A220146DA
:1039580009A807F0E4FC09A906A807F059FD002406
:103968000146954807F028FB09A807F073FC06A84C
:1039780007F070FC8E48FFF73FFB9649286807F070
:1039880002FB9549286807F0FEFA9449286807F071
:10399800FAFA2221286807F0FAFA9149286807F00C
:1039A800F2FA90498248FFF73DF928680368DB6816
:1039B8009847002007F024FF2346814A8149CDE932
:1039C8000244CDE900447A48FFF760FB864978480D
:1039D800FFF72CF923467A4A7A49CDE90244CDE922
:1039E80000447348FFF752FB80497148FFF71EF9FE
:1039F8002346734A7349CDE90244CDE900446C4833
:103A0800FFF744FB7A496A48FFF710F92346CDE9E6
:103A18000244CDE900446A4A6A496548FFF736FB23
:103A280001288AD16B49286807F0ADFA71492868DE
:103A380007F0A9FA0A227049286807F026FB2C210A
:103A4800286807F0A4FA0A2243F69821286807F0A4
:103A58001CFB2C21286807F09AFA0A2243F69821C1
:103A6800286807F012FB5F495148FFF7DBF8286820
:103A78000368DB689847204607F0C2FE2346504A91
:103A88005049CDE90244CDE900444948FFF7FEFA20
:103A98005A494748FFF7CAF8CDE90344CDE901443C
:103AA800474B574A544942480094FFF781FA012886
:103AB8007FF443AF534906A807F00EFC3C48FFF7D4
:103AC800D1F80A22014609A807F029FC09A906A885
:103AD80007F09EFC0146384807F06EFA09A807F07F
:103AE800B9FB06A807F0B6FB474B06F54056C6E9F2
:103AF800CD3400200DB0F0BD44492D48FFF796F8AD
:103B08002346CDE90244CDE900442D4A2D492848F1
:103B1800FFF7BCFA01287FF4E7AE3D492448FFF7D8
:103B280085F82346264A2749CDE90244CDE90044D1
:103B38001F48FFF7ABFA37491D48FFF777F842F2FD
:103B48001071CDE90344CDE901441D4B1D4A1848C5
:103B58000094FFF72DFA01287FF4C6AE2E491448C9
:103B6800FFF764F842F21071CDE90344CDE901444E
:103B7800134B144A0E480094FFF71AFA01287FF4F1
:103B8800B3AE42F210710A48FFF76CFB0138C0B2BD
:103B980001283FF6A9AE07F031FE4EF65F2704462E
:103BA80007F02CFE031BBB427FF6BAAE1B499CE60E
:103BB8004C6B0020ACD60008546E00205DD2000883
:103BC80028DA000830DA0008D6D6000811D700082D
:103BD8003FD7000891D4000850D7000862D70008E2
:103BE8006BD7000863D400087AD7000885D7000887
:103BF80094D70008DCD60008F8240100E9D60008AC
:103C0800F2D6000800D700081D260008B0D7000823
:103C1800BED60008C6D60008CED6000825D70008AC
:103C2800D0E91030181A48BF403070472DE9F041EC
:103C3800002504460746A84686B057F8046F46B1E3
:103C4800737F33B1204686F81D80E9B2FFF718FC70
:103C5800F08201350A2DF0D10025206803681B6920
:103C6800984710B906B0BDE8F08100230F211A4625
:103C78002046CDE90355CDE901550095FFF798F9A0
:103C8800EBE72DE9F74F044600208846009207F03D
:103C9800B7FD2069FFF7CAFF002704F1200A009B3F
:103CA8009F424DD2009B5046DD1BFFF7B9FF85426E
:103CB80028BF05460DB3A946C3465046FFF7B0FFD7
:103CC80010B9A8442F44EAE7666EC6F140024A4597
:103CD800A8BF4A468242A8BF02460AEB06015846D8
:103CE800019208F0FDF8019A164406F03F06B9EB78
:103CF800020966669344E0D1E3E707F07FFDA36914
:103D0800C01AB0F5FA7F05D94FF00103637707F0C1
:103D180075FDA0612069FFF789FFE38A83B1D4E9C3
:103D28001821891A0029D8BF4031013989B299422E
:103D380028BF19462069227DFFF776FC0028AED1FE
:103D4800384603B0BDE8F08F38B50446002004F1CA
:103D5800200507F055FD2846FFF762FF70B907F008
:103D68004DFDA369C01AB0F5FA7F04D90123637722
:103D780007F044FDA0612069FFF758FF2846FFF7C8
:103D88004FFFE38A80B2184438BD0000F0B50446FE
:103D9800164685B000200F4607F032FD2069FFF770
:103DA80045FFB3B225690093227D00242C232846C1
:103DB8001C49FFF709FC23462846CDE90244CDE912
:103DC8000044194A1949FFF761F9012802D0002077
:103DD80005B0F0BD28683246036839465B689847E5
:103DE80028680368DB68984723462846CDE90244DB
:103DF800CDE900440C4A0E49FFF748F90128E6D1FD
:103E080028464FF47A722C21FEF78EFC28464FF490
:103E18007A722C21FEF788FC0A212846FEF74EFE0E
:103E2800D6E700BFB3D7000828DA0008BDD70008D6
:103E3800BFD7000873B500241548234622462146FB
:103E4800009407F07FF83323124E134D0093092294
:103E58000A21304606F092FE28462146242240F8E0
:103E6800086B07F0A9FF4FF47A730C490C488B6074
:103E78000C4BC1E918444C600B600D61CC828C611D
:103E88008C830C75696002B0BDE8704000F06EBCB0
:103E9800906C0020786B00204C6B0020E46A0020B6
:103EA800A46A0020E8D90008014800F09EB800BFC5
:103EB800A46A0020214B08461B782DE9F04723B15E
:103EC8001F4BA1F164029A4236D8FCF7C7FE1D4980
:103ED800FCF7D0FF1C49FCF719FF002407464FF0F8
:103EE800040ADFF868905FFA84F80AFA08F080B2EA
:103EF800FCF7B8FE01463846FCF7BCFF49462646A3
:103F080005460134FDF7BEF80028ECD1F6B2062EBE
:103F180012D845F255530E4C28462360C4F8048045
:103F2800FDF7BAF80138C0F30B00A060E3689B07FF
:103F3800FCD14AF6AA232360BDE8F087996C0020DB
:103F48009CE68F010024744900401C4700F07F451F
:103F5800003000400C4B10B4A1F164049C4211D80D
:103F68000A4B5C6A44F001045C625C6AA407FCD5F5
:103F78004CF6CC44064B1C600124064B1C7010BC4C
:103F8800FFF798BF10BC70479CE68F0100100240F5
:103F980000300040996C0020034B1B781BB14AF697
:103FA800AA22024B1A607047996C0020003000402A
:103FB800704770B504460D4607F020FCA061A06864
:103FC8002946BDE8704003681B68184770B5044669
:103FD8000D46164607F012FCA061A0683246036839
:103FE8002946BDE870405B68184710B50446C068AC
:103FF80007F03CFC204610BD2DE9F04105460E4671
:1040080007F0FCFB4FF47A780746A86803681B6939
:104018009847044638B1A86803685B6998473070C8
:104028000120BDE8F08107F062FA07F0E7FBAB8AF0
:10403800C01B08FB03F39842E7D32046F1E738B5E5
:10404800158814462944FFF7D7FF08B101352580A4
:1040580038BD2DE9F74F002688460DF10602C168E4
:104068000446ADF80660FFF7EAFF80B10125E36872
:104078008DF8056093F80090BDF80670052F0AD1F9
:104088004FF0FF33A068E36303681B6B9847002079
:1040980003B0BDE8F08F20460DF10501FFF7ACFF36
:1040A8000028F4D09DF80520E1687B1CCA559BB216
:1040B80002F07F01120605FB0166ADF806304FEAF3
:1040C800C515D9D409F0F009013BB9F1300F88F8CA
:1040D80000301FD12046E1680DF10602FFF7AFFF5F
:1040E8000028D4D02046E1680DF10602FFF7A7FFAB
:1040F8000028CCD0E26898F80030134459789D78AD
:10410800137805EB01259B07ADB201D50235ADB299
:10411800022701E000273D466FF0010ABDF806B00E
:10412800B74209D3A36B23B9228A5A4538BFADF8E1
:104138000630BDF80600ABE720460DF10501FFF794
:104148005BFF0028A3D0A06B70B1B9F1300F0BD181
:1041580098F80030AAEB03035B44AB4204D9036828
:104168009DF805101B689847BDF80630228A9A42C8
:1041780006D9E2689DF80510D1540133ADF8063030
:104188000BF1010B0137CBE737B50024DDB2601C1A
:10419800DB0904F1080418BF45F080056C44C0B27F
:1041A80004F8045C63B9C0F10403D154C0F10503F9
:1041B800134401A90532934204D1013003B030BD44
:1041C8000446E3E711F8014B03F8014BF3E770B538
:1041D800064615461C46FFF7D7FF0146B0680C4453
:1041E8000368C1F10501294422465B6898470546E2
:1041F80007F004FBB061A8B2031B5842584170BDD8
:10420800E022C36810B51A7000220446C3685A70C9
:10421800806802220368E1685B6898474FF0FF33C3
:10422800A068E3630368DB689847A06803681B6BB2
:10423800984707F0E3FAC4E9060010BDF0B500247A
:1042480002339BB20139671CA5B2CE5D581980B202
:104258003EB9431B1A442D0A02F8025C02F8014CCD
:10426800F0BD3C461654EEE710B50446806808B920
:10427800002010BD03685B6B9847E36B68B9002B9F
:10428800F6D16FF00203A068E3630368DB68984720
:10429800A06803681B6B9847EAE7B3FA83F0400904
:1042A800E7E700002DE9F04F85B004468A46174637
:1042B8001E46DDF83890DDF844B0FFF7D5FF80469C
:1042C800002840F0D580A06803685B6B98470028F9
:1042D8003DD001236F4AE38210689188927902AB3E
:1042E8000290ADF80C109A71052213F8010BE168E1
:1042F800885401320C2AF8D1B9F1000F3BD09DF84F
:1043080040509DF83C306D0145EAC30545F0040571
:104318006DB29DF8483045EA43056DB2002F2CD1A7
:10432800E368EDB21D73638AE2681B0A5373E3689E
:10433800628A50469A73258A294607F058FD11303B
:10434800854221D2A06803681B6B984790E0A0685B
:10435800216B0368A28E39B19B6A98470128B8D0AF
:104368006FF00103E36383E04B495B6A0291E16A02
:10437800039102A9F1E74D46CBE716B965F07F0531
:10438800CEE765F03F05CBE70F2351462046E268AC
:10439800FFF754FF0546B9F1000F21D0B4F810A07B
:1043A8004846514607F023FDAB1C03449A45C9D340
:1043B8002B464946E2682046FFF740FFB4F81090C4
:1043C80005464946584607F012FD821C2A44914585
:1043D800B8D32B4659462046E268FFF72FFF05461B
:1043E8000FB3B4F810903846494607F000FDAB1CEF
:1043F80003449945A6D32B4639462046E268FFF781
:104408001DFF05467EB1278A3046394607F0EFFC86
:10441800AB1C03449F4295D32B4631462046E268A5
:10442800FFF70CFF05466B1F1021E2689BB2204680
:10443800FFF7CDFE07F0E2F94FF47A75C4E90600FC
:10444800A06803681B699847B0B120460DF10701C1
:10445800FFF7FFFD04287FF475AFE368DD78BDB989
:1044680007F0CCF94FF00108E06184F82050E563CB
:10447800404605B0BDE8F08F07F0C0F9E369C01AFF
:10448800A38A6B439842DBD36FF00303E36359E7D6
:10449800E56357E7DCD0000810E1000810B50124F7
:1044A80086B004940B9C03949DF8284002949DF8D0
:1044B80024400194089C0094FFF7F4FE06B010BD58
:1044C8002DE9F74F0446FFF7CFFE8246C0B107F04B
:1044D80095F94FF47A72638A81465343E269821AE6
:1044E8009A4203D8A269821A93421CD294F82030C7
:1044F8004BB16FF00303A068E36303681B6B984735
:104508004FF0000A73E0C021E2681170E26853704E
:10451800A06802220368E1685B6898470123C4E940
:10452800069984F82030A06803681B69984700281A
:104538005DD020460DF10701FFF78BFD05460028E9
:1045480070D0E068C4F81C90037803F0F003302BB7
:1045580054D1636A002B4AD09DF8076006F1020B1C
:10456800831910F80B705B7806F1030807EB032733
:10457800BFB200EB08013A46584407F004FC002299
:10458800E368B84433443B449A70E168AA1B01EBE2
:104598000B0091F800B0033A0BF0060BBBF1020FC9
:1045A800636AA2EB070226D105363E4411F808508B
:1045B800023A8844314498F8018098474022E368D9
:1045C80008EB05281A70E3681FFA88F883F801B029
:1045D800E3684FEA18229A70E368042283F803809C
:1045E800A068E16803685B689847C4F8189050466B
:1045F80003B0BDE8F08F41449847F8E7C02B0BD1D2
:10460800D02300220370E3685A70A068022203686E
:10461800E1685B689847EAE7D02BE8D1002384F883
:104628002030E4E72046FFF71FFE0028DFD167E7C8
:104638002DE9F04704460D4691461F469DF8208017
:10464800FFF712FE20B3268A2846314607F0CFFB33
:10465800FB1D03449E421BD3294605232046E268DE
:10466800FFF7ECFD00254619AF42E268B6B209D85B
:10467800731F08F130012046BDE8F0479BB2C9B26C
:10468800FFF7A5BD19F8053001359355ADB2EAE736
:104698000020BDE8F08773B505460E4614466AB19A
:1046A800018A104607F0A3FB034600223146009218
:1046B80028462246FFF7BCFF02B070BD1346F4E758
:1046C800012A2DE9F04104460E46154629D8078AE5
:1046D8003046394607F08BFB0930874221D3204604
:1046E800FFF7C2FDE8B1E38AE26801339BB2012B10
:1046F80038BF0123E3821B0A5371E368E28A31461B
:104708009A71E26807232046FFF798FDE368822143
:104718001D540438E26883B22046BDE8F041FFF733
:1047280056BD0020BDE8F0810022FFF7C9BF016334
:104738008286704741627047C06B704738B504463F
:104748000D4609B9002038BD038A43B9084607F069
:1047580085F8E060003818BF01202582F3E7C068BB
:1047680007F03AF90028F4D1ECE7000070B500250D
:104778000B4B0446456040F8283B0E4606F0DAFB32
:104788004FF0FF334FF48071E3632046A660A563C2
:104798002582FFF7D3FF0F2320466382A38270BDD3
:1047A80040DA000841827047002307B51A461946C7
:1047B8000093034806F0C6FB03B05DF804FB00BF96
:1047C8009C6C0020006903689B69184700690368AE
:1047D800DB68184713B5006949680368034C019101
:1047E8005B6A69460094984702B010BD10E1000862
:1047F800006903689B6A1847006903685B6B184780
:104808000069003818BF01207047006C70470164C8
:104818007047406C70474164704790F8383010B565
:10482800044633B9206903685B699847002808DAA9
:1048380010BD03681B6998470028F3D14FF0FF307B
:10484800F6E794F82220A2F10803022BF0D8A36A15
:10485800002BC2BFE36A0133E3620A2AE8D1E36BA3
:10486800013BE363002BE3D1092384F82230DFE71F
:1048780010B5044600690368DB6A984794F822304B
:10488800083B022B07D8A36A002B04DD0028A2BF2F
:10489800E36A1B18E36210BD90F8223073B5092B48
:1048A800044605D10026206903681B69984778B932
:1048B80094F822300A2B2FD1E36B43B320690368A5
:1048C8001B69984794F822300A2B28D002B070BD93
:1048D800206903685B699847C5B20A2D02D184F83C
:1048E8002250E9E70D2DDED0284607F0B3F900285D
:1048F800D9D0E06B8DF8045010220501002101A8E1
:104908008DF8056007F01AF92844E063CBE709231E
:1049180084F822300020D9E7092BCFD1FAE7E36BDE
:104928009842A8BF1846D1E700234FF0FF32C0E9EC
:104938000A23094A80F82230126843620263074A50
:1049480080F838301268C3634263642347F23052F8
:10495800C0E91023704700BF3C0000203800002049
:1049680038B504461D4600204FF47A73C4E90103A4
:104978000A4BC4E90412236004F1180006F0DAFABD
:1049880040F2011306492584A4F8483004F14C008C
:1049980006F0A2FC2046FFF7C7FF38BD58DA00082A
:1049A8005DD2000810B50446006903681B6B984780
:1049B8002046BDE81040FFF7B7BF000038B50446F1
:1049C8001546006906F0DFFA0449206906F0DBFAAB
:1049D80029462069BDE8384006F0F8BA8ED40008A8
:1049E80038B504460D460069114606F0CCFA1F4951
:1049F800206906F0C8FA2946206906F0C4FA1C495D
:104A0800206906F0E3FA94F8493013B36369D3B127
:104A18001849206906F0B7FAD4E9040106F0B3FA98
:104A2800238C502B0CD040F2BB12934208D0124971
:104A3800206906F0A8FA0A22218C206906F025FBD5
:104A4800206906F0A7FA0D4B20461A680C49FFF7B3
:104A5800B5FF94F8483023B120460A4A0A49FFF7BF
:104A6800ADFF0123002084F8223038BD20D800088B
:104A7800CBD70008D5D7000808D20008400000208E
:104A8800DCD70008E7D70008EDD7000838B504469A
:104A98001546006906F077FA0549206906F073FAA9
:104AA800294620690A22BDE8384006F0F0BA00BF5E
:104AB8008ED4000810B50446006906F06BFA02238C
:104AC80084F8223010BD90F8223070B5012B0446CE
:104AD8000D46164601D8FFF7EDFF206932460368F8
:104AE8002946BDE870405B68184790F8223070B5D9
:104AF800012B04460D4601D8FFF7DCFF2069294643
:104B0800BDE8704003681B68184710B50446206963
:104B180003681B69984700B910BD206903685B6981
:104B28009847F4E72DE9F3471E46DDE90A5990F85E
:104B380022300446083B022B0F46904604D8FFF764
:104B4800E4FF2046FFF7F0FE94F822A0BAF1010F27
:104B580049D894F848305BB1D4E90401228C036841
:104B680031BB22495B6A0091E1690191694620E005
:104B7800206903685B6B98470028EDD042463946A8
:104B88002046FFF72DFFE6B9002D04DD2A46204612
:104B98001749FFF77BFFB9F1000F18BF002DCCBFF5
:104BA80001260026BAF1000F11D086B9002005E0D1
:104BB8009B6A98470028E1DC4FF0FF3002B0BDE85F
:104BC800F087324620460B49FFF7F8FEDCE720461F
:104BD800FFF770FF002EE9D023682A464946204691
:104BE8005B689847E2E76FF00100E7E710E100082B
:104BF80005D80008F8D7000807B500234FF0FF32A2
:104C0800CDE90023024AFFF78DFF03B05DF804FBEE
:104C180014D8000890F822302DE9F047012B0446FB
:104C28005FD900254FF00209A8464FF0030AC4F8DF
:104C3800248084F8229006F0E1FD06462D4F0A2DC7
:104C480033D1636AC72B02DC652B18BF002594F8A3
:104C58002230042B48D1606AC72801DC6528E6D1D8
:104C68000A2D18BF6FF0020006E03B782A2B05D00A
:104C7800834203D06FF00300BDE8F0877B780BB95F
:104C880084F822A0013728E0A0F13003092B95BF52
:104C98000A210423626A84F822309CBF01FB023394
:104CA80063621AE0606C06F0ABFD06F0A7FD236CAA
:104CB800801B9842CBD2236820461B69984700285E
:104CC800F0D02046FFF7A9FD431C0546EDD094F827
:104CD8002230022BC9D0032BD6D006F08FFD064612
:104CE800ADE76FF00100C7E70A2DC3D06FF00200EF
:104CF800C2E700BF18D8000810B50446FFF78DFDBD
:104D080094F82230C0B2A3F10802022A47D9052B31
:104D18003AD0072B44D0042B0CD1226B1378834252
:104D280014D1531C2363537823B90522C4E90A33E9
:104D380084F822200A2832D1042384F822301F4B19
:104D48001B6823631E4B1B68636328E0636B197839
:104D580081420BD15A1C62635B78002BEAD1012394
:104D680084F83830062384F82230E3E713490968C9
:104D78008A42F7D1124A12689342F3D10D28F1D131
:104D8800072384F822300AE0A0F13003092BE9D880
:104D98000A21A26A01FB02339A4200DAA36210BD1B
:104DA8000A28FCD194F838302BB1092384F8223032
:104DB8000023E363F3E70823E3E700BF3C00002098
:104DC8003800002038B5044606F018FD054694F86A
:104DD8002230083B022B17D906F010FD236C401B2C
:104DE80098420CD2236820461B69984718B9606C12
:104DF80006F006FDEBE72046FFF77EFFE4E794F8B0
:104E08002230083B022B01D8002038BD6FF0020089
:104E1800FBE790F8223010B5083B022B044601D975
:104E2800FFF7D0FFA06A10BD38B590F822300446CD
:104E3800083B022B01D9002038BDFFF7EAFF0130FB
:104E4800F9D02046E56AFFF7E4FF8542B4BF0020A9
:104E58000120F1E7FFF7E8BFFFF7E6BF002307B53A
:104E68001A4619460093034806F06CF803B05DF83B
:104E780004FB00BFA46C0020704710B50446042151
:104E880002F0DEFF204610BD014B024A1A6070474F
:104E9800AC6C0020B4DA0008002307B51A4619469E
:104EA8000093034806F04EF803B05DF804FB00BF1A
:104EB800B06C00200023038283748360C360704752
:104EC80038B50C4605460021204606F0B5FB322CC5
:104ED8000AD80E4B53F824302B60002328466B6009
:104EE800BDE83840FFF7E6BF04F0C003C02B0AD185
:104EF800CF2C08D8064B04F03F0453F82420034B6A
:104F080053F82230E8E74FF0FF33E5E708E0000800
:104F1800C8DF00084FF01061044AC0E900120022FF
:104F2800FF21C0E90222C0E9061270470101010011
:104F380009220023C270034AC160037042600372F1
:104F4800704700BF01010100034610B50C46FFF78A
:104F5800E1FF18462146FFF7EBFF10BD7047000040
:104F680038B50E4B05461A784FF47A73B3FBF2F353
:104F78000B4A1068B0FBF3F000F09CF8044658B9EF
:104F88000F2D09D8024629464FF0FF3000F042F8AD
:104F98002046044B1D6038BD0120FCE7440000207A
:104FA8007000002048000020074A08B51368032055
:104FB80043F01003136000F01BF80020FFF7D0FF48
:104FC800FFF7CCFF002008BD00200240034A044B35
:104FD80011681B780B441360704700BFB86C002041
:104FE80044000020014B1868704700BFB86C0020CF
:104FF80007490302CA6803F4E06322F4E06212047A
:10500800120C134343F0BF6343F40033CB60704783
:1050180000ED00E0154B30B5DC68C4F30224C4F1A0
:105028000703251D042B28BF0423062D4FF0FF3549
:1050380094BF0024033C05FA03F321EA0303A540C7
:1050480022EA0502A340002843EA0203ACBF00F1AC
:105058006040074A4FEA0313DBB2ABBF00F561407B
:1050680000F00F0080F80033135430BD00ED00E06D
:1050780014ED00E0002807DB01234109034A00F092
:105088001F00834042F82130704700BF00E100E074
:1050980000280CDB01220649430900F01F0082406A
:1050A800203341F82320BFF34F8FBFF36F8F704732
:1050B80000E100E00138B0F1807F0BD24FF0E0232F
:1050C800F021054A586182F82310002007229861D0
:1050D8001A6170470120704700ED00E0002808DBE6
:1050E80001224309034900F01F008240603341F860
:1050F8002320704700E100E0704708B5FFF7FCFF88
:1051080008BD704710B5044650B1437903F0FF025B
:1051180013B90271FFF7F5FF01230020637110BD79
:105128000120FCE710B5044640B10223037102F0E8
:105138000BFF002020616071207110BD0120FCE789
:10514800012310B558B1046801F01001226803FA70
:1051580001F122EA010222600371002010BD184605
:10516800FCE790F821200346022A06D00422826335
:105178000120002283F8202070470268C06B116864
:1051880021F00E011160116821F001011160012167
:105198001A6C01FA02F24260002083F82110E8E755
:1051A80008B590F82130022B03D004238363012033
:1051B80008BD03681A6822F00E021A601A6822F005
:1051C80001021A60284A934224D902F56272934276
:1051D80019D01432934218D01432934217D0143293
:1051E800934214BF4FF480334FF480531F4A5360E7
:1051F800012380F82130002380F82030436B03B16D
:1052080098470020D4E70123F0E71023EEE74FF496
:105218008073EBE716498B4216D014318B4215D0B8
:1052280014318B4214D014318B4214D014318B4278
:1052380014D014318B4214D0934214BF4FF48033EE
:105248004FF080730B4AD2E70123FBE71023F9E7FD
:105258004FF48073F6E74FF48053F3E74FF480334D
:10526800F0E74FF48013EDE78000024000040240AD
:105278000800024000000240114AD36813F01003EE
:1052880005D01049CB6943F00203CB611023D268E3
:10529800500706D50B4943F00403CA6942F00102DE
:1052A800CA61074AD169C90708D50648C16941F0EA
:1052B8000401C161D16921F00101D161D360704756
:1052C80000200240C06C0020064B186910F08000D6
:1052D80007D0054A5A6002F188325A601869C0F34B
:1052E800C01070470020024023016745034A002090
:1052F800136943F080031361704700BF0020024028
:1053080070B50546FFF76EFE0646114CE368D807F0
:1053180012D4E368990644BF2023E360E368DA0601
:1053280006D4E369DB0703D4E06810F0040007D073
:10533800FFF7A2FF012003E06B1CE7D00DB90320A3
:1053480070BDFFF74FFE801BA842DFD9F7E700BF0B
:10535800002002402DE9F84FDFF894A01F469AF884
:1053680018300546012B884691463FD001234CF260
:1053780050308AF81830FFF7C3FF90BB012D03D0D7
:10538800022D14BF0425022500263346DFF864B039
:105398003401C4F12001A4F1200207FA01F129FA2D
:1053A80004F4CAF81C300C4327FA02F21443DBF861
:1053B8001020A4B242F00102CBF810204CF2503079
:1053C80028F81640FFF79CFFDBF8102022F00102B6
:1053D800CBF8102028B90136F2B295424FF00003FD
:1053E800D6D800238AF81830BDE8F88F0220FBE7EA
:1053F800C06C0020002002400022064BDA61064BF8
:105408001A6942F002021A6158611A6942F04002B0
:105418001A617047C06C0020002002402DE9F0415D
:10542800264F05463B7E8846012B44D001243C7616
:1054380003684CF25030022B1AD1FFF761FF20B1FC
:10544800012000233B76BDE8F0811D4CF8612369FB
:105458004CF2503043F004032361236943F04003C6
:105468002361FFF74DFF236923F004032361E8E775
:10547800FFF746FF0028E3D14FF0FF33C8F80030AC
:105488002046AE680E4CD5E9023203EBC223B34284
:10549800D7D93046FFF7B0FF4CF25030FFF730FF56
:1054A800236923F00203236110B1C8F80060C8E73C
:1054B80006F50066E7E70220C5E700BFC06C0020DC
:1054C80000200240044A08B55169014202D05061E7
:1054D80002F0F8FD08BD00BF00040140F8B504461D
:1054E800E0B190F8913203F0FF021BB980F89022E6
:1054F80005F012F8032384F89132002325466371DE
:1055080055F8040B01F069FF95E80E00206801F0DA
:1055180054FF014628B1022384F891320125284618
:10552800F8BD206801F063FF0028F4D10246012786
:10553800267904F11003C1B28E4203F1280318D86A
:1055480000210A4604F5A873C8B2864203F128036D
:105558001BD895E80E00206801F04BFF054600288F
:10556800D9D101236073206884F8913202F001FADE
:10557800D5E743E9062203F8277C03F8281C03F83B
:10558800252C43F8102C0130D5E743E9062203F80F
:10559800272C03F8280C03F8252C43F8102C01318C
:1055A800D2E738B5044610B90125284638BD03238B
:1055B80080F89132006802F0C9F905460028F3D155
:1055C800204604F0FBFF84F89152EEE738B590F8D6
:1055D80090320446012B10D0012580F890520068C3
:1055E80001F0F2FE2946204600F020FE206802F075
:1055F800BEF9002084F8900238BD0220FCE710B5FF
:1056080090F890320446012B10D0012380F8903294
:10561800006801F0E2FE0021204600F007FE206845
:1056280002F0A7F9002084F8900210BD0220FCE7E0
:1056380010B590F890220446012A0AD0012241733D
:1056480080F89022006802F08CF9002084F890021B
:1056580010BD0220FCE700002DE9F04F044687B09A
:10566800006802F088F910F4004500F025844FF036
:105678002809C54E2068B0F84430190402D407B090
:10568800BDE8F08FB0F84470B9B217F00F0740F0DA
:10569800BF8011F0100126D103889BB2334043F438
:1056A80000430380B0F85030227C9BB203EBC20366
:1056B80000EB4303B3F80434626AC3F309031A44E2
:1056C800E3622046626204F096FF637B002BD1D030
:1056D800A26A002ACED1637B216843F08003A1F837
:1056E8004C306273C6E70588ABB215F4006521D06B
:1056F800B0F8503094F850219BB203EBC20300EB92
:105708004303B3F80C34B4F85621C3F30903C4F8BF
:105718006C3104F5267102F075FB22682046138867
:1057280023F070031B051B0D43F08003138004F066
:1057380053FF9FE71B049DD5038823F070031B05C7
:105748001B0D43F080030380B0F8503094F85021CB
:105758009BB203EBC20300EB4303B3F80C34C3F36F
:105768000903C4F86C318BB1D4F8641171B1B4F881
:10577800562102F047FBD4F86431D4F86C2129464D
:1057880013442046C4F8643104F02CFF21680A88C9
:10579800170593B23FF56EAF03F44053B3F5405F7E
:1057A8003FF468AFB1F8502001F20C4092B2835A2E
:1057B800D4F86051C3F309033E2D83521DD9835A8F
:1057C8006F09ED0608BF07F1FF379BB243EA87234D
:1057D8006FEA43436FEA53439BB283520B8823F427
:1057E800804323F070031B041B0C83F4405343F4E1
:1057F800004343F080030B803CE7835A002DE7D039
:1058080005F001079BB207EB550543EA8523E3E75B
:1058180030F8273019041FFA83F840F1F38030F884
:10582800273009FB074223F070031B051B0D43F0CB
:10583800800320F8273092F85C5192F85031D2F862
:10584800641100F5806E95B9B0F85050ADB20635C8
:1058580005EBC3033EF81350C5F30905002D00F00E
:10586800B6802B46B2F8562102F0CCFAAFE092F897
:105878005351022D40F08A8018F480450195B0F804
:1058880050504FEAC30BADB2D2F868C108F0400AD5
:105898005D443CD002353EF81550C5F30905654511
:1058A80014D94FF0000CC2F868C130F8232022F454
:1058B800804222F070021204120C82F4005242F468
:1058C800004242F0800220F8232006E0ACEB050CF1
:1058D800C2F868C1BCF1000FE7D0BAF1000F0DD0D3
:1058E80030F8232022F4E04222F070021204120C55
:1058F80042F4004242F0C00220F82320002D66D076
:10590800282202FB07422B46B2F85821ACE706359D
:105918003EF81550C5F30905654514D9DDF804C0EE
:10592800C2F868C130F8232022F4804222F07002C5
:105938001204120C82F4005242F4004242F0800237
:1059480020F8232006E0ACEB050CC2F868C1BCF1D6
:10595800000FE7D0BAF1000F0DD130F8232022F460
:10596800E04222F070021204120C42F4004242F0AB
:10597800C00220F8232055B3282202FB07422B46F9
:10598800B2F85A2170E700BF0F8FFFFF30F823509D
:1059980025F4E04525F070052D042D0C45F400454F
:1059A80045F0C00520F8235092F8505130F82530C2
:1059B800ED0013F4804FB0F850309BB22B4452D016
:1059C80002333EF81350C5F30905002D9BD109FB9E
:1059D80007F16318D3F86C212A44C3F86C21D3F873
:1059E80064212A44C3F86421D3F868211AB1D3F892
:1059F80060319D423FD209FB0743204693F850117E
:105A080004F0F0FD18F0800F3FF434AE206809FB75
:105A180007FC30F827309BB2334043F4004320F8AA
:105A2800273004EB0C03DA7C012A54D1002107FB50
:105A38000992A1501A7F82B318F040085A7C34D0DA
:105A480002BBB0F850201B7C92B21B0100F204404C
:105A580010441A5AC2F309021A521A5A92B242F45C
:105A680000421A5219E006333EF81350C5F30905EF
:105A7800002DACD083E701F5A8712068214401F01E
:105A880090FFBFE7012A08D1B0F850201B7C92B2E2
:105A980000F204401B0110441952282303FB07435A
:105AA800197C204604F0A7FDE4E53AB9B0F8502087
:105AB8001B7C92B21B0100F20C40C9E7012AECD111
:105AC800B0F850201B7C92B200F20C401B0110442D
