:020000040800F2
:1080000000C0002051AC000899AC000899AC0008F1
:1080100099AC000899AC000899AC00080000000079
:1080200000000000000000000000000099AC000803
:1080300099AC00080000000099AC000827970008E0
:1080400099AC000899AC000899AC000899AC0008FC
:1080500099AC000899AC0008159800081B98000816
:1080600021980008279800082D98000899AC00086E
:1080700099AC000899AC000899AC000899AC0008CC
:1080800099AC000899AC000899AC000899AC0008BC
:1080900099AC000899AC000899AC00083398000826
:1080A00099AC00081194000899AC000825940008C8
:1080B000299400083D9400085194000899AC0008E8
:1080C00099AC000899AC000899AC000899AC00087C
:1080D00099AC0008BDA50008D5A50008F1A50008C9
:1080E0005B98000899AC000899AC000899AC0008AE
:1080F000A194000899AC0008B594000899AC000858
:1081000099AC000899AC00086594000899AC000887
:108110000DA6000825A60008799400088D94000893
:1081200099AC000899AC000899AC000899AC00081B
:10813000000000000000000000000000000000003F
:10814000000000000000000000000000000000002F
:10815000000000000000000000000000000000001F
:10816000000000000000000000000000000000000F
:1081700000000000000000000000000000000000FF
:1081800000000000000000000000000000000000EF
:1081900000000000000000000000000000000000DF
:1081A00000000000000000000000000000000000CF
:1081B00000000000000000000000000000000000BF
:1081C00000000000000000000000000000000000AF
:1081D000000000000000000000000000000000009F
:0481E0005FF8E0F173
:1081E400034613F8012B002AFBD1181A01387047F3
:1081F40010B5054C237833B9044B13B10448AFF3DD
:1082040000800123237010BD8400002000000000C2
:10821400E8B1000808B5034B1BB103490348AFF3A9
:10822400008008BD0000000088000020E8B10008BC
:1082340072B64FF0E023024AC3F8082D704700BF1E
:1082440000800008062208B54FF4E131044802F02A
:1082540019FC01212D2002F01FFD62B608BD00BFEC
:108264001802002008B52D2002F0BAFDB0FA80F102
:108274002D20490902F07AFD0449054802F094FCD6
:10828400BDE808404FF4FA7002F0EABD00B20008FD
:10829400180200207047000038B50E4B05461A78C6
:1082A4004FF47A73B3FBF2F30B4A1068B0FBF3F0AC
:1082B40000F09CF8044658B90F2D09D80246294607
:1082C4004FF0FF3000F042F82046044B1D6038BDEB
:1082D4000120FCE7000000202C0000200400002006
:1082E400074A08B51368032043F01003136000F035
:1082F4001BF80020FFF7D0FFFFF7CCFF002008BDDC
:1083040000200240034A044B11681B780B4413609D
:10831400704700BFA000002000000020014B186837
:10832400704700BFA000002007490302CA6803F495
:10833400E06322F4E0621204120C134343F0BF63BF
:1083440043F40033CB60704700ED00E0154B30B5CB
:10835400DC68C4F30224C4F10703251D042B28BFE1
:108364000423062D4FF0FF3594BF0024033C05FA87
:1083740003F321EA0303A54022EA0502A3400028EF
:1083840043EA0203ACBF00F16040074A4FEA03131B
:10839400DBB2ABBF00F5614000F00F0080F80033A2
:1083A400135430BD00ED00E014ED00E0002807DBBD
:1083B40001234109034A00F01F00834042F82130A1
:1083C400704700BF00E100E000280CDB01220649F1
:1083D400430900F01F008240203341F82320BFF3FB
:1083E4004F8FBFF36F8F704700E100E00138B0F1A9
:1083F400807F0BD24FF0E023F021054A586182F8C8
:1084040023100020072298611A61704701207047E9
:1084140000ED00E0002808DB01224309034900F0D5
:108424001F008240603341F82320704700E100E0E0
:10843400704708B5FFF7FCFF08BD704710B5044648
:1084440050B1437903F0FF0213B90271FFF7F5FF4E
:1084540001230020637110BD0120FCE710B5044620
:1084640040B10223037101F001F900202061607121
:10847400207110BD0120FCE7012310B558B1046838
:1084840001F01001226803FA01F122EA01022260DC
:108494000371002010BD1846FCE790F82120034624
:1084A400022A06D0042282630120002283F82020BD
:1084B40070470268C06B116821F00E0111601168E9
:1084C40021F00101116001211A6C01FA02F24260EB
:1084D400002083F82110E8E708B590F82130022B3A
:1084E40003D004238363012008BD03681A6822F0C3
:1084F4000E021A601A6822F001021A60284A934296
:1085040024D902F56272934219D01432934218D0DE
:108514001432934217D01432934214BF4FF4803371
:108524004FF480531F4A5360012380F82130002305
:1085340080F82030436B03B198470020D4E701232F
:10854400F0E71023EEE74FF48073EBE716498B4214
:1085540016D014318B4215D014318B4214D01431FF
:108564008B4214D014318B4214D014318B4214D06A
:10857400934214BF4FF480334FF080730B4AD2E719
:108584000123FBE71023F9E74FF48073F6E74FF478
:108594008053F3E74FF48033F0E74FF48013EDE7B3
:1085A4008000024000040240080002400000024033
:1085B400044A08B55169014202D0506101F012F930
:1085C40008BD00BF000401402DE9F341054638B35E
:1085D4000368DB0710D42B689F075ED42B68190748
:1085E40000F195802B685A0700F1C180EB69002BDC
:1085F40040F02C81002029E0904C636803F00C03C8
:10860400042B07D0636803F00C03082B0AD16368BA
:10861400DE0307D523689C03DDD56B68002BDAD114
:10862400012013E06B68B3F5803F12D1236843F453
:1086340080332360FFF772FE064623689803CAD48A
:10864400FFF76CFE801B6428F7D9032002B0BDE855
:10865400F0819BB9236823F480332360236823F4D7
:1086640080232360FFF75AFE064623689903B2D598
:10867400FFF754FE801B6428F7D9E6E7B3F5A02F73
:10868400236803D143F480232360CFE723F48033AA
:108694002360236823F48023CBE7684C636813F0DA
:1086A4000C0F07D0636803F00C03082B10D1636828
:1086B400DA030DD423689B0702D52B69012BAFD1B4
:1086C40023686A6923F0F80343EAC203236085E759
:1086D4002A695B4B6AB101221A60FFF71FFE064646
:1086E40023689F07ECD4FFF719FE801B0228F7D9F3
:1086F400ABE71A60FFF712FE0646236898077FF57A
:108704006DAFFFF70BFE801B0228F6D99DE7AA691F
:108714004A4E4B4BE2B10122C3F88024FFF7FEFD21
:108724000446736A9B070DD54FF4FA52454B1B68F8
:10873400B3FBF2F3019300BF019B5A1E0192002B7D
:10874400F9D14FE7FFF7EAFD001B0228E9D97CE7DE
:10875400C3F88024FFF7E2FD0446736A9F077FF5A0
:1087640041AFFFF7DBFD001B0228F6D96DE7334C60
:10877400E369D80024D40127E36943F08053E3611B
:10878400E36903F080530093009B2F4E3368D905AF
:1087940018D5EB68012B26D1236A43F00103236229
:1087A400FFF7BCFD41F288380646236A9B073FD594
:1087B400002F3FF41BAFE36923F08053E36115E717
:1087C4000027E2E7336843F480733360FFF7A6FDC4
:1087D40080463368DA05DCD4FFF7A0FDA0EB08007F
:1087E4006428F6D931E7ABB9236A41F2883823F01B
:1087F40001032362236A23F004032362FFF78EFD3F
:108804000646236A9807D3D5FFF788FD801B4045A9
:10881400F7D91AE7052B236A03D143F00403236233
:10882400BAE723F001032362236A23F00403B6E7C3
:10883400FFF774FD801B4045B7D906E700100240DE
:10884400000042422C000020007000402A4C626864
:1088540002F00C02082A3ED00022022B274B1A6693
:108864002CD1FFF75BFD06462368990120D42B6ABF
:10887400B3F5803F05D16268A96822F400320A4347
:108884006260696A62680B4322F474121343012222
:1088940063601A4B1A66FFF741FD054623689A0187
:1088A4003FF5A8AEFFF73AFD401B0228F6D9CCE607
:1088B400FFF734FD801B0228D6D9C6E6FFF72EFD4C
:1088C400054623689B017FF595AEFFF727FD401B06
:1088D4000228F6D9B9E6012B3FF4A2AE60682B6AF0
:1088E40000F480329A427FF49BAE6B6A00F47010FD
:1088F400C01A18BF0120A9E600100240000042423D
:108904000D4A536803F00C01082912D10B48C3F334
:108914008341DB03405C09D55368094AC3F34043F0
:108924005043084AD35CB0FBF3F07047064B5843FE
:1089340070470348704700BF001002401EB2000891
:1089440000127A001CB2000800093D002DE9F04134
:108954000D46044610B90120BDE8F081444A13686D
:1089640003F007038B4228D321688E0730D4CA074B
:1089740043D43F4A136803F00703AB4265D8226827
:108984003C4D12F0040F6CD1130706D56B682269B5
:1089940023F4605343EAC2036B60FFF7B1FF6B68D3
:1089A400354AC3F30313D35CD840344B1860344BBB
:1089B4001868FFF771FC0020CEE7136823F0070363
:1089C4000B431360136803F007038B42C3D1CBE757
:1089D400284B11F0040F1EBF5A6842F4E0625A603B
:1089E400080742BF5A6842F460525A605A68A06845
:1089F40022F0F00202435A60B9E762681D4E012A70
:108A040033681AD113F4003FA5D0736841F2883853
:108A140023F0030313437360FFF780FC0746736876
:108A2400626803F00C03B3EB820FA2D0FFF776FC6D
:108A3400C01B4045F3D903208EE7022A02D113F06C
:108A4400007FE1E713F0020FDEE7136823F007036A
:108A54002B431360136803F00703AB427FF47BAF2F
:108A64008DE76B68E16823F4E0630B436B608BE78D
:108A7400002002400010024078B200082C000020C0
:108A840004000020044B054A5B68C3F30223D35C53
:108A9400034A1068D84070470010024070B20008C2
:108AA4002C000020044B054A5B68C3F3C223D35C4B
:108AB400034A1068D84070470010024070B20008A2
:108AC4002C00002070477047036870B5DD681E698C
:108AD4000446B1070DD5AA070BD56FF002021A613F
:108AE400012202779B699B0769D000F036FD0023C1
:108AF4002377710710D56A070ED56FF00402236837
:108B040020461A61022222779B6913F4407F5CD0CD
:108B140000F023FD0023237733070FD528070DD555
:108B24006FF00802236820461A6104222277DB6969
:108B3400990750D000F011FD00232377F20610D5D9
:108B4400EB060ED56FF01002236820461A61082246
:108B54002277DB6913F4407F43D000F0FEFC00234E
:108B64002377F00708D5E90706D56FF001022368DB
:108B740020461A6100F0CEFC320608D52B0606D535
:108B84006FF08002236820461A6100F09CF870069A
:108B940008D5690606D56FF04002236820461A619D
:108BA400FFF791FFB20622D5AB0620D56FF0200265
:108BB40023682046BDE870401A6100F083B800F0D5
:108BC400CAFC2046FFF77EFF91E700F0C4FC204674
:108BD400FFF778FF9EE700F0BEFC2046FFF772FF28
:108BE400AAE700F0B8FC2046FFF76CFFB7E770BDBA
:108BF4001D4A0368904212D002F5006290420ED0E2
:108C0400B0F1804F0BD0A2F59832904207D002F514
:108C14008062904203D002F58062904207D14A6894
:108C240023F070031343CA6823F4407313434A695F
:108C340023F08003134303608B68C3620B68836271
:108C4400094B984203D003F50063984201D10B69A4
:108C54000363012343610369DB0742BF036923F014
:108C640001030361704700BF002C014010B50446A6
:108C740030B390F83D3003F0FF021BB980F83C207C
:108C840001F076FA0223206884F83D30211DFFF7B5
:108C9400AFFF0123002084F8463084F83E3084F886
:108CA4003F3084F8403084F8413084F8423084F80E
:108CB400433084F8443084F8453084F83D3010BDA6
:108CC4000120FCE770477047026802F10C0353E887
:108CD400003F23F490730C3242E80031026800290B
:108CE400F2D102F1140353E8003F23F0010302F12F
:108CF400140C4CE800310029F3D1036B012B0BD188
:108D040002F10C0353E8003F23F0100302F10C0CB2
:108D14004CE800310029F3D1202380F842300023AD
:108D24000363704710B504460368C1681A6922F4E6
:108D340040520A431A6182680069D9680243606933
:108D440021F4B05121F00C0102430A43DA605A695C
:108D5400A16922F440720A435A610E4A934215D122
:108D6400FFF7A0FE19234343626820689200B3FB17
:108D7400F2F36422B3FBF2F102FB11331B01323331
:108D8400B3FBF2F303EB0113836010BDFFF77AFE2C
:108D9400E8E700BF00380140704710B5044648B307
:108DA40090F8413003F0FF021BB980F84020FFF730
:108DB400F3FF2423226884F84130D368204623F447
:108DC4000053D360FFF7AEFF236800201A6922F432
:108DD40090421A615A6922F02A025A61DA6842F40E
:108DE4000052DA602023606484F8413084F8423011
:108DF400606310BD0120FCE710B5044668B390F829
:108E0400413003F0FF021BB980F84020FFF7C4FF94
:108E14002423226884F84130D368204623F4005385
:108E2400D360FFF77FFF236800201A6922F4904281
:108E34001A615A6922F022025A615A6942F0080200
:108E44005A61DA6842F40052DA602023606484F8DC
:108E5400413084F84230606310BD0120FCE790F893
:108E64004130202B10D189B182B1C2848284002385
:108E7400212201620168436480F84120CA681846CF
:108E840042F08002CA607047022070470120704798
:108E940008B50023406AC385C38401F04FFB08BDB5
:108EA400704790F8423007B5222B42D1816802689E
:108EB400B1F5805F836A3FD1016900293FD15268CF
:108EC400C2F3080223F8022B8362C38D013B9BB2D9
:108ED400C385002B2DD10268D16821F02001D16017
:108EE400D16821F48071D160516921F0010151618F
:108EF400202280F842204363026B012A026828D1B1
:108F0400036302F10C0353E8003F23F0100302F162
:108F14000C0C4CE800310029F3D11368DB0605D5AD
:108F240001911368019353680193019B818DFFF7AD
:108F3400B7FF03B05DF804FB39B9016929B9526878
:108F4400D2B21A70836A0133BEE7526802F07F021C
:108F5400F7E701F0EDFAECE7036873B51A68044625
:108F64001607D9685D6908D1960668D58D0666D559
:108F740002B0BDE87040FFF794BF05F0010001F4B2
:108F8400907505435BD0D60705D5CD0542BF636C0C
:108F940043F001036364530704D518B1636C43F0D1
:108FA40002036364960704D518B1636C43F00403A9
:108FB4006364150707D501F0200303431EBF636CE8
:108FC40043F008036364636C002B32D0920604D52B
:108FD4008B0602D52046FFF764FF26682046736996
:108FE400626C03F0400302F0080253EA020522D047
:108FF400FFF76AFE73695E0618D5226802F114034E
:1090040053E8003F23F04003143242E800310029C2
:10901400F3D1E06B50B1744B4363FFF75DFA40B199
:10902400E06B436B02B0BDE870401847204601F086
:1090340085FA02B070BD01F081FA6564F9E7206B2E
:10904400012840F09480D50640F19180C80640F193
:109054008E80002201921A6801925A680192019A44
:109064005A6952064DD5E16B0A68526892B2002AD9
:10907400DFD0A08D9042DCD9E2858A69202A36D0DF
:1090840003F10C0252E8002F22F4807203F10C0069
:1090940040E800210029F3D103F1140252E8002F23
:1090A40022F0010203F1140040E800210029F3D169
:1090B40003F1140252E8002F22F0400203F11400DD
:1090C40040E800210029F3D1202284F842202163C2
:1090D40003F10C0252E8002F22F0100203F10C00FD
:1090E40040E800210029F3D1E06BFFF7D6F9022311
:1090F4006363E38DA18DC91A89B22046FFF7D0FEC0
:1091040097E7E28DE18D92B289B2002991D0A18DC9
:10911400891A89B200298CD003F10C0252E8002F7D
:1091240022F4907203F10C0545E800200028F3D1E5
:1091340003F1140252E8002F22F0010203F1140596
:1091440045E800200028F3D1202284F8422020633F
:1091540003F10C0252E8002F22F0100203F10C0577
:1091640045E800200028F3D102236363C5E716060F
:1091740028D50D0626D594F84120212A7FF459AF2D
:10918400A168226AB1F5805F17D12169A9B932F8C3
:10919400021BC1F3080159602262E28C013A92B2C7
:1091A400E284002A7FF445AFDA6822F08002DA60B4
:1091B400DA6842F04002DA603BE7511C216212781F
:1091C4005A60EAE750067FF534AF4A067FF531AFBF
:1091D400DA68204622F04002DA60202384F8413025
:1091E40001F0A9F925E700BF958E000890F84030FA
:1091F400012B11D02423026880F84130D36823F076
:109204000C0343F00803D360202380F8413000238B
:1092140080F84030184670470220704790F840307C
:10922400012B11D02423026880F84130D36823F045
:109234000C0343F00403D360202380F8413000235F
:1092440080F84030184670470220704790F841205B
:1092540090F84200104370470023C28543642223E0
:109264008285026980F84230816203681AB1DA6843
:1092740042F48072DA605A69002042F001025A61B5
:10928400DA6842F02002DA60704770B590F8426004
:10929400202E07D141B13AB100240463FFF7DCFF6B
:1092A400204670BD0220FCE70120FAE7836810B570
:1092B40004462BB10322014698470023C4E9023334
:1092C40010BD836810B5044613B1032201469847C4
:1092D400204610BD1B4B984221D0B0F1804F20D0C6
:1092E400A3F5943398421ED003F5806398421CD0B2
:1092F40003F5806398421AD003F58063984218D02E
:1093040003F58063984216D003F59033984214D045
:109314004FF6FF734FF6FF72934210D1FEE700231E
:10932400F8E70120704702207047032070470420AB
:1093340070470520704706207047072070470020BB
:10934400704700BF002C0140014670B5044651F837
:10935400100FFFF7BFFF0546084600F039FE002353
:10936400084A04F1600642F82530E36004F1B005D0
:10937400B54204D0103D2846FFF7A3FFF8E7204686
:1093840070BD00BFA4000020F8B504460846FFF7EE
:10939400A1FF236903B1FEE71B4D04F10C0245F85C
:1093A40020200E2204F110063046C4E90C33C4E92F
:1093B4000E33C4E91033C4E91623216184F82C3038
:1093C400A36484F84C3084F84D30E46000F07EFDF2
:1093D40004F1600504F1B00728461035FFF766FF75
:1093E400BD42F9D100234FF6FF72C4E90033C4E94A
:1093F4000632C4E90833A360636180233046A36264
:10940400BDE8F840FFF732BCA4000020034B186805
:1094140010B10430FFF758BB704700BFA400002010
:10942400FFF7F4BF034B586810B10430FFF74CBB8F
:10943400704700BFA4000020034B986810B10430AB
:10944400FFF742BB704700BFA4000020034BD8685D
:1094540010B10430FFF738BB704700BFA4000020F0
:10946400034B186910B10430FFF72EBB704700BFDF
:10947400A4000020034B586910B10430FFF724BB4B
:10948400704700BFA4000020034B986910B104305A
:10949400FFF71ABB704700BFA4000020034BD86934
:1094A40010B10430FFF710BB704700BFA4000020C8
:1094B400FFF7F4BF0022C0E90022C0E9022270478E
:1094C400F8B504460E4600F1600500F1B0072846E1
:1094D4001035FFF7EFFFBD42F9D100232046314696
:1094E4002361FFF751FF2046F8BD826810B50AB921
:1094F40001F074FEC368BDE81040184708B500B910
:10950400FEE700F0E1FC0068836E13B16030FFF702
:10951400ECFF08BDFFF7F2BF10B500B9FEE7037F0B
:10952400013B072B10D8DFE803F004140F100F0FD2
:109534000F12012400F0C8FC0068063400EB04108C
:1095440083680BB1FFF7D1FF10BD0324F2E70424B5
:10955400F0E70224EEE7FFF7DFBFFFF7DDBF01F01E
:109564009FBC01F0A5BC000088B006285AD8DFE8EB
:1095740000F004111D2935414D002B4B2B489A69ED
:1095840042F004029A619B6903F004030193019B76
:1095940008B07047244B26489A6942F008029A6141
:1095A4009B6903F008030293029BF1E71E4B2148D9
:1095B4009A6942F010029A619B6903F010030393C5
:1095C400039BE5E7184B1C489A6942F020029A6114
:1095D4009B6903F020030493049BD9E7124B1748BB
:1095E4009A6942F040029A619B6903F04003059333
:1095F400059BCDE70C4B12489A6942F080029A61B0
:109604009B6903F080030693069BC1E7064B0D4854
:109614009A6942F480729A619B6903F48073079398
:10962400079BB5E70020B3E70010024000080140A3
:10963400000C0140001001400014014000180140DA
:10964400001C01400020014008B5074900F006FC59
:10965400C0F3C430012802D0022802D0FEE7002063
:1096640008BD1020FCE700BF78B600080268094B6B
:109674009A420DD103F5CE331A6942F000521A61B1
:109684001A6922F000521A61DA6922F00052DA6192
:10969400704700BF0074004010B5094986B0044605
:1096A40000F0BAFB019048B12046FFF7CDFF014618
:1096B40001A8FEF7E1FE01A8FEF7D0FE06B010BD3A
:1096C40078B60008F8B51349064600F0A5FBFFF785
:1096D40001FE114F054657F8203073B9B020FFF74B
:1096E4003EFF0C490446304600F096FB01462046F6
:1096F400FFF7E6FE57F825301C601C6844B120468D
:10970400FFF722FE2046BDE8F840B021FFF729BF4D
:10971400F8BD00BFC0B30008A4000020FEF7FEBDE2
:10972400704708B5FEF7EEFDFEF783FEFFF7F8FF7E
:1097340008BD70470F4B84B0DA6942F08052DA6199
:10974400DA6902F080520192019A9A6942F00102A8
:109754009A619A6902F001020292029A5A6942F0ED
:1097640040025A615B6903F040030393039B04B016
:10977400704700BF001002400C4BD3F8FC20D2010C
:109784005EBFD3F8FC2042F08072C3F8FC200022B4
:10979400074B5A601A6842F001021A6000BF00BF0A
:1097A40000BF5868B0FA80F04009704700ED00E04F
:1097B400001000E008B5FFF7BDFFFFF7DDFFFEF77F
:1097C4008FFDFFF7B6FF00F061FFBDE808400148D8
:1097D400FEF734BE240000200023C0E90033C0E9B2
:1097E400023370470023012803F101020AD1142235
:1097F400DBB25343054A181D1044816829B11A4449
:109804001369184713464008EDE77047C400002069
:109814000120FEF7CDBE0220FEF7CABE0420FEF7EB
:10982400C7BE0820FEF7C4BE1020FEF7C1BE08B5AF
:109834002020FEF7BDFE4020FEF7BAFE8020FEF792
:10984400B7FE4FF48070FEF7B3FEBDE808404FF456
:109854000070FEF7ADBE38B506244FF48065A8B29B
:10986400FEF7A6FE013C4FEA4505F8D138BD0000DD
:10987400344A08B51046062300F8043BFFF7ACFF52
:10988400072302F118001375FFF7A6FF082302F15E
:109894002C0082F82830FFF79FFF092302F14000D3
:1098A40082F83C30FFF798FF0A23172102F1540095
:1098B40082F85030FFF790FF02F1680082F86410DC
:1098C400FFF78AFF02F17C0082F87810FFF784FF2B
:1098D40002F1900082F88C10FFF77EFF02F1A400E1
:1098E40082F8A010FFF778FF82F8B410282102F163
:1098F400B800FFF771FF02F1CC0082F8C810FFF73F
:109904006BFF02F1E00082F8DC10FFF765FF02F163
:10991400F40082F8F010FFF75FFF02F5847082F81C
:109924000411FFF759FF02F58E7082F81811FFF742
:1099340053FFBDE8084002F5987082F82C11FFF738
:109944004BBF00BFC400002038B5054CA4F5A0757A
:10995400143C201DFFF7B5FCAC42F9D138BD00BF63
:1099640004020020A04B82B09A69013842F001023F
:109974009A619B6903F001030193019B2B2834D85E
:10998400DFE810F02C0035003C00430048004F0095
:1099940054005B0060006700700075007C00850067
:1099A4008A0091009A00A300A800AF00B800BD008F
:1099B400C400330033003300C900D000D500DC00FC
:1099C400E100E800ED00F400F900FE0003010801E5
:1099D4000D0112011901200127012D01834A536849
:1099E40043F0E06343F00103536002B070477F4AE1
:1099F400536823F0010343F0E063F5E77B4A5368BF
:109A040043F0E06343F00203EEE7784A536823F03F
:109A14000203F0E7754A536843F0E06343F004033C
:109A2400E2E7724A536823F00403E4E76F4A536899
:109A340043F0E06343F00803D6E76C4A536823F02D
:109A44000803D8E7694A536843F0E06343F03003FE
:109A5400CAE7664A536823F0300343F0E06343F0F7
:109A64001003C1E7614A536823F03003C3E75F4A38
:109A7400536843F0E06343F0C003B5E75B4A5368BF
:109A840023F0C00343F0E06343F04003ACE7574ADC
:109A9400536823F0C003AEE7544A536843F0E063CD
:109AA40043F44073A0E7514A536823F4407343F0EE
:109AB400E06343F4007397E74C4A536823F440731C
:109AC40043F0E06343F480738EE7484A536823F419
:109AD400407390E7454A536843F0E06343F44063BE
:109AE40082E7424A536823F4406343F0E06343F45B
:109AF400006379E73D4A536823F440637BE73B4ABC
:109B0400536843F0E06343F480536DE7374A536886
:109B140023F480536FE7354A536843F0E06343F41A
:109B2400004361E7314A536823F4004363E72F4A53
:109B3400536843F0E06343F4803355E72B4A53689A
:109B440023F4803357E7294A536843F0E06343F42E
:109B5400003349E7254A536823F400334BE7234A8B
:109B6400536843F0E06343F480233DE71F4A53689E
:109B740023F480233FE71D4A536843F0E16333E74E
:109B84001A4A536823F4002335E7184A536843F00C
:109B9400E26329E7154A536823F480132BE7134A39
:109BA400536823F0E0631FE7104A536823F0E0632F
:109BB40043F0807318E70D4A536823F0E06343F0E1
:109BC400007311E7094A536823F0E06343F08063AC
:109BD4000AE7064AD36943F48063D36105E7034A7D
:109BE400D36923F48063F8E70010024000000140C9
:109BF40091FAA1F3B3FA83F370B50D0E0F2691FA1F
:109C0400A1F1B1FA81F144599B0006FA03F38900EA
:109C140024EA03048A402243425170BD91FAA1F31D
:109C2400B3FA83F370B50D0E042691FAA1F1B1FADB
:109C340081F144599B0006FA03F3890024EA0304E2
:109C44008A402243425170BD431C04D00C3151F868
:109C54000C3C5A1C01D100207047834201F10C01D5
:109C6400F5D1012070470000431C2DE9F34106465D
:109C74000F4600D1FEE7594B00F00F02C0F303106A
:109C840001F0070853F82240FFF76EFCB8F1010F0A
:109C9400054615D194FAA4F3B3FA83F30321200EF5
:109CA4002A589B0001FA03F322EA030294FAA4F36C
:109CB400B3FA83F39B00994011432950012213E026
:109CC400C7F30620B8F1030F0AD801A353F828F00C
:109CD400E79C0008C19C00084B9D0008599D0008A2
:109CE400FEE7FFF73FFE08222146284608F1FF3829
:109CF400FFF77EFFB8F1010F06D817F0080218BF6E
:109D040004222146FFF78AFF94FAA4F2230EB2FA42
:109D140082F2E9580F239200934094FAA4F2B2FA23
:109D240082F2C7F301170B409200012F23FA02F3CA
:109D340012D0022F3BD0082B21D1042221462846E1
:109D4400FFF756FF1BE07F2801D10922CCE7FFF77C
:109D540009FEFAE70022C7E7042B04D108222146B2
:109D64002846FFF745FF230A93FAA3F3B3FA83F2D5
:109D74000123E968934021EA14210B43EB60184B5B
:109D84009A6942F001029A619B6903F0010301930D
:109D9400019BA6F10D03012B14D8124A536823F03A
:109DA400E06343F08063536002B0BDE8F081042BAC
:109DB40004D1082221462846FFF71AFFEB6823EA5C
:109DC4001423DBE70F2E02D0133E012EECD8054AF4
:109DD400536823F0E06343F00073E4E730B2000813
:109DE4000010024000000140431C06D1704783422A
:109DF40002D18968FFF738BF0C310B685A1CF6D1C1
:109E0400FEE70B685A1C01D100207047834201D140
:109E1400486870470C31F4E7431C01D0FFF7F1BFE9
:109E2400002070474B6813B94FF0FF3070478342EE
:109E340001D1086870470C31F4E708B1FFF7F2BFAD
:109E44004FF0FF30704703460868421C00D170474A
:109E5400984201D1886870470C31F5E7431C01D062
:109E6400FFF7F1BF704703468B42084604D01BB18D
:109E740000290CBF18460020704700000F4B1A68D9
:109E840042F001021A6059680D4A0A405A601A6881
:109E940022F0847222F480321A601A6822F480223A
:109EA4001A605A6822F4FE025A604FF41F029A6044
:109EB4004FF00062034B9A60704700BF00100240ED
:109EC4000000FFF800ED00E0043870470368384AEA
:109ED40088B0934218D102F56442916941F400615B
:109EE4009161926902F400620092009A314A9342AD
:109EF40017D1314BDA6942F01002DA61DB6903F001
:109F040010030593059B43E0B3F1804F17D12A4A10
:109F1400D16941F00101D161D26902F001020192DB
:109F2400019A264A934218D1234BDA6942F020025F
:109F3400DA61DB6903F020030693069B28E0204ADC
:109F4400934218D102F50332D16941F00201D16183
:109F5400D26902F002020292029A1A4A934217D17B
:109F6400154B9A6942F400529A619B6903F40053B9
:109F74000793079B0CE0144A93420BD10E4BDA690A
:109F840042F00402DA61DB6903F004030393039BE8
:109F940008B070470D4A9342A8D1074BDA6942F0E2
:109FA4000802DA61DB6903F008030493049BEFE71A
:109FB400002C01400010004000100240001400403A
:109FC400000400400034014000080040000C004040
:109FD4000368234A93420DD122498A6922F400621C
:109FE4008A61214A93420DD102F50032D36923F0EC
:109FF40010032AE0B3F1804F0DD11A49CA6922F047
:10A004000102CA61194A93420DD102F5FE32D369A5
:10A0140023F0200319E0164A93420ED11149CA696C
:10A0240022F00202CA61134A934201BF02F55C4264
:10A03400936923F40053936170470F4A934206D106
:10A0440002F50232D36923F00403D36170470B4A4B
:10A054009342C6D102F50132D36923F00803F4E731
:10A06400002C014000100240001000400014004089
:10A07400000400400034014000080040000C00408F
:10A08400431C21D0194B984221D010D8A3F500636A
:10A0940098421ED007D8B0F1804F1CD0A3F580633E
:10A0A40098421AD0FEE7124B984218D0FAE7114BA7
:10A0B400984216D003F50063984214D0A3F5903368
:10A0C4009842EFD1372070476FF00D00704736206B
:10A0D40070471E2070471C2070471D207047322097
:10A0E4007047192070472C20704700BF00100040B3
:10A0F400000C0040002C0140431C21D0194B984215
:10A1040021D010D8A3F5006398421ED007D8B0F12F
:10A11400804F1CD0A3F5806398421AD0FEE7124BFF
:10A12400984218D0FAE7114B984216D003F5006311
:10A13400984214D0A3F590339842EFD1372070475A
:10A144006FF00D007047362070471E2070471C20AA
:10A1540070471D207047322070471B2070472E2007
:10A16400704700BF00100040000C0040002C01406C
:10A1740038B50446FFF7AAFE0068FFF781FFD4E96B
:10A184001212FEF7E3F82068FFF77AFFFEF70EF9E4
:10A1940022681046FFF7B0FF05461046FFF770FF30
:10A1A40085420BD0D4E912122846FEF7CFF8206876
:10A1B400FFF7A2FFBDE83840FEF7F8B838BD00004D
:10A1C4002DE9F04F8B4692469946044687B018B95C
:10A1D400002007B0BDE8F08F7D49406DFFF71CFEFD
:10A1E4007C490646A06DFFF717FE7B490746E06DE4
:10A1F400FFF712FE79490546206EFFF70DFE8046F3
:10A20400002EE5D0A36D013301D0002FE0D0E36D23
:10A21400013301D0002DDBD0236E013302D0B8F11D
:10A22400000FD5D030463946FFF71DFE06462060A4
:10A2340020B90146FFF717FE06462060294630463E
:10A24400FFF711FE41462060FFF70DFE2060002855
:10A25400BED0634B984252D103F55843DA6842F4B6
:10A264008042DA60DA6822F48042DA609A6942F461
:10A2740080429A619B69002203F480430193019B0D
:10A2840025235349606D84F8652084F86430FFF712
:10A29400ABFD1FB14F49A06DFFF7A6FD2DB14E498F
:10A2A400E06DFFF7A1FD4FF48075B8F1000F05D004
:10A2B4004A49206E45F40075FFF796FD94F8652031
:10A2C400484B261D43F8226023680022C4E9013B61
:10A2D400109B94F96400C4E904390C230121C4E9F6
:10A2E4000635C4F80CA02262FEF730F83046002F81
:10A2F4006AD1FEF781FDB0FA80F0400969E73A4B74
:10A30400984215D103F5E6331A6942F400321A6112
:10A314001A6922F400321A61DA6942F40032DA610D
:10A32400DB69012203F400330293029B2623A8E78E
:10A334002E4B984215D103F5E4331A6942F4802276
:10A344001A611A6922F480221A61DA6942F48022BD
:10A35400DA61DB69022203F480230393039B27233E
:10A364008FE7234B984215D103F5E2331A6942F47F
:10A3740000221A611A6922F400221A61DA6942F48D
:10A384000022DA61DB69032203F400230493049BB3
:10A39400342376E7174B98427FF41AAF03F5E03382
:10A3A4001A6942F480121A611A6922F480121A613D
:10A3B400DA6942F48012DA61DB69042203F480135F
:10A3C4000593059B35235CE7FEF7E7FC93E700BFA5
:10A3D40060B3000800B30008C4B2000888B20008E3
:10A3E40000380140040200200044004000480040BE
:10A3F400004C00400050004008B5074B90F8652021
:10A4040053F82200FEF722FF00F02200A0F12203FD
:10A414005842584108BD00BF0402002008B5074B4C
:10A4240090F8652053F82200FEF710FF00F0210099
:10A43400A0F121035842584108BD00BF0402002086
:10A4440070B50E46054610B94FF0FF3070BDFFF7EA
:10A45400D3FF04460028F7D1294611F8663F0122AC
:10A46400337095F86500034B53F82000FEF70DFF99
:10A474002046EBE70402002038B50D460446B8B187
:10A48400FFF7BAFFA0B994F96400E564FDF79CFFF7
:10A4940094F86500074B04F1660153F8200001228B
:10A4A400FEF7F3FE94F96400BDE83840FDF77EBF83
:10A4B40038BD00BF0402002038B515460446B8B1C3
:10A4C400016590F96400FDF77FFFB4F87630E16E22
:10A4D4009BB294F865001944064BAAB253F82000C5
:10A4E400FEF7BDFC94F96400BDE83840FDF75EBF9B
:10A4F40038BD00BF0402002048B1836D013306D18A
:10A5040090F86520024B53F82200FEF76FBE7047A7
:10A514000402002048B1836D013306D190F8652010
:10A52400024B53F82200FEF779BE70470402002064
:10A53400836C04381847C36C0438184730B5044694
:10A5440050F8043985B01D6815F0010512D00022B9
:10A5540000921A6800925B680093009BFFF74CFF1F
:10A5640040BB0122204604F1620105B0BDE8304041
:10A57400FEF78BBE196811F0020106D001951A6826
:10A5840001925B680193019BE8E71A6812F00402E8
:10A5940006D002911A6802925B680293029BDDE77F
:10A5A40019680907DAD503921A6803925B68039362
:10A5B400039BD3E705B030BD08B52520FDF72AFF7E
:10A5C400024B1868BDE80840FEF7C6BC0402002030
:10A5D400262008B5FDF71EFF034B586818B1BDE8E7
:10A5E4000840FEF7B9BC08BD04020020272008B5C6
:10A5F400FDF710FF034B986818B1BDE80840FEF75B
:10A60400ABBC08BD0402002008B53420FDF702FFEE
:10A61400024BD868BDE80840FEF79EBC0402002047
:10A6240008B53520FDF7F6FE024B1869BDE8084071
:10A63400FEF792BC0402002003460A4910B50868DC
:10A644000344EFF30882934205D90C224FF0FF3004
:10A65400054B1A6010BD054A054C121B9342F4D2F7
:10A664000B60F7E7300000208C04002000C00020BD
:10A6740000040000FEE700001622024B4FF0FF30FA
:10A684001A6070478C0400200120704710B590B008
:10A694002022002107A800F0C1FC1422002101A8F7
:10A6A40000F0BCFC102301220224CDE90A234FF45C
:10A6B400601306A806940D940F93FDF785FF00B16F
:10A6C400FEE70F23CDE901344FF480630390CDE915
:10A6D4000430214601A8FEF739F900B1FEE710B0B5
:10A6E40010BDB0F80831B0F80421981A00F03F000A
:10A6F4007047B0F80831B0F804219BB293421ABFF6
:10A70400D0F8FC30985C4FF0FF30704790F8063179
:10A71400B0F80A01C0B2834227BFC3F13F03C01897
:10A72400C01A00F1FF30704707B503688DF80710B1
:10A7340001225B680DF10701984703B05DF804FB43
:10A7440013B50DF107010446FFF77AFE88B9B4F892
:10A754007430B4F87020013303F03F03934208D0FF
:10A76400B4F874209DF80700A16E92B28854A4F83E
:10A77400743002B010BD0000B0F87610826F10B5CE
:10A784000A4402F03F02A0F87620B0F87610B0F840
:10A79400722089B28A421AD0B0F876404032A4B20C
:10A7A400B0F87610121B544289B204F03F0402F050
:10A7B4003F02C1F1400158BF62428A4228BF0A46A3
:10A7C40004498267FFF778FE4FF0FF3010BD002088
:10A7D400FCE700BF7DA700082DE9F84303680446A1
:10A7E4009B6888461646984701232374D4F8EC30B6
:10A7F400B4F8067101338146C7F1400709D194F8D2
:10A80400113133B1002304F1940084F81131FFF7BE
:10A8140073FE236820469B6898470028F9D0354684
:10A82400BD4225D84D4523D8B4F80631D4F80001EB
:10A834005A19402A184430D82A46414600F02CFCC4
:10A844002F46B4F806311D4405F03F05A4F806511F
:10A8540004F194052846FFF7E1FD30B93A4628464D
:10A864001549C4F80C71FFF727FE3046BDE8F8839C
:10A874004F4528BF4F4623683A4641465B68204609
:10A884009847236820469B689847ED1BB844B4F862
:10A8940006718146C7F14007C2E7C3F140073A4653
:10A8A400414600F0F9FBD4F80001EA1B08EB07016C
:10A8B40000F0F2FBC5E700BF7DA70008C0F8F03048
:10A8C400009B914208BF4FF0FF31C0F8F43000F113
:10A8D4001403C0F8FC300023C0E93A2100F154020B
:10A8E400A0F80831C0E94023A0F80A317047037C7E
:10A8F40070B504460D46A3B1FDF710FD0646B4F845
:10A904000621B4F80A319BB29A420AD0002DF8D03D
:10A91400FDF704FD801B8542F1D8B4F80A31A4F890
:10A92400063170BD0021FFF7E2BF0000CBB2322B2D
:10A9340008D80E4A01F4E06152F823301943C0F8F4
:10A94400EC10704701F0C002C02A0CD1CF2B0AD8FA
:10A95400074B01F03F0253F82220044B01F4E0615D
:10A9640053F82230EAE74FF0FF31E8E7DCB600089D
:10A974009CB60008CBB2322B08D80E4A01F4E06131
:10A9840052F823301943C0F8E810704701F0C002B0
:10A99400C02A0CD1CF2B0AD8074B01F03F0253F841
:10A9A4002220044B01F4E06153F82230EAE74FF02F
:10A9B400FF31E8E7DCB600089CB6000873B54FF435
:10A9C4007A7316460022C0E901231D4B0446036036
:10A9D4004FF0FF33C0F8EC301A4B0D46984215D1B6
:10A9E400C321FFF7A3FFC221FFF7C4FF4FF0FF33DA
:10A9F400012E08BFC4F8EC3000932046D4E93A2174
:10AA04004FF0FF33FFF75AFF02B070BD0E4B0F49F2
:10AA14009A680F4B53F82200FFF7FEF9854202D1E2
:10AA2400C3212046DDE70B492846FFF706FA07490C
:10AA3400C4F8EC002846FFF700FAC4F8E800D5E7AC
:10AA4400B8B70008180200209CB6000860B30008DC
:10AA5400DCB6000800B30008D0F8EC3010B50133C0
:10AA640004460ED10368DB68984794F8113143B962
:10AA7400012304F1940084F81131BDE81040FFF77C
:10AA840049BD10BD7FB5144602F00703023BDBB29B
:10AA9400042B80F8122196BF1F4A0022D25C04F0D6
:10AAA4003003302B0546C0F8141107D14FF4C063AE
:10AAB4000132082A09D0092A24D0FEE714F0200321
:10AAC40025D04FF480630132F3E70022E87CC4F31D
:10AAD400C0040390A87C05F194060290687C64038A
:10AAE400019000943046FFF76BFB85F8100188B1A4
:10AAF4002846FFF7B1FF3046084904B0BDE870406E
:10AB0400FFF7BABC4FF48052E0E71A46DEE7082AA2
:10AB1400FBD0D2E704B070BDA8B7000845A7000871
:10AB240010B50446FFF798FFB4F80821B4F80431CF
:10AB340092B29A4217BFD4F8FC204FF0FF30D05C99
:10AB440001331CBF03F03F03A4F8043110BD00001F
:10AB5400002202490248FFF731BF00BF0044004011
:10AB64001802002070B505460C46084649B1FDF7A9
:10AB740037FB2B68024621462846BDE870405B68D7
:10AB8400184770BD08B50249FFF7ECFF08BD00BFC8
:10AB940019B2000838B50546FFF7E4FF0446284615
:10ABA400FFF7F0FF204438BDFFF7F4BF10B50446AB
:10ABB40000F054F9E060236820465B699847002858
:10ABC40008DA00F04BF9E368C01AA3689842F2D39C
:10ABD4004FF0FF3010BDF8B507460D460C468E18F1
:10ABE400B44201D1601BF8BD3846FFF7DFFF431CB8
:10ABF400F8D004F8010BF3E72DE9F0410746884645
:10AC040016461D4673B100243846FFF7CFFF431C98
:10AC140005D0404503D030550134A542F4D1204637
:10AC2400BDE8F0811C46FAE708B50320FDF77CFB7C
:10AC3400BDE8084000F030B908B5AFF30080FDF777
:10AC440001FBFDF70FFB00F019F9FAE7FFF716F91E
:10AC54000B480C490C4A002302E0D458C450043376
:10AC6400C4188C42F9D3094A094C002301E013604B
:10AC74000432A242FBD300F0E9F9FFF7DDFF70478D
:10AC8400000000208400002000B800088400002098
:10AC940094040020FEE70000C3B2322B2DE9F041FA
:10ACA4000D462AD82C4A00F4E06452F823301C43A1
:10ACB400621C4ED0294EC4F3031756F8273004F013
:10ACC4000F0823FA08F3DB0710D520462449FEF7C2
:10ACD400BBFF18B32046FEF7DFFC012256F82730ED
:10ACE40002FA08F223EA020346F82730052D1FD89A
:10ACF400DFE805F01F2B2527292D00F0C002C02A0C
:10AD040027D1CF2B25D8174B00F03F0253F8222030
:10AD1400114B00F4E06453F82230C8E7204612498E
:10AD2400FEF792FF0028D8D02046FEF7CBFCD4E7EC
:10AD3400FEE700212046BDE8F041FEF795BF102153
:10AD4400F8E72021F6E70321F4E70121F2E70921DE
:10AD5400F0E7BDE8F08100BFDCB600083003002056
:10AD640078B600089CB60008C0B30008C3B2322B02
:10AD74001BD8174A00F4E06052F823301843431CF0
:10AD840025D0C0F30313062B98BF124A00F00F001E
:10AD940098BF52F82320104B88BF002253F820306C
:10ADA400C3F30F2391B11361704700F0C002C02AAE
:10ADB4000DD1CF2B0BD8094B00F03F0253F82220C2
:10ADC400034B00F4E06053F82230D7E75361704737
:10ADD400DCB600080800002030B200089CB6000869
:10ADE400C3B2322B1CD8194A00F4E06052F8233065
:10ADF4001843431C25D0C0F30313062B23D8144A4D
:10AE040000F00F0052F82330124A9B6852F82020B9
:10AE1400D84300EA122080B2B0FA80F040097047AB
:10AE240000F0C002C02A0CD1CF2B0AD80A4B00F084
:10AE34003F0253F82220054B00F4E06053F822301F
:10AE4400D6E70020704700239B68FFDEDCB60008CD
:10AE54000800002030B200089CB60008FEF75EBC73
:10AE640038B5044648B1FEF759FC054600F016F81B
:10AE7400FEF754FC431BA342F8D338BD08B5044B7A
:10AE84002BB10448FFF72DFC08B1AFF3008008BDD7
:10AE94000000000018020020FEF78CBC7047000080
:10AEA400024B0146186800F02DB800BF34000020A2
:10AEB400024B0146186800F0FDB800BF34000020C2
:10AEC40070B50F4E0C463168054611B900F0AEF866
:10AED40030602146284600F0A9F8431C03D14FF006
:10AEE400FF34204670BDC41C24F00304A042F8D0F3
:10AEF400211A284600F09AF80130F2D1EFE700BF9A
:10AF04004C0300202DE9F843CD1C25F0030508353A
:10AF14000C2D38BF0C25002D064601DBA94204D9AF
:10AF24000C2333600020BDE8F883DFF8D48000F000
:10AF340069F8D8F800301C4644BB29463046FFF770
:10AF4400BFFF431C044658D1D8F800402746002FC1
:10AF540043D1002C4BD023683946304604EB030917
:10AF640000F064F8814542D1216830466D1A2946C3
:10AF7400FFF7A6FF01303AD023682B442360D8F8AA
:10AF840000305A6862BBC8F800700FE02268521B98
:10AF940020D40B2A17D96119A342256018BF596020
:10AFA400636808BFC8F8001062514B60304600F077
:10AFB4002FF804F10B00231D20F00700C21A1CBF58
:10AFC4001B1AA350AFE76268A3420CBFC8F8002065
:10AFD4005A60EBE723466468AEE73C467F68B6E711
:10AFE4001A465B68A342FBD100235360DEE70C23BF
:10AFF4003046336000F00CF894E70560D6E700BFF4
:10B0040050030020014800F045B800BF9004002020
:10B01400014800F040B800BF9004002003460244F9
:10B02400934200D1704703F8011BF9E738B50023B8
:10B03400054D044608462B60FFF7FEFA431C02D177
:10B044002B6803B1236038BD8C04002070B5002642
:10B054000C4D0D4B5B1B9C10A64209D1002600F041
:10B06400C1F80A4D0A4B5B1B9C10A64205D170BD6A
:10B0740055F8043B98470136EEE755F8043B9847EA
:10B084000136F2E7E4B70008E4B70008E4B70008C3
:10B09400F8B70008704770470A44914200F1FF3343
:10B0A40000D1704710B511F8014B914203F8014FDC
:10B0B400F9D110BD38B50546002940D051F8043CFB
:10B0C4000C1F002BB8BFE418FFF79CFF1C4A136841
:10B0D40033B9636014602846BDE83840FFF798BF71
:10B0E400A34208D9206821188B4201BF19685B6804
:10B0F40009182160EDE71A465B680BB1A342FAD93F
:10B1040011685018A0420BD12068014450188342A2
:10B114001160E0D118685B68084410605360DAE796
:10B1240002D90C232B60D6E7206821188B4201BF7B
:10B1340019685B680918216063605460CBE738BD07
:10B1440050030020062008B500F02CF80120FFF77A
:10B1540091FA1F2938B505460C4604D91623036015
:10B164004FF0FF3038BDC26B12B152F821304BB9E9
:10B17400284600F031F8224601462846BDE838400A
:10B1840000F018B8012B0AD0591C03D11623036010
:10B194000120E7E70021204642F8241098470020C8
:10B1A400E0E70000024B01461868FFF7D2BF00BF7A
:10B1B4003400002038B50023064D044608461146E5
:10B1C4002B60FFF759FA431C02D12B6803B12360AB
:10B1D40038BD00BF8C040020FFF756BA08B5FFF74E
:10B1E400B1FF0000F8B500BFF8BC08BC9E4670472C
:0CB1F400F8B500BFF8BC08BC9E467047D0
:10B2000048656C6C6F2066726F6D204150502076DF
:10B21000696120464F544121000D0A0001020203DA
:10B220000405060708090A0B0C0D0E0F101000008C
:10B2300001010000020200000404000008080000F0
:10B24000101000002020000040400000808000001E
:10B2500001000104020002040400040408000804C0
:10B2600010001004200020044000400480008004EE
:10B2700000000000010203040000000000000000C4
:10B280000102030406070809000000000044004012
:10B29000120000000B000000003801401200000006
:10B2A0001D00000000480040120B00001D010000BE
:10B2B00000480040120A0000FFFFFFFF00000000EE
:10B2C00000000000010000000044004012080000DF
:10B2D0000C00000000380140120000001E000000B9
:10B2E00000480040120000001E010000004800401D
:10B2F000120A0000FFFFFFFF000000000000000036
:10B300000300000000440040100800000A00000094
:10B31000003801401006000017000000003801400E
:10B32000100500001B000000004800401000000055
:10B330002B000000004C0040100000002B0100001A
:10B3400000480040100A0000320000000050004099
:10B3500010000000FFFFFFFF0000000000000000E1
:10B360000200000000440040120800000900000034
:10B3700000380140120600001600000000380140AD
:10B38000120500001A0000000048004012000000F2
:10B390002A000000004C0040120000002A010000BA
:10B3A00000480040120A00002C000000005000403D
:10B3B00012000000FFFFFFFF00000000000000007F
:10B3C00000000000000000401280000000010000AA
:10B3D000000000401290000000020000000C00403D
:10B3E0001280000001000000000000401212010065
:10B3F00001010000000000401210010001020000E5
:10B40000000C00401200010002000000000000409B
:10B4100012920100020100000000004012910100A0
:10B4200002020000000C0040128001000300000036
:10B430000000004012120200030100000000004062
:10B440001211020003020000000C00401200020072
:10B4500006000000000400401295000007000000F4
:10B46000002C0140128D1000070100000004004074
:10B470001215010007020000003401401280100084
:10B4800008000000002C0140128E0000080100009E
:10B49000002C0140128D000009000000002C01402A
:10B4A000120E010009010000002C0140120D0100E4
:10B4B0000A000000002C0140128E01000A01000069
:10B4C000002C0140128D01000B000000002C0140F7
:10B4D000120E02000B010000002C0140120D0200B0
:10B4E0000F00000000000040129100000F0100005A
:10B4F00000000040128F000010000000002C0140EE
:10B50000120D11001001000000040040129501000E
:10B51000100200000004004012940100100300001B
:10B52000003401401200110011000000002C014005
:10B53000128D1100110100000004004012150200DC
:10B540001102000000040040121402001103000068
:10B550000034014012801100130000000000004080
:10B56000121101001301000000000040120F010041
:10B5700014000000000400401294000015000000B8
:10B5800000040040121401001600000000080040F2
:10B590001297000017000000000800401217010079
:10B5A0001800000000080040129701001900000078
:10B5B00000080040121702001A00000000000040BE
:10B5C000129001001A01000000000040128F0100DB
:10B5D0001B00000000000040121002001B010000D0
:10B5E00000000040120F02001D000000002C01406E
:10B5F000128E10001E000000002C0140120E1100DF
:10B600001F000000002C0140128E110026000000D7
:10B6100000040040129300002601000000340140A5
:10B6200012800000270000000004004012130100F7
:10B630002701000000340140120001002800000032
:10B640000004004012930100280100000034014072
:10B6500012800100290000000004004012130200C3
:10B66000290100000034014012000200FFFFFFFF2B
:10B670000000000000000000040000000074004012
:10B68000038000000500000000740040030001007A
:10B69000FFFFFFFF000000000000000000000000AE
:10B6A0000100000002000000030000000400000090
:10B6B0000500000006000000070000001000000068
:10B6C0001100000020000000210000002200000006
:10B6D00023000000240000002500000000000000FE
:10B6E0000100000002000000030000000400000050
:10B6F0000500000006000000070000000800000030
:10B70000090000000A0000000B0000000C0000000F
:10B710000D0000000E0000000F00000010000000EF
:10B7200011000000120000001300000014000000CF
:10B7300015000000160000001700000018000000AF
:10B74000190000001A0000001B0000001C0000008F
:10B750001D0000001E0000001F000000200000006F
:10B76000210000002200000023000000240000004F
:10B77000250000002600000027000000280000002F
:10B78000290000002A0000002B0000002C0000000F
:10B790002D0000002E0000002F00000030000000EF
:10B7A0003100000032000000060007000800000021
:10B7B00000000000000000002DA70008DDA7000821
:10B7C00011A7000829A90008E7A6000825AB000872
:0CB7D000F7A60008DBAB0008FDAB00088A
:08B7DC0008CAFF7F0100000014
:10B7E4002DAC0008198200083582000875980008FD
:04B7F40055AB000849
:08B7F800F58100084D990008DD
:10B80000010000001000000000080140000C014091
:10B81000001001400014014000180140001C0140CC
:10B8200000200140003002400000000000127A00B9
:10B83000980400203800002000000000540300207D
:10B84000BC030020240400200000000000000000D1
:10B8500000000000000000000000000000000000E8
:10B8600000000000000000000000000000000000D8
:10B8700000000000000000000000000000000000C8
:04B8800000000000C4
:040000050800AC51F2
:00000001FF
