:020000040800F2
:100000008007002089010008450C0008410C000809
:10001000430C0008EF020008A10C000800000000DB
:10002000000000000000000000000000490C000873
:100030003103000800000000470C00084B0C0008CA
:10004000A3010008A3010008A3010008A301000800
:10005000A3010008A3010008A3010008A3010008F0
:10006000A3010008A3010008A3010008A3010008E0
:10007000A3010008A3010008A3010008A3010008D0
:10008000A3010008A3010008A3010008A3010008C0
:10009000A3010008A3010008A3010008A3010008B0
:1000A000A3010008A3010008A3010008A3010008A0
:1000B000A3010008A3010008A3010008A301000890
:1000C000A3010008A3010008A3010008A301000880
:1000D000A3010008A3010008A3010008A301000870
:1000E000A3010008A3010008A301000800F002F822
:1000F00000F03AF80AA090E8000C82448344AAF188
:100100000107DA4501D100F02FF8AFF2090EBAE885
:100110000F0013F0010F18BFFB1A43F0010318473B
:10012000FC0D00001C0E0000103A24BF78C878C1F6
:10013000FAD8520724BF30C830C144BF04680C60ED
:10014000704700000023002400250026103A28BF35
:1001500078C1FBD8520728BF30C148BF0B60704739
:100160001FB51FBD10B510BD00F08AF81146FFF78E
:10017000F7FF00F0A7FD00F0A8F803B4FFF7F2FFC7
:1001800003BC00F0ADF8000009488047094800476B
:10019000FEE7FEE7FEE7FEE7FEE7FEE7FEE7FEE737
:1001A000FEE7FEE704480549054A064B7047000094
:1001B0009F0C0008ED00000880010020800700204F
:1001C0008003002080030020B2F120030AD5C2F191
:1001D000200320FA02F001FA03F321FA02F140EAC7
:1001E0000300704721FA03F04FF00001704710B58B
:1001F000431C02E010F8011B71B18107FAD14FF0E6
:10020000013202C88C1A8C4314EAC211F9D0C01A08
:100210000A0603D0C01E10BDC01A10BD0A0401D0CA
:10022000801E10BD0902FCD0401E10BD4FF0000220
:1002300000B5134694469646203922BFA0E80C50DC
:10024000A0E80C50B1F12001BFF4F7AF090728BFB7
:10025000A0E80C5048BF0CC05DF804EB890028BF33
:1002600040F8042B08BF704748BF20F8022B11F05C
:10027000804F18BF00F8012B7047704770477047D8
:10028000754600F029F8AE4605006946534620F051
:100290000700854618B020B5FFF784FFBDE8204071
:1002A0004FF000064FF000074FF000084FF0000B32
:1002B00021F00701AC46ACE8C009ACE8C009ACE8E5
:1002C000C009ACE8C0098D4670470446AFF3008012
:1002D0002046FFF752FF0000004870472001002031
:1002E00001491820ABBEFEE7260002007047FEE77A
:1002F00070B50C460546FFF77AFF800701D001264E
:1003000000E000262846FFF772FF06EB9000800011
:1003100000220AE0D11702EB917121F003014B5941
:10032000511AC900CB40A354521C8242F2DB70BD6B
:100330007047000006490020C8610648016941F085
:1003400004010161016941F0400101617047000051
:100350000001002000200240064A0021D161064928
:100360000A6942F002020A614861086940F04000EF
:10037000086170470001002000200240044B002269
:10038000DA61044A136943F0010313610180704785
:10039000000100200020024014480022C168CB0662
:1003A000134904D5CA6942F00202CA611022C36827
:1003B0005B0705D5CB6943F00103CB6142F0040232
:1003C000C369DB0707D0CB6943F00403CB61C16984
:1003D00021F00101C161A2F58071013901D0C26033
:1003E0007047C16921F00101C161704700200240DE
:1003F0000001002070B5054600F032F90646114CA8
:1004000009E0681C07D025B100F02AF9801BA8423A
:1004100001D9032070BDE068C007F2D1E068800612
:1004200001D52020E060E068C00605D4E069C0077F
:1004300002D1E068400703D5FFF7AEFF012070BD91
:10044000002070BD0020024008C8521E08C192B2B0
:10045000FAD270472DE9F84316468846054600242F
:1004600000F0EAF8284600F02BF8074605EB860076
:1004700000F026F81149024600208F600860D01B6A
:10048000012202EB9020C86069460C4800F030F869
:1004900040B90DE058F8242000232946022000F03E
:1004A0008BF818B100F078F8BDE8F883641C2D1DB6
:1004B000B442EFDB00F076F80020F5E7F000002012
:1004C0000A4B10B500215A0403EB8124844207D95A
:1004D00002EB8124844203D8880200F1006010BD41
:1004E000491C8029F0DB002010BD0000000400083A
:1004F0002DE9F047054626480F460126017E0129D1
:100500000FD00121814601762868DFF888804CF2FF
:100510005034022808D0A2462046FFF76BFFA8B14E
:1005200031E00220BDE8F0872046FFF763FF08BBFB
:100530000120FFF7FFFE2046FFF75CFFD8F8101000
:10054000064621F00401C8F810101CE04FF0FF30FF
:100550003860AC6811E02046FFF7FEFE5046FFF71A
:1005600049FFD8F81010060021F00201C8F8101059
:1005700001D03C6007E004F58064D5E9020100EB9E
:100580008120A042E7D8002189F818103046C9E739
:1005900000010020002002400148C06970470000AF
:1005A000000100200348016941F080010161002041
:1005B00070470000002002402DE9F05F07461C480C
:1005C00088460024017E15461E46012909D00121D6
:1005D000814601764CF2503A5046FFF70BFF18B1B6
:1005E00022E00220BDE8F09F012F02D0022F00D0B0
:1005F0000427D346DFF83CA0220128463146FFF706
:10060000E3FD81B208EB4400FFF7B8FE5846FFF760
:10061000F1FEDAF8102022F00102CAF8102018B911
:10062000641CE4B2BC42E7D3002289F81820D9E761
:100630000001002000200240064900200A6912063D
:1006400007D5054A4A60054A4A600969090600D586
:10065000012070470020024023016745AB89EFCDA0
:10066000014880687047000004000020024881684B
:10067000027811448160704704000020074810B5DB
:10068000016841F010010160032000F067F80F20BD
:1006900000F006F800F024F8002010BD0020024011
:1006A00070B50D4D04464FF47A712878B1FBF0F027
:1006B0000A490968B1FBF0F000F0AEFA48B9102C15
:1006C00007D200222146501E00F028F800206C605E
:1006D00070BD012070BD000004000020100000204B
:1006E0000C4808B5816941F001018161816901F01F
:1006F00001010091C16941F08051C161C06900F000
:10070000805000900448416821F0E06141F00071A0
:10071000416008BD0010024000000140F0B40E4BE3
:100720001B680C46C3F30223C3F10705042D00D94F
:100730000425191D072901D2002300E0DB1E012634
:1007400006FA05F1491E214099409E40761E16404A
:100750003143F0BC00F0A5BA0CED00E0064900F012
:10076000070208684FF6FF03184040EA0220034AD8
:1007700010430860704700000CED00E00000FA052F
:100780002DE9F0470F46050061D0434E306800F078
:100790000700B84209D2306820F0070038433060C3
:1007A000306800F00700B84251D128683B4C8107FF
:1007B00012D5400703D5606840F4E0606060287897
:1007C000000703D5606840F4605060606068A96805
:1007D00020F0F000084360602878C00728D06868DF
:1007E000012810D02168022810D0890700292EDAAC
:1007F000616821F0030101436160FFF731FF80462A
:1008000041F288390DE021688903EFE78901EDE7BE
:10081000FFF726FFA0EB0801494502D90320BDE8F8
:10082000F0876068696800F00C00B0EB810FEFD1D1
:10083000306800F00700B8420BD9306820F007009C
:1008400038433060306800F00700B84201D0012022
:10085000E5E72878400705D56068E96820F4E0609E
:10086000084360602878000706D56068296920F48D
:10087000605040EAC100606000F018F86168084A02
:10088000C1F30311515CC84006490860064800687E
:10089000FFF706FF0020C2E70020024000100240E0
:1008A0004A0D000810000020080000200E4A516880
:1008B0000E4801F00C03042B11D0082B0FD10C486B
:1008C000C1F38343C903C05C0AD55168084AC1F328
:1008D0004041921E515C054A5043B0FBF1F0704715
:1008E00004494843704700000010024000127A009B
:1008F0003A0D000800093D002DE9F84F040070D0C2
:100900002078C04DC00749D06868C0F38100012835
:1009100007D06868C0F38100022809D16868C00365
:1009200006D52868800339D560680028E7D035E00F
:100930006068B0F5803F0BD010B1B0F5A02F11D09A
:10094000286820F480302860286820F4802002E0A5
:10095000286840F480302860606890B1FFF780FE1E
:1009600006460AE0286840F480202860F0E700BFCF
:10097000FFF776FE801B642873D828688003F7D5BC
:100980000CE0FFF76DFE064605E000BFFFF768FECE
:10099000801B6428F0D828688003F7D420789A4E0A
:1009A00080074FF001094FF0000839D5686810F052
:1009B0000C0F07D06868C0F38100022809D168686D
:1009C000C00306D42868800714D52069012808D1FF
:1009D00010E02069B0B1C6F80090FFF741FE07466D
:1009E00005E00AE1FFF73CFEC01B0228C4D82868D6
:1009F0008007F7D52868616920F0F80040EAC10057
:100A000028600DE0C6F80080FFF72AFE074604E0E4
:100A1000FFF726FEC01B022823D828688007F7D4DA
:100A2000207800072CD57948A169D9B1C0F8009089
:100A3000FFF716FE074604E0FFF712FEC01B022870
:100A40000FD8686A8007F7D571484FF4FA510068EB
:100A5000B0FBF1F0009000BF0098411E0091FAD267
:100A60000EE080E0C0F80080FFF7FAFD074604E0E2
:100A7000FFF7F6FDC01B022875D8686A8007F7D417
:100A80002078400760D5E8690027C00008D4E869ED
:100A900040F08050E861E869012700F08050009044
:100AA0005C480168C90513D40168834641F480712C
:100AB0000160FFF7D5FD824606E000BFFFF7D0FDDD
:100AC000A0EB0A0064284ED8DBF80000C005F5D57D
:100AD000E06801280AD008B1052813D0286A20F060
:100AE00001002862286A20F0040002E0286A40F031
:100AF00001002862E06841F2883B98B1FFF7B0FD41
:100B000082460BE0286A40F004002862EEE700BF4E
:100B1000FFF7A6FDA0EB0A0159455AD8286A8007BD
:100B2000F6D50CE0FFF79CFD824605E0FFF798FD47
:100B3000A0EB0A0159454CD8286A8007F6D41FB1AA
:100B4000E86920F08050E861E06988B36968C1F322
:100B50008101022944D00228C6F8608004D0FFF742
:100B60007FFD044638E034E0FFF77AFD074604E0F5
:100B7000FFF776FDC01B02282BD828688001F7D428
:100B8000206AB0F5803F05D16868A16820F4003084
:100B900008436860D4E908010843696821F47411C6
:100BA00008436860C6F86090FFF75AFD044606E007
:100BB00025E000BFFFF754FD001B022809D8286874
:100BC0008001F7D51BE000BFFFF74AFD001B02289C
:100BD00002D90320BDE8F88F28688001F4D40EE024
:100BE0000128F7D06868226A00F48031914204D16C
:100BF000616A00F47010884201D00120EAE7002009
:100C0000E8E7000000100240000042428004424237
:100C1000100000200070004010B5401EB0F1807F31
:100C200001D3012010BD4FF0E02460610F21601757
:100C300000F037F80020A06107202061002010BDDF
:100C4000FEE7FEE7FEE770477047FFF70FBD10B500
:100C500090B028216846FFF7E9FA14210AA8FFF7A7
:100C6000E5FA022000900120049010200024059055
:100C700007946846FFF740FE08B172B6FEE70F2002
:100C8000CDE90A040C940D9400210AA80E94FFF7F4
:100C900077FD002801D072B6FEE710B010BD704796
:100CA000FEE70907090E002804DB00F1E02080F8C8
:100CB0000014704700F00F0000F1E02080F8141DD0
:100CC0007047000008B5FFF7D9FCFFF7C0FF1648D2
:100CD000816941F0040181618069144D00F00400D4
:100CE00000902868FFF783FA800701D0012400E014
:100CF00000242868FFF77BFA296804EB90040C4D68
:100D0000A2B22846FFF7A6FBA2B20A492846FFF77F
:100D10009BFB084907487831FFF7EAFAA2B2054978
:100D20002846FFF791FBF9E7001002400000002081
:100D30001048000814000020010202030405060701
:100D400008090A0B0C0D0E0F101000000000000027
:100D50000000010203040607080900003A3032309F
:100D600030303030343038303046323A3130323052
:100D70003030303037303036303032303839323150
:100D80003030303830423242303030383931324110
:100D90003030303838373A3130323031303030302E
:100DA00039324230303038384232323030303836F2
:100DB000373242303030383030303030303030330D
:100DC000353A313032303030303037303036303004
:100DD00032303839323130303038304232423030CF
:100DE0003038393132413030303838373A313032BA
:100DF00030313030303039324230303038384232B1
:100E000032303030383637324230303038303030AF
:100E1000303030303033353A3130323030303030BD
:100E20003730303630303230383932313030303897
:100E3000304232423030303839313241303030385F
:100E400038373A3130323031303030303932423068
:100E50003030383842323230303038363732423043
:100E6000303038303030303030303033353A313067
:100E70003230303030303730303630303230383950
:100E8000323130303038304232423030303839311F
:100E900032413030303838373A313032303130301A
:100EA00030303932423030303838423232303030FF
:100EB0003836373242303030383030303030303001
:100EC0003033353A31303230303030303730303600
:100ED00030303230383932313030303830423242CE
:100EE00030303038393132413030303838373A31BB
:100EF00030323031303030303932423030303838C2
:100F0000423232303030383637324230303038309A
:100F10003030303030303033350000003C0F0008C6
:100F2000000000201400000028010008500F0008F5
:100F3000140000206C070000440100085C0D00084C
:100F400001000000100000000000000000127A0004
:04000005080000ED02
:00000001FF
