:020000040800F2
:102000000050002041520008A1520008A1520008CF
:10201000A1520008A1520008A152000800000000CF
:10202000000000000000000000000000A1520008B5
:10203000A152000800000000A15200082F4800082B
:10204000A1520008A1520008A1520008A1520008A4
:10205000A1520008A1520008054900080B490008D8
:1020600011490008174900081D490008A15200083D
:10207000A1520008A1520008A1520008A152000874
:10208000A1520008A1520008A1520008A152000864
:1020900005660008A1520008A15200082349000863
:1020A000A15200087D540008A15200089154000874
:1020B00095540008A9540008BD540008A152000816
:1020C000A1520008A1520008A1520008A152000824
:1020D000A1520008A1510008B9510008D1510008CF
:1020E00039490008A15200081166000800000000EC
:1020F00000000000000000000000000000000000E0
:0C21000000000000000000005FF808F183
:10210C00034613F8012B002AFBD1181A013870472B
:10211C0010B5054C237833B9044B13B10448AFF315
:10212C0000800123237010BD0C0200200000000071
:10213C00B073000808B5034B1BB103490348AFF358
:10214C00008008BD0000000010020020B0730008E1
:10215C0008B54FF41651144803F0D4FA012111209C
:10216C0004F08CFB0121C02004F088FB012102202B
:10217C0004F084FB0121084604F080FB01210020BF
:10218C0004F07CFB0121032004F078FB00210220E9
:10219C0004F0D8FB0021012004F0D4FBBDE808407A
:1021AC000021084604F0CEBB8403002008B50121B1
:1021BC00112004F0C7FB642004F002FC1120002164
:1021CC0004F0C0FBBDE80840642004F0F9BB00003B
:1021DC0008B5FFF7EBFFBDE808400249024803F0E1
:1021EC00D5B900BFC87300088403002070470000F5
:1021FC0038B50E4B054618784FF47A73B3FBF0F3F1
:10220C000B4A1068B0FBF3F000F0A0F8044658B984
:10221C000F2D09D8024629464FF0FF3000F042F846
:10222C002046044B1D6038BD0120FCE70000002057
:10223C001C00002004000020074A08B51368032086
:10224C0043F01003136000F01BF80020FFF7D0FFE1
:10225C00FFF7CCFF002008BD00200240034A044BCE
:10226C0011681B780B441360704700BFC405002035
:10227C0000000020014B1868704700BFC405002007
:10228C0007490302CA6803F4E06322F4E062120413
:10229C00120C134343F0BF6343F40033CB6070471D
:1022AC0000ED00E0164B30B5DC68C4F30224C4F139
:1022BC000703251D042B28BF0423062D4FF0FF35E3
:1022CC0098BF002405FA03F388BF033C21EA0303FB
:1022DC00A34005FA04F422EA0402002843EA0203AC
:1022EC00ACBF00F16040074A4FEA0313DBB2ABBF4F
:1022FC0000F5614000F00F0080F80033135430BD3E
:10230C0000ED00E014ED00E0002808DB0123420999
:10231C0000F01F0003FA00F0014B43F82200704755
:10232C0000E100E000280DDB0122430900F01F0052
:10233C0002FA00F0044A203342F82300BFF34F8F17
:10234C00BFF36F8F704700BF00E100E00138B0F1C0
:10235C00807F0AD2F021064B064A586082F823107F
:10236C000020072298601A6070470120704700BF58
:10237C0010E000E000ED00E0002809DB0122430939
:10238C0000F01F0002FA00F0024A603342F823000A
:10239C00704700BF00E100E0704708B5FFF7FCFF95
:1023AC0008BD000008B590F82130022B03D004239F
:1023BC008363012008BD03681A6822F00E021A60BC
:1023CC001A6822F001021A60174A93421CD0143288
:1023DC0093421BD0143293421AD0143293421AD027
:1023EC00143293421AD0143293420CBF4FF4801320
:1023FC004FF080730D4A53604FF480730384436B2A
:10240C007BB198470020D5E70123F3E71023F1E7D0
:10241C004FF48073EEE74FF48053EBE74FF48033C7
:10242C00E8E71846C6E700BF08000240000002407B
:10243C00044A08B55169014202D0506102F046FAD3
:10244C0008BD00BF00040140F0B5044687B010B3CE
:10245C0090F8A93203F0FF021BB980F8A82204F00F
:10246C0035F8032325466E4684F8A93255F8100B2F
:10247C0001F054FB0FCD0FC62B68271D3360264689
:10248C0097E80E0056F8100B01F038FB054620B10A
:10249C00022384F8A93201254CE00146206801F0A2
:1024AC0047FB29464FF0010E28250846D4F804C0F6
:1024BC00CAB2944501F101011BD800232825194605
:1024CC00D8B2844503F1010320D8EC4635460FCD34
:1024DC00ACE80F002B68CCF8003097E80E002068B1
:1024EC0001F028FB01230546E8B1022284F8A92259
:1024FC00D1E705FB0243C3E90E0083F829E083F81A
:10250C002820DA8683F82B001864D1E705FB0042FB
:10251C00C2E95E1182F8691182F8680182F86B11C8
:10252C00C2F88011CCE784F82400206884F8A93222
:10253C0001F0BEFD284607B0F0BD38B590F8A832C2
:10254C000446012B10D0012580F8A852006801F038
:10255C00DCFA2946204600F06EFD206801F0A6FD4D
:10256C00002084F8A80238BD0220FCE710B590F8D2
:10257C00A8220446012A0BD0012280F8241080F8EE
:10258C00A822006801F08CFD002084F8A80210BD80
:10259C000220FCE72DE9F04F044685B0006801F0FD
:1025AC0089FD020409D5DFF86098DFF8608820689F
:1025BC00B0F844301D0400F1C180206801F07AFDB0
:1025CC0043050FD522682046B2F8443023F48063CB
:1025DC001B041B0CA2F8443003F0DDFF0021204645
:1025EC00FFF7C4FF206801F065FD410408D522689F
:1025FC00B2F8443023F480431B041B0CA2F8443083
:10260C00206801F057FD820408D52268B2F84430E6
:10261C0023F400531B041B0CA2F84430206801F077
:10262C0049FDC3041CD522682046B2F8403023F083
:10263C0004031B041B0CA2F84030B2F8403023F00A
:10264C0008031B041B0CA2F8403003F0C1FF2268E6
:10265C00B2F8443023F480531B041B0CA2F8443012
:10266C00206801F027FD070546D568462368064615
:10267C0019461A4603F1200532F8047B954226F8D8
:10268C00027BF9D1B3F8402092B242F00102A3F8D8
:10269C004020B3F8402022F001021204120CA3F8DF
:1026AC004020B3F844205605FBD5B3F8442022F45F
:1026BC0080621204120CA3F8442030F8022B21F88B
:1026CC00042B8D42F9D1B3F84020204692B242F04F
:1026DC000802A3F84020B3F8442022F4006212044C
:1026EC00120CA3F84420B3F8402092B242F004023A
:1026FC00A3F8402003F05CFF206801F0DBFC8205AE
:10270C000BD522682046B2F8443023F400731B0426
:10271C001B0CA2F8443003F03AFF206801F0CAFC0D
:10272C00C30508D52268B2F8443023F480731B0427
:10273C001B0CA2F8443005B0BDE8F08FB0F8446033
:10274C00B1B216F00F0640F0B98011F010012DD186
:10275C0003889BB203EA090343F400430380B0F8F7
:10276C00503094F828209BB203EBC20300EB4300DB
:10277C00B0F80434E26BC3F3090363641344E363FA
:10278C00204603F0FCFE94F82430002B3FF40FAFEE
:10279C00226C002A7FF40BAF94F82430216843F0AC
:1027AC008003A1F84C3084F8242000E70588ABB2F4
:1027BC0015F4006521D0B0F8503094F868219BB224
:1027CC0003EBC20300EB4303B3F80C34B4F86E21F3
:1027DC00C3F30903C4F8843104F52C7101F05EFFD6
:1027EC0022682046138823F070031B051B0D43F051
:1027FC008003138003F0B4FED9E61F047FF5D7AE37
:10280C00038823F070031B051B0D43F0800303802A
:10281C00B0F8503094F868219BB203EBC20300EB84
:10282C004303B3F80C34C3F30903C4F884318BB1FC
:10283C00D4F87C1171B1B4F86E2101F02FFFD4F8EB
:10284C007C31D4F88421294613442046C4F87C31C9
:10285C0003F08CFE2168D4F87851B1F8503001F2B5
:10286C000C409BB2CDB9C25A22F4F8421204120C9D
:10287C00C252C25A92B242F40042C2520B8823F4A2
:10288C00804323F070031B041B0C83F4405343F46C
:10289C00004343F080030B8089E63E2D06D86A087E
:1028AC00EE0748BF0132920292B2E6E76A09ED06E2
:1028BC0008BF02F1FF3248EA8222F5E730F82630F1
:1028CC0019049FB240F1F880282130F8263001FB22
:1028DC00064123F070031B051B0D43F0800320F809
:1028EC00263091F8743100F58065B3B9B0F85030EA
:1028FC0091F868219BB2063303EBC20335F81350F1
:10290C00C5F30905002D00F0BB802B46B1F86E21F4
:10291C00D1F87C1101F0C2FEB2E091F86B3191F864
:10292C0068C1022B40F08B80B0F8503017F4804A0D
:10293C00D1F880214FEACC0B9BB207F0400E40D06F
:10294C009B440BF1020B35F81B50C5F3090595425E
:10295C0013D90023C1F8803130F82C3023F4804394
:10296C0023F070031B041B0C83F4005343F400434B
:10297C0043F0800320F82C3004E0521BC1F8802176
:10298C00002AE9D0BEF1000F12D0282303FB064326
:10299C0093F8682130F8223023F4E04323F07003DD
:1029AC001B041B0C43F4004343F0C00320F82230FB
:1029BC00002D65D0282101FB06412B46B1F8702172
:1029CC00A6E75B44063335F81350C5F30905954269
:1029DC0012D9C1F880A130F82C3023F4804323F0B5
:1029EC0070031B041B0C83F4005343F4004343F0AB
:1029FC00800320F82C3004E0521BC1F88021002AFF
:102A0C00E9D0BEF1000F12D1282303FB064393F843
:102A1C00682130F8223023F4E04323F070031B04C8
:102A2C001B0C43F4004343F0C00320F822303DB3A9
:102A3C00282101FB06412B46B1F8722168E730F8DA
:102A4C002C3023F4E04323F070031B041B0C43F4E1
:102A5C00004343F0C00320F82C3091F8683130F873
:102A6C002320DB0012F4804FB0F8502092B256D0E5
:102A7C000232134435F81350C5F30905002D9CD1CF
:102A8C00282171436318D3F884212A44C3F8842184
:102A9C00D3F87C212A44C3F87C21D3F880211AB1C5
:102AAC00D3F878319D4243D2282303FB06432046BA
:102ABC0093F8681103F05AFD3A067FF578AD282596
:102ACC00206805FB064530F8263000F5806E9BB279
:102ADC0003EA090343F4004320F8263095F82B3021
:102AEC0095F82810022B01D1FB0539D42827B0F812
:102AFC00502007FB064392B2023202EBC1013EF8B2
:102B0C0011E0D3F840C0CEF3090EF44517D80022DB
:102B1C001A64204695F8281003F031FD47E506327B
:102B2C00134435F81350C5F30905002DA8D082E7DE
:102B3C0001F5B4712068214401F0D2FABCE7ACEB8A
:102B4C000E021A64002AE4D006FB0777D96B5A6C84
:102B5C0071447244D9635A64E11901F0C1FA26E553
:102B6C00B0F850204FEAC10A92B217F0400C2B6C0F
:102B7C00524407F4804700F0A28002323EF812C0A3
:102B8C002822CCF3090C9C4528BF002302FB0642EB
:102B9C0038BFA3EB0C031364BFB2BBB9204603F0E0
:102BAC00EEFC002F00F0A38095F82810226832F874
:102BBC00213023F4E04323F070031B041B0C43F47B
:102BCC00404343F0800322F8213090E06FB130F89D
:102BDC00213023F4E04323F070031B041B0C43F45B
:102BEC00404343F0800320F82130282303FB0643A5
:102BFC0093F84C20012A7AD15A6CD96B62449F6CA1
:102C0C005A649A6B61449742D96327D3BF1A9F6465
:102C1C0095F8297093B2002F43D1B0F8507095F805
:102C2C0028C0BFB200F2044E4FEA0C1C774402BB22
:102C3C003CF8072022F4F8421204120C2CF807205E
:102C4C003CF8072092B242F400422CF807202822CC
:102C5C0002FB0646328E01F033FA48E01FB9624699
:102C6C0083F84C70D4E7002283F84C209A643A46DF
:102C7C00CEE73E2A0CD84FEA520ED20748BF0EF1CF
:102C8C00010E4FEA8E2E1FFA8EFE2CF807E0DEE7BF
:102C9C004FEA521ED20608BF0EF1FF3E48EA8E2EB6
:102CAC00F1E7012FD3D1B0F8502095F828701FFA16
:102CBC0082FC00F204423F016244BB52C7E7063279
:102CCC003EF81220BFB2C2F309029A4288BF634693
:102CDC004FF0280C0CFB064C98BF9B1ACCF84030DC
:102CEC00C3B9204603F04BFC002F3FF45DAF95F8C1
:102CFC002810226832F821309BB223F4E04323F0F1
:102D0C00400383F0300343F4004343F0800322F884
:102D1C0021304CE46FB930F8213023F4E04323F038
:102D2C0070031B041B0C43F4404343F0800320F856
:102D3C002130282303FB064393F84C100129D6D1EC
:102D4C005F6CD96B1744D3F848C05F649F6B114418
:102D5C00BC45D96326D3ACEB07029A6495F82920BD
:102D6C00BBB2002A43D1B0F850C01FFA8CF200F26B
:102D7C000C4C944495F82820120107BB3CF80270C7
:102D8C0027F4F8473F043F0C2CF802703CF8027013
:102D9C00BFB247F400472CF80270282202FB06460B
:102DAC00728E58E7BCF1000F03D1174683F84CC064
:102DBC00D4E7002267469A6483F84C20CEE73E2F76
:102DCC000CD84FEA570EFF0748BF0EF1010E4FEA21
:102DDC008E2E1FFA8EFE2CF802E0DEE74FEA571E0D
:102DEC00FF0608BF0EF1FF3E48EA8E2EF1E7012ADE
:102DFC00D3D1B0F85070BAB200F20C47174495F822
:102E0C0028201201BB52C8E70F8FFFFF0080FFFF85
:102E1C0011F0800F70B5054601F007004FF0280146
:102E2C001CD0012400FB011129444C700A614A7822
:102E3C000870CB7002B1C881022B04BF00230B7148
:102E4C0095F8A832012B13D00123286885F8A832F5
:102E5C0000F084FE002085F8A80270BD002601FB5E
:102E6C0000F404F5B4712C44294484F86961DDE75D
:102E7C000220F2E711F0800F10B501F007020446B2
:102E8C004FF0280113D0012302FB011101444B70B8
:102E9C000A7094F8A832012B13D00123206884F80F
:102EAC00A83200F0B3FF002084F8A80210BD01FB8B
:102EBC0002F303F5B47101440344002083F8690163
:102ECC00E6E70220F2E770B52824002601F007019E
:102EDC004C43051985F8681104F5B4710144C5E932
:102EEC005F23C5F8846185F86961006801F0F8F822
:102EFC00304670BD282301F0070103FB0101D1F816
:102F0C008401704770B501F00705282101FB050409
:102F1C000026C4E90F23012205FB011184F84C2083
:102F2C000144A364666484F8292084F8285000685E
:102F3C0001F0D6F8304670BD38B5436801F007058E
:102F4C009D42044628D811F0800F4FF028031AD068
:102F5C0005FB0333C11801234B7001230D708B70DB
:102F6C0094F8A8229A4219D0206884F8A83201F06B
:102F7C002CF825B9206804F52C7101F09FF800207D
:102F8C0084F8A80238BD00224B4303F5B471034406
:102F9C00014483F86921E0E70120F3E70220F1E71F
:102FAC0038B5436801F00F029A42044626D811F056
:102FBC00800F01F007024FF0280115D0012302FB0E
:102FCC00011101444B7000250A708D7094F8A832E1
:102FDC00012B15D00123206884F8A83201F015F8D4
:102FEC00284684F8A85238BD01FB02F303F5B471EE
:102FFC0001440344002083F86901E4E70120F2E76F
:10300C000220F0E710B5282411F0800F1BBF01F04F
:10301C00070101FB044104FB0100401808BF00F547
:10302C00B47099B21AB90273C180002010BD01228C
:10303C0083600273F9E770472DE9F341054638B315
:10304C000368DB0710D42B689F075ED42B68190725
:10305C0000F195802B685A0700F1BF80E8690028C1
:10306C0040F02C81002029E08F4C636803F00C03A6
:10307C00042B07D0636803F00C03082B0AD1636898
:10308C00DE0307D523689C03DDD56B68002BDAD1F2
:10309C00012013E06B68B3F5803F12D1236843F431
:1030AC0080332360FFF7E6F8064623689803CAD4FA
:1030BC00FFF7E0F8801B6428F7D9032002B0BDE8C5
:1030CC00F0819BB9236823F480332360236823F4B5
:1030DC0080232360FFF7CEF8064623689903B2D508
:1030EC00FFF7C8F8801B6428F7D9E6E7B3F5A02FE3
:1030FC00236803D143F480232360CFE723F4803388
:10310C002360236823F48023CBE7674C636813F0B8
:10311C000C0F07D0636803F00C03082B10D1636805
:10312C00DA030DD423689B0702D52B69012BAFD191
:10313C0023686A6923F0F80343EAC203236085E736
:10314C002A695A4B6AB101221A60FFF793F80646B6
:10315C0023689F07ECD4FFF78DF8801B0228F7D962
:10316C00ABE71A60FFF786F80646236898077FF5E9
:10317C006DAFFFF77FF8801B0228F6D99DE7AA698F
:10318C00494E4B4BDAB101221A60FFF773F8044633
:10319C00736A9B070DD54FF4FA52464B1B68B3FB71
:1031AC00F2F3019300BF019B5A1E0192002BF9D13F
:1031BC0050E7FFF75FF8001B0228E9D97DE71A609A
:1031CC00FFF758F80446736A9F077FF543AFFFF784
:1031DC0051F8001B0228F6D96FE7334CE369D8008D
:1031EC0024D40127E36943F08053E361E36903F0DE
:1031FC0080530093009B304E3368D90518D5EB688B
:10320C00012B26D1236A43F001032362FFF732F826
:10321C0041F288380646236A9B073FD5002F3FF4BE
:10322C001DAFE36923F08053E36117E70027E2E762
:10323C00336843F480733360FFF71CF880463368BF
:10324C00DA05DCD4FFF716F8A0EB08006428F6D9F1
:10325C0033E7ABB9236A41F2883823F001032362C8
:10326C00236A23F004032362FFF704F80646236A5B
:10327C009807D3D5FEF7FEFF801B4045F7D91CE716
:10328C00052B236A03D143F004032362BAE723F02E
:10329C0001032362236A23F00403B6E7FEF7EAFF77
:1032AC00801B4045B7D908E700100240000042429D
:1032BC00800442421C000020007000402A4B5A68D7
:1032CC001C4602F00C02082A3DD00023274E02288F
:1032DC0033602BD1FEF7CEFF0746236899011FD42C
:1032EC002B6AB3F5803F05D16268A96822F40032DD
:1032FC000A436260696A62680B4322F474121343D6
:10330C00636001233360FEF7B5FF054623689A011D
:10331C003FF5A8AEFEF7AEFF401B0228F6D9CCE66F
:10332C00FEF7A8FFC01B0228D7D9C6E6FEF7A2FFFE
:10333C00054623689B017FF595AEFEF79BFF401B6E
:10334C000228F6D9B9E601283FF4B8AE5B682A6AC0
:10335C0003F4803191427FF49BAE6A6A03F47013DC
:10336C0093423FF47FAE93E600100240600042426D
:10337C0030B5184B87B002AC03F110052246186823
:10338C005968083303C2AB421446F7D140F201230B
:10339C001149ADF804304B6803F00C02082A17D120
:1033AC00C3F3834206A80244DB0312F8102C0CD59D
:1033BC004B680A48C3F34043504306AA134413F81E
:1033CC00143CB0FBF3F007B030BD05485043FAE7AE
:1033DC000248F8E7CF7300080010024000127A0090
:1033EC0000093D002DE9F0410D46044610B90120BD
:1033FC00BDE8F081444A136803F007038B4228D3DD
:10340C0021688E0730D4CA0743D43F4A136803F0AF
:10341C000703AB4265D822683C4D12F0040F6CD107
:10342C00130706D56B68226923F4605343EAC20381
:10343C006B60FFF79DFF6B68354AC3F30313D35CD6
:10344C00D840344B1860344B1868FEF7D1FE00207E
:10345C00CEE7136823F007030B431360136803F0E4
:10346C0007038B42C3D1CBE7284B11F0040F1EBFCF
:10347C005A6842F4E0625A60080742BF5A6842F444
:10348C0060525A605A68A06822F0F00202435A60F7
:10349C00B9E762681D4E012A33681AD113F4003F54
:1034AC00A5D0736841F2883823F00303134373608B
:1034BC00FEF7E0FE07467368626803F00C03B3EB9B
:1034CC00820FA2D0FEF7D6FEC01B4045F3D90320D5
:1034DC008EE7022A02D113F0007FE1E713F0020F0E
:1034EC00DEE7136823F007032B431360136803F024
:1034FC000703AB427FF47BAF8DE76B68E16823F485
:10350C00E0630B436B608BE700200240001002402D
:10351C00A07400081C0000200400002003682DE9A2
:10352C00F341D907054620D5354CE369DA0032D48E
:10353C000127E36943F08053E361E36903F08053AF
:10354C000193019B2F4E3368DB0526D5236A13F4B8
:10355C00407336D1236A6A6823F4407313432362A1
:10356C001FB1E36923F08053E3612868830706D514
:10357C002349AB684A6822F440421A434A6010F06F
:10358C0010001BD01E4AE9685368002023F4800306
:10359C000B43536012E00027D4E7336843F4807385
:1035AC003360FEF767FE80463368D805CED4FEF74D
:1035BC0061FEA0EB08006428F6D9032002B0BDE838
:1035CC00F0816A6802F440729A42C3D001200E4A1C
:1035DC00236A1060002023F4407110602162D90727
:1035EC00B8D5FEF747FE41F288380646236A9A079B
:1035FC00B0D4FEF73FFE801B4045F7D9DDE700BF96
:10360C000010024000700040400442427047704776
:10361C00036810B51A69044691070ED5DA6892074B
:10362C000BD56FF002021A61012202779B699B078E
:10363C0077D001F091FF0023237723681A69500794
:10364C0010D5DA6851070DD56FF004021A61022209
:10365C0022779B69204613F4407F68D001F07CFFF1
:10366C000023237723681A6912070FD5DA6810072D
:10367C000CD56FF008021A6104222277DB69204610
:10368C0099075AD001F068FF0023237723681A6941
:10369C00D20610D5DA68D0060DD56FF010021A617B
:1036AC0008222277DB69204613F4407F4BD001F0CF
:1036BC0053FF0023237723681A69D10708D5DA68EA
:1036CC00D20705D56FF0010220461A6101F018FFF0
:1036DC0023681A69100608D5DA68110605D56FF04B
:1036EC00800220461A6100F09AF823681A69520683
:1036FC0008D5DA68500605D56FF0400220461A61ED
:10370C00FFF785FF23681A69910622D5DA689206BD
:10371C001FD56FF020022046BDE810401A6100F062
:10372C007DB801F017FF2046FFF770FF83E701F02B
:10373C0011FF2046FFF76AFF92E701F00BFF2046CE
:10374C00FFF764FFA0E701F005FF2046FFF75EFFDF
:10375C00AFE710BD1A4A036890420AD0B0F1804F0F
:10376C0007D0A2F59432904203D002F580629042C9
:10377C0015D14A6823F070031343114A90420AD0C2
:10378C00B0F1804F07D0A2F59432904203D002F5ED
:10379C008062904203D1CA6823F4407313434A6990
:1037AC0023F08003134303608B68C3620B6883624E
:1037BC00034B984204BF0B690363012343617047B9
:1037CC00002C014010B5044630B390F83D3003F0A6
:1037DC00FF021BB980F83C2001F010FC022320688A
:1037EC0084F83D30211DFFF7B5FF0123002084F83C
:1037FC00463084F83E3084F83F3084F8403084F80A
:10380C00413084F8423084F8433084F8443084F8F2
:10381C00453084F83D3010BD0120FCE770477047FF
:10382C000368DA6822F49072DA605A6922F00102B5
:10383C005A61202380F83A30704790F83930202BA9
:10384C0018D1A9B1A2B190F83830012B12D0C28492
:10385C0000238284212201620168C36380F838301E
:10386C0080F83920CA68184642F08002CA60704756
:10387C00012070470220704790F83A30202B20D15D
:10388C00E9B1E2B190F83830012B1AD0C2858285AB
:10389C0000232222C36380F83A20026880F8383073
:1038AC008162D168184641F48071D160516941F050
:1038BC0001015161D16841F02001D16070470120B4
:1038CC0070470220704710B590F83A30222B33D154
:1038DC008168836AB1F5805F026820D1016909BBF8
:1038EC005268C2F3080223F8022BC48D8362013C98
:1038FC00A4B2C4858CB90368DA6822F02002DA60BD
:10390C00DA6822F48072DA605A6922F001025A6194
:10391C00202380F83A3001F0F9FB00200DE039B992
:10392C00016929B95268D2B21A70836A0133DCE793
:10393C00526802F07F02F7E7022010BD036870B5F1
:10394C001A6804461607D9685D6907D196065CD5D6
:10395C008D065AD5BDE87040FFF7B5BF05F00100E4
:10396C0001F49075054350D0D60705D5CD0542BF5F
:10397C00E36B43F00103E363530704D518B1E36B26
:10398C0043F00203E363960704D518B1E36B43F0ED
:10399C000403E363150707D501F0200303431EBF9F
:1039AC00E36B43F00803E363E36B4BB3900604D57E
:1039BC00890602D52046FFF786FF236820465B69FF
:1039CC00E56B03F0400305F008051D4319D0FFF724
:1039DC0027FF23685A6952060FD55A69606B22F08B
:1039EC0040025A6148B1254B4363FEF7DBFC38B10A
:1039FC00606BBDE87040436B1847204601F08CFBB0
:103A0C0070BD01F089FBE563FAE7160626D50D06B5
:103A1C0024D594F83920212AF2D1A168226AB1F573
:103A2C00805F16D12169A1B932F8021BC1F30801DC
:103A3C0059602262E28C013A92B2E284002ADFD110
:103A4C00DA6822F08002DA60DA6842F04002DA606A
:103A5C00D6E7511C216212785A60EBE75006CFD59D
:103A6C004A06CDD5DA68204622F04002DA602023DF
:103A7C0084F8393001F04DFBC2E700BF8D3A0008E5
:103A8C0008B50023406AC385C38401F045FB08BD1B
:103A9C0090F83830012B11D02423026880F839308B
:103AAC00D36823F00C0343F00803D360202380F881
:103ABC003930002380F838301846704702207047A0
:103ACC0090F83830012B11D02423026880F839305B
:103ADC00D36823F00C0343F00403D360202380F855
:103AEC003930002380F83830184670470220704770
:103AFC0090F8392090F83A001043704784B001A830
:103B0C0080E80E0004B00020704703464FF43F429B
:103B1C000020A3F84400A3F840207047B0F84030D0
:103B2C0023F47C535B045B0CA0F8403000207047FE
:103B3C000020704784B010B5044603A880E80E003E
:103B4C0000200123A4F84030A4F84000A4F844005D
:103B5C00A4F85000BDE8104004B07047F0B50D78E3
:103B6C00034630F82520C87822F4EC4222F070028B
:103B7C001204120C03284FD8DFE800F0024B49471F
:103B8C0042F4007248F28004224323F825200E7878
:103B9C009B4D33F8262092B22A403243224323F81D
:103BAC0026200C7B0A78002C40F08980CC884E783B
:103BBC006408640003EB021286B3B3F85060B6B22B
:103BCC003244A2F800440C7833F82420520609D56C
:103BDC0033F8242092B22A4042F4004242F0C00250
:103BEC0023F82420CA780C78012A33F8242085493C
:103BFC0092B202EA010218BF82F0200242F40042A3
:103C0C0042F0800223F82420F0BD42F4C062002070
:103C1C00B8E742F48062FAE70120B3E7B3F85050FA
:103C2C000E69ADB22A44A2F808440A78B3F85040A1
:103C3C0003EB0212A4B202F20C427EBB155B25F41C
:103C4C00F8452D042D0C1553155B6FEA45456FEAAD
:103C5C005545ADB215530C7833F8242055040DD5C9
:103C6C0033F8242022F4E04222F070021204120CE9
:103C7C0042F4404242F0800223F82420097833F8C1
:103C8C00212022F4804222F070021204120C82F4E1
:103C9C00405242F4004242F0800271E03E2E05D8C0
:103CAC007508F70748BF0135AD02D2E77709564DC5
:103CBC00F60608BF07F1FF3745EA8725C9E733F851
:103CCC002240A4B22C4044F4014444F0800423F874
:103CDC0022400A780C89B3F8506003EB0212640896
:103CEC00B6B202F58062640094530A784C89B3F83A
:103CFC00506003EB0212640802F581626400B6B2F4
:103D0C0094534A780C78002A3DD133F8242052047D
:103D1C0009D533F8242092B22A4042F4404242F0B2
:103D2C00800223F824200C7833F8242057060DD574
:103D3C0033F8242022F4E04222F070021204120C18
:103D4C0042F4004242F0C00223F8242048F28004DE
:103D5C000D7833F8252022F4804222F070021204F0
:103D6C00120C82F44052224323F82520097833F8B0
:103D7C00212022F4E04222F040021204120C2243D1
:103D8C0023F8212040E733F82420560409D533F8D2
:103D9C00242092B22A4042F4404242F0800223F89E
:103DAC0024200C7833F8242052060DD533F8242027
:103DBC0022F4E04222F070021204120C42F400428F
:103DCC0042F0C00223F82420CA780C78012A33F878
:103DDC0024200C4D92B202EA050218BF82F0200298
:103DEC0042F4004242F0800223F82420097833F890
:103DFC00212022F4804222F070021204120C48E7B7
:103E0C008F8FFFFFBF8FFFFF0080FFFF10B50C7B74
:103E1C004B780A78002C3DD113B330F822305C0675
:103E2C000DD530F8223023F4E04323F070031B044B
:103E3C001B0C43F4004343F0C00320F822300A78F3
:103E4C0030F8223023F4E04323F040031B041B0C16
:103E5C0043F4004343F0800320F82230002010BDCF
:103E6C0030F822305B040DD530F8223023F4E043D7
:103E7C0023F070031B041B0C43F4404343F08003FA
:103E8C0020F822300A7830F8223023F4804323F0D3
:103E9C007003DBE7002B4ED130F822305C040DD5DB
:103EAC0030F8223023F4E04323F070031B041B0C86
:103EBC0043F4404343F0800320F822300A7830F872
:103ECC0022305B060DD530F8223023F4E04323F08A
:103EDC0070031B041B0C43F4004343F0C00320F895
:103EEC0022300A7830F8223023F4E04323F07003B8
:103EFC001B041B0C43F4004343F0C00320F8223096
:103F0C0048F280020C7830F8243023F4804323F0FC
:103F1C0070031B041B0C134320F82430097830F871
:103F2C00213023F4E04323F040031B041B0C134308
:103F3C0020F8213092E730F822305C040DD530F8AF
:103F4C00223023F4E04323F070031B041B0C43F4D6
:103F5C00404343F0800320F822300A7830F82230B6
:103F6C005B060DD530F8223023F4E04323F07003C8
:103F7C001B041B0C43F4004343F0C00320F8223015
:103F8C000A7830F8223023F4E04323F070031B044A
:103F9C001B0C43F4404343F0800320F8223048F2DA
:103FAC0080020C7830F8243023F4E04323F04003F3
:103FBC001B041B0C134320F82430097830F82130F3
:103FCC0023F4804323F07003AFE74B780A788BB16E
:103FDC0030F8223023F4E04323F040031B041B0C85
:103FEC0083F0100343F4004343F0800320F82230A5
:103FFC000020704730F8223023F4804323F0700304
:10400C001B041B0C83F48053ECE70B7B43BB4B78FA
:10401C000A783BB330F822305B060DD530F82230ED
:10402C0023F4E04323F070031B041B0C43F4004304
:10403C0043F0C00320F82230CB78012B10D00A7843
:10404C0030F8223023F4E04323F040031B041B0C14
:10405C0083F0200343F4004343F0800320F8223024
:10406C000020704730F822305B040DD530F8223038
:10407C0023F4E04323F070031B041B0C43F4404374
:10408C0043F0800320F822300A7830F8223023F4F1
:10409C00804323F070031B041B0C83F44053D9E7BB
:1040AC0011B98023A0F84C300020704700207047D5
:1040BC0000207047B0F8440080B270470020704771
:1040CC0000EB4202013302F580625B0802EB8303D2
:1040DC009A4200D1704731F8020B22F8040BF7E733
:1040EC00F8B50D464978044601292A7B40F0A18198
:1040FC00D5F810C0AE696969664528BF664602BB33
:10410C00B6B2EA883346FFF7DBFFB4F850202978C3
:10411C0090B204F20442090102448E522A7834F817
:10412C00223023F4E04323F040031B041B0C83F0E8
:10413C003003002043F4004343F0800324F8223082
:10414C00F8BDEB782F78022B40F038812B6A30F8D1
:10415C0027209C4580F01A8122F4E04222F0700264
:10416C001204120C42F4014242F0800220F8272083
:10417C002A789B1B30F822002B6210F0400FB3B250
:10418C00687800F08380002852D1B4F8500004F213
:10419C000C4780B238441201002E36D1875A27F4CE
:1041AC00F8473F043F0C8752875A6FEA47476FEA3C
:1041BC005747BFB2875220466A89FFF781FF2A6AA8
:1041CC002B6969699A428ABF931B0023324668782F
:1041DC0031442B62696193B200284BD1B4F8500082
:1041EC002E7880B204F20447360138445ABB325A56
:1041FC0022F4F8421204120C3252325A6FEA424242
:10420C006FEA524292B2325226E03E2E06D877081E
:10421C0016F0010F18BF0137BF02CAE74FEA561C50
:10422C00F706A34F08BF0CF1FF3C47EA8C27C0E709
:10423C000128C0D1B4F85000120187B204F20C402E
:10424C0038448352B7E73E2A0BD85708D20748BFE9
:10425C000137BF02BFB237522A892046FFF730FF21
:10426C005CE75709D206924A08BF07F1FF3742EACA
:10427C008722C7E70128EFD1B4F85020287896B2EE
:10428C0004F20442000132448352E5E7002852D183
:10429C00B4F8500004F2044780B238441201002EE6
:1042AC0036D1875A27F4F8473F043F0C8752875A78
:1042BC006FEA47476FEA5747BFB2875220462A89B1
:1042CC00FFF7FEFE2A6A2B6969699A428ABF931B23
:1042DC0000233246687831442B62696193B200281E
:1042EC0048D1B4F850002E7880B204F20C47360155
:1042FC0038445ABB325A22F4F8421204120C32528D
:10430C00325A6FEA42426FEA524292B2325226E07D
:10431C003E2E06D8770816F0010F18BF0137BF02E2
:10432C00CAE74FEA561CF706614F08BF0CF1FF3C79
:10433C0047EA8C27C0E70128C0D1B4F8500012011D
:10434C0087B204F2044038448352B7E73E2A08D8B7
:10435C005708D20748BF0137BF02BFB237526A892C
:10436C007BE75709D206524A08BF07F1FF3742EAEA
:10437C008722CAE70128F2D1B4F85020287896B2E7
:10438C0004F20C42000132448352E8E722F4E24288
:10439C0022F070021204120C42F4004242F080022D
:1043AC0020F82720B0F850202E7897B200F2044263
:1043BC003A4436019BB2B3522A894FE730F8272092
:1043CC00B3B212F0400FB0F850204FEA071790B27A
:1043DC0015BF04F20C4204F204421218121815BF55
:1043EC00D353D3536A892A892046FFF769FE6B7829
:1043FC002A7873B934F8223023F4E04323F07003A5
:10440C001B041B0C43F4004343F0C00324F822307C
:10441C0084E6012B7FF482AE34F8223023F4E0439F
:10442C0023F070031B041B0C43F4404343F0800344
:10443C00ECE7002A3ED1AB6929698B4284BF5A1A3A
:10444C000B46B0F850102878AA618AB204F20C41DD
:10445C00000111446BB9435A23F4F8431B041B0CA1
:10446C004352435A6FEA43436FEA53439BB243525E
:10447C0008E03E2B12D85A08DF0748BF01329202DF
:10448C0092B242522A7834F8223023F4804323F03B
:10449C0070031B041B0C83F440534AE65A09DE06D6
:1044AC00034B08BF02F1FF3243EA8223DEE700BF71
:1044BC000080FFFFEB78022B7ED1B9B9B0F8502009
:1044CC00297893B200F20442286909011A440028A1
:1044DC0044D18B5A23F4F8431B041B0C8B528B5A7C
:1044EC006FEA43436FEA53439BB28B526A782B7843
:1044FC00002A55D1B4F8501028698AB204F20C4144
:10450C0011441B0100283AD1CA5A22F4F842120471
:10451C00120CCA52CA5A6FEA42426FEA524292B223
:10452C00CA52EB69002BADD044F240032A7834F820
:10453C00221003EA01008B4301D00028A2D134F8E9
:10454C00223023F4E04323F070031B041B0C43F4D0
:10455C00004343F0C00324F8223093E73E2805D8EB
:10456C004308C00748BF01339B02BDE746094A4BCD
:10457C00C70608BF06F1FF3643EA8623B4E73E2898
:10458C0005D84208C00748BF01329202C7E7460966
:10459C00414AC70608BF06F1FF3642EA8622BEE74B
:1045AC00012ABED1B4F850201B0191B204F20C4286
:1045BC000A44298AD152B4E7012B6AD1AB692A6922
:1045CC00934294BF0020981AA86188BF1346A9B9DA
:1045DC00B4F8501028788AB204F204410001114456
:1045EC0033BB425A22F4F8421204120C4252425A81
:1045FC006FEA42426FEA524292B2425269782A788A
:10460C00002939D1B4F85000120181B204F20C40E7
:10461C000844F3B9835A23F4F8431B041B0C83524C
:10462C00835A6FEA43436FEA53439BB2835229E7A1
:10463C003E2B05D85A08DE0748BF01329202DBE751
:10464C005E09154ADF0608BF06F1FF3642EA8622EC
:10465C00D2E73E2B07D85908DE0748BF0131890243
:10466C0089B281520EE75909DB060B4B08BF01F1E9
:10467C00FF3143EA8123D8E701297FF403AFB4F873
:10468C005010120188B204F20C4101449BB28B52BF
:10469C00F8E6012054E500BF0080FFFF00EB42026A
:1046AC00F0B502F580625D080C4617462E460234C2
:1046BC0036B9DB0744BF32F8253001F81530F0BDB0
:1046CC0037F8040B013E80B204F8020C000A04F81F
:1046DC00010CECE786B0042841D8DFE800F00310A9
:1046EC001C2834001F4B20489A6942F004029A613E
:1046FC009B6903F004030193019B06B07047194BAF
:10470C001A489A6942F008029A619B6903F00803FF
:10471C000293029BF1E7134B15489A6942F0100281
:10472C009A619B6903F010030393039BE5E70D4B20
:10473C0010489A6942F020029A619B6903F02003A9
:10474C000493049BD9E7074B0B489A6942F040024B
:10475C009A619B6903F040030593059BCDE700200C
:10476C00CBE700BF0010024000080140000C0140E4
:10477C00001001400014014000180140F8B5144924
:10478C00064600F03CFB00F0E1FD124C054654F8E7
:10479C00203073B90E49304600F031FB0746B0208B
:1047AC0000F0D2FF0646394600F00CFE54F82530D6
:1047BC001E6054F825301C6844B1204600F0E2FD20
:1047CC002046BDE8F840B02100F0C0BFF8BD00BFE6
:1047DC00C8740008740300200B68032B18D90378E5
:1047EC00312B15D14378452B12D18378412B0FD126
:1047FC00C378462B0CD1BFF34F8F0649064BCA68C2
:10480C0002F4E0621343CB60BFF34F8F00BFFDE7B0
:10481C00704700BF00ED00E00400FA05FDF72ABD6B
:10482C00704708B5FDF71AFDFDF7B7FDFFF7F8FF68
:10483C0008BD70470A4B82B0DA6942F08052DA61E7
:10484C00DA6902F080520092009A9A6942F00102F1
:10485C009A619B6903F001030193019B02B07047BD
:10486C00001002400B4BDA68D2015EBFDA6842F0EE
:10487C008072DA600022084B5A601A6842F001021A
:10488C001A6000BF00BF00BF5868B0FA80F0400942
:10489C00704700BFF0ED00E0001000E008B5FFF736
:1048AC00C9FFFFF7DFFFFDF7C7FCFFF7C2FF00F002
:1048BC00F3FCBDE8084001F0DFBF836810B5044687
:1048CC0013B1032201469847204610BD002301284E
:1048DC0003F1010202D013464008F8E71421DBB2C1
:1048EC004B43044A181D1044816811B11A441369D2
:1048FC0018477047280200200120FDF799BD0220BF
:10490C00FDF796BD0420FDF793BD0820FDF790BD83
:10491C001020FDF78DBD38B505242025A8B2FDF774
:10492C0087FD013C4FEA4505F8D138BD38B5062462
:10493C004FF48065A8B2FDF77BFD013C4FEA4505BD
:10494C00F8D138BD0721204B06221975082183F8B0
:10495C002810092183F83C100A2183F850101721E4
:10496C001A7083F86410002283F8781083F88C1086
:10497C0083F8A01083F8B4102821DA601A625A6305
:10498C009A64DA651A67C3F88420C3F89820C3F8D0
:10499C00AC20C3F8C02083F8C810C3F8D42083F827
:1049AC00DC10C3F8E82083F8F010C3F8FC2083F87F
:1049BC000411C3F8102183F81811C3F8242183F8CB
:1049CC002C11C3F8382170472802002038B5054C4B
:1049DC00A4F5A075143C201DFFF76FFFAC42F9D174
:1049EC0038BD00BF680300207B4B82B09A69013848
:1049FC0042F001029A619B6903F001030193019B50
:104A0C0023282CD8DFE810F024002D0034003B00C4
:104A1C00400047004C00530058005F0068006D00D8
:104A2C0074007D008200890092009B00A000A7000A
:104A3C00B000B500BC002B002B002B00C100C8003F
:104A4C002B002B002B002B00CD00D200D900E00056
:104A5C00624A536843F0E06343F00103536002B0D1
:104A6C0070475E4A536823F0010343F0E063F5E7B7
:104A7C005A4A536843F0E06343F00203EEE7574AA7
:104A8C00536823F00203F0E7544A536843F0E063A1
:104A9C0043F00403E2E7514A536823F00403E4E7CC
:104AAC004E4A536843F0E06343F00803D6E74B4AA1
:104ABC00536823F00803D8E7484A536843F0E0638F
:104ACC0043F03003CAE7454A536823F0300343F000
:104ADC00E06343F01003C1E7404A536823F030030E
:104AEC00C3E73E4A536843F0E06343F0C003B5E7C5
:104AFC003A4A536823F0C00343F0E06343F04003A9
:104B0C00ACE7364A536823F0C003AEE7334A536828
:104B1C0043F0E06343F44073A0E7304A536823F456
:104B2C00407343F0E06343F4007397E72B4A5368F8
:104B3C0023F4407343F0E06343F480738EE7274A19
:104B4C00536823F4407390E7244A536843F0E063BE
:104B5C0043F4406382E7214A536823F4406343F0F3
:104B6C00E06343F4006379E71C4A536823F4406321
:104B7C007BE71A4A536843F0E06343F480536DE7D4
:104B8C00164A536823F480536FE7144A536843F072
:104B9C00E06343F4004361E7104A536823F4004395
:104BAC0063E70E4A536823F0E06357E70B4A5368F8
:104BBC0023F0E06343F0807350E7084A536823F016
:104BCC00E06343F0007349E7044A536823F0E06361
:104BDC0043F0806342E700BF001002400000014038
:104BEC0091FAA1F3B3FA83F370B50D0E0F2691FA77
:104BFC00A1F1B1FA81F144599B0006FA03F3890043
:104C0C0024EA030402FA01F12143415170BD91FAE7
:104C1C00A1F3B3FA83F370B50D0E042691FAA1F14A
:104C2C00B1FA81F144599B0006FA03F3890024EA96
:104C3C00030402FA01F12143415170BD431C04D01D
:104C4C000C3151F80C3C5A1C01D1002070478342A6
:104C5C0001F10C01F5D10120704700005E4B00F012
:104C6C000F022DE9F34753F82250431C06460F461A
:104C7C0001F00708C1F3062AC0F3031403D1812104
:104C8C00564800F0D3F82046FFF724FDB8F1010F89
:104C9C0004464FEA156944D195FAA5F2B2FA82F2AC
:104CAC00032350F80910920003FA02F221EA0201E0
:104CBC0095FAA5F2B2FA82F29200934001220B43CC
:104CCC0040F809302946204608F1FF38FFF788FFE5
:104CDC00B8F1010F06D817F0080218BF04222946B4
:104CEC00FFF795FF95FAA5F2B2FA82F39A000F231B
:104CFC00934095FAA5F2B2FA82F254F80910C7F370
:104D0C0001170B409200012F23FA02F322D0022F3D
:104D1C004BD0082B31D1042229462046FFF760FFE7
:104D2C002BE0B8F1030F0DD8DFE808F002120710E2
:104D3C005046FFF759FE0822C4E75046FFF754FED1
:104D4C000922BFE7D521254800F070F80022B9E709
:104D5C004246B7E7042B04D1082229462046FFF728
:104D6C003FFFE2682B0A22EA152293FAA3F5B5FA63
:104D7C0085F301259D401543E560194B9A6942F076
:104D8C0001029A619B6903F001030193019BA6F157
:104D9C000D03012B14D8134A536823F0E06343F03E
:104DAC008063536002B0BDE8F087042B04D1082265
:104DBC0029462046FFF714FFE36823EA1525DBE7B5
:104DCC000F2E02D0133E012EECD8064A536823F066
:104DDC00E06343F00073E4E760740008E0730008DC
:104DEC0000100240000001400B685A1C01D1002049
:104DFC007047834201D1486870470C31F4E7431C7B
:104E0C0001D0FFF7F1BF002070474B6813B94FF08A
:104E1C00FF307047834201D1086870470C31F4E7CA
:104E2C0008B1FFF7F2BF4FF0FF307047FEE700000C
:104E3C000E4B1A6842F001021A6059680C4A0A407B
:104E4C005A601A6822F0847222F480321A601A684E
:104E5C0022F480221A605A6822F4FE025A604FF43F
:104E6C001F029A60034B044A9A607047001002407C
:104E7C000000FFF800ED00E0002000080438704747
:104E8C0003681D4A84B093420BD11C4B9A6942F4BF
:104E9C0000629A619B6903F400630093009B04B069
:104EAC007047B3F1804F10D0154A934218D0154A71
:104EBC009342F4D1114BDA6942F00402DA61DB69F6
:104ECC0003F004030393039BE9E70C4BDA6942F00C
:104EDC000102DA61DB6903F001030193019BDEE758
:104EEC00064BDA6942F00202DA61DB6903F0020375
:104EFC000293029BD3E700BF002C0140001002403C
:104F0C0000040040000800400368124A934206D196
:104F1C0002F56442936923F4006393617047B3F123
:104F2C00804F06D00C4A934209D00C4A93420BD0C6
:104F3C0070470B4AD36923F00103D3617047084AC9
:104F4C00D36923F00203F8E7054AD36923F004037D
:104F5C00F3E700BF002C01400004004000080040B3
:104F6C000010024008B5431C01460DD00D4B984271
:104F7C0012D00CD8B0F1804F10D0A3F580639842BA
:104F8C000ED00948FFF752FF6FF00D0008BD074B1C
:104F9C009842F6D11920F9E71E20F7E71C20F5E717
:104FAC001D20F3E700080040B0740008002C0140FD
:104FBC0008B5431C01460DD00D4B984212D00CD8AD
:104FCC00B0F1804F10D0A3F5806398420ED0094801
:104FDC00FFF72CFF6FF00D0008BD074B9842F6D180
:104FEC001B20F9E71E20F7E71C20F5E71D20F3E74F
:104FFC0000080040B0740008002C014038B504468D
:10500C00FFF73EFF0068FFF7ADFFD4E91212FDF782
:10501C0049F92068FFF7A6FFFDF776F92068FFF73E
:10502C00C7FF05462068FFF79DFF85420DD020681D
:10503C00FFF7BEFFD4E91212FDF734F92068FFF731
:10504C00B7FFBDE83840FDF75FB938BD08B5074B71
:10505C0090F8552053F82200FEF74AFD00F022008C
:10506C00A0F122035842584108BD00BF680300203C
:10507C0008B5074B90F8552053F82200FEF738FD81
:10508C0000F02100A0F121035842584108BD00BF97
:10509C006803002038B515460446B8B1816490F910
:1050AC005400FDF73FF9B4F86630E16D9BB294F80B
:1050BC0055001944064BAAB253F82000FEF7BDFB6D
:1050CC0094F95400BDE83840FDF71EB938BD00BF57
:1050DC006803002048B1036D013306D190F85520C8
:1050EC00024B53F82200FEF7D3BC70476803002034
:1050FC0048B1036D013306D190F85520024B53F89B
:10510C002200FEF7DDBC704768030020036C0438F6
:10511C001847436C043818471FB5036804461868D1
:10512C0010F0010013D0002200921A6800925B6804
:10513C000093009B201FFFF789FF40BB01222046F4
:10514C0004F1520104B0BDE81040FEF795BB19689C
:10515C0011F0020106D001901A6801925B6801936C
:10516C00019BE7E71A6812F0040206D002911A6854
:10517C0002925B680293029BDCE719680907D9D598
:10518C0003921A6803925B680393039BD2E704B003
:10519C0010BD000008B52520FDF7EEF8024B18688D
:1051AC00BDE80840FEF7CABB6803002008B52620FE
:1051BC00FDF7E2F8024B5868BDE80840FEF7BEBBAD
:1051CC0068030020272008B5FDF7D6F8034B986834
:1051DC0018B1BDE80840FEF7B1BB08BD680300205C
:1051EC0003460A4910B508680344EFF3088293425A
:1051FC0005D90C224FF0FF30054B1A6010BD054A43
:10520C00054C121B9342F4D20B60F7E720000020F0
:10521C00D00D00200050002000040000FEE700002C
:10522C001622024B4FF0FF301A607047D00D002051
:10523C00012070471148854672B6BFF34F8FBFF3FC
:10524C006F8F71B6002103E00D4B5B584350043156
:10525C000C480D4B42189A42F6D30C4A02E000233C
:10526C0042F8043B0A4B9A42F9D3FFF7E1FD62B6D0
:10527C0061B601F039FF00F05DFA70470050002074
:10528C00C07B0008000000200C0200200C02002053
:10529C00E00D0020FEE700BE00B595B01022002105
:1052AC000DA801F063FF142200210DEB020001F0A8
:1052BC005DFF1022002101A801F058FF01224FF4DC
:1052CC0080330E92CDE90A2302220021CDE911236D
:1052DC004FF4E0130AA80C911393FDF7ADFE18B12F
:1052EC006E211348FFF7A2FD0F2302214FF48062B9
:1052FC00CDE90531002305A8CDE907320993FEF766
:10530C0071F818B17A210A48FFF790FD12234FF477
:10531C0000410193002301A8CDE90313FEF7FEF829
:10532C0018B181210248FFF781FD15B05DF804FB2F
:10533C0068770008836810B504462BB10322014638
:10534C0098470023C4E90233204610BD0B4B98420A
:10535C000ED0B0F1804F0DD0A3F5943398420BD002
:10536C004FF6FF73064A904214BF1846032070474D
:10537C00002070470120704702207047002C01402C
:10538C0000080040014670B5044651F8100FFFF7B5
:10539C00DDFF05460846FFF7B7FD0023084A04F178
:1053AC00600642F82530E36004F1B005B54204D044
:1053BC00103D2846FFF781FAF8E7204670BD00BF84
:1053CC0074030020F8B50023044683668367C0F895
:1053DC008830C0F89830C0F8A83008460D46FFF762
:1053EC00B5FF4FF6FF739842064603D12F211E4896
:1053FC00FFF71CFD1D4A04F10C0342F82630002374
:10540C000E2204F1100625613046C4E90C33C4E9C0
:10541C000E33C4E91033C4E9162384F82C30A3648A
:10542C0084F84C3084F84D30E460FFF729FD04F12A
:10543C00600504F1B00728461035FFF77BFFBD422D
:10544C00F9D100234FF6FF72C4E90033C4E90632E8
:10545C00C4E90833A360636180233046A362FEF77E
:10546C00B1F92046F8BD00BFB478000874030020E1
:10547C00034B186810B10430FEF7CAB8704700BF70
:10548C0074030020FFF7F4BF034B586810B10430CD
:10549C00FEF7BEB8704700BF74030020034B98683A
:1054AC0010B10430FEF7B4B8704700BF740300208D
:1054BC00034BD86810B10430FEF7AAB8704700BF90
:1054CC0074030020826810B50AB901F067FFC36845
:1054DC00BDE810401847000010B5044620B940F252
:1054EC0036410648FFF7A2FC2046FFF7C7FC0068D0
:1054FC00836E13B16030FFF7E5FF10BDB478000880
:10550C00FFF7EABF38B5054620B940F249411048CB
:10551C00FFF78CFC2B7F013B072B11D8DFE803F046
:10552C00150410111010101302242846FFF7A6FCC6
:10553C000068063400EB041083680BB1FFF7C2FF60
:10554C0038BD0324F1E70424EFE70124EDE700BFA5
:10555C00B4780008FFF7D6BFFFF7D4BF70B5054687
:10556C000C46084649B1FCF7CBFD2B680246214698
:10557C002846BDE870405B68184770BD08B5024905
:10558C00FFF7ECFF08BD00BF2C79000838B50546C5
:10559C00FFF7E4FF04462846FFF7F0FF204438BD30
:1055AC0007B503688DF8071001225B680DF1070140
:1055BC00984703B05DF804FB014800F0CFB800BF7A
:1055CC00C80500202DE9F0410E4614461746DFF8B9
:1055DC003880AFB100F034FB90B1404600F0BEF81B
:1055EC00B84228BF384605460028F2D0024631465C
:1055FC00404600F0D4F87F1B2E4400F03DFBE8E75A
:10560C00E01BBDE8F08100BFC8050020014800F098
:10561C0068B900BF4E06002010B5044800F089F9A7
:10562C00044600F05FFB204610BD00BF4E06002074
:10563C002DE9F84306460F46154694B201F0BEF923
:10564C00DFF83490F06022463946484600F0CFF936
:10565C008046A4EB0804A4B200F044FB47443CB1E0
:10566C0001F0ACF9F368C01AB3689842EBD32D1B68
:10567C002846BDE8F88300BF4E0600202DE9F04F08
:10568C0085B00646884617461C469DB201F096F931
:10569C00DFF84CA0F0600DF10E093A462B4641465E
:1056AC005046CDF8009000F0E8F9834600F01AFB64
:1056BC00BDF80E20AD1AADB21744BBF1000F04D0EB
:1056CC00641B204605B0BDE8F08F002DF9D001F029
:1056DC0075F9F368C01AB3689842DED3F0E700BFDF
:1056EC004E060020014800F05CB900BF4E060020B9
:1056FC0010B5034C204600F041F80028FADC10BD30
:10570C00C805002000F078BA4FF47A720021034BE0
:10571C00C3E90112024A1A60704700BF84030020DB
:10572C003879000808B50320FCF7AAFDBDE808404D
:10573C0001F06EB908B5AFF30080FCF709FDFCF77A
:10574C0047FD01F04BF9FAE701F0F2BC01F0F8BCAF
:10575C000023A0F88230A0F880307047B0F8823077
:10576C00B0F880009BB280B2181A7F30434203F02D
:10577C007F0300F07F0058BF58427047B0F880306C
:10578C00B0F882009BB282B203F18000801A4342CF
:10579C0003F07F0300F07F0058BF58427047F8B504
:1057AC00B0F880600446B6B2B0F88000C6F180064E
:1057BC0096420F46154680B20AD9204401F0C8FC27
:1057CC00B4F88020154405F07F05A4F88050F8BD8E
:1057DC003246204401F0BCFC2046AA1BB919EDE767
:1057EC00B0F88020B0F8823092B29BB29A422BBFB4
:1057FC00B0F88030B0F88230B0F88220C3F180036A
:10580C0028BF9B1A9BB20B80A0F88430B0F8823072
:10581C009BB218447047B0F88220B0F8843013441F
:10582C0003F07F03A0F8823070470023A0F8C23049
:10583C00A0F8C030C023A0F8C4307047B0F8C23014
:10584C0082B09BB2ADF80630B0F8C010BDF806308F
:10585C0089B29BB29942B0F8C03002469BB21ED3BB
:10586C007F2B08D9B0F8C0309BB2802B09D1BDF882
:10587C0006309BB22BB1B2F8C0309BB2D01802B03C
:10588C007047BDF8063000209BB2402BF7D9B2F818
:10589C00C0309BB2A2F8C430A2F8C000EBE7BDF850
:1058AC000610403389B28B42E5D30020E7E7B0F80D
:1058BC00C030194489B2A0F8C010B0F8C020B0F8BC
:1058CC00C43092B29BB29A4224BFC023A0F8C43019
:1058DC00B0F8C0309BB2BF2B84BF0023A0F8C030FF
:1058EC007047B0F8C03082B09BB2ADF80430B0F85D
:1058FC00C4309BB2ADF80630B0F8C220BDF804300D
:10590C0092B29BB29A4208D8BDF80430B0F8C200EB
:10591C009BB280B2181A02B07047BDF80630BDF8C1
:10592C000410B0F8C2209BB289B292B25818801AF7
:10593C00F1E7B0F8C03082B09BB2ADF80430B0F8EB
:10594C00C4309BB2ADF80630B0F8C220BDF80630BA
:10595C0092B29BB29A4204BF0023A0F8C230B0F8B6
:10596C00C220BDF8043092B29BB29A4216D0B0F865
:10597C00C2309BB25A1C92B2A0F8C220B0F8C2102E
:10598C00BDF8062089B292B2914228BF0022C35CB6
:10599C0028BFA0F8C220184602B070474FF0FF3065
:1059AC00FAE7B0F8C03082B09BB2ADF80430B0F872
:1059BC00C4309BB2ADF80630B0F8C220BDF806304A
:1059CC0092B29BB29A4224BF0023A0F8C230B0F826
:1059DC00C220BDF8043092B29BB29A420FBF4FF076
:1059EC00FF30B0F8C2309BB2C05C02B0704737B524
:1059FC000446B4F8C03008469BB2ADF80430B4F895
:105A0C00C4309BB2ADF80630B4F8C210BDF8063005
:105A1C0089B29BB2994224BF0023A4F8C230B4F8D7
:105A2C00C210BDF8043089B29BB2994294BFBDF844
:105A3C000430BDF80630B4F8C250B4F8C2105D1B87
:105A4C00ADB2954228BF154689B22A46214401F0D1
:105A5C007FFBB4F8C23028462B449BB2A4F8C2306A
:105A6C00B4F8C220BDF8063092B29BB29A4224BF61
:105A7C000023A4F8C23003B030BDF7B51E46B0F811
:105A8C00C030089D9BB2ADF80430B0F8C4309BB266
:105A9C00ADF80630B0F8C240BDF80630A4B29BB2E7
:105AAC009C4224BF0023A0F8C230B0F8C240BDF81D
:105ABC000430A4B29BB29C4294BFBDF80440BDF824
:105ACC000640B0F8C230E41AA3B20024B34228BF97
:105ADC003346B0F8C260B6B20644A7B2BB4214D883
:105AEC002B80B0F8C22013449BB2A0F8C230B0F89F
:105AFC00C220BDF8063092B29BB29A424FF000031E
:105B0C0028BFA0F8C230184618E016F804C08C451F
:105B1C0016D1B0F8C2309BB201333B449BB2A0F813
:105B2C00C230B0F8C220BDF8063092B29BB29A4295
:105B3C0024BF0023A0F8C23001202F8003B0F0BD99
:105B4C0002F804C00134C8E70020704710B5094CB6
:105B5C000948FFF7FDFD2046FFF767FE0122074BC2
:105B6C0020461A70FFF76AFE0146054801F0C4F89A
:105B7C00002010BD4E060020C8050020400000206B
:105B8C001407002021280ED022281DD0202808D14F
:105B9C000A68154B1A600A791A714A795A718A790E
:105BAC009A7100207047104B1A680A701A68120A12
:105BBC004A705A888A70DA78CA701A790A715A79D6
:105BCC004A719B798B71ECE74B88084A03F001030F
:105BDC001360136813B10022054B1A60054A137841
:105BEC0001331370DDE700BF38000020980300205C
:105BFC009C0300209503002010B50C4C22789AB918
:105C0C000B490C4800F0ACF870B90B49094800F08E
:105C1C00BFF848B90949074801F05FF820B90548B1
:105C2C0000F0C9F80123237010BD00BF94030020BD
:105C3C0058000020140700209800002024000020A9
:105C4C000A4B10B51C6814B1FCF714FB041B084B71
:105C5C0093F89C32032B07D1022C05D8054B1868FE
:105C6C00003818BF012010BD0020FCE79C03002069
:105C7C00140700209803002037B50F4CD4F8BC3221
:105C8C00D3F81432ABB90D480DF10601FFF7A8FD9E
:105C9C00BDF80630054663B1FCF7ECFA084B294613
:105CAC001860BDF80620204601F01EF8204601F0D1
:105CBC0029F803B030BD00BF14070020C805002030
:105CCC009C03002010B50024044B05481C60FFF712
:105CDC00A2FDFFF7D1FF204610BD00BF9C030020A2
:105CEC00C805002038B50A4D2B780BB1002038BD03
:105CFC000848FFF7A3FD01460028F7D00124064809
:105D0C002C7000F0F9FF044801F014F82046EEE77F
:105D1C00400000204E0600201407002038B50C4D22
:105D2C000C462B78032B03D9FEF756FD00232B7062
:105D3C0021880848FFF7BBFD0022074B1A70FFF7BC
:105D4C00D1FF10B9054801F00CF8002038BD00BF98
:105D5C00950300204E060020400000201407002070
:105D6C00A0B1D0F8B83213B10023C0F8B832D0F8D3
:105D7C00CC3213B10023C0F8CC3209B1C0F8B41244
:105D8C000123027080F89C3200F052BC0320704753
:105D9C0037B500240546ADF8064051B1C0F8B8122D
:105DAC008B6A0DF106009847C5F8CC02204603B06B
:105DBC0030BD0320FBE700F071BCD0F8B8320BB15A
:105DCC001B6818470320704708B5D0F8B8320BB1E0
:105DDC005B689847002008BD38B500F2AA25044638
:105DEC00284600F0F8FA012394F8AA12C4F8943269
:105DFC00B4F8B032C4F8983201F01F03012B08D06C
:105E0C00022B0CD08BB929462046BDE8384000F057
:105E1C00E9B829462046BDE8384000F021BA2946A9
:105E2C002046BDE8384000F041BA2046BDE8384075
:105E3C0001F0800100F04ABC70B5044616460D46D0
:105E4C00F9B9D0F89432032B0CD1D0E957329342E4
:105E5C000AD99B1A9A4228BF1A463146C0F85C31BF
:105E6C0000F016FB284670BDD0F8B8321B6923B180
:105E7C0090F89C22032A00D19847204600F010FB92
:105E8C00F0E7D0F8B8329B6933B190F89C22032A22
:105E9C0002D1BDE8704018470325E3E770B504460E
:105EAC0016460D46D9BBD0F89432022B0ED1D0E950
:105EBC000732934213D99A1A3146C26100F0D3FAD1
:105ECC002B462A462946204600F02EFC94F8A03298
:105EDC00012B02D1002384F8A032284670BD0CD1CE
:105EEC008269934209D8D0F898329A4205D20A4670
:105EFC0000F0B9FAC4F89852E2E7D4F8B832DB688B
:105F0C004BB194F89C22032A05D120469847802156
:105F1C00204600F0DBFB204600F0CDFAD6E7D0F8A7
:105F2C00B8325B6933B190F89C22032A02D1BDE8E8
:105F3C00704018470325D0E70123002170B580F885
:105F4C009C32D0F8BC320446C0F894124160C0F8C0
:105F5C00A4121BB1D0F8B8325B68984700224025D8
:105F6C00012611464023204600F09FFB2B460022C1
:105F7C0080212046A4F86461C4F8605100F095FBC0
:105F8C000020A684256270BD01740020704790F833
:105F9C009C3280F89D32042380F89C32002070479C
:105FAC0090F89C32042B04BF90F89D3280F89C3200
:105FBC000020704708B590F89C22032A04D1D0F831
:105FCC00B832DB6903B19847002008BD10B5044610
:105FDC00802100F07BFB2046BDE81040002100F042
:105FEC0075BB0000F7B50D78044605F06005202D53
:105FFC000E4614D0402D12D0002D40F0FB804F786F
:10600C00092F00F2F780DFE817F0FC001E01F50005
:10601C001401F5007F001400F500E5009B00D4F896
:10602C00B832314620469B6898470546284603B04F
:10603C00F0BD00234988ADF806300B0A013B062B56
:10604C0037D8DFE803F0041C2936364C5600D0F85C
:10605C00B4321B68207C0DF106019847F288002AA7
:10606C0000F0ED80BDF806301BB39A4228BF1A46EB
:10607C000146ADF80620204600F0E8F9D6E7027C90
:10608C00D0F8B83232B99B6A0DF10600984702235A
:10609C004370E3E7DB6AF7E7C9B2D0F8B4320529FD
:1060AC0015D8DFE801F0030A0C0E10125B68002B08
:1060BC00D0D12046FFF78AFFB8E79B68F7E7DB688B
:1060CC00F5E71B69F3E75B69F1E79B69EFE7DB69D0
:1060DC00002BEED00DF10602007C9847BEE7037C46
:1060EC00002BE6D1D0F8B8320DF106005B6B984767
:1060FC00B4E7037C002BDCD1D0F8B8320DF10600EC
:10610C001B6B98470723C3E78B88002BD1D1CB8817
:10611C00002BCED14E887F2ECBD890F89C32032BFF
:10612C00C7D0F1B280F89E1200F0F0FA204600F0D1
:10613C00B7F91EB1022384F89C3277E70123FAE702
:10614C008E78464F012E3E7003D9FFF73FFF032593
:10615C006CE790F89C32022B08D0032B14D0FFF77D
:10616C0035FF20463978FFF72FFEF0E7002E66D07A
:10617C0001214160FFF721FE05462046002D99D1F3
:10618C0000F08EF90323D6E75EB90223314680F87E
:10619C009C324660FFF718FE204600F081F9354628
:1061AC0044E7416801294AD0C9B2FFF70DFE39789E
:1061BC0020466160FFF701FE064600283FD02046CE
:1061CC00FFF704FF20462179FFF7FEFD022384F838
:1061DC009C32E4E7CA88012A7FF46BAF90F89C32BA
:1061EC00022B05D833B10146002341F8083F42E7A2
:1061FC00032B04D02046FFF7E9FE002516E7011D0E
:10620C0039E790F89C32013B022BF3D8CB88022B58
:10621C007FF44FAF0123C360D0F8A4320BB103233A
:10622C00C3600222204604F10C0100F00FF93D4638
:10623C00FCE64B88012B7FF4F9AEC4F8A43220465F
:10624C0000F02EF9F2E690F89C32013B022BD1D8EB
:10625C004B88012B7FF4EAAE0023EEE7A00300206D
:10626C0070B50B78044603F06002402A0E4601D04C
:10627C005B0616D494F89C32013B022B11D833796F
:10628C00022B0ED8D4F8B83231469B68204698477A
:10629C00F38805461BB910B9204600F001F92846D1
:1062AC0070BD2046FFF792FE0025F8E770B50B781D
:1062BC00044603F06003202B0D4628D0402B26D03B
:1062CC009BBB6B788A88012B09793FD0032B26D096
:1062DC005BBB90F89C32022B58D0032B25D112F0CB
:1062EC00800F4FF0140201F00F0302FB03035ED08A
:1062FC009B8CD3B1142301F07F0505FB0333C51828
:10630C0011F07F035FD12B60022229464BE0D4F8B9
:10631C00B83229462046BDE870409B68184790F873
:10632C009C32022B29D0032B03D02046FFF74EFEC4
:10633C000AE06B882BB94A0603D0EB880BB900F046
:10634C00C5F9204600F0ACF8002070BD90F89C32E6
:10635C00022B12D0032BE8D16B88002BF4D14E0604
:10636C0001D000F0BAF9204600F09AF8D4F8B8320F
:10637C00294620469B689847E6E74B06D5D000F0A7
:10638C00A5F98021204600F0A1F9DDE74906CCD122
:10639C0013064FF000034FF002024CBF00F1140142
:1063AC0000F5AA710B60204600F050F8CCE7B3F86A
:1063BC006431002BB9D0142301F07F0503FB0505D4
:1063CC0005F5AA759CE7204600F08EF908B101236B
:1063DC0099E7286098E70B7803704B784370CA787C
:1063EC008B7843EA022343804A790B7943EA0223F0
:1063FC008380CA798B7943EA0223C380704710B536
:10640C000446802100F062F92046BDE810400021CE
:10641C0000F05CB930B588B1002501382B46013548
:10642C00445D002CFAD1DBB201335B0013800B709E
:10643C0003234B70022310F8012F02B930BDCA544C
:10644C005A1CD2B202338C54DBB2F4E7134602224C
:10645C0010B5C0E90633C0F894220A46002100F0BA
:10646C005CF9002010BD08B513460A46002100F067
:10647C0054F9002008BD1346032210B5C0E9563369
:10648C00C0F894220A46002100F04EF9002010BDFD
:10649C0008B513460A46002100F046F9002008BD55
:1064AC0008B50423C0F8943200231A46194600F0AC
:1064BC0034F9002008BD08B50523C0F89432002338
:1064CC001A46194600F030F9002008BD37B5204BAC
:1064DC00026804469A4238D11E4D03E0A968FEF7C3
:1064EC00BDFB0C352868431CF8D11B4B0121DA6924
:1064FC00142042F40002DA61DB69002203F4000389
:10650C000193019BFBF7CEFE1420FBF7FDFEA36964
:10651C00012B1AD14FF48022104B2A205A61DA68D1
:10652C0022F48022DA609A6842F480229A601A6817
:10653C0042F480221A60FBF7E7FE00222A20114663
:10654C0003B0BDE83040FBF7ADBE03B030BD00BFBB
:10655C00005C004044770008001002400004014039
:10656C0000F52C71D0F8E802FFF736BC282303FBAA
:10657C000103D0F8E802D3F87C21FFF75DBC282397
:10658C0003FB0103D0F8E802DA6BFFF787BCD0F805
:10659C00E802FFF70FBD10B50446D0F8E802FFF78C
:1065AC00CBFCD4F8E8020121BDE81040FFF7ECBCAD
:1065BC0010B50446D0F8E802FFF7E9FCA36923B153
:1065CC00024A136943F00603136110BD00ED00E0AD
:1065DC00836910B5044633B1FEF75EFE054A1369B4
:1065EC0023F006031361D4F8E802BDE81040FFF76E
:1065FC00D7BC00BF00ED00E00148FBF7CBBF00BFEC
:10660C00E409002008B5074B9B6933B1064A1369AE
:10661C0023F006031361FEF73FFE4FF48022034B79
:10662C005A6108BDE409002000ED00E000040140BF
:10663C0070B5044600F006F90423144843600023A7
:10664C00C0E90733C0E90533C360114BC0F8E84219
:10665C0003600223C4F8C40203618360FBF7F4FEF9
:10666C0020B14FF4FE710B48FEF7E0FB00250A4CFD
:10667C00064E63682289218830460135FCF7C2FC3E
:10668C00052D04F10C04F4D1002070BDE4090020A8
:10669C00005C00405C790008647A000808B5D0F80A
:1066AC00C402FBF74AFF002008BD10B51446D0F811
:1066BC00C4021A462346FCF7ABFB002010BD08B5FC
:1066CC00D0F8C402FCF7D6FB002008BD08B5D0F802
:1066DC00C402FCF731FC002008BD08B5D0F8C40298
:1066EC00FCF75EFC002008BD282311F0800FD0F8C9
:1066FC00C4221BBF01F07F0101FB033103FB01210D
:10670C00891814BF887891F86A01704708B5D0F8D9
:10671C00C402FBF72BFF002008BD08B5D0F8C4025B
:10672C00FCF7F0FB002008BD08B5D0F8C402FCF75C
:10673C00CAFB002008BDD0F8C402FCF7DBBB00008C
:10674C00122301480B8070474400002004230148A9
:10675C000B8070477800002000487047A103002090
:10676C00002370B51E464D1C040FB0F1204F34BFF2
:10677C003034373401F8134005F813600133DCB2C0
:10678C0094424FEA0010EFD370BD00001A2310B5ED
:10679C000B80094B186808331B68C0180AD0074BCC
:1067AC0008221C680649FFF7DBFF04222046054936
:1067BC00FFF7D6FF044810BDE8F7FF1FECF7FF1FEB
:1067CC007E0000208E0000207C00002010B5044CC0
:1067DC000A4604482146FFF71DFE204610BD00BFA7
:1067EC00D00C0020D87900080A4608B5044920B915
:1067FC000448FFF70FFE024808BD0348F9E700BF45
:10680C00D00C0020EB7900080A7A000810B5044C73
:10681C000A4604482146FFF7FDFD204610BD00BF87
:10682C00D00C0020297A000810B5044C0A46044804
:10683C002146FFF7EFFD204610BD00BFD00C002015
:10684C00447A000808B501210C20FEF707FA084B22
:10685C000A201A68074B1B6BC3F30F23536100F01C
:10686C00AFF8BDE8084000210C20FEF7F7B900BFD7
:10687C000800002060740008FFF7BEB9C3B2222BD9
:10688C002DE9F0410E462AD8294A00F4E06052F86E
:10689C0023400443621C49D0264DC4F3031755F81A
:1068AC00273004F00F0823FA08F3DB0710D5204635
:1068BC002149FEF7C3F910B12046FDF75FFF012314
:1068CC0003FA08F255F8273023EA020345F827307B
:1068DC00052E25D8DFE806F014201A1C1E2200F025
:1068EC00C002C02A22D1C92B20D8144B00F03F0281
:1068FC0053F822200E4B00F4E06053F82240C8E716
:10690C0000212046BDE8F041FEF7A8B91021F8E7B8
:10691C002021F6E70321F4E70121F2E70921F0E752
:10692C004921BDE8F0410648FEF780BABDE8F08188
:10693C0028780008A0040020C8740008007800081B
:10694C00A07A0008C3B2222B19D8184A00F4E060D0
:10695C0052F823301843C0F30313042B98BF144A86
:10696C0000F00F0098BF52F82320124B88BF002272
:10697C0053F82030C3F30F23A9B11361704700F013
:10698C00C002C02A0CD1C92B0AD80B4B00F03F0215
:10699C0053F82220054B00F4E06053F82230D9E77D
:1069AC004FF0FF30D7E75361704700BF28780008DD
:1069BC00080000206074000800780008FDF72EBF66
:1069CC0038B5044648B1FDF729FF054600F022F81A
:1069DC00FDF724FF431BA342F8D338BD08B5084B81
:1069EC002BB1084800F0DDF908B1AFF30080064B7D
:1069FC002BB10648FEF70AFE08B1AFF3008008BDC4
:106A0C0000000000B40400200000000084030020FB
:106A1C00FDF744BF7047D0F8C03210B56BB1D0F859
:106A2C00BC4294F80002FF2807D09B68214694F8DA
:106A3C0001229847FF2384F80032002010BD00008B
:106A4C004323038000487047D00000204323038079
:106A5C00004870471401002043230380004870470E
:106A6C00640100200A23038000487047580100206D
:106A7C0038B5D0F8BC4205466CB1FFF75CFED5F8D2
:106A8C00C032C4F80C02DB68D4F8040204F50371BC
:106A9C009847002038BD0320FCE7F8B5D0F8BC625D
:106AAC0005460A4626B3142707FB0107BB699BB1B1
:106ABC004FF0280CD0F8C4420CFB0144D4F838C079
:106ACC00B3FBFCF40CFB143434B923462246BC61F2
:106ADC00FFF723FE2046F8BD0024D5F8C032D6F8C7
:106AEC0008021B69C6F8144206F504719847F1E7D1
:106AFC000320F0E72DE9F7434FF000080A7805462C
:106B0C0012F060040E46D0F8BC728DF80580ADF81A
:106B1C00068028D0202C5ED1CC884B78E4B11206AC
:106B2C0011D5D0F8C0223946D2F808901846224622
:106B3C00C84739462846F288FFF788FC4446204669
:106B4C0003B0BDE8F0832246394687F8003287F857
:106B5C000142FFF790FCF1E7D0F8C0221846956887
:106B6C002246A847EBE74F780B2F34D801A353F8F4
:106B7C0027F000BFB16B00084B6B0008E36B0008FB
:106B8C00E36B0008E36B0008E36B0008E36B0008A1
:106B9C00E36B0008E36B0008E36B0008C76B0008AD
:106BAC00DB6B000890F89C32032B14D102220DF100
:106BBC000601FFF74BFC3C46C1E790F89C32032BD7
:106BCC0009D101220DF10501FFF740FCB7E790F860
:106BDC009C32032BB3D031462846FFF710FC03241C
:106BEC00ADE700BF38B5044600258221FFF767FDED
:106BFC0001212046A4F84C50FFF761FD832120466B
:106C0C00A4F87851FFF75BFDD4F8BC3225664BB184
:106C1C00D4F8C0325B689847D4F8BC0200F090FA04
:106C2C00C4F8BC52002038BD2DE9F04104464FF4A5
:106C3C00077000F07DFA0546C4F8BC0218B90226AC
:106C4C003046BDE8F081237C9BBB4FF400730222DD
:106C5C00822120460126FFF728FD4FF40073A4F88B
:106C6C004C60314602222046FFF71FFD10234FF0E7
:106C7C000108002703228321A4F87861A4F862306C
:106C8C0020460823FFF711FDD4F8C032A4F8608029
:106C9C001B689847267CC5F81472C5F818729EB903
:106CAC004FF4007341462046D5F80422FFF73CFD13
:106CBC00C6E701264023022282212046FFF7F5FC7D
:106CCC004023A4F84C60CCE7402341462046D5F83D
:106CDC000422FFF729FD3E46B2E719B1C0F8C012F5
:106CEC000020704703207047D0F8BC320020C3F856
:106CFC000812C3F810227047D0F8BC320020C3F839
:106D0C0004127047D0F8BC2210B57AB1D2F81442F4
:106D1C0001236CB9C2F81432D2F810328221D2F8A5
:106D2C0008220364FFF7F9FC204610BD0320FCE7A2
:106D3C001846FAE7D0F8BC2210B582B1047CD2F820
:106D4C00042234B94FF400730121FFF7EDFC204607
:106D5C0010BD40230121FFF7E7FC0024F7E70324D3
:106D6C00F5E708B5D0F8BC3233B1002301211A463F
:106D7C00FFF7DAFC002008BD0320FCE7B0F8662022
:106D8C00836E134403F03F03A0F86630B0F866300E
:106D9C00B0F862009BB298424FF0FF3018BF002051
:106DAC007047B0F8F830B0F8F400181A00F03F0053
:106DBC007047B0F8F830B0F8F4209BB293421ABF89
:106DCC00D0F8EC30985C4FF0FF307047B0F8FA30E8
:106DDC0090F8F620D8B2824227BFC2F13F02801849
:106DEC00801A00F1FF30704707B503688DF8071063
:106DFC0001225B680DF10701984703B05DF804FBB5
:106E0C002DE9F84301230374D0F8E4300446013330
:106E1C000D46904600F1940908D190F800312BB141
:106E2C00002380F800314846FEF754F94646B4F882
:106E3C00F670BB19402B0AD92368C7F140072946C5
:106E4C003A4620465B689847F61B3D44EFE7402ED8
:106E5C0007D1236829463F2220465B6898470126C4
:106E6C003F35AF19BD42B4F8F6200FD0531C03F0D8
:106E7C003F03B4F8FA1089B28B42FAD015F8010B23
:106E8C00D4F8F0108854A4F8F630EBE7B4F8FA30E4
:106E9C00334403F03F039A42F8D14846C4F8FC60EF
:106EAC00FEF7E6F820B9324648460349FEF7F2F8F9
:106EBC004046BDE8F88300BF896D0008037C33B100
:106ECC00B0F8F620B0F8FA309BB29A42FAD170477B
:106EDC00914208BF4FF0FF3100F11103C0F8EC30C4
:106EEC000023C0E9382100F15102A0F8F830C0E9C4
:106EFC003C23A0F8FA307047CBB2222B08D80E4AAC
:106F0C0001F4E06152F823301943C0F8E4107047E3
:106F1C0001F0C002C02A0CD1C92B0AD8074B01F0D2
:106F2C003F0253F82220044B01F4E06153F8223065
:106F3C00EAE74FF0FF31E8E728780008007800080E
:106F4C00CBB2222B08D80E4A01F4E06152F8233060
:106F5C001943C0F8E010704701F0C002C02A0CD1F0
:106F6C00C92B0AD8074B01F03F0253F82220044BDF
:106F7C0001F4E06153F82230EAE74FF0FF31E8E723
:106F8C00287800080078000870B54FF47A7316461C
:106F9C000022C0E90123154B044603604FF0FF3378
:106FAC00C0F8E430124B0D46984211D10A21FFF77C
:106FBC00A3FF0B21FFF7C4FF012E04BF4FF0FF33DB
:106FCC00C4F8E4302046D4E93821FFF781FF70BDC6
:106FDC0008492846FDF724FF0749C4F8E400284671
:106FEC00FDF71EFFC4F8E000E6E700BF207B0008B9
:106FFC0084030020CC76000808770008D0F8E43031
:10700C0010B5013304460ED10368DB68984794F839
:10701C00003143B9012304F1940084F80031BDE838
:10702C001040FEF765B810BD10B50446FFF7E6FF3B
:10703C00B4F8F820B4F8F43092B29A4217BFD4F8EE
:10704C00EC204FF0FF30D05C01331CBF03F03F034A
:10705C00A4F8F43010BD0000002202490248FFF7EA
:10706C0093BF00BF00380140B404002010B50446A3
:10707C00FFF7A4FCE060236820465B699847002872
:10708C0008DAFFF79BFCE368C01AA3689842F2D3B6
:10709C004FF0FF3010BDF8B506460D4617460024DC
:1070AC00BC4207D03046FFF7E1FF031E02DB2B5535
:1070BC000134F5E72046F8BD2DE9F0410746884636
:1070CC0016461D4673B100243846FFF7CFFF031E4A
:1070DC0005DB434503D033550134A542F4D120469A
:1070EC00BDE8F0811C46FAE770B500260C4D0D4C3E
:1070FC00641BA410A64209D100F054F900260A4DD5
:10710C000A4C641BA410A64205D170BD55F8043B73
:10711C0098470136EEE755F8043B98470136F2E7FD
:10712C00A47B0008A47B0008A47B0008B87B0008A3
:10713C00024B0146186800F06DB800BFA801002092
:10714C00024B0146186800F019B800BFA8010020D6
:10715C000A44914200F1FF3300D1704710B511F889
:10716C00014B914203F8014FF9D110BD0346024483
:10717C00934200D1704703F8011BF9E738B5054677
:10718C00002943D051F8043C0C1F002BB8BFE41865
:10719C0000F0ACF81E4A1368104633B963601460F3
:1071AC002846BDE8384000F0A7B8A3420AD92168A8
:1071BC006218934201BF1A685B68521822606360C0
:1071CC000460EDE71A465B680BB1A342FAD911686B
:1071DC005018A0420BD12068014450188342116012
:1071EC00DED118685B68014411605360D8E702D99E
:1071FC000C232B60D4E7206821188B4201BF19683F
:10720C005B680918216063605460C9E738BD00BF32
:10721C00BC050020F8B5CD1C25F0030508350C2D58
:10722C0038BF0C25002D064601DBA94203D90C23DF
:10723C0033600020F8BD00F059F821490A68144663
:10724C009CB9204F3B6823B92146304600F03CF8EE
:10725C0038602946304600F037F8431C23D10C2304
:10726C003046336000F048F8E3E723685B1B17D423
:10727C000B2B03D923601C44256004E06368A242F5
:10728C000CBF0B605360304600F036F804F10B0075
:10729C00231D20F00700C21ACCD01B1AA350C9E73B
:1072AC0022466468CCE7C41C24F00304A042E3D05B
:1072BC00211A304600F008F80130DDD1CFE700BFCD
:1072CC00BC050020C005002038B50023054D044640
:1072DC0008462B60FDF784FF431C02D12B6803B1D9
:1072EC00236038BDD00D0020704770470148FFF770
:1072FC00FBBF00BFD80D00200148FFF7F6BF00BF51
:10730C00D80D0020062008B500F02CF80120FDF760
:10731C0085FF1F2938B504460D4604D91623036092
:10732C004FF0FF3038BD426C12B152F821304BB9DE
:10733C00204600F031F82A4601462046BDE8384088
:10734C0000F018B8012B0AD0591C03D11623036086
:10735C000120E7E70024284642F825409847002002
:10736C00E0E70000024B01461868FFF7D2BF00BFF0
:10737C00A801002038B50023064D044608461146E6
:10738C002B60FDF74DFF431C02D12B6803B123602A
:10739C0038BD00BFD00D0020FDF74ABF08B5FFF780
:1073AC00B1FF0000F8B500BFF8BC08BC9E467047A2
:0C73BC00F8B500BFF8BC08BC9E46704746
:1073C8003233323332320002030405060708090A51
:1073D8000B0C0D0E0F101000433A5C557365727359
:1073E8005C6C6B686F615C417070446174615C4C8B
:1073F8006F63616C5C41726475696E6F31355C7086
:1074080061636B616765735C53544D6963726F6543
:107418006C656374726F6E6963735C6861726477BC
:107428006172655C73746D33325C322E302E305C61
:107438006C69627261726965735C537263577261D9
:10744800707065725C7372635C73746D33325C70F8
:10745800696E6D61702E6300010100000202000078
:10746800040400000808000010100000202000009C
:107478004040000080800000010001040200020476
:10748800040004040800080410001004200020046C
:10749800400040048000800400000000000000005C
:1074A800010203040607080954494D3A20556E6B3A
:1074B8006E6F776E2074696D6572204952516E0047
:1074C80000000000000000401280000000010000E1
:1074D8000000004012900000010000000000004081
:1074E800121201000101000000000040121001000A
:1074F800020000000000004012920100020100009A
:10750800000000401291010003000000000000404C
:1075180012120200030100000000004012110200D4
:10752800060000000004004012950000070000005B
:10753800002C0140128D10000701000000040040DB
:107548001215010008000000002C0140128E0000F6
:1075580008010000002C0140128D00000900000005
:10756800002C0140120E010009010000002C01400E
:10757800120D01000A000000002C0140128E0100CB
:107588000A010000002C0140128D01000B000000D0
:10759800002C0140120E02000B010000002C0140DB
:1075A800120D02000F0000000000004012910000C0
:1075B8000F01000000000040128F000010000000C2
:1075C800002C0140120D11001001000000040040C1
:1075D80012950100100200000004004012940100FE
:1075E80011000000002C0140128D11001101000053
:1075F80000040040121502001102000000040040BF
:1076080012140200130000000000004012110100D3
:107618001301000000000040120F010014000000D8
:10762800000400401294000015000000000400400F
:107638001214010016000000000800401297000014
:107648001700000000080040121701001800000091
:1076580000080040129701001900000000080040CF
:10766800121702001A0000000000004012900100EA
:107678001A01000000000040128F01001B000000EA
:1076880000000040121002001B0100000000004032
:10769800120F02001D000000002C0140128E100085
:1076A8001E000000002C0140120E11001F000000F7
:1076B800002C0140128E1100FFFFFFFF00000000A8
:1076C8000000000003000000004400401008000013
:1076D8000A000000003801401006000017000000F2
:1076E80000380140100500001B0000000048004061
:1076F80010000000FFFFFFFF000000000000000076
:1077080002000000004400401208000009000000C8
:107718000038014012060000160000000038014041
:10772800120500001A000000004800401200000086
:10773800FFFFFFFF00000000000000000B0000003A
:10774800005C0040000000000C000000005C0040ED
:1077580000000000FFFFFFFF000000000000000025
:10776800433A5C55736572735C6C6B686F615C411E
:107778007070446174615C4C6F63616C5C417264ED
:1077880075696E6F31355C7061636B616765735CD9
:1077980053544D6963726F656C656374726F6E697B
:1077A80063735C68617264776172655C73746D336E
:1077B800325C322E302E305C76617269616E747381
:1077C8005C53544D3332463178785C46313033431C
:1077D80038545F46313033434228542D55295C765E
:1077E800617269616E745F50494C4C5F4631303349
:1077F80043782E637070000014000000150000002C
:107808001600000017000000180000001900000012
:107818001A0000001B0000001C0000001D000000F2
:1078280019000000180000001700000016000000F2
:107838001500000014000000130000000F000000F5
:107848000C0000000B0000000A0000000900000006
:10785800080000001F0000001E0000001D000000BE
:107868001C0000002D0000002E0000002F0000006A
:1078780000000000010000000200000003000000FA
:1078880004000000050000000600000007000000DA
:1078980010000000110000001A0000001B0000008A
:1078A800120000000D0000000E000000433A5C5575
:1078B800736572735C6C6B686F615C417070446176
:1078C80074615C4C6F63616C5C41726475696E6F66
:1078D80031355C7061636B616765735C53544D69E6
:1078E80063726F656C656374726F6E6963735C68ED
:1078F800617264776172655C73746D33325C322EC9
:10790800302E305C636F7265735C61726475696E8A
:107918006F5C486172647761726554696D65722E37
:10792800637070000D0A00000000000000000000F5
:10793800AD550008D1550008C5550008FD5600088A
:107948001956000825560008F15600083D5600084B
:1079580089560008433A5C55736572735C6C6B68B2
:107968006F615C417070446174615C4C6F63616C01
:107978005C41726475696E6F31355C7061636B610F
:107988006765735C53544D6963726F656C656374A6
:10799800726F6E6963735C68617264776172655C4B
:1079A80073746D33325C322E302E305C636F7265C7
:1079B800735C61726475696E6F5C73746D33325C8D
:1079C8007573625C757362645F636F6E662E6300C5
:1079D80053544D6963726F656C656374726F6E6939
:1079E800637300424C554550494C4C5F4631303327
:1079F80043382043444320696E204853204D6F6428
:107A08006500424C554550494C4C5F463130334334
:107A1800382043444320696E204653204D6F6465E7
:107A280000424C554550494C4C5F46313033433841
:107A38002043444320436F6E66696700424C5545B6
:107A480050494C4C5F46313033433820434443203F
:107A5800496E74657266616365000000000000008D
:107A6800200000000000000080000000600000000E
:107A78000000000001000000E000A000010000007C
:107A880082000000200100000000000083000000C8
:107A98002801000000000000433A5C5573657273CA
:107AA8005C6C6B686F615C417070446174615C4CC4
:107AB8006F63616C5C41726475696E6F31355C70BF
:107AC80061636B616765735C53544D6963726F657D
