:020000040800F2
:10000000C009002089010008AF110008AB110008E9
:10001000AD1100088B020008BD14000800000000AC
:10002000000000000000000000000000B311000804
:100030008D02000800000000B1110008B511000891
:10004000A3010008A3010008A3010008A301000800
:10005000A3010008A3010008A3010008A3010008F0
:10006000A3010008A3010008A3010008A3010008E0
:10007000A3010008A3010008A3010008A3010008D0
:10008000A3010008A3010008A3010008A3010008C0
:10009000A3010008A3010008A3010008A3010008B0
:1000A000A3010008A3010008A3010008A3010008A0
:1000B000A3010008A3010008A3010008A301000890
:1000C000A3010008A3010008A3010008A301000880
:1000D000A3010008A301000885140008A30100087B
:1000E000A3010008A3010008A301000800F002F822
:1000F00000F03AF80AA090E8000C82448344AAF188
:100100000107DA4501D100F02FF8AFF2090EBAE885
:100110000F0013F0010F18BFFB1A43F0010318473B
:10012000C0140000E0140000103A24BF78C878C161
:10013000FAD8520724BF30C830C144BF04680C60ED
:10014000704700000023002400250026103A28BF35
:1001500078C1FBD8520728BF30C148BF0B60704739
:100160001FB51FBD10B510BD00F058F81146FFF7C0
:10017000F7FF01F0B5F900F076F803B4FFF7F2FFEE
:1001800003BC00F07BF8000009488047094800479D
:10019000FEE7FEE7FEE7FEE7FEE7FEE7FEE7FEE737
:1001A000FEE7FEE704480549054A064B7047000094
:1001B0002F120008ED000008C0030020C009002035
:1001C000C0050020C00500204FF0000200B5134616
:1001D00094469646203922BFA0E80C50A0E80C5067
:1001E000B1F12001BFF4F7AF090728BFA0E80C5018
:1001F00048BF0CC05DF804EB890028BF40F8042B11
:1002000008BF704748BF20F8022B11F0804F18BF7D
:1002100000F8012B7047704770477047754600F033
:1002200029F8AE4605006946534620F0070085468A
:1002300018B020B5FFF7B6FFBDE820404FF000062C
:100240004FF000074FF000084FF0000B21F00701BE
:10025000AC46ACE8C009ACE8C009ACE8C009ACE801
:10026000C0098D4670470446AFF300802046FFF773
:1002700084FF0000004870475C03002001491820FB
:10028000ABBEFEE7260002007047FEE7704710B5E0
:1002900090F821100022022905D00421816380F802
:1002A0002020012010BD01680B6823F00E030B60B5
:1002B00001680B6823F001030B6090F84030C46BB9
:1002C000012101FA03F3636080F8211080F82020F7
:1002D000104610BD10B590F821100024022903D05B
:1002E0000421816301243DE001680A6822F00E02C6
:1002F0000A6001680A6822F001020A601A4A01686D
:10030000914201D1012121E0174A1432914201D1D9
:1003100010211BE0144A2832914201D1891515E0C1
:10032000114A3C32914201D189140FE00E4A5032F9
:10033000914202D14FF4803108E00B4A643291427D
:1003400002D14FF4801101E04FF08071064A083A63
:100350005160012180F82110002180F82010416BAC
:1003600001B18847204610BD080002402DE9F84F32
:10037000DFF8B8910024A9F1040B23460F2709F1F7
:10038000040AABF1040EC9E00125A5402A40AA42A7
:100390007DD1674ED1F804C0ACEB0608B44532D02D
:1003A00014DCBCF1030F3AD009DCBCF1000F2AD0F9
:1003B000BCF1010F1CD0BCF1020F31D11DE0BCF12A
:1003C000110F17D0BCF1120F2AD119E0B8F5881F10
:1003D00019D006DCB8F5803F15D0B8F5801F1FD1C5
:1003E00011E0B8F5001F0ED0B8F5041F18D10AE0CF
:1003F000CB6815E0CB681B1D12E0CB6808330FE01B
:10040000CB680C330CE08B682BB1012B4FF0080349
:1004100003D0456104E0042302E0056100E000230D
:10042000FF2A01D8064601E000F104064FEA8405E0
:1004300001D9A5F12005D6F8008007FA05FC28EAC5
:100440000C0803FA05F548EA0508C6F800804D686F
:10045000ED0062D5374DAE6946F00106AE61AD697B
:1004600024F0030605F001050095334D06EB050C5D
:10047000DCF80850A607360F07FA06F825EA080543
:10048000DFF8B880404503D14FF0000817E044E0A2
:10049000DFF8AC80404502D14FF001080FE0DFF8F3
:1004A000A480404502D14FF0020808E0DFF89880B0
:1004B000404502D14FF0030801E04FF0040808FA6C
:1004C00006F848EA0508CCF808804D68D9F80060BD
:1004D000ED024D4601D5164300E096432E604D686F
:1004E000DAF80060AD02554601D5164300E09643A8
:1004F0002E604D68DBF80060AD035D4601D5164304
:1005000000E096432E604D68DEF80060ED0375460E
:1005100001D5164300E096432E60641C0D682A4600
:10052000E5407FF431AFBDE8F88F000008040140DA
:1005300000001110001002400000014000080140BE
:10054000000C014000100140001401400148806887
:1005500070470000180000200248816802781144AA
:100560008160704718000020074810B5016841F00D
:1005700010010160032000F075F80F2000F006F86C
:1005800000F024F8002010BD0020024070B50D4D91
:1005900004464FF47A712878B1FBF0F00A490968F3
:1005A000B1FBF0F000F0C4FB48B9102C07D20022D8
:1005B0002146501E00F036F800206C6070BD01200E
:1005C00070BD000018000020240000200C4808B571
:1005D000816941F001018161816901F001010091AE
:1005E000C16941F08051C161C06900F08050009044
:1005F0000448416821F0E06141F00071416008BDAC
:100600000010024000000140002809DB00F01F023A
:10061000012191404009800000F1E020C0F8001164
:1006200070470000F0B40E4B1B680C46C3F3022366
:10063000C3F10705042D00D90425191D072901D28E
:10064000002300E0DB1E012606FA05F1491E2140C9
:1006500099409E40761E16403143F0BC00F02FBFFB
:100660000CED00E0064900F0070208684FF6FF03B2
:10067000184040EA0220034A104308607047000017
:100680000CED00E00000FA052DE9F041040004D073
:1006900094F89102002518B107E00120BDE8F0812F
:1006A00084F89052204600F04DF8032084F891021F
:1006B0006571206800F0F9FE94E80F0000F0E8FE94
:1006C000022698BB0021206800F0F6FE70BB0020D7
:1006D00001270BE000EB800104EBC1014F740874AB
:1006E000CD740D624D62401CC0B28D622179814291
:1006F000F0D8002012E000BF00EB800104EBC10144
:1007000081F8515181F8500181F85351C1F860517D
:10071000C1F86451401CC0B2C1F8685121798142CE
:10072000EAD894E80F0000F0B7FE10B184F89162A7
:10073000B3E7657384F89172206800F0ABFE002087
:10074000ACE7000008B500680649884208D10648B1
:10075000C16941F40001C161C06900F4000000906A
:1007600008BD0000005C0040001002402DE9F84385
:1007700005460078354CC00754D0E0690026C0001B
:1007800008D4E06940F08050E061E069012600F0A3
:10079000805000902E480168C90512D40168804637
:1007A00041F480710160FFF7D1FE074605E000BF0C
:1007B000FFF7CCFEC01B642823D8D8F80000C00582
:1007C000F6D5206A10F4407021D0A98801F4407158
:1007D00081421CD0206A1F49012220F440700A6027
:1007E00000220A602062C00711D0FFF7AFFE074663
:1007F00041F2883808E000BFFFF7A8FEC11B414561
:1008000002D90320BDE8F883206A8007F4D5206A66
:10081000696820F44070084320621EB1E06920F04E
:100820008050E0612878800705D56068A96820F4C9
:100830004040084360602878C00605D56068E968D4
:1008400020F48000084360600020DBE700100240D5
:1008500000700040400442422DE9F0470F46050079
:1008600061D0434E306800F00700B84209D23068CA
:1008700020F0070038433060306800F00700B842CD
:1008800051D128683B4C810712D5400703D56068D9
:1008900040F4E06060602878000703D5606840F4A9
:1008A000605060606068A96820F0F00008436060F4
:1008B0002878C00728D06868012810D0216802284D
:1008C00010D0890700292EDA616821F00301014365
:1008D0006160FFF73BFE804641F288390DE02168F8
:1008E0008903EFE78901EDE7FFF730FEA0EB080190
:1008F000494502D90320BDE8F0876068696800F0C7
:100900000C00B0EB810FEFD1306800F00700B84267
:100910000BD9306820F0070038433060306800F0B1
:100920000700B84201D00120E5E72878400705D547
:100930006068E96820F4E060084360602878000798
:1009400006D56068296920F4605040EAC100606003
:1009500000F038F86168084AC1F30311515CC840DF
:100960000649086006480068FFF710FE0020C2E74D
:100970000020024000100240C6150008240000209C
:100980001C0000200448054900684968044AC1F376
:100990000221515CC8407047240000200010024032
:1009A000D61500080448054900684968044AC1F39F
:1009B000C221515CC8407047240000200010024052
:1009C000D61500080E4A51680E4801F00C03042B9E
:1009D00011D0082B0FD10C48C1F38343C903C05C6D
:1009E0000AD55168084AC1F34041921E515C054A3C
:1009F0005043B0FBF1F07047044948437047000092
:100A00000010024000127A00B615000800093D00EF
:100A10002DE9F84F040070D02078C04DC00749D0B0
:100A20006868C0F38100012807D06868C0F38100BE
:100A3000022809D16868C00306D52868800339D523
:100A400060680028E7D035E06068B0F5803F0BD0E3
:100A500010B1B0F5A02F11D0286820F480302860A4
:100A6000286820F4802002E0286840F48030286064
:100A7000606890B1FFF76AFD06460AE0286840F416
:100A800080202860F0E700BFFFF760FD801B64282E
:100A900073D828688003F7D50CE0FFF757FD0646AA
:100AA00005E000BFFFF752FD801B6428F0D82868DE
:100AB0008003F7D420789A4E80074FF001094FF059
:100AC000000839D5686810F00C0F07D06868C0F3CB
:100AD0008100022809D16868C00306D4286880070D
:100AE00014D52069012808D110E02069B0B1C6F8FA
:100AF0000090FFF72BFD074605E00AE1FFF726FD12
:100B0000C01B0228C4D828688007F7D52868616907
:100B100020F0F80040EAC10028600DE0C6F800802F
:100B2000FFF714FD074604E0FFF710FDC01B022885
:100B300023D828688007F7D4207800072CD5794877
:100B4000A169D9B1C0F80090FFF700FD074604E0A5
:100B5000FFF7FCFCC01B02280FD8686A8007F7D596
:100B600071484FF4FA510068B0FBF1F0009000BFFB
:100B70000098411E0091FAD20EE080E0C0F800809B
:100B8000FFF7E4FC074604E0FFF7E0FCC01B022887
:100B900075D8686A8007F7D42078400760D5E8697F
:100BA0000027C00008D4E86940F08050E861E86997
:100BB000012700F0805000905C480168C90513D4FB
:100BC0000168834641F480710160FFF7BFFC8246F3
:100BD00006E000BFFFF7BAFCA0EB0A0064284ED87D
:100BE000DBF80000C005F5D5E06801280AD008B19F
:100BF000052813D0286A20F001002862286A20F016
:100C0000040002E0286A40F001002862E06841F236
:100C1000883B98B1FFF79AFC82460BE0286A40F0C7
:100C200004002862EEE700BFFFF790FCA0EB0A018A
:100C300059455AD8286A8007F6D50CE0FFF786FC9C
:100C4000824605E0FFF782FCA0EB0A0159454CD82B
:100C5000286A8007F6D41FB1E86920F08050E86167
:100C6000E06988B36968C1F38101022944D0022890
:100C7000C6F8608004D0FFF769FC044638E034E031
:100C8000FFF764FC074604E0FFF760FCC01B022886
:100C90002BD828688001F7D4206AB0F5803F05D1B1
:100CA0006868A16820F4003008436860D4E908014E
:100CB0000843696821F4741108436860C6F86090BD
:100CC000FFF744FC044606E025E000BFFFF73EFCCA
:100CD000001B022809D828688001F7D51BE000BF57
:100CE000FFF734FC001B022802D90320BDE8F88F6F
:100CF00028688001F4D40EE00128F7D06868226AE1
:100D000000F48031914204D1616A00F4701088428D
:100D100001D00120EAE70020E8E7000000100240CF
:100D20000000424280044242240000200070004043
:100D300010B5401EB0F1807F01D3012010BD4FF0EF
:100D4000E02460610F21601700F0B9FB0020A06172
:100D500007202061002010BD70477047F8B501687A
:100D600004460868CA684B6910F00F0F4FF0000581
:100D70005AD003F0010602F49077374365D0C107DB
:100D800005D0D10503D5616C41F0010161644107D3
:100D900005D5D90703D0616C41F002016164810778
:100DA00005D5D90703D0616C41F0040161640107E6
:100DB00007D502F02001314303D0616C41F00801F6
:100DC0006164616C00293BD0800604D5900602D591
:100DD000204600F05CFA20684069616CC0F3801026
:100DE00001F00801014320462BD000F029FA2068C9
:100DF0004069400621D52068143050E8001F21F0DA
:100E0000400140E80012002AF5D1E06BA8B16D491D
:100E10004163E06BFFF75EFA002811D0E06B416B95
:100E200001B0BDE8F040084783060ED593060CD507
:100E30002046BDE8F84000F02ABA2046FFF78DFFB3
:100E4000F8BDFFF78AFF6564F8BD266B2023012EED
:100E50007CD1C6067AD5D60678D508684868009051
:100E600048694FF00206400640D5E16B08684068CB
:100E70000004000CE8D0A28D8242E5D9E0858869A3
:100E800020282DD020680C3050E8001F21F48071FC
:100E900040E80012002AF5D12168143151E8000F12
:100EA00020F0010041E80002002AF5D1206814304A
:100EB00050E8001F21F0400140E80012002AF5D15F
:100EC00084F84230256320680C3050E8001F21F080
:100ED000100140E80012002AF5D1E06BFFF7D7F9C6
:100EE0006663A08DE18D401A81B22AE0A08DE18D6C
:100EF000401A81B2E08D0028A6D00029A4D0226833
:100F00000C3252E8000F20F4907042E80007002FE6
:100F1000F5D12068143050E8002F22F0010240E89B
:100F20000027002FF5D184F84230256320680C306B
:100F300050E8002F22F0100240E80023002BF5D1EA
:100F400066632046FFF708FFF8BDFFE705062BD5CF
:100F5000150629D594F841002128F5D1A068B0F5EF
:100F6000805F01D12069B0B1206A411C21622168F3
:100F700000784860E08C401E0004000CE084E3D15F
:100F80002068C16821F08001C1602068C16841F01B
:100F90004001C160D8E7206A0088C0F308004860BB
:100FA000206A801C2062E5E74006CDD55006CBD5EF
:100FB000CA68204622F04002CA6084F8413000F03E
:100FC000F3F8C1E73112000870B5040004D094F8BA
:100FD0004100002510B106E0012070BD84F84050AA
:100FE000204600F023F8242084F841002068C168DE
:100FF00021F40051C160204600F0AAF9206801697F
:1010000021F4904101612068416921F02A01416188
:101010002068C16841F40051C1606564202084F8F3
:10102000410084F842006563002070BD30B585B092
:1010300000240094019402940394006818498842A3
:101040002BD11848C16941F40031C161C16901F473
:1010500000310491816941F0040181618069124D80
:1010600000F004000490042000900220019003206E
:10107000039069462846FFF779F90820CDE9000476
:10108000694628460294FFF771F90022114626208E
:10109000FFF7C8FA2620FFF7B7FA05B030BD000009
:1010A00000440040001002400008014090F8423027
:1010B000202B01D00220704721B11AB10023036315
:1010C00000F08CB90120704700680B49884212D1AA
:1010D0000A490A78332A05D0094B48781A54401C2B
:1010E000487003E000204870012048800122034935
:1010F0000448FFF7DBBF70470044004000000020B9
:1011000048030020280000202DE9F843044690F809
:101110004100984616460D46202802D00220BDE820
:10112000F88385B17EB100206064212084F84100FD
:10113000FFF70CFAA6848146E684A0682027B0F564
:10114000805F02D003E00120E9E7206910B12E465C
:1011500000250EE000260CE08021204600F059F921
:10116000A8B9C6B116F8010B21684860E08C401E92
:10117000E084E08C4B464FF00002CDF80080002860
:10118000EAD14FF04001204600F043F940B184F825
:1011900041700320C3E735F8020BC0F30800E3E712
:1011A00084F841700020BAE77047FEE7FEE7FEE7EB
:1011B00070477047FFF7D0B930B593B02821684623
:1011C000FFF702F814210AA8FEF7FEFF0024012011
:1011D0000F9410941194010412948DE8130004905C
:1011E0000005CDE90810022507956846FFF710FCB9
:1011F00008B172B6FEE70F20CDE90A054FF4806012
:10120000CDE90C4001210AA80E94FFF725FB08B197
:1012100072B6FEE710200F90800412900FA8FFF71F
:10122000A5FA002801D072B6FEE713B030BD7047B2
:1012300010B5406A0021C185C184FFF78EFD10BD45
:1012400001680C3151E8002F22F4907241E800232C
:10125000002BF5D10168143151E8002F22F0010272
:1012600041E80023002BF5D1016B012909D1016868
:101270000C3151E8002F22F0100241E80023002B2E
:10128000F5D1202180F8421000210163704708B594
:1012900090F84210222901D0022008BD82684FF444
:1012A00080539A4201D1016921B1816A9A421BD0CF
:1012B0004AB10AE00268816A5268C2F308020A80F1
:1012C000816A891C08E0026972B10268526802F002
:1012D0007F020A70816A491C8162C18D491E09041E
:1012E000090CC18503D01BE002685268F1E7016870
:1012F000CA6822F02002CA600168CA6822F48072BB
:10130000CA6001684A6922F001024A61202180F81E
:10131000421000214163026B012A03D0FFF7D4FE83
:10132000002008BD016301680C3151E8002F22F054
:10133000100241E80023002BF5D101680A68D206AB
:1013400002D50A6849680091818DFFF705FDE7E73E
:1013500010B5044600680169E26821F44051114368
:1013600001612169A0680843616908432168CA686E
:1013700041F20C639A430243CA6020684169A26942
:1013800021F440711143416113492068884202D120
:10139000FFF708FB01E0FFF7F5FA00EBC00101EBF6
:1013A0000010616864228900B0FBF1F1B1FBF2F03A
:1013B0006FF01803434301EB8303322101EB031168
:1013C000B1FBF2F101F0F00202EB001001F00F01AD
:1013D00008442168886010BD003801408162828520
:1013E000C28500214164222180F84210016921B1A7
:1013F0000168CA6842F48072CA6001684A6942F0B2
:1014000001024A610068C16841F02001C16000200A
:1014100070472DE9F843984617460D460446089E46
:1014200024E0701C22D0FFF791F8A0EB0800B04236
:101430001AD8CEB12068C168490717D5802D15D0BC
:10144000402D13D00168C94309070FD40168002556
:10145000406800902046FFF7F3FE0820606484F89F
:1014600040500120BDE8F8830320FBE720680068B6
:1014700035EA000004D00020B842D2D00020F1E7C5
:101480000120F9E70148FFF769BC000028000020AF
:101490000020704700207047012120F8401F0021E4
:1014A0000180818001820846704730F8401F21F496
:1014B0003F4101800020704700207047FEE7090788
:1014C000090E002804DB00F1E02080F800147047CA
:1014D00000F00F0000F1E02080F8141D70470000BC
:1014E00008B5FFF741F8FFF767FE2C48816941F026
:1014F00020018161816901F020010091816941F041
:10150000040181618069264900F0040000902548AB
:10151000002401604FF41651C0E901140C21C4608D
:10152000C0E904418461C461FFF74EFD08B172B6A1
:10153000FEE71C481C494830016008210171022166
:1015400081718472C4720473FFF79EF808B172B699
:10155000FEE74FF47A773B46142214491148FFF70F
:10156000D3FD12490122091F0E48FFF79FFD0F4DC1
:101570000F4EB8462F1F78880028FCD00020315C21
:101580002954401CC0B21428F9D3434614220749F9
:101590000448FFF7B9FD7C80EDE700000010024031
:1015A0000044004028000020005C004004000020AF
:1015B00048030020010202030405060708090A0B7C
:1015C0000C0D0E0F101000000000000000000102C2
:1015D00003040607080900000000010203040000DC
:1015E0000016000800000020280000002801000864
:1015F000281600082800002098090000440100086F
:1016000000000000796F752772652077656C636F45
:101610006D650000000000000100000010000000E7
:081620000000000000127A0036
:04000005080000ED02
:00000001FF
